{
  "contractName": "JURTokenMock",
  "abi": [
    {
      "anonymous": false,
      "inputs": [
        {
          "indexed": true,
          "internalType": "address",
          "name": "owner",
          "type": "address"
        },
        {
          "indexed": true,
          "internalType": "address",
          "name": "spender",
          "type": "address"
        },
        {
          "indexed": false,
          "internalType": "uint256",
          "name": "value",
          "type": "uint256"
        }
      ],
      "name": "Approval",
      "type": "event"
    },
    {
      "anonymous": false,
      "inputs": [
        {
          "indexed": true,
          "internalType": "address",
          "name": "from",
          "type": "address"
        },
        {
          "indexed": true,
          "internalType": "address",
          "name": "to",
          "type": "address"
        },
        {
          "indexed": false,
          "internalType": "uint256",
          "name": "value",
          "type": "uint256"
        }
      ],
      "name": "Transfer",
      "type": "event"
    },
    {
      "constant": true,
      "inputs": [
        {
          "internalType": "address",
          "name": "owner",
          "type": "address"
        },
        {
          "internalType": "address",
          "name": "spender",
          "type": "address"
        }
      ],
      "name": "allowance",
      "outputs": [
        {
          "internalType": "uint256",
          "name": "",
          "type": "uint256"
        }
      ],
      "payable": false,
      "stateMutability": "view",
      "type": "function"
    },
    {
      "constant": false,
      "inputs": [
        {
          "internalType": "address",
          "name": "spender",
          "type": "address"
        },
        {
          "internalType": "uint256",
          "name": "amount",
          "type": "uint256"
        }
      ],
      "name": "approve",
      "outputs": [
        {
          "internalType": "bool",
          "name": "",
          "type": "bool"
        }
      ],
      "payable": false,
      "stateMutability": "nonpayable",
      "type": "function"
    },
    {
      "constant": true,
      "inputs": [
        {
          "internalType": "address",
          "name": "account",
          "type": "address"
        }
      ],
      "name": "balanceOf",
      "outputs": [
        {
          "internalType": "uint256",
          "name": "",
          "type": "uint256"
        }
      ],
      "payable": false,
      "stateMutability": "view",
      "type": "function"
    },
    {
      "constant": true,
      "inputs": [],
      "name": "decimals",
      "outputs": [
        {
          "internalType": "uint8",
          "name": "",
          "type": "uint8"
        }
      ],
      "payable": false,
      "stateMutability": "view",
      "type": "function"
    },
    {
      "constant": false,
      "inputs": [
        {
          "internalType": "address",
          "name": "spender",
          "type": "address"
        },
        {
          "internalType": "uint256",
          "name": "subtractedValue",
          "type": "uint256"
        }
      ],
      "name": "decreaseAllowance",
      "outputs": [
        {
          "internalType": "bool",
          "name": "",
          "type": "bool"
        }
      ],
      "payable": false,
      "stateMutability": "nonpayable",
      "type": "function"
    },
    {
      "constant": false,
      "inputs": [
        {
          "internalType": "address",
          "name": "spender",
          "type": "address"
        },
        {
          "internalType": "uint256",
          "name": "addedValue",
          "type": "uint256"
        }
      ],
      "name": "increaseAllowance",
      "outputs": [
        {
          "internalType": "bool",
          "name": "",
          "type": "bool"
        }
      ],
      "payable": false,
      "stateMutability": "nonpayable",
      "type": "function"
    },
    {
      "constant": true,
      "inputs": [],
      "name": "symbol",
      "outputs": [
        {
          "internalType": "string",
          "name": "",
          "type": "string"
        }
      ],
      "payable": false,
      "stateMutability": "view",
      "type": "function"
    },
    {
      "constant": true,
      "inputs": [],
      "name": "totalSupply",
      "outputs": [
        {
          "internalType": "uint256",
          "name": "",
          "type": "uint256"
        }
      ],
      "payable": false,
      "stateMutability": "view",
      "type": "function"
    },
    {
      "constant": false,
      "inputs": [
        {
          "internalType": "address",
          "name": "recipient",
          "type": "address"
        },
        {
          "internalType": "uint256",
          "name": "amount",
          "type": "uint256"
        }
      ],
      "name": "transfer",
      "outputs": [
        {
          "internalType": "bool",
          "name": "",
          "type": "bool"
        }
      ],
      "payable": false,
      "stateMutability": "nonpayable",
      "type": "function"
    },
    {
      "constant": false,
      "inputs": [
        {
          "internalType": "address",
          "name": "sender",
          "type": "address"
        },
        {
          "internalType": "address",
          "name": "recipient",
          "type": "address"
        },
        {
          "internalType": "uint256",
          "name": "amount",
          "type": "uint256"
        }
      ],
      "name": "transferFrom",
      "outputs": [
        {
          "internalType": "bool",
          "name": "",
          "type": "bool"
        }
      ],
      "payable": false,
      "stateMutability": "nonpayable",
      "type": "function"
    },
    {
      "constant": false,
      "inputs": [
        {
          "internalType": "address",
          "name": "account",
          "type": "address"
        },
        {
          "internalType": "uint256",
          "name": "amount",
          "type": "uint256"
        }
      ],
      "name": "mint",
      "outputs": [],
      "payable": false,
      "stateMutability": "nonpayable",
      "type": "function"
    }
  ],
  "bytecode": "0x6080604052610a67806100136000396000f3fe608060405234801561001057600080fd5b50600436106100c95760003560e01c806340c10f1911610081578063a457c2d71161005b578063a457c2d714610279578063a9059cbb146102a5578063dd62ed3e146102d1576100c9565b806340c10f19146101a857806370a08231146101d657806395d89b41146101fc576100c9565b806323b872dd116100b257806323b872dd14610128578063313ce5671461015e578063395093511461017c576100c9565b8063095ea7b3146100ce57806318160ddd1461010e575b600080fd5b6100fa600480360360408110156100e457600080fd5b506001600160a01b0381351690602001356102ff565b604080519115158252519081900360200190f35b61011661031c565b60408051918252519081900360200190f35b6100fa6004803603606081101561013e57600080fd5b506001600160a01b03813581169160208101359091169060400135610322565b6101666103af565b6040805160ff9092168252519081900360200190f35b6100fa6004803603604081101561019257600080fd5b506001600160a01b0381351690602001356103b4565b6101d4600480360360408110156101be57600080fd5b506001600160a01b038135169060200135610408565b005b610116600480360360208110156101ec57600080fd5b50356001600160a01b0316610416565b610204610431565b6040805160208082528351818301528351919283929083019185019080838360005b8381101561023e578181015183820152602001610226565b50505050905090810190601f16801561026b5780820380516001836020036101000a031916815260200191505b509250505060405180910390f35b6100fa6004803603604081101561028f57600080fd5b506001600160a01b038135169060200135610450565b6100fa600480360360408110156102bb57600080fd5b506001600160a01b0381351690602001356104be565b610116600480360360408110156102e757600080fd5b506001600160a01b03813581169160200135166104d2565b600061031361030c6104fd565b8484610501565b50600192915050565b60025490565b600061032f8484846105ed565b6103a58461033b6104fd565b6103a08560405180606001604052806028815260200161099d602891396001600160a01b038a166000908152600160205260408120906103796104fd565b6001600160a01b03168152602081019190915260400160002054919063ffffffff61074916565b610501565b5060019392505050565b601281565b60006103136103c16104fd565b846103a085600160006103d26104fd565b6001600160a01b03908116825260208083019390935260409182016000908120918c16815292529020549063ffffffff6107e016565b6104128282610841565b5050565b6001600160a01b031660009081526020819052604090205490565b60405180604001604052806003815260200162252aa960e91b81525081565b600061031361045d6104fd565b846103a085604051806060016040528060258152602001610a0e60259139600160006104876104fd565b6001600160a01b03908116825260208083019390935260409182016000908120918d1681529252902054919063ffffffff61074916565b60006103136104cb6104fd565b84846105ed565b6001600160a01b03918216600090815260016020908152604080832093909416825291909152205490565b3390565b6001600160a01b0383166105465760405162461bcd60e51b81526004018080602001828103825260248152602001806109ea6024913960400191505060405180910390fd5b6001600160a01b03821661058b5760405162461bcd60e51b81526004018080602001828103825260228152602001806109556022913960400191505060405180910390fd5b6001600160a01b03808416600081815260016020908152604080832094871680845294825291829020859055815185815291517f8c5be1e5ebec7d5bd14f71427d1e84f3dd0314c0f7b2291e5b200ac8c7c3b9259281900390910190a3505050565b6001600160a01b0383166106325760405162461bcd60e51b81526004018080602001828103825260258152602001806109c56025913960400191505060405180910390fd5b6001600160a01b0382166106775760405162461bcd60e51b81526004018080602001828103825260238152602001806109326023913960400191505060405180910390fd5b6106ba81604051806060016040528060268152602001610977602691396001600160a01b038616600090815260208190526040902054919063ffffffff61074916565b6001600160a01b0380851660009081526020819052604080822093909355908416815220546106ef908263ffffffff6107e016565b6001600160a01b038084166000818152602081815260409182902094909455805185815290519193928716927fddf252ad1be2c89b69c2b068fc378daa952ba7f163c4a11628f55a4df523b3ef92918290030190a3505050565b600081848411156107d85760405162461bcd60e51b81526004018080602001828103825283818151815260200191508051906020019080838360005b8381101561079d578181015183820152602001610785565b50505050905090810190601f1680156107ca5780820380516001836020036101000a031916815260200191505b509250505060405180910390fd5b505050900390565b60008282018381101561083a576040805162461bcd60e51b815260206004820152601b60248201527f536166654d6174683a206164646974696f6e206f766572666c6f770000000000604482015290519081900360640190fd5b9392505050565b6001600160a01b03821661089c576040805162461bcd60e51b815260206004820152601f60248201527f45524332303a206d696e7420746f20746865207a65726f206164647265737300604482015290519081900360640190fd5b6002546108af908263ffffffff6107e016565b6002556001600160a01b0382166000908152602081905260409020546108db908263ffffffff6107e016565b6001600160a01b0383166000818152602081815260408083209490945583518581529351929391927fddf252ad1be2c89b69c2b068fc378daa952ba7f163c4a11628f55a4df523b3ef9281900390910190a3505056fe45524332303a207472616e7366657220746f20746865207a65726f206164647265737345524332303a20617070726f766520746f20746865207a65726f206164647265737345524332303a207472616e7366657220616d6f756e7420657863656564732062616c616e636545524332303a207472616e7366657220616d6f756e74206578636565647320616c6c6f77616e636545524332303a207472616e736665722066726f6d20746865207a65726f206164647265737345524332303a20617070726f76652066726f6d20746865207a65726f206164647265737345524332303a2064656372656173656420616c6c6f77616e63652062656c6f77207a65726fa265627a7a72315820b8346f30bf344f6403a1c431f0de2f3472dfb8bdbb6024f4452498da0bd2bbef64736f6c63430005110032",
  "source": "pragma solidity >=0.5.1 <0.7.0;\n\n\nimport \"@openzeppelin/contracts/token/ERC20/ERC20.sol\";\n\ncontract JURTokenMock is ERC20 {\n    string public constant symbol = \"JUR\";\n    uint8 public constant decimals = 18;\n\n    function mint(address account, uint256 amount) public {\n        _mint(account, amount);\n    }\n}",
  "sourcePath": "/Users/mirelxhafa/VisualCodeProjects/platform/smart-contracts/oath-keeper/contracts/mock/JURTokenMock.sol",
  "compiler": {
    "name": "solc",
    "version": "0.5.17+commit.d19bba13.Emscripten.clang"
  },
  "schemaVersion": "3.1.0",
  "updatedAt": "2020-05-21T09:40:59.966Z",
  "devdoc": {
    "methods": {
      "allowance(address,address)": {
        "details": "See {IERC20-allowance}."
      },
      "approve(address,uint256)": {
        "details": "See {IERC20-approve}.     * Requirements:     * - `spender` cannot be the zero address."
      },
      "balanceOf(address)": {
        "details": "See {IERC20-balanceOf}."
      },
      "decreaseAllowance(address,uint256)": {
        "details": "Atomically decreases the allowance granted to `spender` by the caller.     * This is an alternative to {approve} that can be used as a mitigation for problems described in {IERC20-approve}.     * Emits an {Approval} event indicating the updated allowance.     * Requirements:     * - `spender` cannot be the zero address. - `spender` must have allowance for the caller of at least `subtractedValue`."
      },
      "increaseAllowance(address,uint256)": {
        "details": "Atomically increases the allowance granted to `spender` by the caller.     * This is an alternative to {approve} that can be used as a mitigation for problems described in {IERC20-approve}.     * Emits an {Approval} event indicating the updated allowance.     * Requirements:     * - `spender` cannot be the zero address."
      },
      "totalSupply()": {
        "details": "See {IERC20-totalSupply}."
      },
      "transfer(address,uint256)": {
        "details": "See {IERC20-transfer}.     * Requirements:     * - `recipient` cannot be the zero address. - the caller must have a balance of at least `amount`."
      },
      "transferFrom(address,address,uint256)": {
        "details": "See {IERC20-transferFrom}.     * Emits an {Approval} event indicating the updated allowance. This is not required by the EIP. See the note at the beginning of {ERC20};     * Requirements: - `sender` and `recipient` cannot be the zero address. - `sender` must have a balance of at least `amount`. - the caller must have allowance for `sender`'s tokens of at least `amount`."
      }
    }
  },
  "userdoc": {
    "methods": {}
  }
}