{
  "contractName": "OathKeeper",
  "abi": [
    {
      "inputs": [
        {
          "internalType": "address",
          "name": "_jurToken",
          "type": "address"
        }
      ],
      "payable": false,
      "stateMutability": "nonpayable",
      "type": "constructor"
    },
    {
      "anonymous": false,
      "inputs": [
        {
          "indexed": true,
          "internalType": "address",
          "name": "_beneficiary",
          "type": "address"
        },
        {
          "indexed": true,
          "internalType": "uint256",
          "name": "_amount",
          "type": "uint256"
        },
        {
          "indexed": true,
          "internalType": "uint256",
          "name": "_oathIndex",
          "type": "uint256"
        }
      ],
      "name": "IHoldYourOathFulfilled",
      "type": "event"
    },
    {
      "anonymous": false,
      "inputs": [
        {
          "indexed": true,
          "internalType": "address",
          "name": "_beneficiary",
          "type": "address"
        },
        {
          "indexed": true,
          "internalType": "uint256",
          "name": "_amount",
          "type": "uint256"
        },
        {
          "indexed": true,
          "internalType": "uint256",
          "name": "_lockInPeriod",
          "type": "uint256"
        },
        {
          "indexed": false,
          "internalType": "uint256",
          "name": "_startAt",
          "type": "uint256"
        },
        {
          "indexed": false,
          "internalType": "uint256",
          "name": "_releaseAt",
          "type": "uint256"
        },
        {
          "indexed": false,
          "internalType": "uint256",
          "name": "_oathIndex",
          "type": "uint256"
        }
      ],
      "name": "OathTaken",
      "type": "event"
    },
    {
      "anonymous": false,
      "inputs": [
        {
          "indexed": true,
          "internalType": "address",
          "name": "previousOwner",
          "type": "address"
        },
        {
          "indexed": true,
          "internalType": "address",
          "name": "newOwner",
          "type": "address"
        }
      ],
      "name": "OwnershipTransferred",
      "type": "event"
    },
    {
      "constant": true,
      "inputs": [],
      "name": "isOwner",
      "outputs": [
        {
          "internalType": "bool",
          "name": "",
          "type": "bool"
        }
      ],
      "payable": false,
      "stateMutability": "view",
      "type": "function"
    },
    {
      "constant": true,
      "inputs": [],
      "name": "jurToken",
      "outputs": [
        {
          "internalType": "contract IERC20",
          "name": "",
          "type": "address"
        }
      ],
      "payable": false,
      "stateMutability": "view",
      "type": "function"
    },
    {
      "constant": true,
      "inputs": [
        {
          "internalType": "address",
          "name": "",
          "type": "address"
        },
        {
          "internalType": "uint256",
          "name": "",
          "type": "uint256"
        }
      ],
      "name": "lockMap",
      "outputs": [
        {
          "internalType": "uint256",
          "name": "amount",
          "type": "uint256"
        },
        {
          "internalType": "uint256",
          "name": "startAt",
          "type": "uint256"
        },
        {
          "internalType": "uint256",
          "name": "releaseAt",
          "type": "uint256"
        },
        {
          "internalType": "uint256",
          "name": "lockInPeriod",
          "type": "uint256"
        },
        {
          "internalType": "bool",
          "name": "isOathFulfilled",
          "type": "bool"
        }
      ],
      "payable": false,
      "stateMutability": "view",
      "type": "function"
    },
    {
      "constant": true,
      "inputs": [],
      "name": "maximumLockPeriod",
      "outputs": [
        {
          "internalType": "uint256",
          "name": "",
          "type": "uint256"
        }
      ],
      "payable": false,
      "stateMutability": "view",
      "type": "function"
    },
    {
      "constant": true,
      "inputs": [],
      "name": "minimumLockPeriod",
      "outputs": [
        {
          "internalType": "uint256",
          "name": "",
          "type": "uint256"
        }
      ],
      "payable": false,
      "stateMutability": "view",
      "type": "function"
    },
    {
      "constant": true,
      "inputs": [
        {
          "internalType": "address",
          "name": "",
          "type": "address"
        }
      ],
      "name": "oathStats",
      "outputs": [
        {
          "internalType": "uint256",
          "name": "count",
          "type": "uint256"
        },
        {
          "internalType": "uint256",
          "name": "totalAmountLocked",
          "type": "uint256"
        }
      ],
      "payable": false,
      "stateMutability": "view",
      "type": "function"
    },
    {
      "constant": true,
      "inputs": [],
      "name": "owner",
      "outputs": [
        {
          "internalType": "address",
          "name": "",
          "type": "address"
        }
      ],
      "payable": false,
      "stateMutability": "view",
      "type": "function"
    },
    {
      "constant": false,
      "inputs": [],
      "name": "renounceOwnership",
      "outputs": [],
      "payable": false,
      "stateMutability": "nonpayable",
      "type": "function"
    },
    {
      "constant": true,
      "inputs": [],
      "name": "totalLockedTokens",
      "outputs": [
        {
          "internalType": "uint256",
          "name": "",
          "type": "uint256"
        }
      ],
      "payable": false,
      "stateMutability": "view",
      "type": "function"
    },
    {
      "constant": true,
      "inputs": [],
      "name": "totalOathCount",
      "outputs": [
        {
          "internalType": "uint256",
          "name": "",
          "type": "uint256"
        }
      ],
      "payable": false,
      "stateMutability": "view",
      "type": "function"
    },
    {
      "constant": false,
      "inputs": [
        {
          "internalType": "address",
          "name": "newOwner",
          "type": "address"
        }
      ],
      "name": "transferOwnership",
      "outputs": [],
      "payable": false,
      "stateMutability": "nonpayable",
      "type": "function"
    },
    {
      "constant": false,
      "inputs": [
        {
          "internalType": "uint256",
          "name": "_lockInPeriod",
          "type": "uint256"
        }
      ],
      "name": "takeAnOath",
      "outputs": [],
      "payable": false,
      "stateMutability": "nonpayable",
      "type": "function"
    },
    {
      "constant": false,
      "inputs": [
        {
          "internalType": "uint256",
          "name": "_oathIndex",
          "type": "uint256"
        }
      ],
      "name": "releaseOath",
      "outputs": [],
      "payable": false,
      "stateMutability": "nonpayable",
      "type": "function"
    },
    {
      "constant": false,
      "inputs": [
        {
          "internalType": "uint256",
          "name": "_minimumLockPeriod",
          "type": "uint256"
        },
        {
          "internalType": "uint256",
          "name": "_maximumLockPeriod",
          "type": "uint256"
        }
      ],
      "name": "updateLockPeriod",
      "outputs": [],
      "payable": false,
      "stateMutability": "nonpayable",
      "type": "function"
    }
  ],
  "bytecode": "0x60806040526001600655602460075534801561001a57600080fd5b50604051610f03380380610f038339818101604052602081101561003d57600080fd5b505160006100526001600160e01b036100c116565b600080546001600160a01b0319166001600160a01b0383169081178255604051929350917f8be0079c531659141344cd1fd0a4f28419497f9722a3daafe3b4186f6b6457e0908290a350600380546001600160a01b0319166001600160a01b03929092169190911790556100c5565b3390565b610e2f806100d46000396000f3fe608060405234801561001057600080fd5b50600436106100ea5760003560e01c80638f32d59b1161008c578063e876d4ea11610066578063e876d4ea146101ff578063f2fde38b14610207578063f44ab83d1461022d578063f5c476f914610286576100ea565b80638f32d59b146101b8578063bce558e2146101d4578063d73a84e9146101dc576100ea565b8063715018a6116100c8578063715018a61461014f5780637a64e695146101575780638ccf3cd4146101965780638da5cb5b146101b0576100ea565b8063067558cc146100ef57806309d8d7851461010e5780635f068b431461012b575b600080fd5b61010c6004803603602081101561010557600080fd5b503561028e565b005b61010c6004803603602081101561012457600080fd5b5035610473565b6101336107a7565b604080516001600160a01b039092168252519081900360200190f35b61010c6107b6565b61017d6004803603602081101561016d57600080fd5b50356001600160a01b0316610866565b6040805192835260208301919091528051918290030190f35b61019e61087f565b60408051918252519081900360200190f35b610133610885565b6101c0610894565b604080519115158252519081900360200190f35b61019e6108b8565b61010c600480360360408110156101f257600080fd5b50803590602001356108be565b61019e61098b565b61010c6004803603602081101561021d57600080fd5b50356001600160a01b0316610991565b6102596004803603604081101561024357600080fd5b506001600160a01b0381351690602001356109f6565b60408051958652602086019490945284840192909252606084015215156080830152519081900360a00190f35b61019e610a2f565b33600090815260016020908152604080832084845290915290206002810154421015610301576040805162461bcd60e51b815260206004820152601c60248201527f596f7520617265207374696c6c20756e64657220616e206f6174682e00000000604482015290519081900360640190fd5b600481015460ff161561035b576040805162461bcd60e51b815260206004820152601860248201527f4f61746820686173206265656e2066756c66696c6c65642e0000000000000000604482015290519081900360640190fd5b6004808201805460ff1916600117905560035482546040805163a9059cbb60e01b815233948101949094526024840191909152516001600160a01b039091169163a9059cbb9160448083019260209291908290030181600087803b1580156103c257600080fd5b505af11580156103d6573d6000803e3d6000fd5b505050506040513d60208110156103ec57600080fd5b505161043f576040805162461bcd60e51b815260206004820152601b60248201527f46756e64732063616e6e6f74206265207472616e736665727265640000000000604482015290519081900360640190fd5b805460405183919033907f44ed93092749fd3db80b4b201ac16d43e486a15f44a35054235a0ac47662f6c890600090a45050565b60035460408051636eb1769f60e11b8152336004820152306024820152905160009283926001600160a01b039091169163dd62ed3e91604480820192602092909190829003018186803b1580156104c957600080fd5b505afa1580156104dd573d6000803e3d6000fd5b505050506040513d60208110156104f357600080fd5b50519050806105335760405162461bcd60e51b815260040180806020018281038252602e815260200180610dcd602e913960400191505060405180910390fd5b600654831015801561054757506007548311155b6105825760405162461bcd60e51b8152600401808060200182810382526025815260200180610da86025913960400191505060405180910390fd5b3360009081526002602052604090205461059d906001610a35565b336000908152600260205260409020908155600101546105bd9082610a35565b336000908152600260205260409020600101556004546105dd9082610a35565b6004556005546105ee906001610a35565b6005556105fb4284610a98565b6040805160a0810182528381524260208083019182528284018581526060840189815260006080860181815233808352600180875289842060028089528b86205486529088528a852099518a55975190890155935195870195909555905160038087019190915593516004958601805460ff1916911515919091179055925485516323b872dd60e01b8152948501919091523060248501526044840187905293519496506001600160a01b03909316936323b872dd936064808501949193918390030190829087803b1580156106d057600080fd5b505af11580156106e4573d6000803e3d6000fd5b505050506040513d60208110156106fa57600080fd5b505161074d576040805162461bcd60e51b815260206004820152601b60248201527f4e6f742061626c6520746f207472616e736665722066756e64732e0000000000604482015290519081900360640190fd5b336000818152600260209081526040918290205482514281529182018690528183015290518592849290917fc9576bbf4faff0f7d33d723792c1aa1535f287a578bcc84e2c15343b901c7e8e9181900360600190a4505050565b6003546001600160a01b031681565b6107be610894565b61080f576040805162461bcd60e51b815260206004820181905260248201527f4f776e61626c653a2063616c6c6572206973206e6f7420746865206f776e6572604482015290519081900360640190fd5b600080546040516001600160a01b03909116907f8be0079c531659141344cd1fd0a4f28419497f9722a3daafe3b4186f6b6457e0908390a36000805473ffffffffffffffffffffffffffffffffffffffff19169055565b6002602052600090815260409020805460019091015482565b60075481565b6000546001600160a01b031690565b600080546001600160a01b03166108a9610b13565b6001600160a01b031614905090565b60055481565b6108c6610894565b610917576040805162461bcd60e51b815260206004820181905260248201527f4f776e61626c653a2063616c6c6572206973206e6f7420746865206f776e6572604482015290519081900360640190fd5b81156109235760068290555b801561092f5760078190555b60075460065410610987576040805162461bcd60e51b815260206004820152601760248201527f536f6d657468696e67206973206e6f742072696768742e000000000000000000604482015290519081900360640190fd5b5050565b60065481565b610999610894565b6109ea576040805162461bcd60e51b815260206004820181905260248201527f4f776e61626c653a2063616c6c6572206973206e6f7420746865206f776e6572604482015290519081900360640190fd5b6109f381610b17565b50565b60016020818152600093845260408085209091529183529120805491810154600282015460038301546004909301549192909160ff1685565b60045481565b600082820183811015610a8f576040805162461bcd60e51b815260206004820152601b60248201527f536166654d6174683a206164646974696f6e206f766572666c6f770000000000604482015290519081900360640190fd5b90505b92915050565b6000808080610aab620151808704610bc4565b600c918801600019810183810494909401965094509250900660010191506000610ad58484610c5a565b905080821115610ae3578091505b62015180870662015180610af8868686610ce0565b0201945086851015610b0957600080fd5b5050505092915050565b3390565b6001600160a01b038116610b5c5760405162461bcd60e51b8152600401808060200182810382526026815260200180610d826026913960400191505060405180910390fd5b600080546040516001600160a01b03808516939216917f8be0079c531659141344cd1fd0a4f28419497f9722a3daafe3b4186f6b6457e091a36000805473ffffffffffffffffffffffffffffffffffffffff19166001600160a01b0392909216919091179055565b60008080836226496581018262023ab1600483020590506004600362023ab18302010590910390600062164b09610fa0600185010205905060046105b58202058303601f019250600061098f8460500281610c1b57fe5b0590506000605061098f83020585039050600b820560301994909401606402929092018301996002600c90940290910392909201975095509350505050565b60008160011480610c6b5750816003145b80610c765750816005145b80610c815750816007145b80610c8c5750816008145b80610c97575081600a145b80610ca2575081600c145b15610caf5750601f610a92565b81600214610cbf5750601e610a92565b610cc883610d5c565b610cd357601c610cd6565b601d5b60ff169392505050565b60006107b2841015610cf157600080fd5b838383600062253d8c600460036064611324600c600d19890105890101050205600c80600d19870105600c02600287030361016f0281610d2d57fe5b0560046105b5600c600d1989010589016112c0010205617d4b8603010103039050809450505050509392505050565b600060048206158015610d7157506064820615155b80610a925750506101909006159056fe4f776e61626c653a206e6577206f776e657220697320746865207a65726f2061646472657373506c656173652063686f6f736520612076616c6964206c6f636b20696e20706572696f642e506c6561736520617070726f766520746f6b656e207472616e7366657220746f2074686520636f6e74726163742ea265627a7a72315820eeab05ae1bd2ba1624bd8bdd33790fc182f969a71932a6d7c2726dd7e51b9fc964736f6c63430005110032",
  "source": "pragma solidity >=0.5.0 <0.7.0;\n\nimport \"@openzeppelin/contracts/token/ERC20/IERC20.sol\";\nimport \"@openzeppelin/contracts/math/SafeMath.sol\";\nimport \"@openzeppelin/contracts/ownership/Ownable.sol\";\nimport \"./utils/DateTimeLib.sol\";\n\ncontract OathKeeper is Ownable {\n    using SafeMath for uint;\n    using DateTimeLib for uint;\n\n    struct LockSchedule {\n        uint256 amount;\n        uint256 startAt;\n        uint256 releaseAt;\n        uint256 lockInPeriod;\n        bool isOathFulfilled;\n    }\n\n    struct Oaths {\n        uint256 count;\n        // uint256 activeAmountLocked;\n        uint256 totalAmountLocked;\n    }\n    /** Each address can have multiple funds locked under different schedules */\n    mapping(address => mapping(uint => LockSchedule)) public lockMap;\n    /** The overall oath stats related to each address */\n    mapping(address => Oaths) public oathStats;\n    /** JUR Token for distribution */\n    IERC20 public jurToken;\n    /** Stats on oaths in the contract overall */\n    uint256 public totalLockedTokens;\n    // uint256 public totalActiveLockedTokens;\n    uint256 public totalOathCount;\n    // uint256 public totalActiveOathCount;\n\n    uint256 public minimumLockPeriod = 1;\n    uint256 public maximumLockPeriod = 36;\n\n    event OathTaken(address indexed _beneficiary, uint indexed _amount, uint indexed _lockInPeriod, uint _startAt, uint _releaseAt, uint _oathIndex);\n    event IHoldYourOathFulfilled(address indexed _beneficiary, uint indexed _amount, uint indexed _oathIndex);\n\n    /**\n    @param _jurToken - Address of the JUR token contract which will be used for transferring the\n    tokens.\n    */\n    constructor(address _jurToken) public {\n        jurToken = IERC20(_jurToken);\n    }\n\n    /**\n    @dev takeAnOath - Any JUR token holder can use this function to lock their tokens for a certain\n    time period.\n    @param _lockInPeriod - Number of months to lock the token for.\n    */\n    function takeAnOath(uint _lockInPeriod) public {\n        uint _releaseAt;\n        uint256 _amount = jurToken.allowance(msg.sender, address(this));\n        require(_amount > 0, \"Please approve token transfer to the contract.\");\n        require(_lockInPeriod >= minimumLockPeriod && _lockInPeriod <= maximumLockPeriod, \"Please choose a valid lock in period.\");\n        oathStats[msg.sender].count = SafeMath.add(oathStats[msg.sender].count, 1);\n        // oathStats[msg.sender].activeAmountLocked = SafeMath.add(oathStats[msg.sender].activeAmountLocked, _amount);\n        oathStats[msg.sender].totalAmountLocked = SafeMath.add(oathStats[msg.sender].totalAmountLocked, _amount);\n        totalLockedTokens = SafeMath.add(totalLockedTokens, _amount);\n        // totalActiveLockedTokens = SafeMath.add(totalActiveLockedTokens, _amount);\n        totalOathCount = SafeMath.add(totalOathCount, 1);\n        // totalActiveOathCount = SafeMath.add(totalActiveOathCount, 1);\n\n        _releaseAt = DateTimeLib.addMonths(now, _lockInPeriod);\n        lockMap[msg.sender][oathStats[msg.sender].count] = LockSchedule(_amount, now, _releaseAt, _lockInPeriod, false);\n        // check if tokens can be transferred to this contract.\n        require(jurToken.transferFrom(msg.sender, address(this), _amount), \"Not able to transfer funds.\");\n\n        emit OathTaken(msg.sender, _amount, _lockInPeriod, now, _releaseAt, oathStats[msg.sender].count);\n    }\n\n    /**\n    @dev releaseOath() - Release tokens as per vesting schedule, called by the owner.\n    */\n    function releaseOath(uint _oathIndex) public {\n        LockSchedule storage _lockSchedule = lockMap[msg.sender][_oathIndex];\n\n        require(now >= _lockSchedule.releaseAt, \"You are still under an oath.\");\n        require(!_lockSchedule.isOathFulfilled, \"Oath has been fulfilled.\");\n\n        _lockSchedule.isOathFulfilled = true;\n        // update overall stats\n        // oathStats[msg.sender].activeAmountLocked = SafeMath.sub(oathStats[msg.sender].activeAmountLocked, _lockSchedule.amount);\n        // totalActiveLockedTokens = SafeMath.sub(totalActiveLockedTokens, _lockSchedule.amount);\n        // totalActiveOathCount = SafeMath.sub(totalActiveOathCount, 1);\n\n        require(jurToken.transfer(msg.sender, _lockSchedule.amount), \"Funds cannot be transferred\");\n        emit IHoldYourOathFulfilled(msg.sender, _lockSchedule.amount, _oathIndex);\n    }\n\n    /**\n    @dev updateLockPeriod() - Function for owner to update the lockin period requirements.\n    */\n    function updateLockPeriod(uint _minimumLockPeriod, uint _maximumLockPeriod) public onlyOwner {\n        if(_minimumLockPeriod != 0) {\n            minimumLockPeriod = _minimumLockPeriod;\n        } if(_maximumLockPeriod != 0) {\n            maximumLockPeriod = _maximumLockPeriod;\n        }\n        require(minimumLockPeriod < maximumLockPeriod, \"Something is not right.\");\n    }\n\n    /**\n    @dev renege() - A public function which can be called by the owner to provide flexibility\n    with the release date.\n    @param _promisee - Address of the oath holder.\n    @param _newRelease - uint timestamp of the new release date and time.\n    */\n    // function renege(address _promisee, uint _newRelease) public onlyOwner {\n    //     LockSchedule storage _lockSchedule = lockMap[msg.sender];\n\n    //     require(now < _lockSchedule.releaseAt, \"Oath is over\");\n    //     _lockSchedule.releaseAt = _newRelease;\n\n    //     emit ABrokenOath(_promisee, _newRelease);\n    // }\n\n}",
  "sourcePath": "/Users/mirelxhafa/VisualCodeProjects/platform/smart-contracts/oath-keeper/contracts/OathKeeper.sol",
  "compiler": {
    "name": "solc",
    "version": "0.5.17+commit.d19bba13.Emscripten.clang"
  },
  "schemaVersion": "3.1.0",
  "updatedAt": "2020-05-21T09:40:59.954Z",
  "devdoc": {
    "methods": {
      "constructor": {
        "params": {
          "_jurToken": "- Address of the JUR token contract which will be used for transferring the tokens."
        }
      },
      "isOwner()": {
        "details": "Returns true if the caller is the current owner."
      },
      "owner()": {
        "details": "Returns the address of the current owner."
      },
      "releaseOath(uint256)": {
        "details": "releaseOath() - Release tokens as per vesting schedule, called by the owner."
      },
      "renounceOwnership()": {
        "details": "Leaves the contract without owner. It will not be possible to call `onlyOwner` functions anymore. Can only be called by the current owner.     * NOTE: Renouncing ownership will leave the contract without an owner, thereby removing any functionality that is only available to the owner."
      },
      "takeAnOath(uint256)": {
        "details": "takeAnOath - Any JUR token holder can use this function to lock their tokens for a certain time period.",
        "params": {
          "_lockInPeriod": "- Number of months to lock the token for."
        }
      },
      "transferOwnership(address)": {
        "details": "Transfers ownership of the contract to a new account (`newOwner`). Can only be called by the current owner."
      },
      "updateLockPeriod(uint256,uint256)": {
        "details": "updateLockPeriod() - Function for owner to update the lockin period requirements."
      }
    }
  },
  "userdoc": {
    "methods": {}
  }
}