{
  "contractName": "OathKeeperMock",
  "abi": [
    {
      "inputs": [
        {
          "internalType": "address",
          "name": "_jurToken",
          "type": "address"
        }
      ],
      "payable": false,
      "stateMutability": "nonpayable",
      "type": "constructor"
    },
    {
      "anonymous": false,
      "inputs": [
        {
          "indexed": true,
          "internalType": "address",
          "name": "_beneficiary",
          "type": "address"
        },
        {
          "indexed": true,
          "internalType": "uint256",
          "name": "_amount",
          "type": "uint256"
        },
        {
          "indexed": true,
          "internalType": "uint256",
          "name": "_oathIndex",
          "type": "uint256"
        }
      ],
      "name": "IHoldYourOathFulfilled",
      "type": "event"
    },
    {
      "anonymous": false,
      "inputs": [
        {
          "indexed": true,
          "internalType": "address",
          "name": "_beneficiary",
          "type": "address"
        },
        {
          "indexed": true,
          "internalType": "uint256",
          "name": "_amount",
          "type": "uint256"
        },
        {
          "indexed": true,
          "internalType": "uint256",
          "name": "_lockInPeriod",
          "type": "uint256"
        },
        {
          "indexed": false,
          "internalType": "uint256",
          "name": "_startAt",
          "type": "uint256"
        },
        {
          "indexed": false,
          "internalType": "uint256",
          "name": "_releaseAt",
          "type": "uint256"
        },
        {
          "indexed": false,
          "internalType": "uint256",
          "name": "_oathIndex",
          "type": "uint256"
        }
      ],
      "name": "OathTaken",
      "type": "event"
    },
    {
      "anonymous": false,
      "inputs": [
        {
          "indexed": true,
          "internalType": "address",
          "name": "previousOwner",
          "type": "address"
        },
        {
          "indexed": true,
          "internalType": "address",
          "name": "newOwner",
          "type": "address"
        }
      ],
      "name": "OwnershipTransferred",
      "type": "event"
    },
    {
      "constant": true,
      "inputs": [],
      "name": "isOwner",
      "outputs": [
        {
          "internalType": "bool",
          "name": "",
          "type": "bool"
        }
      ],
      "payable": false,
      "stateMutability": "view",
      "type": "function"
    },
    {
      "constant": true,
      "inputs": [],
      "name": "jurToken",
      "outputs": [
        {
          "internalType": "contract IERC20",
          "name": "",
          "type": "address"
        }
      ],
      "payable": false,
      "stateMutability": "view",
      "type": "function"
    },
    {
      "constant": true,
      "inputs": [
        {
          "internalType": "address",
          "name": "",
          "type": "address"
        },
        {
          "internalType": "uint256",
          "name": "",
          "type": "uint256"
        }
      ],
      "name": "lockMap",
      "outputs": [
        {
          "internalType": "uint256",
          "name": "amount",
          "type": "uint256"
        },
        {
          "internalType": "uint256",
          "name": "startAt",
          "type": "uint256"
        },
        {
          "internalType": "uint256",
          "name": "releaseAt",
          "type": "uint256"
        },
        {
          "internalType": "uint256",
          "name": "lockInPeriod",
          "type": "uint256"
        },
        {
          "internalType": "bool",
          "name": "isOathFulfilled",
          "type": "bool"
        }
      ],
      "payable": false,
      "stateMutability": "view",
      "type": "function"
    },
    {
      "constant": true,
      "inputs": [],
      "name": "maximumLockPeriod",
      "outputs": [
        {
          "internalType": "uint256",
          "name": "",
          "type": "uint256"
        }
      ],
      "payable": false,
      "stateMutability": "view",
      "type": "function"
    },
    {
      "constant": true,
      "inputs": [],
      "name": "minimumLockPeriod",
      "outputs": [
        {
          "internalType": "uint256",
          "name": "",
          "type": "uint256"
        }
      ],
      "payable": false,
      "stateMutability": "view",
      "type": "function"
    },
    {
      "constant": true,
      "inputs": [
        {
          "internalType": "address",
          "name": "",
          "type": "address"
        }
      ],
      "name": "oathStats",
      "outputs": [
        {
          "internalType": "uint256",
          "name": "count",
          "type": "uint256"
        },
        {
          "internalType": "uint256",
          "name": "totalAmountLocked",
          "type": "uint256"
        }
      ],
      "payable": false,
      "stateMutability": "view",
      "type": "function"
    },
    {
      "constant": true,
      "inputs": [],
      "name": "owner",
      "outputs": [
        {
          "internalType": "address",
          "name": "",
          "type": "address"
        }
      ],
      "payable": false,
      "stateMutability": "view",
      "type": "function"
    },
    {
      "constant": false,
      "inputs": [
        {
          "internalType": "uint256",
          "name": "_oathIndex",
          "type": "uint256"
        }
      ],
      "name": "releaseOath",
      "outputs": [],
      "payable": false,
      "stateMutability": "nonpayable",
      "type": "function"
    },
    {
      "constant": false,
      "inputs": [],
      "name": "renounceOwnership",
      "outputs": [],
      "payable": false,
      "stateMutability": "nonpayable",
      "type": "function"
    },
    {
      "constant": false,
      "inputs": [
        {
          "internalType": "uint256",
          "name": "_lockInPeriod",
          "type": "uint256"
        }
      ],
      "name": "takeAnOath",
      "outputs": [],
      "payable": false,
      "stateMutability": "nonpayable",
      "type": "function"
    },
    {
      "constant": true,
      "inputs": [],
      "name": "totalLockedTokens",
      "outputs": [
        {
          "internalType": "uint256",
          "name": "",
          "type": "uint256"
        }
      ],
      "payable": false,
      "stateMutability": "view",
      "type": "function"
    },
    {
      "constant": true,
      "inputs": [],
      "name": "totalOathCount",
      "outputs": [
        {
          "internalType": "uint256",
          "name": "",
          "type": "uint256"
        }
      ],
      "payable": false,
      "stateMutability": "view",
      "type": "function"
    },
    {
      "constant": false,
      "inputs": [
        {
          "internalType": "address",
          "name": "newOwner",
          "type": "address"
        }
      ],
      "name": "transferOwnership",
      "outputs": [],
      "payable": false,
      "stateMutability": "nonpayable",
      "type": "function"
    },
    {
      "constant": false,
      "inputs": [
        {
          "internalType": "uint256",
          "name": "_minimumLockPeriod",
          "type": "uint256"
        },
        {
          "internalType": "uint256",
          "name": "_maximumLockPeriod",
          "type": "uint256"
        }
      ],
      "name": "updateLockPeriod",
      "outputs": [],
      "payable": false,
      "stateMutability": "nonpayable",
      "type": "function"
    },
    {
      "constant": true,
      "inputs": [],
      "name": "getNow",
      "outputs": [
        {
          "internalType": "uint256",
          "name": "",
          "type": "uint256"
        }
      ],
      "payable": false,
      "stateMutability": "view",
      "type": "function"
    }
  ],
  "bytecode": "0x60806040526001600655602460075534801561001a57600080fd5b50604051610f1c380380610f1c8339818101604052602081101561003d57600080fd5b50518060006100536001600160e01b036100c316565b600080546001600160a01b0319166001600160a01b0383169081178255604051929350917f8be0079c531659141344cd1fd0a4f28419497f9722a3daafe3b4186f6b6457e0908290a350600380546001600160a01b0319166001600160a01b0392909216919091179055506100c7565b3390565b610e46806100d66000396000f3fe608060405234801561001057600080fd5b50600436106100f55760003560e01c80638f32d59b11610097578063e876d4ea11610066578063e876d4ea14610212578063f2fde38b1461021a578063f44ab83d14610240578063f5c476f914610299576100f5565b80638f32d59b146101c3578063bbe4fd50146101df578063bce558e2146101e7578063d73a84e9146101ef576100f5565b8063715018a6116100d3578063715018a61461015a5780637a64e695146101625780638ccf3cd4146101a15780638da5cb5b146101bb576100f5565b8063067558cc146100fa57806309d8d785146101195780635f068b4314610136575b600080fd5b6101176004803603602081101561011057600080fd5b50356102a1565b005b6101176004803603602081101561012f57600080fd5b5035610486565b61013e6107ba565b604080516001600160a01b039092168252519081900360200190f35b6101176107c9565b6101886004803603602081101561017857600080fd5b50356001600160a01b0316610879565b6040805192835260208301919091528051918290030190f35b6101a9610892565b60408051918252519081900360200190f35b61013e610898565b6101cb6108a7565b604080519115158252519081900360200190f35b6101a96108cb565b6101a96108cf565b6101176004803603604081101561020557600080fd5b50803590602001356108d5565b6101a96109a2565b6101176004803603602081101561023057600080fd5b50356001600160a01b03166109a8565b61026c6004803603604081101561025657600080fd5b506001600160a01b038135169060200135610a0d565b60408051958652602086019490945284840192909252606084015215156080830152519081900360a00190f35b6101a9610a46565b33600090815260016020908152604080832084845290915290206002810154421015610314576040805162461bcd60e51b815260206004820152601c60248201527f596f7520617265207374696c6c20756e64657220616e206f6174682e00000000604482015290519081900360640190fd5b600481015460ff161561036e576040805162461bcd60e51b815260206004820152601860248201527f4f61746820686173206265656e2066756c66696c6c65642e0000000000000000604482015290519081900360640190fd5b6004808201805460ff1916600117905560035482546040805163a9059cbb60e01b815233948101949094526024840191909152516001600160a01b039091169163a9059cbb9160448083019260209291908290030181600087803b1580156103d557600080fd5b505af11580156103e9573d6000803e3d6000fd5b505050506040513d60208110156103ff57600080fd5b5051610452576040805162461bcd60e51b815260206004820152601b60248201527f46756e64732063616e6e6f74206265207472616e736665727265640000000000604482015290519081900360640190fd5b805460405183919033907f44ed93092749fd3db80b4b201ac16d43e486a15f44a35054235a0ac47662f6c890600090a45050565b60035460408051636eb1769f60e11b8152336004820152306024820152905160009283926001600160a01b039091169163dd62ed3e91604480820192602092909190829003018186803b1580156104dc57600080fd5b505afa1580156104f0573d6000803e3d6000fd5b505050506040513d602081101561050657600080fd5b50519050806105465760405162461bcd60e51b815260040180806020018281038252602e815260200180610de4602e913960400191505060405180910390fd5b600654831015801561055a57506007548311155b6105955760405162461bcd60e51b8152600401808060200182810382526025815260200180610dbf6025913960400191505060405180910390fd5b336000908152600260205260409020546105b0906001610a4c565b336000908152600260205260409020908155600101546105d09082610a4c565b336000908152600260205260409020600101556004546105f09082610a4c565b600455600554610601906001610a4c565b60055561060e4284610aaf565b6040805160a0810182528381524260208083019182528284018581526060840189815260006080860181815233808352600180875289842060028089528b86205486529088528a852099518a55975190890155935195870195909555905160038087019190915593516004958601805460ff1916911515919091179055925485516323b872dd60e01b8152948501919091523060248501526044840187905293519496506001600160a01b03909316936323b872dd936064808501949193918390030190829087803b1580156106e357600080fd5b505af11580156106f7573d6000803e3d6000fd5b505050506040513d602081101561070d57600080fd5b5051610760576040805162461bcd60e51b815260206004820152601b60248201527f4e6f742061626c6520746f207472616e736665722066756e64732e0000000000604482015290519081900360640190fd5b336000818152600260209081526040918290205482514281529182018690528183015290518592849290917fc9576bbf4faff0f7d33d723792c1aa1535f287a578bcc84e2c15343b901c7e8e9181900360600190a4505050565b6003546001600160a01b031681565b6107d16108a7565b610822576040805162461bcd60e51b815260206004820181905260248201527f4f776e61626c653a2063616c6c6572206973206e6f7420746865206f776e6572604482015290519081900360640190fd5b600080546040516001600160a01b03909116907f8be0079c531659141344cd1fd0a4f28419497f9722a3daafe3b4186f6b6457e0908390a36000805473ffffffffffffffffffffffffffffffffffffffff19169055565b6002602052600090815260409020805460019091015482565b60075481565b6000546001600160a01b031690565b600080546001600160a01b03166108bc610b2a565b6001600160a01b031614905090565b4290565b60055481565b6108dd6108a7565b61092e576040805162461bcd60e51b815260206004820181905260248201527f4f776e61626c653a2063616c6c6572206973206e6f7420746865206f776e6572604482015290519081900360640190fd5b811561093a5760068290555b80156109465760078190555b6007546006541061099e576040805162461bcd60e51b815260206004820152601760248201527f536f6d657468696e67206973206e6f742072696768742e000000000000000000604482015290519081900360640190fd5b5050565b60065481565b6109b06108a7565b610a01576040805162461bcd60e51b815260206004820181905260248201527f4f776e61626c653a2063616c6c6572206973206e6f7420746865206f776e6572604482015290519081900360640190fd5b610a0a81610b2e565b50565b60016020818152600093845260408085209091529183529120805491810154600282015460038301546004909301549192909160ff1685565b60045481565b600082820183811015610aa6576040805162461bcd60e51b815260206004820152601b60248201527f536166654d6174683a206164646974696f6e206f766572666c6f770000000000604482015290519081900360640190fd5b90505b92915050565b6000808080610ac2620151808704610bdb565b600c918801600019810183810494909401965094509250900660010191506000610aec8484610c71565b905080821115610afa578091505b62015180870662015180610b0f868686610cf7565b0201945086851015610b2057600080fd5b5050505092915050565b3390565b6001600160a01b038116610b735760405162461bcd60e51b8152600401808060200182810382526026815260200180610d996026913960400191505060405180910390fd5b600080546040516001600160a01b03808516939216917f8be0079c531659141344cd1fd0a4f28419497f9722a3daafe3b4186f6b6457e091a36000805473ffffffffffffffffffffffffffffffffffffffff19166001600160a01b0392909216919091179055565b60008080836226496581018262023ab1600483020590506004600362023ab18302010590910390600062164b09610fa0600185010205905060046105b58202058303601f019250600061098f8460500281610c3257fe5b0590506000605061098f83020585039050600b820560301994909401606402929092018301996002600c90940290910392909201975095509350505050565b60008160011480610c825750816003145b80610c8d5750816005145b80610c985750816007145b80610ca35750816008145b80610cae575081600a145b80610cb9575081600c145b15610cc65750601f610aa9565b81600214610cd65750601e610aa9565b610cdf83610d73565b610cea57601c610ced565b601d5b60ff169392505050565b60006107b2841015610d0857600080fd5b838383600062253d8c600460036064611324600c600d19890105890101050205600c80600d19870105600c02600287030361016f0281610d4457fe5b0560046105b5600c600d1989010589016112c0010205617d4b8603010103039050809450505050509392505050565b600060048206158015610d8857506064820615155b80610aa95750506101909006159056fe4f776e61626c653a206e6577206f776e657220697320746865207a65726f2061646472657373506c656173652063686f6f736520612076616c6964206c6f636b20696e20706572696f642e506c6561736520617070726f766520746f6b656e207472616e7366657220746f2074686520636f6e74726163742ea265627a7a72315820bbcbf9936a64668eefdc7b3425e8359c3492673a13b1cdd7ac823ccc4727a3c264736f6c63430005110032",
  "source": "pragma solidity >=0.5.0 <0.7.0;\n\nimport \"../OathKeeper.sol\";\nimport \"../utils/DateTimeLib.sol\";\n\ncontract OathKeeperMock is OathKeeper {\n\n  constructor(address _jurToken) public\n  OathKeeper(_jurToken)\n  {}\n\n  function getNow() public view returns (uint256) {\n      return block.timestamp;\n  }\n\n}",
  "sourcePath": "/Users/mirelxhafa/VisualCodeProjects/platform/smart-contracts/oath-keeper/contracts/mock/OathKeeperMock.sol",
  "compiler": {
    "name": "solc",
    "version": "0.5.17+commit.d19bba13.Emscripten.clang"
  },
  "schemaVersion": "3.1.0",
  "updatedAt": "2020-05-21T09:40:59.967Z",
  "devdoc": {
    "methods": {
      "isOwner()": {
        "details": "Returns true if the caller is the current owner."
      },
      "owner()": {
        "details": "Returns the address of the current owner."
      },
      "releaseOath(uint256)": {
        "details": "releaseOath() - Release tokens as per vesting schedule, called by the owner."
      },
      "renounceOwnership()": {
        "details": "Leaves the contract without owner. It will not be possible to call `onlyOwner` functions anymore. Can only be called by the current owner.     * NOTE: Renouncing ownership will leave the contract without an owner, thereby removing any functionality that is only available to the owner."
      },
      "takeAnOath(uint256)": {
        "details": "takeAnOath - Any JUR token holder can use this function to lock their tokens for a certain time period.",
        "params": {
          "_lockInPeriod": "- Number of months to lock the token for."
        }
      },
      "transferOwnership(address)": {
        "details": "Transfers ownership of the contract to a new account (`newOwner`). Can only be called by the current owner."
      },
      "updateLockPeriod(uint256,uint256)": {
        "details": "updateLockPeriod() - Function for owner to update the lockin period requirements."
      }
    }
  },
  "userdoc": {
    "methods": {}
  }
}