{
  "contractName": "ArbitrationFactoryMock",
  "abi": [
    {
      "constant": true,
      "inputs": [],
      "name": "jurToken",
      "outputs": [
        {
          "name": "",
          "type": "address"
        }
      ],
      "payable": false,
      "stateMutability": "view",
      "type": "function"
    },
    {
      "constant": false,
      "inputs": [
        {
          "name": "_jurToken",
          "type": "address"
        }
      ],
      "name": "changeToken",
      "outputs": [],
      "payable": false,
      "stateMutability": "nonpayable",
      "type": "function"
    },
    {
      "constant": false,
      "inputs": [],
      "name": "renounceOwnership",
      "outputs": [],
      "payable": false,
      "stateMutability": "nonpayable",
      "type": "function"
    },
    {
      "constant": true,
      "inputs": [],
      "name": "owner",
      "outputs": [
        {
          "name": "",
          "type": "address"
        }
      ],
      "payable": false,
      "stateMutability": "view",
      "type": "function"
    },
    {
      "constant": true,
      "inputs": [
        {
          "name": "_input",
          "type": "string"
        }
      ],
      "name": "generateHash",
      "outputs": [
        {
          "name": "",
          "type": "bytes32"
        }
      ],
      "payable": false,
      "stateMutability": "pure",
      "type": "function"
    },
    {
      "constant": true,
      "inputs": [
        {
          "name": "",
          "type": "uint256"
        }
      ],
      "name": "arbirations",
      "outputs": [
        {
          "name": "",
          "type": "address"
        }
      ],
      "payable": false,
      "stateMutability": "view",
      "type": "function"
    },
    {
      "constant": false,
      "inputs": [
        {
          "name": "_newOwner",
          "type": "address"
        }
      ],
      "name": "transferOwnership",
      "outputs": [],
      "payable": false,
      "stateMutability": "nonpayable",
      "type": "function"
    },
    {
      "inputs": [
        {
          "name": "_jurToken",
          "type": "address"
        }
      ],
      "payable": false,
      "stateMutability": "nonpayable",
      "type": "constructor"
    },
    {
      "anonymous": false,
      "inputs": [
        {
          "indexed": true,
          "name": "_creator",
          "type": "address"
        },
        {
          "indexed": false,
          "name": "_arbitration",
          "type": "address"
        },
        {
          "indexed": true,
          "name": "_party1",
          "type": "address"
        },
        {
          "indexed": true,
          "name": "_party2",
          "type": "address"
        },
        {
          "indexed": false,
          "name": "_dispersal",
          "type": "uint256[]"
        },
        {
          "indexed": false,
          "name": "_funding",
          "type": "uint256[]"
        },
        {
          "indexed": false,
          "name": "_agreementHash",
          "type": "bytes32"
        }
      ],
      "name": "ArbitrationCreated",
      "type": "event"
    },
    {
      "anonymous": false,
      "inputs": [
        {
          "indexed": true,
          "name": "previousOwner",
          "type": "address"
        }
      ],
      "name": "OwnershipRenounced",
      "type": "event"
    },
    {
      "anonymous": false,
      "inputs": [
        {
          "indexed": true,
          "name": "previousOwner",
          "type": "address"
        },
        {
          "indexed": true,
          "name": "newOwner",
          "type": "address"
        }
      ],
      "name": "OwnershipTransferred",
      "type": "event"
    },
    {
      "constant": false,
      "inputs": [
        {
          "name": "_parties",
          "type": "address[]"
        },
        {
          "name": "_dispersal",
          "type": "uint256[]"
        },
        {
          "name": "_funding",
          "type": "uint256[]"
        },
        {
          "name": "_agreementHash",
          "type": "bytes32"
        }
      ],
      "name": "createArbitration",
      "outputs": [],
      "payable": false,
      "stateMutability": "nonpayable",
      "type": "function"
    }
  ],
  "bytecode": "0x608060405234801561001057600080fd5b5060405160208061462f833981016040525160008054600160a060020a0319908116331790915560018054600160a060020a03909316929091169190911790556145d08061005f6000396000f300608060405260043610620000965763ffffffff7c01000000000000000000000000000000000000000000000000000000006000350416635f068b4381146200009b57806366829b1614620000cf578063715018a614620000f55780638da5cb5b146200010d578063b063152a1462000125578063bfabc1e01462000193578063dabf142d146200025f578063f2fde38b146200027a575b600080fd5b348015620000a857600080fd5b50620000b36200029e565b60408051600160a060020a039092168252519081900360200190f35b348015620000dc57600080fd5b50620000f3600160a060020a0360043516620002ad565b005b3480156200010257600080fd5b50620000f3620002f4565b3480156200011a57600080fd5b50620000b362000361565b3480156200013257600080fd5b506040805160206004803580820135601f810184900484028501840190955284845262000181943694929360249392840191908190840183828082843750949750620003709650505050505050565b60408051918252519081900360200190f35b348015620001a057600080fd5b5060408051602060048035808201358381028086018501909652808552620000f395369593946024949385019291829185019084908082843750506040805187358901803560208181028481018201909552818452989b9a998901989297509082019550935083925085019084908082843750506040805187358901803560208181028481018201909552818452989b9a9989019892975090820195509350839250850190849080828437509497505093359450620003d69350505050565b3480156200026c57600080fd5b50620000b360043562000699565b3480156200028757600080fd5b50620000f3600160a060020a0360043516620006c2565b600154600160a060020a031681565b600054600160a060020a03163314620002c557600080fd5b6001805473ffffffffffffffffffffffffffffffffffffffff1916600160a060020a0392909216919091179055565b600054600160a060020a031633146200030c57600080fd5b60008054604051600160a060020a03909116917ff8df31144d9c2f0f6b59d69b8b98abd5459d07f2742c4df920b25aae33c6482091a26000805473ffffffffffffffffffffffffffffffffffffffff19169055565b600054600160a060020a031681565b6000816040518082805190602001908083835b60208310620003a45780518252601f19909201916020918201910162000383565b5181516020939093036101000a6000190180199091169216919091179052604051920182900390912095945050505050565b600154600090600160a060020a031685858585620003f362000766565b600160a060020a03861681526080810182905260a0602080830182815287519284019290925286516040840191606085019160c08601918a8101910280838360005b838110156200044f57818101518382015260200162000435565b50505050905001848103835287818151815260200191508051906020019060200280838360005b838110156200049057818101518382015260200162000476565b50505050905001848103825286818151815260200191508051906020019060200280838360005b83811015620004d1578181015183820152602001620004b7565b5050505090500198505050505050505050604051809103906000f080158015620004ff573d6000803e3d6000fd5b5060028054600180820183556000929092527f405787fa12a823e0f2b7631cc41b3ba8828b3321ca811111fa75cd3aa3bb5ace01805473ffffffffffffffffffffffffffffffffffffffff1916600160a060020a0384161790558651919250869181106200056957fe5b90602001906020020151600160a060020a03168560008151811015156200058c57fe5b90602001906020020151600160a060020a031633600160a060020a03167f10e90922e9ef80d8cdfa2621c8fd50a670b92c91da43f6f7d953a721d0faddd2848888886040518085600160a060020a0316600160a060020a0316815260200180602001806020018460001916600019168152602001838103835286818151815260200191508051906020019060200280838360005b838110156200063a57818101518382015260200162000620565b50505050905001838103825285818151815260200191508051906020019060200280838360005b838110156200067b57818101518382015260200162000661565b50505050905001965050505050505060405180910390a45050505050565b6002805482908110620006a857fe5b600091825260209091200154600160a060020a0316905081565b600054600160a060020a03163314620006da57600080fd5b620006e581620006e8565b50565b600160a060020a0381161515620006fe57600080fd5b60008054604051600160a060020a03808516939216917f8be0079c531659141344cd1fd0a4f28419497f9722a3daafe3b4186f6b6457e091a36000805473ffffffffffffffffffffffffffffffffffffffff1916600160a060020a0392909216919091179055565b604051613e2d8062000778833901905600608060405262093a806001556202a30060025561070860035562015180600481905560055566b1a2bc2ec50000600655662386f26fc100006007819055600855601d805460ff191690556000601e819055601f553480156200006057600080fd5b5060405162003e2d38038062003e2d833981016040908152815160208301519183015160608401516080850151918501805193959485019490939101919085908590859085908590600090819081906002148015620000c0575084516002145b8015620000ce575086516002145b1515620000da57600080fd5b866000815181101515620000ea57fe5b90602001906020020151600160a060020a03166000141580156200013157508660018151811015156200011957fe5b90602001906020020151600160a060020a0316600014155b15156200013d57600080fd5b5060009150819050805b86518160ff161015620002c2576001600a6000898460ff168151811015156200016c57fe5b602090810291909101810151600160a060020a03168252810191909152604001600020805460ff19169115159190911790558551869060ff8316908110620001b057fe5b90602001906020020151600b6000898460ff16815181101515620001d057fe5b6020908102909101810151600160a060020a03168252810191909152604001600020558451859060ff83169081106200020557fe5b90602001906020020151600c6000898460ff168151811015156200022557fe5b6020908102909101810151600160a060020a031682528101919091526040016000205585516200027f90879060ff84169081106200025f57fe5b60209081029091010151839064010000000062002e876200042d82021704565b9150620002b7858260ff168151811015156200029757fe5b60209081029091010151849064010000000062002e876200042d82021704565b925060010162000147565b828214620002cf57600080fd5b8651620002e49060099060208a019062000441565b50601084905560008054600160a060020a031916600160a060020a038a161790558651879060019081106200031557fe5b90602001906020020151600160a060020a03168760008151811015156200033857fe5b90602001906020020151600160a060020a03167f18a9c4249303b74ecff5e58f4dcc486cd7de84cd3feec18d74f4c9216963fb9e8888886040518080602001806020018460001916600019168152602001838103835286818151815260200191508051906020019060200280838360005b83811015620003c3578181015183820152602001620003a9565b50505050905001838103825285818151815260200191508051906020019060200280838360005b8381101562000404578181015183820152602001620003ea565b505050509050019550505050505060405180910390a350505050505050505050505050620004d5565b818101828110156200043b57fe5b92915050565b82805482825590600052602060002090810192821562000499579160200282015b82811115620004995782518254600160a060020a031916600160a060020a0390911617825560209092019160019091019062000462565b50620004a7929150620004ab565b5090565b620004d291905b80821115620004a7578054600160a060020a0319168155600101620004b2565b90565b61394880620004e56000396000f30060806040526004361061026e5763ffffffff60e060020a60003504166302edcbfb8114610273578063049f2d8a146103055780630ab55d0b146103385780630d15fd771461034d57806312feb4a714610362578063188c0e43146103775780631ff2e2141461038c57806325ce690b1461042a5780632731c6c61461044b5780632a50b544146104605780632ca15122146104755780632efab6fa1461048a5780632f36cacf1461049f57806337c2afda146104f95780633ad17f6d1461051a5780633f606aa31461055557806341e60c861461056a578063446332971461057f5780634f235207146105a65780634f802f8a146105db57806352e18f33146105f05780635a9e17a7146106055780635cfe585a1461061a5780635e2c19db146106485780635f068b43146106695780635f74bbde1461069a57806360d50596146106be57806364a8a11f146106d6578063682644fd1461070057806368e664bd146107215780636eae555d1461074257806374e6cfd3146107975780638b90dc94146107b85780638bfb85c3146107cd5780638e7ea5b2146107e25780638fae60a5146107f7578063911058df1461080c578063918c937314610824578063994d4060146108395780639cff621a1461085a578063a3f5700d1461086f578063a7e92fb514610884578063adef40db14610899578063b40b784114610900578063b51459fe14610915578063b7c1ae8114610945578063bf6a141314610966578063c0c6a68a14610987578063c19d93fb1461099f578063d15e3170146109d8578063d5e03fc6146109f3578063f585dc5714610a08578063fc76317614610a1d578063fdff8d5d14610a3e575b600080fd5b34801561027f57600080fd5b506040805160206004803580820135838102808601850190965280855261030395369593946024949385019291829185019084908082843750506040805187358901803560208181028481018201909552818452989b9a9989019892975090820195509350839250850190849080828437509497505093359450610a769350505050565b005b34801561031157600080fd5b50610326600160a060020a0360043516610a87565b60408051918252519081900360200190f35b34801561034457600080fd5b50610326610a99565b34801561035957600080fd5b50610326610a9f565b34801561036e57600080fd5b50610326610aa5565b34801561038357600080fd5b50610326610aab565b34801561039857600080fd5b50604080516020600460248035828101358481028087018601909752808652610303968435600160a060020a031696369660449591949091019291829185019084908082843750506040805187358901803560208181028481018201909552818452989b9a9989019892975090820195509350839250850190849080828437509497505093359450610ab19350505050565b34801561043657600080fd5b50610326600160a060020a0360043516610ada565b34801561045757600080fd5b50610326610aec565b34801561046c57600080fd5b50610326610af2565b34801561048157600080fd5b50610303610af8565b34801561049657600080fd5b50610326610b03565b3480156104ab57600080fd5b5060408051602060046024803582810135848102808701860190975280865261030396843596369660449591949091019291829185019084908082843750949750610b099650505050505050565b34801561050557600080fd5b50610303600160a060020a0360043516610b18565b34801561052657600080fd5b5061052f610b3b565b60408051600160a060020a03938416815291909216602082015281519081900390910190f35b34801561056157600080fd5b50610326610c7d565b34801561057657600080fd5b50610303610c83565b34801561058b57600080fd5b50610326600160a060020a0360043581169060243516610de4565b3480156105b257600080fd5b506105c7600160a060020a0360043516610e01565b604080519115158252519081900360200190f35b3480156105e757600080fd5b50610303610e16565b3480156105fc57600080fd5b5061032661110c565b34801561061157600080fd5b50610326611112565b34801561062657600080fd5b5061062f611118565b6040805192835260208301919091528051918290030190f35b34801561065457600080fd5b506105c7600160a060020a036004351661135b565b34801561067557600080fd5b5061067e611370565b60408051600160a060020a039092168252519081900360200190f35b3480156106a657600080fd5b50610303600160a060020a036004351660243561137f565b3480156106ca57600080fd5b5061067e60043561138a565b3480156106e257600080fd5b50610303600160a060020a03600435811690602435166044356113b2565b34801561070c57600080fd5b506105c7600160a060020a03600435166113d4565b34801561072d57600080fd5b506105c7600160a060020a03600435166113e9565b34801561074e57600080fd5b5060408051602060048035808201358381028086018501909652808552610303953695939460249493850192918291850190849080828437509497506113fe9650505050505050565b3480156107a357600080fd5b50610326600160a060020a03600435166115ee565b3480156107c457600080fd5b506105c7611600565b3480156107d957600080fd5b50610303611609565b3480156107ee57600080fd5b5061067e611612565b34801561080357600080fd5b50610303611707565b34801561081857600080fd5b5061030360043561183a565b34801561083057600080fd5b50610326611875565b34801561084557600080fd5b50610326600160a060020a036004351661187b565b34801561086657600080fd5b5061030361188d565b34801561087b57600080fd5b50610326611aad565b34801561089057600080fd5b50610303611ab3565b3480156108a557600080fd5b506040805160206004604435818101358381028086018501909652808552610303958335600160a060020a0316956024803596369695606495939492019291829185019084908082843750949750611b4d9650505050505050565b34801561090c57600080fd5b50610326611b6f565b34801561092157600080fd5b5061092a611b75565b60408051921515835260208301919091528051918290030190f35b34801561095157600080fd5b50610326600160a060020a0360043516611bbc565b34801561097257600080fd5b506105c7600160a060020a0360043516611bce565b34801561099357600080fd5b50610303600435611be3565b3480156109ab57600080fd5b506109b4611c1e565b604051808260048111156109c457fe5b60ff16815260200191505060405180910390f35b3480156109e457600080fd5b50610303600435602435611c27565b3480156109ff57600080fd5b506103036120af565b348015610a1457600080fd5b506103266122a2565b348015610a2957600080fd5b50610303600160a060020a03600435166122a8565b348015610a4a57600080fd5b50610a596004356024356122c8565b6040805160ff909316835260208301919091528051918290030190f35b610a8233848484612581565b505050565b600c6020526000908152604090205481565b60105481565b60195481565b60185481565b60115481565b600054600160a060020a03163314610ac857600080fd5b610ad484848484612581565b50505050565b600b6020526000908152604090205481565b60015481565b60025481565b610b0133612817565b565b60075481565b610b14338383612a1d565b5050565b600054600160a060020a03163314610b2f57600080fd5b610b3881612817565b50565b600080600080600080610b4c611612565b9350600160a060020a03841615610b64576000610b89565b600980546000908110610b7357fe5b600091825260209091200154600160a060020a03165b600160a060020a0381166000908152601b602052604081205491945090925090505b60095460ff82161015610c7257601b600060098360ff16815481101515610bce57fe5b6000918252602080832090910154600160a060020a0316835282019290925260400190205482108015610c2957506009805460ff8316908110610c0d57fe5b600091825260209091200154600160a060020a03858116911614155b15610c6a576009805460ff8316908110610c3f57fe5b6000918252602080832090910154600160a060020a0316808352601b90915260409091205490935091505b600101610bab565b509194909350915050565b60055481565b600080601d5460ff166004811115610c9757fe5b14610ca157600080fd5b336000908152600a602052604090205460ff161515610cbf57600080fd5b3360009081526012602052604090205460ff161515610cdd57600080fd5b336000818152601260209081526040808320805460ff191690558254600c83528184205482517fa9059cbb000000000000000000000000000000000000000000000000000000008152600481019690965260248601529051600160a060020a039091169363a9059cbb9360448083019493928390030190829087803b158015610d6557600080fd5b505af1158015610d79573d6000803e3d6000fd5b505050506040513d6020811015610d8f57600080fd5b50511515610d9c57600080fd5b336000818152600c602090815260409182902054825190815291517ff915f6adcfba53634fa63225573ad1f78d2f842387fe91379c27c14a259537cf9281900390910190a250565b600f60209081526000928352604080842090915290825290205481565b600a6020526000908152604090205460ff1681565b600080600180601d5460ff166004811115610e2d57fe5b14610e3757600080fd5b336000908152600a602052604090205460ff161515610e5557600080fd5b60165460ff161515610e6657600080fd5b6016805460ff19169055600092505b60095460ff841610156110dc576015600060098560ff16815481101515610e9857fe5b6000918252602080832090910154600160a060020a0316835282019290925260400190205460ff16156110d15760006015600060098660ff16815481101515610edd57fe5b600091825260208083209190910154600160a060020a031683528201929092526040018120805460ff19169215159290921790915560098054600c92919060ff8716908110610f2857fe5b6000918252602080832090910154600160a060020a03168352820192909252604001812054600980549192600e9290919060ff8816908110610f6657fe5b6000918252602080832090910154600160a060020a0316835282019290925260400190205411156110d157611019600c600060098660ff16815481101515610faa57fe5b6000918252602080832090910154600160a060020a03168352820192909252604001812054600980549192600e9290919060ff8916908110610fe857fe5b6000918252602080832090910154600160a060020a031683528201929092526040019020549063ffffffff612e2c16565b60005460098054929450600160a060020a039091169163a9059cbb919060ff871690811061104357fe5b60009182526020808320909101546040805160e060020a63ffffffff8716028152600160a060020a039092166004830152602482018890525160448083019491928390030190829087803b15801561109a57600080fd5b505af11580156110ae573d6000803e3d6000fd5b505050506040513d60208110156110c457600080fd5b505115156110d157600080fd5b600190920191610e75565b60405133907fc42ff889a5bf104cb88fddd83f34d59c6162fb4c97c5c075d3e5143b977407d090600090a2505050565b60065481565b601a5481565b60008080808080600380601d5460ff16600481111561113357fe5b1461113d57600080fd5b601854611148612e43565b101561115d57601854601a5496509650611352565b61118c670de0b6b3a7640000611180600654601954612e4990919063ffffffff16565b9063ffffffff612e7216565b601a5411156111b5576004546018546111aa9163ffffffff612e8716565b965060009550611352565b6000808052601b6020527f584f46c60af19681376031579adb04a2416e54ee5505351c2a8435e3766026ea54955093505b60095460ff8516101561127e5784601b600060098760ff1681548110151561120a57fe5b6000918252602080832090910154600160a060020a03168352820192909252604001902054111561127357601b600060098660ff1681548110151561124b57fe5b6000918252602080832090910154600160a060020a0316835282019290925260400190205494505b6001909301926111e6565b6000808052601b6020527f584f46c60af19681376031579adb04a2416e54ee5505351c2a8435e3766026ea549093508514156112bb578260010192505b600091505b60095460ff831610156113215784601b600060098560ff168154811015156112e457fe5b6000918252602080832090910154600160a060020a031683528201929092526040019020541415611316578260010192505b6001909101906112c0565b60018360ff161115611347576111aa60045461133b612e43565b9063ffffffff612e8716565b601854601a54965096505b50505050509091565b60146020526000908152604090205460ff1681565b600054600160a060020a031681565b610b14338383612e94565b600980548290811061139857fe5b600091825260209091200154600160a060020a0316905081565b600054600160a060020a031633146113c957600080fd5b610a82838383612e94565b60136020526000908152604090205460ff1681565b60156020526000908152604090205460ff1681565b60008080600380601d5460ff16600481111561141657fe5b1461142057600080fd5b336000908152600a602052604090205460ff16151561143e57600080fd5b60095485511461144d57600080fd5b601754611458612e43565b1061146257600080fd5b6000935060009250600091505b60095460ff8316101561156757848260ff1681518110151561148d57fe5b6020908102909101810151336000908152600f90925260408220600980549293919260ff87169081106114bc57fe5b6000918252602080832090910154600160a060020a03168352820192909252604001902055845161150d90869060ff85169081106114f657fe5b60209081029091010151859063ffffffff612e8716565b935061155a600c600060098560ff1681548110151561152857fe5b6000918252602080832090910154600160a060020a03168352820192909252604001902054849063ffffffff612e8716565b925060019091019061146f565b83831461157357600080fd5b604080516020808252875181830152875133937fe98983adb63591508c2f748970470e7487b3bebd763d08abc3334beeb72a00b0938a9390928392830191808601910280838360005b838110156115d45781810151838201526020016115bc565b505050509050019250505060405180910390a25050505050565b601b6020526000908152604090205481565b60165460ff1681565b610b01336132bc565b6000808052601b6020527f584f46c60af19681376031579adb04a2416e54ee5505351c2a8435e3766026ea5481805b60095460ff8216101561170057601b600060098360ff1681548110151561166457fe5b6000918252602080832090910154600160a060020a031683528201929092526040019020548310156116f857601b600060098360ff168154811015156116a657fe5b6000918252602080832090910154600160a060020a03168352820192909252604001902054600980549194509060ff83169081106116e057fe5b600091825260209091200154600160a060020a031691505b600101611641565b5092915050565b600080600180601d5460ff16600481111561171e57fe5b1461172857600080fd5b336000908152600a602052604090205460ff16151561174657600080fd5b3360009081526013602052604090205460ff161561176357600080fd5b336000908152601360205260409020805460ff1916600117905560165460ff161561179057611790610e16565b60019250600091505b60095460ff831610156117fa578280156117ed57506013600060098460ff168154811015156117c457fe5b6000918252602080832090910154600160a060020a0316835282019290925260400190205460ff165b9250600190910190611799565b821561180a5761180a600261380e565b60405133907fcdfedae112bb2610775e69a6ffd348e7dfdd996e3fb3a5f6d46b52651867b49790600090a2505050565b601f8190556040805182815290517ff54bf4ed226aa1df732802a8bd56e85755aab0a0ef7c2fbf204cf0de0765f0739181900360200190a150565b60175481565b600d6020526000908152604090205481565b600080600280601d5460ff1660048111156118a457fe5b146118ae57600080fd5b336000908152600a602052604090205460ff1615156118cc57600080fd5b3360009081526014602052604090205460ff16156118e957600080fd5b336000818152601460209081526040808320805460ff191660011790558254600b83528184205482517fa9059cbb000000000000000000000000000000000000000000000000000000008152600481019690965260248601529051600160a060020a03919091169363a9059cbb9360448083019493928390030190829087803b15801561197557600080fd5b505af1158015611989573d6000803e3d6000fd5b505050506040513d602081101561199f57600080fd5b505115156119ac57600080fd5b60019250600091505b60095460ff83161015611a5857828015611a4b57506014600060098460ff168154811015156119e057fe5b6000918252602080832090910154600160a060020a0316835282019290925260400190205460ff1680611a4b5750600b600060098460ff16815481101515611a2457fe5b6000918252602080832090910154600160a060020a03168352820192909252604001902054155b92506001909101906119b5565b336000818152600b602090815260409182902054825190815291517f76cc4dd05e1fc280969f3363b5db432911cddfadcfae9bef818a492c0f8d57329281900390910190a28215610a8257610a82600461380e565b60085481565b600180601d5460ff166004811115611ac757fe5b14611ad157600080fd5b336000908152600a602052604090205460ff161515611aef57600080fd5b3360009081526013602052604090205460ff161515611b0d57600080fd5b33600081815260136020526040808220805460ff19169055517f6faffafe1cb6a0bf26e66cc0178734aa9fe07d7c6961884c4a93920423c0bd0e9190a250565b600054600160a060020a03163314611b6457600080fd5b610a82838383612a1d565b60045481565b600080600080611b83611612565b600160a060020a03166000908152600f6020908152604080832033845282528083205460149092529091205460ff169590945092505050565b600e6020526000908152604090205481565b60126020526000908152604090205460ff1681565b601e8190556040805182815290517fb5650d845cdd2d20be38618a709ffc597b681b4a60ec873333f2959dead54e399181900360200190a150565b601d5460ff1681565b6000808080808080808080600380601d5460ff166004811115611c4657fe5b14611c5057600080fd5b611c58611118565b601854919c509a508b14611caf57601854604080518d8152602081019290925280517f04e9f9a05f2b0f7b76cbaeafc40a3136a1870f82f8eff85e766f7eb868a8b9e09281900390910190a160188b9055601a8a90555b600554601854611cc49163ffffffff612e8716565b611ccc612e43565b1015611cd757600080fd5b611cdf610b3b565b600160a060020a0382166000908152601b6020526040902054601954929b50909950611d11919063ffffffff612e2c16565b600160a060020a0389166000908152601b602052604081205491985090965094508615611d4557611d42878761389f565b94505b60009350600092508c91505b336000908152601c60209081526040808320600160a060020a038d168452909152902054611d7f908d6138c4565b821015611fa657336000908152601c60209081526040808320600160a060020a038d1684529091529020805483908110611db557fe5b600091825260209091206002600390920201015460ff161515611f9b57336000908152601c60209081526040808320600160a060020a038d168452909152902080546001919084908110611e0557fe5b60009182526020808320600392909202909101600201805460ff191693151593909317909255338152601c82526040808220600160a060020a038d168352909252208054611e76919084908110611e5857fe5b6000918252602090912060039091020154849063ffffffff612e8716565b336000908152601c60209081526040808320600160a060020a038e16845290915290208054919450879184908110611eaa57fe5b9060005260206000209060030201600101541015611f9b57336000908152601c60209081526040808320600160a060020a038d16845290915290208054611f9891611f8b91611f1f919086908110611efe57fe5b90600052602060002090600302016001015489612e2c90919063ffffffff16565b601c600033600160a060020a0316600160a060020a0316815260200190815260200160002060008d600160a060020a0316600160a060020a0316815260200190815260200160002085815481101515611f7457fe5b9060005260206000209060030201600001546138c4565b859063ffffffff612e8716565b93505b600190910190611d51565b600054600160a060020a031663a9059cbb33611fd2611fc5888a6138da565b879063ffffffff612e8716565b6040518363ffffffff1660e060020a0281526004018083600160a060020a0316600160a060020a0316815260200182815260200192505050602060405180830381600087803b15801561202457600080fd5b505af1158015612038573d6000803e3d6000fd5b505050506040513d602081101561204e57600080fd5b5051151561205b57600080fd5b337f49329039ffba66f8761d4a6d68b169063aa8f3a76a256007f5d55ceecf9be8248461208887896138da565b6040805192835260208301919091528051918290030190a250505050505050505050505050565b6000808080600380601d5460ff1660048111156120c857fe5b146120d257600080fd5b336000908152600a602052604090205460ff1615156120f057600080fd5b6120f8611118565b6018549196509450851461214f5760185460408051878152602081019290925280517f04e9f9a05f2b0f7b76cbaeafc40a3136a1870f82f8eff85e766f7eb868a8b9e09281900390910190a16018859055601a8490555b60185461215a612e43565b101561216557600080fd5b3360009081526014602052604090205460ff161561218257600080fd5b336000908152601460205260409020805460ff191660011790556121a4611612565b600160a060020a038082166000908152600f602090815260408083203380855290835281842054845483517fa9059cbb0000000000000000000000000000000000000000000000000000000081526004810193909352602483018290529251969950975093169363a9059cbb93604480820194918390030190829087803b15801561222e57600080fd5b505af1158015612242573d6000803e3d6000fd5b505050506040513d602081101561225857600080fd5b5051151561226557600080fd5b60408051838152905133917f529314119e568ebeb046e7fb288642e03aea33279f2f6762afd0e56a74c7aa42919081900360200190a25050505050565b60035481565b600054600160a060020a031633146122bf57600080fd5b610b38816132bc565b600080808080808080808080806122dd610b3b565b600554601854929a509098506122f9919063ffffffff612e8716565b612301612e43565b10156123105760019950612315565b600299505b600160a060020a0388166000908152601b60205260409020546019546123409163ffffffff612e2c16565b600160a060020a0388166000908152601b60205260408120549197509095509350851561237457612371868661389f565b93505b50600091508190508c5b336000908152601c60209081526040808320600160a060020a038c1684529091529020546123ac908e6138c4565b81101561254557336000908152601c60209081526040808320600160a060020a038c16845290915290208054829081106123e257fe5b600091825260209091206002600390920201015460ff161561240357600399505b336000908152601c60209081526040808320600160a060020a038c1684529091529020805461245591908390811061243757fe5b6000918252602090912060039091020154839063ffffffff612e8716565b336000908152601c60209081526040808320600160a060020a038d1684529091529020805491935086918390811061248957fe5b906000526020600020906003020160010154101561253d57336000908152601c60209081526040808320600160a060020a038c1684529091529020805461253a9161252d916124fe9190859081106124dd57fe5b90600052602060002090600302016001015488612e2c90919063ffffffff16565b336000908152601c60209081526040808320600160a060020a038f1684529091529020805485908110611f7457fe5b849063ffffffff612e8716565b92505b60010161237e565b61255f61255284866138da565b839063ffffffff612e8716565b985088151561256d57600099505b50979c969b50959950505050505050505050565b60008080600180601d5460ff16600481111561259957fe5b146125a357600080fd5b600160a060020a0388166000908152600a6020526040902054889060ff1615156125cc57600080fd5b60165460ff16156125dc57600080fd5b6016805460ff1916600117905560095488511480156125fd57506009548751145b151561260857600080fd5b6000945060009350600092505b60095460ff8416101561271d57878360ff1681518110151561263357fe5b90602001906020020151600d600060098660ff1681548110151561265357fe5b6000918252602080832090910154600160a060020a031683528201929092526040019020558651879060ff851690811061268957fe5b90602001906020020151600e600060098660ff168154811015156126a957fe5b6000918252602080832090910154600160a060020a0316835282019290925260400190205587516126e390899060ff86169081106114f657fe5b9350612710878460ff168151811015156126f957fe5b60209081029091010151869063ffffffff612e8716565b9450600190920191612615565b84841461272957600080fd5b6011869055612737896132bc565b88600160a060020a03167fd33aabc7fc9a1f5861dc19acc754cc8fe8c4400063f1e32d2bf90ac64b628daf8989896040518080602001806020018460001916600019168152602001838103835286818151815260200191508051906020019060200280838360005b838110156127b757818101518382015260200161279f565b50505050905001838103825285818151815260200191508051906020019060200280838360005b838110156127f65781810151838201526020016127de565b505050509050019550505050505060405180910390a2505050505050505050565b6000808080601d5460ff16600481111561282d57fe5b1461283757600080fd5b600160a060020a0384166000908152600a6020526040902054849060ff16151561286057600080fd5b600160a060020a03851660009081526012602052604090205460ff161561288657600080fd5b600160a060020a038086166000818152601260209081526040808320805460ff191660011790558254600c83528184205482517f23b872dd0000000000000000000000000000000000000000000000000000000081526004810196909652306024870152604486015290519416936323b872dd93606480820194918390030190829087803b15801561291757600080fd5b505af115801561292b573d6000803e3d6000fd5b505050506040513d602081101561294157600080fd5b5051151561294e57600080fd5b60019350600092505b60095460ff841610156129b8578380156129ab57506012600060098560ff1681548110151561298257fe5b6000918252602080832090910154600160a060020a0316835282019290925260400190205460ff165b9350600190920191612957565b83156129c8576129c8600161380e565b600160a060020a0385166000818152600c602090815260409182902054825190815291517fa8cc9409769b9614f3ae4056957bfbb32d986e4b61c886b5e29b324b5bf92d0a9281900390910190a25050505050565b600080808080600180601d5460ff166004811115612a3757fe5b14612a4157600080fd5b600160a060020a0389166000908152600a6020526040902054899060ff161515612a6a57600080fd5b600954885114612a7957600080fd5b60165460ff1615612a8c57612a8c610e16565b612a96600361380e565b6000965060009550600094505b60095460ff86161015612baf57878560ff16815181101515612ac157fe5b90602001906020020151600f60008c600160a060020a0316600160a060020a03168152602001908152602001600020600060098860ff16815481101515612b0457fe5b6000918252602080832090910154600160a060020a031683528201929092526040019020558751612b5590899060ff8816908110612b3e57fe5b60209081029091010151889063ffffffff612e8716565b9650612ba2600c600060098860ff16815481101515612b7057fe5b6000918252602080832090910154600160a060020a03168352820192909252604001902054879063ffffffff612e8716565b9550600190940193612aa3565b868614612bbb57600080fd5b612bdc670de0b6b3a764000061118060075489612e4990919063ffffffff16565b891015612be857600080fd5b612bfb612bf3612e43565b600254612e87565b6017819055600154612c0d9190612e87565b601855600093505b60095460ff85161015612cd85789600160a060020a031660098560ff16815481101515612c3e57fe5b600091825260209091200154600160a060020a031614612ccd5785600f600060098760ff16815481101515612c6f57fe5b6000918252602080832090910154600160a060020a0316835282019290925260400181206009805491929160ff8916908110612ca757fe5b6000918252602080832090910154600160a060020a031683528201929092526040019020555b600190930192612c15565b600092505b60095460ff84161015612d9657600c600060098560ff16815481101515612d0057fe5b6000918252602080832090910154600160a060020a03168352828101939093526040909101812054818052600f909252600980547ff4803e074bd026baaf6ed2e288c9515f68c72fb7216eebdd7cae1718a53ec37592919060ff8816908110612d6557fe5b6000918252602080832090910154600160a060020a0316835282019290925260400190205560019290920191612cdd565b89600160a060020a03167f978fff33bfee4716da21bf89e67d0757d6550d4b6f53676919de1d1d209f5ef0896040518080602001828103825283818151815260200191508051906020019060200280838360005b83811015612e02578181015183820152602001612dea565b505050509050019250505060405180910390a2612e208a8b8b612e94565b50505050505050505050565b600082821115612e3857fe5b508082035b92915050565b601f5490565b6000821515612e5a57506000612e3d565b50818102818382811515612e6a57fe5b0414612e3d57fe5b60008183811515612e7f57fe5b049392505050565b81810182811015612e3d57fe5b600080600080612ea26138f8565b600380601d5460ff166004811115612eb657fe5b14612ec057600080fd5b612ec8611118565b60185491975095508614612f1f5760185460408051888152602081019290925280517f04e9f9a05f2b0f7b76cbaeafc40a3136a1870f82f8eff85e766f7eb868a8b9e09281900390910190a16018869055601a8590555b601854612f2a612e43565b10612f3457600080fd5b601754612f3f612e43565b101580612f645750600160a060020a0389166000908152600a602052604090205460ff165b1515612f6f57600080fd5b600160a060020a0388166000908152600a602052604090205460ff1680612f9d5750600160a060020a038816155b1515612fa857600080fd5b612fcb670de0b6b3a7640000611180600754601954612e4990919063ffffffff16565b871015612fd757600080fd5b601954156130c157612fe7610b3b565b9094509250600160a060020a03888116908516141561306357600160a060020a0383166000908152601b602052604090205461302a90600263ffffffff612e4916565b600160a060020a0389166000908152601b6020526040902054613053908963ffffffff612e8716565b111561305e57600080fd5b6130c1565b600160a060020a0384166000908152601b602052604090205461308d90600263ffffffff612e4916565b600160a060020a0389166000908152601b60205260409020546130b6908963ffffffff612e8716565b11156130c157600080fd5b60408051606081018252888152600160a060020a03808b166000908152601b60209081528482205481850152838501829052815485517f23b872dd0000000000000000000000000000000000000000000000000000000081528f85166004820152306024820152604481018e90529551949750909216936323b872dd936064808301949391928390030190829087803b15801561315d57600080fd5b505af1158015613171573d6000803e3d6000fd5b505050506040513d602081101561318757600080fd5b5051151561319457600080fd5b6018546131a99061070863ffffffff612e2c16565b6131b1612e43565b106131cd57601a546131c9908863ffffffff612e8716565b601a555b6019546131e0908863ffffffff612e8716565b601955600160a060020a0388166000908152601b602052604090205461320c908863ffffffff612e8716565b600160a060020a038981166000818152601b6020908152604080832095909555928d16808252601c845284822083835284528482208054600180820183559184529285902088516003909402019283558785015190830155868501516002909201805460ff19169215159290921790915583518b81529351919390927f484413c33463e7d976e3ded2a85b0c31610d0906977df2cd9cbd6d12a6872a8492918290030190a3505050505050505050565b600080808080600180601d5460ff1660048111156132d657fe5b146132e057600080fd5b600160a060020a0387166000908152600a6020526040902054879060ff16151561330957600080fd5b60165460ff16151561331a57600080fd5b600160a060020a03881660009081526015602052604090205460ff161561334057600080fd5b600160a060020a0388166000908152601560209081526040808320805460ff19166001179055600c825280832054600e90925290912054111561346157600160a060020a0388166000908152600c6020908152604080832054600e909252909120546133b19163ffffffff612e2c16565b60008054604080517f23b872dd000000000000000000000000000000000000000000000000000000008152600160a060020a038d81166004830152306024830152604482018690529151949b509116926323b872dd92606480840193602093929083900390910190829087803b15801561342a57600080fd5b505af115801561343e573d6000803e3d6000fd5b505050506040513d602081101561345457600080fd5b5051151561346157600080fd5b604051600160a060020a038916907fa49e1bf6eca68fcbe0f530f9389e60870664cb4b8cd290ade9d0fe3b7c4d9c7590600090a260019550600094505b60095460ff861610156134ff578580156134f257506015600060098760ff168154811015156134c957fe5b6000918252602080832090910154600160a060020a0316835282019290925260400190205460ff165b955060019094019361349e565b8515613804576016805460ff19169055600093505b60095460ff851610156137fd5760006015600060098760ff1681548110151561353957fe5b600091825260208083209190910154600160a060020a031683528201929092526040018120805460ff19169215159290921790915560098054600c92919060ff881690811061358457fe5b6000918252602080832090910154600160a060020a03168352820192909252604001812054600980549192600e9290919060ff89169081106135c257fe5b6000918252602080832090910154600160a060020a0316835282019290925260400190205410156136fc57613644600e600060098760ff1681548110151561360657fe5b6000918252602080832090910154600160a060020a03168352820192909252604001812054600980549192600c9290919060ff8a16908110610fe857fe5b60005460098054929550600160a060020a039091169163a9059cbb919060ff881690811061366e57fe5b60009182526020808320909101546040805160e060020a63ffffffff8716028152600160a060020a039092166004830152602482018990525160448083019491928390030190829087803b1580156136c557600080fd5b505af11580156136d9573d6000803e3d6000fd5b505050506040513d60208110156136ef57600080fd5b505115156136fc57600080fd5b600e600060098660ff1681548110151561371257fe5b6000918252602080832090910154600160a060020a03168352820192909252604001812054600980549192600c9290919060ff891690811061375057fe5b6000918252602080832090910154600160a060020a0316835282019290925260400181209190915560098054600d92919060ff881690811061378e57fe5b6000918252602080832090910154600160a060020a03168352820192909252604001812054600980549192600b9290919060ff89169081106137cc57fe5b6000918252602080832090910154600160a060020a0316835282019290925260400190205560019390930192613514565b6011546010555b5050505050505050565b601d547f7a86a836fcb7b1724e95db8cca29b460e17febee51b6f03e272720350340352e9060ff168261383f612e43565b6040518084600481111561384f57fe5b60ff16815260200183600481111561386357fe5b60ff168152602001828152602001935050505060405180910390a1601d805482919060ff1916600183600481111561389757fe5b021790555050565b60006138bd8261118085670de0b6b3a764000063ffffffff612e4916565b9392505050565b60008183106138d357816138bd565b5090919050565b60006138bd670de0b6b3a7640000611180858563ffffffff612e4916565b606060405190810160405280600081526020016000815260200160001515815250905600a165627a7a72305820f8004eb159ddcecd89637a9cf55db36c0586e0a230c39c90d5c55a914e18b1fb0029a165627a7a72305820cb655cd173a70716c9329c67699692de67e332fa6676537ce7305aeababe75760029",
  "source": "pragma solidity ^0.4.23;\n\nimport \"openzeppelin-solidity/contracts/token/ERC20/ERC20.sol\";\nimport \"openzeppelin-solidity/contracts/math/SafeMath.sol\";\nimport \"openzeppelin-solidity/contracts/ownership/Ownable.sol\";\nimport \"./ArbitrationMock.sol\";\nimport \"../ArbitrationFactory.sol\";\n\ncontract ArbitrationFactoryMock is ArbitrationFactory {\n\n  constructor(address _jurToken) public\n    ArbitrationFactory(_jurToken)\n  {\n\n  }\n\n  function createArbitration(address[] _parties, uint256[] _dispersal, uint256[] _funding, bytes32 _agreementHash) public {\n    address newArbitration = new ArbitrationMock(jurToken, _parties, _dispersal, _funding, _agreementHash);\n    arbirations.push(newArbitration);\n    emit ArbitrationCreated(msg.sender, newArbitration, _parties[0], _parties[1], _dispersal, _funding, _agreementHash);\n  }\n\n}\n",
  "sourcePath": "/Users/mirelxhafa/VisualCodeProjects/platform/protocol/contracts/mock/ArbitrationFactoryMock.sol",
  "compiler": {
    "name": "solc",
    "version": "0.4.26+commit.4563c3fc.Emscripten.clang"
  },
  "schemaVersion": "2.0.3",
  "updatedAt": "2020-04-27T14:04:03.434Z"
}