{
  "contractName": "Arbitration",
  "abi": [
    {
      "constant": true,
      "inputs": [
        {
          "name": "",
          "type": "address"
        }
      ],
      "name": "funding",
      "outputs": [
        {
          "name": "",
          "type": "uint256"
        }
      ],
      "payable": false,
      "stateMutability": "view",
      "type": "function"
    },
    {
      "constant": true,
      "inputs": [],
      "name": "agreementHash",
      "outputs": [
        {
          "name": "",
          "type": "bytes32"
        }
      ],
      "payable": false,
      "stateMutability": "view",
      "type": "function"
    },
    {
      "constant": true,
      "inputs": [],
      "name": "totalVotes",
      "outputs": [
        {
          "name": "",
          "type": "uint256"
        }
      ],
      "payable": false,
      "stateMutability": "view",
      "type": "function"
    },
    {
      "constant": true,
      "inputs": [],
      "name": "disputeEnds",
      "outputs": [
        {
          "name": "",
          "type": "uint256"
        }
      ],
      "payable": false,
      "stateMutability": "view",
      "type": "function"
    },
    {
      "constant": true,
      "inputs": [],
      "name": "amendedAgreementHash",
      "outputs": [
        {
          "name": "",
          "type": "bytes32"
        }
      ],
      "payable": false,
      "stateMutability": "view",
      "type": "function"
    },
    {
      "constant": true,
      "inputs": [
        {
          "name": "",
          "type": "address"
        }
      ],
      "name": "dispersal",
      "outputs": [
        {
          "name": "",
          "type": "uint256"
        }
      ],
      "payable": false,
      "stateMutability": "view",
      "type": "function"
    },
    {
      "constant": true,
      "inputs": [],
      "name": "DISPUTE_VOTE_DURATION",
      "outputs": [
        {
          "name": "",
          "type": "uint256"
        }
      ],
      "payable": false,
      "stateMutability": "view",
      "type": "function"
    },
    {
      "constant": true,
      "inputs": [],
      "name": "DISPUTE_DISPERSAL_DURATION",
      "outputs": [
        {
          "name": "",
          "type": "uint256"
        }
      ],
      "payable": false,
      "stateMutability": "view",
      "type": "function"
    },
    {
      "constant": true,
      "inputs": [],
      "name": "MIN_VOTE",
      "outputs": [
        {
          "name": "",
          "type": "uint256"
        }
      ],
      "payable": false,
      "stateMutability": "view",
      "type": "function"
    },
    {
      "constant": true,
      "inputs": [],
      "name": "VOTE_LOCKUP",
      "outputs": [
        {
          "name": "",
          "type": "uint256"
        }
      ],
      "payable": false,
      "stateMutability": "view",
      "type": "function"
    },
    {
      "constant": true,
      "inputs": [
        {
          "name": "",
          "type": "address"
        },
        {
          "name": "",
          "type": "address"
        }
      ],
      "name": "disputeDispersal",
      "outputs": [
        {
          "name": "",
          "type": "uint256"
        }
      ],
      "payable": false,
      "stateMutability": "view",
      "type": "function"
    },
    {
      "constant": true,
      "inputs": [
        {
          "name": "",
          "type": "address"
        }
      ],
      "name": "parties",
      "outputs": [
        {
          "name": "",
          "type": "bool"
        }
      ],
      "payable": false,
      "stateMutability": "view",
      "type": "function"
    },
    {
      "constant": true,
      "inputs": [],
      "name": "DISPUTE_WINDOW_MAX",
      "outputs": [
        {
          "name": "",
          "type": "uint256"
        }
      ],
      "payable": false,
      "stateMutability": "view",
      "type": "function"
    },
    {
      "constant": true,
      "inputs": [],
      "name": "disputeWindowVotes",
      "outputs": [
        {
          "name": "",
          "type": "uint256"
        }
      ],
      "payable": false,
      "stateMutability": "view",
      "type": "function"
    },
    {
      "constant": true,
      "inputs": [
        {
          "name": "",
          "type": "address"
        }
      ],
      "name": "hasWithdrawn",
      "outputs": [
        {
          "name": "",
          "type": "bool"
        }
      ],
      "payable": false,
      "stateMutability": "view",
      "type": "function"
    },
    {
      "constant": true,
      "inputs": [],
      "name": "jurToken",
      "outputs": [
        {
          "name": "",
          "type": "address"
        }
      ],
      "payable": false,
      "stateMutability": "view",
      "type": "function"
    },
    {
      "constant": true,
      "inputs": [
        {
          "name": "",
          "type": "uint256"
        }
      ],
      "name": "allParties",
      "outputs": [
        {
          "name": "",
          "type": "address"
        }
      ],
      "payable": false,
      "stateMutability": "view",
      "type": "function"
    },
    {
      "constant": true,
      "inputs": [
        {
          "name": "",
          "type": "address"
        }
      ],
      "name": "hasAgreed",
      "outputs": [
        {
          "name": "",
          "type": "bool"
        }
      ],
      "payable": false,
      "stateMutability": "view",
      "type": "function"
    },
    {
      "constant": true,
      "inputs": [
        {
          "name": "",
          "type": "address"
        }
      ],
      "name": "hasFundedAmendment",
      "outputs": [
        {
          "name": "",
          "type": "bool"
        }
      ],
      "payable": false,
      "stateMutability": "view",
      "type": "function"
    },
    {
      "constant": true,
      "inputs": [
        {
          "name": "",
          "type": "address"
        }
      ],
      "name": "partyVotes",
      "outputs": [
        {
          "name": "",
          "type": "uint256"
        }
      ],
      "payable": false,
      "stateMutability": "view",
      "type": "function"
    },
    {
      "constant": true,
      "inputs": [],
      "name": "amendmentProposed",
      "outputs": [
        {
          "name": "",
          "type": "bool"
        }
      ],
      "payable": false,
      "stateMutability": "view",
      "type": "function"
    },
    {
      "constant": true,
      "inputs": [],
      "name": "disputeStarts",
      "outputs": [
        {
          "name": "",
          "type": "uint256"
        }
      ],
      "payable": false,
      "stateMutability": "view",
      "type": "function"
    },
    {
      "constant": true,
      "inputs": [
        {
          "name": "",
          "type": "address"
        }
      ],
      "name": "amendedDispersal",
      "outputs": [
        {
          "name": "",
          "type": "uint256"
        }
      ],
      "payable": false,
      "stateMutability": "view",
      "type": "function"
    },
    {
      "constant": true,
      "inputs": [],
      "name": "MIN_WIN",
      "outputs": [
        {
          "name": "",
          "type": "uint256"
        }
      ],
      "payable": false,
      "stateMutability": "view",
      "type": "function"
    },
    {
      "constant": true,
      "inputs": [],
      "name": "DISPUTE_EXTENSION",
      "outputs": [
        {
          "name": "",
          "type": "uint256"
        }
      ],
      "payable": false,
      "stateMutability": "view",
      "type": "function"
    },
    {
      "constant": true,
      "inputs": [
        {
          "name": "",
          "type": "address"
        }
      ],
      "name": "amendedFunding",
      "outputs": [
        {
          "name": "",
          "type": "uint256"
        }
      ],
      "payable": false,
      "stateMutability": "view",
      "type": "function"
    },
    {
      "constant": true,
      "inputs": [
        {
          "name": "",
          "type": "address"
        }
      ],
      "name": "hasSigned",
      "outputs": [
        {
          "name": "",
          "type": "bool"
        }
      ],
      "payable": false,
      "stateMutability": "view",
      "type": "function"
    },
    {
      "constant": true,
      "inputs": [],
      "name": "state",
      "outputs": [
        {
          "name": "",
          "type": "uint8"
        }
      ],
      "payable": false,
      "stateMutability": "view",
      "type": "function"
    },
    {
      "constant": true,
      "inputs": [],
      "name": "DISPUTE_WINDOW",
      "outputs": [
        {
          "name": "",
          "type": "uint256"
        }
      ],
      "payable": false,
      "stateMutability": "view",
      "type": "function"
    },
    {
      "inputs": [
        {
          "name": "_jurToken",
          "type": "address"
        },
        {
          "name": "_parties",
          "type": "address[]"
        },
        {
          "name": "_dispersal",
          "type": "uint256[]"
        },
        {
          "name": "_funding",
          "type": "uint256[]"
        },
        {
          "name": "_agreementHash",
          "type": "bytes32"
        }
      ],
      "payable": false,
      "stateMutability": "nonpayable",
      "type": "constructor"
    },
    {
      "anonymous": false,
      "inputs": [
        {
          "indexed": false,
          "name": "_oldState",
          "type": "uint8"
        },
        {
          "indexed": false,
          "name": "_newState",
          "type": "uint8"
        },
        {
          "indexed": false,
          "name": "_timestamp",
          "type": "uint256"
        }
      ],
      "name": "StateChange",
      "type": "event"
    },
    {
      "anonymous": false,
      "inputs": [
        {
          "indexed": true,
          "name": "_party1",
          "type": "address"
        },
        {
          "indexed": true,
          "name": "_party2",
          "type": "address"
        },
        {
          "indexed": false,
          "name": "_dispersal",
          "type": "uint256[]"
        },
        {
          "indexed": false,
          "name": "_funding",
          "type": "uint256[]"
        },
        {
          "indexed": false,
          "name": "_agreementHash",
          "type": "bytes32"
        }
      ],
      "name": "ContractCreated",
      "type": "event"
    },
    {
      "anonymous": false,
      "inputs": [
        {
          "indexed": true,
          "name": "_party",
          "type": "address"
        },
        {
          "indexed": false,
          "name": "_funding",
          "type": "uint256"
        }
      ],
      "name": "ContractSigned",
      "type": "event"
    },
    {
      "anonymous": false,
      "inputs": [
        {
          "indexed": true,
          "name": "_party",
          "type": "address"
        },
        {
          "indexed": false,
          "name": "_funding",
          "type": "uint256"
        }
      ],
      "name": "ContractUnsigned",
      "type": "event"
    },
    {
      "anonymous": false,
      "inputs": [
        {
          "indexed": true,
          "name": "_party",
          "type": "address"
        }
      ],
      "name": "ContractAgreed",
      "type": "event"
    },
    {
      "anonymous": false,
      "inputs": [
        {
          "indexed": true,
          "name": "_party",
          "type": "address"
        }
      ],
      "name": "ContractUnagreed",
      "type": "event"
    },
    {
      "anonymous": false,
      "inputs": [
        {
          "indexed": true,
          "name": "_party",
          "type": "address"
        },
        {
          "indexed": false,
          "name": "_dispersal",
          "type": "uint256[]"
        },
        {
          "indexed": false,
          "name": "_funding",
          "type": "uint256[]"
        },
        {
          "indexed": false,
          "name": "_agreementHash",
          "type": "bytes32"
        }
      ],
      "name": "ContractAmendmentProposed",
      "type": "event"
    },
    {
      "anonymous": false,
      "inputs": [
        {
          "indexed": true,
          "name": "_party",
          "type": "address"
        }
      ],
      "name": "ContractAmendmentAgreed",
      "type": "event"
    },
    {
      "anonymous": false,
      "inputs": [
        {
          "indexed": true,
          "name": "_party",
          "type": "address"
        }
      ],
      "name": "ContractAmendmentUnagreed",
      "type": "event"
    },
    {
      "anonymous": false,
      "inputs": [
        {
          "indexed": true,
          "name": "_party",
          "type": "address"
        },
        {
          "indexed": false,
          "name": "_dispersal",
          "type": "uint256"
        }
      ],
      "name": "ContractWithdrawn",
      "type": "event"
    },
    {
      "anonymous": false,
      "inputs": [
        {
          "indexed": true,
          "name": "_party",
          "type": "address"
        },
        {
          "indexed": false,
          "name": "_dispersal",
          "type": "uint256[]"
        }
      ],
      "name": "ContractDisputed",
      "type": "event"
    },
    {
      "anonymous": false,
      "inputs": [
        {
          "indexed": true,
          "name": "_party",
          "type": "address"
        },
        {
          "indexed": false,
          "name": "_dispersal",
          "type": "uint256[]"
        }
      ],
      "name": "ContractDisputeDispersalAmended",
      "type": "event"
    },
    {
      "anonymous": false,
      "inputs": [
        {
          "indexed": false,
          "name": "_oldDisputeEnds",
          "type": "uint256"
        },
        {
          "indexed": false,
          "name": "_newDisputeEnds",
          "type": "uint256"
        }
      ],
      "name": "DisputeEndsAdjusted",
      "type": "event"
    },
    {
      "anonymous": false,
      "inputs": [
        {
          "indexed": true,
          "name": "_voter",
          "type": "address"
        },
        {
          "indexed": true,
          "name": "_party",
          "type": "address"
        },
        {
          "indexed": false,
          "name": "_amount",
          "type": "uint256"
        }
      ],
      "name": "VoteCast",
      "type": "event"
    },
    {
      "anonymous": false,
      "inputs": [
        {
          "indexed": true,
          "name": "_voter",
          "type": "address"
        },
        {
          "indexed": false,
          "name": "_stakedAmount",
          "type": "uint256"
        },
        {
          "indexed": false,
          "name": "_rewardAmount",
          "type": "uint256"
        }
      ],
      "name": "VoterPayout",
      "type": "event"
    },
    {
      "anonymous": false,
      "inputs": [
        {
          "indexed": true,
          "name": "_party",
          "type": "address"
        },
        {
          "indexed": false,
          "name": "_dispersalAmount",
          "type": "uint256"
        }
      ],
      "name": "PartyPayout",
      "type": "event"
    },
    {
      "constant": false,
      "inputs": [],
      "name": "sign",
      "outputs": [],
      "payable": false,
      "stateMutability": "nonpayable",
      "type": "function"
    },
    {
      "constant": false,
      "inputs": [
        {
          "name": "_sender",
          "type": "address"
        }
      ],
      "name": "signJUR",
      "outputs": [],
      "payable": false,
      "stateMutability": "nonpayable",
      "type": "function"
    },
    {
      "constant": false,
      "inputs": [],
      "name": "unsign",
      "outputs": [],
      "payable": false,
      "stateMutability": "nonpayable",
      "type": "function"
    },
    {
      "constant": false,
      "inputs": [],
      "name": "agree",
      "outputs": [],
      "payable": false,
      "stateMutability": "nonpayable",
      "type": "function"
    },
    {
      "constant": false,
      "inputs": [],
      "name": "unagree",
      "outputs": [],
      "payable": false,
      "stateMutability": "nonpayable",
      "type": "function"
    },
    {
      "constant": false,
      "inputs": [
        {
          "name": "_dispersal",
          "type": "uint256[]"
        },
        {
          "name": "_funding",
          "type": "uint256[]"
        },
        {
          "name": "_agreementHash",
          "type": "bytes32"
        }
      ],
      "name": "proposeAmendment",
      "outputs": [],
      "payable": false,
      "stateMutability": "nonpayable",
      "type": "function"
    },
    {
      "constant": false,
      "inputs": [
        {
          "name": "_sender",
          "type": "address"
        },
        {
          "name": "_dispersal",
          "type": "uint256[]"
        },
        {
          "name": "_funding",
          "type": "uint256[]"
        },
        {
          "name": "_agreementHash",
          "type": "bytes32"
        }
      ],
      "name": "proposeAmendmentJUR",
      "outputs": [],
      "payable": false,
      "stateMutability": "nonpayable",
      "type": "function"
    },
    {
      "constant": false,
      "inputs": [],
      "name": "agreeAmendment",
      "outputs": [],
      "payable": false,
      "stateMutability": "nonpayable",
      "type": "function"
    },
    {
      "constant": false,
      "inputs": [
        {
          "name": "_sender",
          "type": "address"
        }
      ],
      "name": "agreeAmendmentJUR",
      "outputs": [],
      "payable": false,
      "stateMutability": "nonpayable",
      "type": "function"
    },
    {
      "constant": false,
      "inputs": [],
      "name": "unagreeAmendment",
      "outputs": [],
      "payable": false,
      "stateMutability": "nonpayable",
      "type": "function"
    },
    {
      "constant": false,
      "inputs": [],
      "name": "withdrawDispersal",
      "outputs": [],
      "payable": false,
      "stateMutability": "nonpayable",
      "type": "function"
    },
    {
      "constant": false,
      "inputs": [
        {
          "name": "_voteAmount",
          "type": "uint256"
        },
        {
          "name": "_dispersal",
          "type": "uint256[]"
        }
      ],
      "name": "dispute",
      "outputs": [],
      "payable": false,
      "stateMutability": "nonpayable",
      "type": "function"
    },
    {
      "constant": false,
      "inputs": [
        {
          "name": "_sender",
          "type": "address"
        },
        {
          "name": "_voteAmount",
          "type": "uint256"
        },
        {
          "name": "_dispersal",
          "type": "uint256[]"
        }
      ],
      "name": "disputeJUR",
      "outputs": [],
      "payable": false,
      "stateMutability": "nonpayable",
      "type": "function"
    },
    {
      "constant": false,
      "inputs": [
        {
          "name": "_dispersal",
          "type": "uint256[]"
        }
      ],
      "name": "amendDisputeDispersal",
      "outputs": [],
      "payable": false,
      "stateMutability": "nonpayable",
      "type": "function"
    },
    {
      "constant": false,
      "inputs": [],
      "name": "calcDisputeEnds",
      "outputs": [
        {
          "name": "",
          "type": "uint256"
        }
      ],
      "payable": false,
      "stateMutability": "nonpayable",
      "type": "function"
    },
    {
      "constant": false,
      "inputs": [
        {
          "name": "_voteAddress",
          "type": "address"
        },
        {
          "name": "_voteAmount",
          "type": "uint256"
        }
      ],
      "name": "vote",
      "outputs": [],
      "payable": false,
      "stateMutability": "nonpayable",
      "type": "function"
    },
    {
      "constant": false,
      "inputs": [
        {
          "name": "_sender",
          "type": "address"
        },
        {
          "name": "_voteAddress",
          "type": "address"
        },
        {
          "name": "_voteAmount",
          "type": "uint256"
        }
      ],
      "name": "voteJUR",
      "outputs": [],
      "payable": false,
      "stateMutability": "nonpayable",
      "type": "function"
    },
    {
      "constant": false,
      "inputs": [
        {
          "name": "_start",
          "type": "uint256"
        },
        {
          "name": "_end",
          "type": "uint256"
        }
      ],
      "name": "payoutVoter",
      "outputs": [],
      "payable": false,
      "stateMutability": "nonpayable",
      "type": "function"
    },
    {
      "constant": true,
      "inputs": [],
      "name": "getWinner",
      "outputs": [
        {
          "name": "",
          "type": "address"
        }
      ],
      "payable": false,
      "stateMutability": "view",
      "type": "function"
    },
    {
      "constant": true,
      "inputs": [],
      "name": "getWinnerAndBestMinorty",
      "outputs": [
        {
          "name": "",
          "type": "address"
        },
        {
          "name": "",
          "type": "address"
        }
      ],
      "payable": false,
      "stateMutability": "view",
      "type": "function"
    },
    {
      "constant": false,
      "inputs": [],
      "name": "payoutParty",
      "outputs": [],
      "payable": false,
      "stateMutability": "nonpayable",
      "type": "function"
    }
  ],
  "bytecode": "0x608060405262093a80600155620151806002819055610708600381905560045560055566b1a2bc2ec50000600655662386f26fc100006007819055600855601d805460ff191690553480156200005457600080fd5b506040516200399d3803806200399d8339810160409081528151602083015191830151606084015160808501519185018051939594850194909391019190600090819081906002148015620000aa575084516002145b8015620000b8575086516002145b1515620000c457600080fd5b866000815181101515620000d457fe5b90602001906020020151600160a060020a03166000141580156200011b57508660018151811015156200010357fe5b90602001906020020151600160a060020a0316600014155b15156200012757600080fd5b5060009150819050805b86518160ff161015620002ac576001600a6000898460ff168151811015156200015657fe5b602090810291909101810151600160a060020a03168252810191909152604001600020805460ff19169115159190911790558551869060ff83169081106200019a57fe5b90602001906020020151600b6000898460ff16815181101515620001ba57fe5b6020908102909101810151600160a060020a03168252810191909152604001600020558451859060ff8316908110620001ef57fe5b90602001906020020151600c6000898460ff168151811015156200020f57fe5b6020908102909101810151600160a060020a031682528101919091526040016000205585516200026990879060ff84169081106200024957fe5b60209081029091010151839064010000000062002a1b6200041282021704565b9150620002a1858260ff168151811015156200028157fe5b60209081029091010151849064010000000062002a1b6200041282021704565b925060010162000131565b828214620002b957600080fd5b8651620002ce9060099060208a019062000426565b50601084905560008054600160a060020a031916600160a060020a038a16179055865187906001908110620002ff57fe5b90602001906020020151600160a060020a03168760008151811015156200032257fe5b90602001906020020151600160a060020a03167f18a9c4249303b74ecff5e58f4dcc486cd7de84cd3feec18d74f4c9216963fb9e8888886040518080602001806020018460001916600019168152602001838103835286818151815260200191508051906020019060200280838360005b83811015620003ad57818101518382015260200162000393565b50505050905001838103825285818151815260200191508051906020019060200280838360005b83811015620003ee578181015183820152602001620003d4565b505050509050019550505050505060405180910390a35050505050505050620004ba565b818101828110156200042057fe5b92915050565b8280548282559060005260206000209081019282156200047e579160200282015b828111156200047e5782518254600160a060020a031916600160a060020a0390911617825560209092019160019091019062000447565b506200048c92915062000490565b5090565b620004b791905b808211156200048c578054600160a060020a031916815560010162000497565b90565b6134d380620004ca6000396000f3006080604052600436106102425763ffffffff60e060020a60003504166302edcbfb8114610247578063049f2d8a146102d95780630ab55d0b1461030c5780630d15fd771461032157806312feb4a714610336578063188c0e431461034b5780631ff2e2141461036057806325ce690b146103fe5780632731c6c61461041f5780632a50b544146104345780632ca15122146104495780632efab6fa1461045e5780632f36cacf1461047357806337c2afda146104cd5780633ad17f6d146104ee5780633f606aa31461052957806341e60c861461053e57806344633297146105535780634f2352071461057a5780634f802f8a146105af57806352e18f33146105c45780635a9e17a7146105d95780635cfe585a146105ee5780635e2c19db146106035780635f068b43146106245780635f74bbde1461065557806360d505961461067957806364a8a11f14610691578063682644fd146106bb57806368e664bd146106dc5780636eae555d146106fd57806374e6cfd3146107525780638b90dc94146107735780638bfb85c3146107885780638e7ea5b21461079d5780638fae60a5146107b2578063918c9373146107c7578063994d4060146107dc5780639cff621a146107fd578063a3f5700d14610812578063a7e92fb514610827578063adef40db1461083c578063b40b7841146108a3578063b7c1ae81146108b8578063bf6a1413146108d9578063c19d93fb146108fa578063d15e317014610933578063d5e03fc61461094e578063f585dc5714610963578063fc76317614610978575b600080fd5b34801561025357600080fd5b50604080516020600480358082013583810280860185019096528085526102d795369593946024949385019291829185019084908082843750506040805187358901803560208181028481018201909552818452989b9a99890198929750908201955093508392508501908490808284375094975050933594506109999350505050565b005b3480156102e557600080fd5b506102fa600160a060020a03600435166109aa565b60408051918252519081900360200190f35b34801561031857600080fd5b506102fa6109bc565b34801561032d57600080fd5b506102fa6109c2565b34801561034257600080fd5b506102fa6109c8565b34801561035757600080fd5b506102fa6109ce565b34801561036c57600080fd5b506040805160206004602480358281013584810280870186019097528086526102d7968435600160a060020a031696369660449591949091019291829185019084908082843750506040805187358901803560208181028481018201909552818452989b9a99890198929750908201955093508392508501908490808284375094975050933594506109d49350505050565b34801561040a57600080fd5b506102fa600160a060020a03600435166109fd565b34801561042b57600080fd5b506102fa610a0f565b34801561044057600080fd5b506102fa610a15565b34801561045557600080fd5b506102d7610a1b565b34801561046a57600080fd5b506102fa610a26565b34801561047f57600080fd5b506040805160206004602480358281013584810280870186019097528086526102d796843596369660449591949091019291829185019084908082843750949750610a2c9650505050505050565b3480156104d957600080fd5b506102d7600160a060020a0360043516610a3b565b3480156104fa57600080fd5b50610503610a5e565b60408051600160a060020a03938416815291909216602082015281519081900390910190f35b34801561053557600080fd5b506102fa610ba0565b34801561054a57600080fd5b506102d7610ba6565b34801561055f57600080fd5b506102fa600160a060020a0360043581169060243516610d07565b34801561058657600080fd5b5061059b600160a060020a0360043516610d24565b604080519115158252519081900360200190f35b3480156105bb57600080fd5b506102d7610d39565b3480156105d057600080fd5b506102fa61102f565b3480156105e557600080fd5b506102fa611035565b3480156105fa57600080fd5b506102fa61103b565b34801561060f57600080fd5b5061059b600160a060020a0360043516611279565b34801561063057600080fd5b5061063961128e565b60408051600160a060020a039092168252519081900360200190f35b34801561066157600080fd5b506102d7600160a060020a036004351660243561129d565b34801561068557600080fd5b506106396004356112a8565b34801561069d57600080fd5b506102d7600160a060020a03600435811690602435166044356112d0565b3480156106c757600080fd5b5061059b600160a060020a03600435166112f2565b3480156106e857600080fd5b5061059b600160a060020a0360043516611307565b34801561070957600080fd5b50604080516020600480358082013583810280860185019096528085526102d79536959394602494938501929182918501908490808284375094975061131c9650505050505050565b34801561075e57600080fd5b506102fa600160a060020a036004351661150c565b34801561077f57600080fd5b5061059b61151e565b34801561079457600080fd5b506102d7611527565b3480156107a957600080fd5b50610639611530565b3480156107be57600080fd5b506102d7611625565b3480156107d357600080fd5b506102fa611758565b3480156107e857600080fd5b506102fa600160a060020a036004351661175e565b34801561080957600080fd5b506102d7611770565b34801561081e57600080fd5b506102fa611990565b34801561083357600080fd5b506102d7611996565b34801561084857600080fd5b5060408051602060046044358181013583810280860185019096528085526102d7958335600160a060020a0316956024803596369695606495939492019291829185019084908082843750949750611a309650505050505050565b3480156108af57600080fd5b506102fa611a52565b3480156108c457600080fd5b506102fa600160a060020a0360043516611a58565b3480156108e557600080fd5b5061059b600160a060020a0360043516611a6a565b34801561090657600080fd5b5061090f611a7f565b6040518082600481111561091f57fe5b60ff16815260200191505060405180910390f35b34801561093f57600080fd5b506102d7600435602435611a88565b34801561095a57600080fd5b506102d7611f07565b34801561096f57600080fd5b506102fa6120f1565b34801561098457600080fd5b506102d7600160a060020a03600435166120f7565b6109a533848484612117565b505050565b600c6020526000908152604090205481565b60105481565b60195481565b60185481565b60115481565b600054600160a060020a031633146109eb57600080fd5b6109f784848484612117565b50505050565b600b6020526000908152604090205481565b60015481565b60025481565b610a24336123ad565b565b60075481565b610a373383836125b3565b5050565b600054600160a060020a03163314610a5257600080fd5b610a5b816123ad565b50565b600080600080600080610a6f611530565b9350600160a060020a03841615610a87576000610aac565b600980546000908110610a9657fe5b600091825260209091200154600160a060020a03165b600160a060020a0381166000908152601b602052604081205491945090925090505b60095460ff82161015610b9557601b600060098360ff16815481101515610af157fe5b6000918252602080832090910154600160a060020a0316835282019290925260400190205482108015610b4c57506009805460ff8316908110610b3057fe5b600091825260209091200154600160a060020a03858116911614155b15610b8d576009805460ff8316908110610b6257fe5b6000918252602080832090910154600160a060020a0316808352601b90915260409091205490935091505b600101610ace565b509194909350915050565b60055481565b600080601d5460ff166004811115610bba57fe5b14610bc457600080fd5b336000908152600a602052604090205460ff161515610be257600080fd5b3360009081526012602052604090205460ff161515610c0057600080fd5b336000818152601260209081526040808320805460ff191690558254600c83528184205482517fa9059cbb000000000000000000000000000000000000000000000000000000008152600481019690965260248601529051600160a060020a039091169363a9059cbb9360448083019493928390030190829087803b158015610c8857600080fd5b505af1158015610c9c573d6000803e3d6000fd5b505050506040513d6020811015610cb257600080fd5b50511515610cbf57600080fd5b336000818152600c602090815260409182902054825190815291517ff915f6adcfba53634fa63225573ad1f78d2f842387fe91379c27c14a259537cf9281900390910190a250565b600f60209081526000928352604080842090915290825290205481565b600a6020526000908152604090205460ff1681565b600080600180601d5460ff166004811115610d5057fe5b14610d5a57600080fd5b336000908152600a602052604090205460ff161515610d7857600080fd5b60165460ff161515610d8957600080fd5b6016805460ff19169055600092505b60095460ff84161015610fff576015600060098560ff16815481101515610dbb57fe5b6000918252602080832090910154600160a060020a0316835282019290925260400190205460ff1615610ff45760006015600060098660ff16815481101515610e0057fe5b600091825260208083209190910154600160a060020a031683528201929092526040018120805460ff19169215159290921790915560098054600c92919060ff8716908110610e4b57fe5b6000918252602080832090910154600160a060020a03168352820192909252604001812054600980549192600e9290919060ff8816908110610e8957fe5b6000918252602080832090910154600160a060020a031683528201929092526040019020541115610ff457610f3c600c600060098660ff16815481101515610ecd57fe5b6000918252602080832090910154600160a060020a03168352820192909252604001812054600980549192600e9290919060ff8916908110610f0b57fe5b6000918252602080832090910154600160a060020a031683528201929092526040019020549063ffffffff6129c216565b60005460098054929450600160a060020a039091169163a9059cbb919060ff8716908110610f6657fe5b60009182526020808320909101546040805160e060020a63ffffffff8716028152600160a060020a039092166004830152602482018890525160448083019491928390030190829087803b158015610fbd57600080fd5b505af1158015610fd1573d6000803e3d6000fd5b505050506040513d6020811015610fe757600080fd5b50511515610ff457600080fd5b600190920191610d98565b60405133907fc42ff889a5bf104cb88fddd83f34d59c6162fb4c97c5c075d3e5143b977407d090600090a2505050565b60065481565b601a5481565b600080808080600380601d5460ff16600481111561105557fe5b1461105f57600080fd5b60185461106a6129d9565b101561107a576018549550611271565b6110a9670de0b6b3a764000061109d6006546019546129dd90919063ffffffff16565b9063ffffffff612a0616565b601a5411156110d3576000601a556004546018546110cc9163ffffffff612a1b16565b9550611271565b6000808052601b6020527f584f46c60af19681376031579adb04a2416e54ee5505351c2a8435e3766026ea54955093505b60095460ff8516101561119c5784601b600060098760ff1681548110151561112857fe5b6000918252602080832090910154600160a060020a03168352820192909252604001902054111561119157601b600060098660ff1681548110151561116957fe5b6000918252602080832090910154600160a060020a0316835282019290925260400190205494505b600190930192611104565b6000808052601b6020527f584f46c60af19681376031579adb04a2416e54ee5505351c2a8435e3766026ea549093508514156111d9578260010192505b600091505b60095460ff8316101561123f5784601b600060098560ff1681548110151561120257fe5b6000918252602080832090910154600160a060020a031683528201929092526040019020541415611234578260010192505b6001909101906111de565b60018360ff16111561126b576000601a556004546110cc9061125f6129d9565b9063ffffffff612a1b16565b60185495505b505050505090565b60146020526000908152604090205460ff1681565b600054600160a060020a031681565b610a37338383612a28565b60098054829081106112b657fe5b600091825260209091200154600160a060020a0316905081565b600054600160a060020a031633146112e757600080fd5b6109a5838383612a28565b60136020526000908152604090205460ff1681565b60156020526000908152604090205460ff1681565b60008080600380601d5460ff16600481111561133457fe5b1461133e57600080fd5b336000908152600a602052604090205460ff16151561135c57600080fd5b60095485511461136b57600080fd5b6017546113766129d9565b1061138057600080fd5b6000935060009250600091505b60095460ff8316101561148557848260ff168151811015156113ab57fe5b6020908102909101810151336000908152600f90925260408220600980549293919260ff87169081106113da57fe5b6000918252602080832090910154600160a060020a03168352820192909252604001902055845161142b90869060ff851690811061141457fe5b60209081029091010151859063ffffffff612a1b16565b9350611478600c600060098560ff1681548110151561144657fe5b6000918252602080832090910154600160a060020a03168352820192909252604001902054849063ffffffff612a1b16565b925060019091019061138d565b83831461149157600080fd5b604080516020808252875181830152875133937fe98983adb63591508c2f748970470e7487b3bebd763d08abc3334beeb72a00b0938a9390928392830191808601910280838360005b838110156114f25781810151838201526020016114da565b505050509050019250505060405180910390a25050505050565b601b6020526000908152604090205481565b60165460ff1681565b610a2433612e47565b6000808052601b6020527f584f46c60af19681376031579adb04a2416e54ee5505351c2a8435e3766026ea5481805b60095460ff8216101561161e57601b600060098360ff1681548110151561158257fe5b6000918252602080832090910154600160a060020a0316835282019290925260400190205483101561161657601b600060098360ff168154811015156115c457fe5b6000918252602080832090910154600160a060020a03168352820192909252604001902054600980549194509060ff83169081106115fe57fe5b600091825260209091200154600160a060020a031691505b60010161155f565b5092915050565b600080600180601d5460ff16600481111561163c57fe5b1461164657600080fd5b336000908152600a602052604090205460ff16151561166457600080fd5b3360009081526013602052604090205460ff161561168157600080fd5b336000908152601360205260409020805460ff1916600117905560165460ff16156116ae576116ae610d39565b60019250600091505b60095460ff831610156117185782801561170b57506013600060098460ff168154811015156116e257fe5b6000918252602080832090910154600160a060020a0316835282019290925260400190205460ff165b92506001909101906116b7565b8215611728576117286002613399565b60405133907fcdfedae112bb2610775e69a6ffd348e7dfdd996e3fb3a5f6d46b52651867b49790600090a2505050565b60175481565b600d6020526000908152604090205481565b600080600280601d5460ff16600481111561178757fe5b1461179157600080fd5b336000908152600a602052604090205460ff1615156117af57600080fd5b3360009081526014602052604090205460ff16156117cc57600080fd5b336000818152601460209081526040808320805460ff191660011790558254600b83528184205482517fa9059cbb000000000000000000000000000000000000000000000000000000008152600481019690965260248601529051600160a060020a03919091169363a9059cbb9360448083019493928390030190829087803b15801561185857600080fd5b505af115801561186c573d6000803e3d6000fd5b505050506040513d602081101561188257600080fd5b5051151561188f57600080fd5b60019250600091505b60095460ff8316101561193b5782801561192e57506014600060098460ff168154811015156118c357fe5b6000918252602080832090910154600160a060020a0316835282019290925260400190205460ff168061192e5750600b600060098460ff1681548110151561190757fe5b6000918252602080832090910154600160a060020a03168352820192909252604001902054155b9250600190910190611898565b336000818152600b602090815260409182902054825190815291517f76cc4dd05e1fc280969f3363b5db432911cddfadcfae9bef818a492c0f8d57329281900390910190a282156109a5576109a56004613399565b60085481565b600180601d5460ff1660048111156119aa57fe5b146119b457600080fd5b336000908152600a602052604090205460ff1615156119d257600080fd5b3360009081526013602052604090205460ff1615156119f057600080fd5b33600081815260136020526040808220805460ff19169055517f6faffafe1cb6a0bf26e66cc0178734aa9fe07d7c6961884c4a93920423c0bd0e9190a250565b600054600160a060020a03163314611a4757600080fd5b6109a58383836125b3565b60045481565b600e6020526000908152604090205481565b60126020526000908152604090205460ff1681565b601d5460ff1681565b60008080808080808080600380601d5460ff166004811115611aa657fe5b14611ab057600080fd5b611ab861103b565b601854909a508a14611b0857601854604080518c8152602081019290925280517f04e9f9a05f2b0f7b76cbaeafc40a3136a1870f82f8eff85e766f7eb868a8b9e09281900390910190a160188a90555b600554601854611b1d9163ffffffff612a1b16565b611b256129d9565b1015611b3057600080fd5b611b38610a5e565b600160a060020a0382166000908152601b6020526040902054601954929b50909950611b6a919063ffffffff6129c216565b600160a060020a0389166000908152601b602052604081205491985090965094508615611b9e57611b9b878761342a565b94505b60009350600092508b91505b336000908152601c60209081526040808320600160a060020a038d168452909152902054611bd8908c61344f565b821015611dff57336000908152601c60209081526040808320600160a060020a038d1684529091529020805483908110611c0e57fe5b600091825260209091206002600390920201015460ff161515611df457336000908152601c60209081526040808320600160a060020a038d168452909152902080546001919084908110611c5e57fe5b60009182526020808320600392909202909101600201805460ff191693151593909317909255338152601c82526040808220600160a060020a038d168352909252208054611ccf919084908110611cb157fe5b6000918252602090912060039091020154849063ffffffff612a1b16565b336000908152601c60209081526040808320600160a060020a038e16845290915290208054919450879184908110611d0357fe5b9060005260206000209060030201600101541015611df457336000908152601c60209081526040808320600160a060020a038d16845290915290208054611df191611de491611d78919086908110611d5757fe5b906000526020600020906003020160010154896129c290919063ffffffff16565b601c600033600160a060020a0316600160a060020a0316815260200190815260200160002060008d600160a060020a0316600160a060020a0316815260200190815260200160002085815481101515611dcd57fe5b90600052602060002090600302016000015461344f565b859063ffffffff612a1b16565b93505b600190910190611baa565b600054600160a060020a031663a9059cbb33611e2b611e1e888a613465565b879063ffffffff612a1b16565b6040518363ffffffff1660e060020a0281526004018083600160a060020a0316600160a060020a0316815260200182815260200192505050602060405180830381600087803b158015611e7d57600080fd5b505af1158015611e91573d6000803e3d6000fd5b505050506040513d6020811015611ea757600080fd5b50511515611eb457600080fd5b337f49329039ffba66f8761d4a6d68b169063aa8f3a76a256007f5d55ceecf9be82484611ee18789613465565b6040805192835260208301919091528051918290030190a2505050505050505050505050565b60008080600380601d5460ff166004811115611f1f57fe5b14611f2957600080fd5b336000908152600a602052604090205460ff161515611f4757600080fd5b611f4f61103b565b6018549094508414611f9f5760185460408051868152602081019290925280517f04e9f9a05f2b0f7b76cbaeafc40a3136a1870f82f8eff85e766f7eb868a8b9e09281900390910190a160188490555b601854611faa6129d9565b1015611fb557600080fd5b3360009081526014602052604090205460ff1615611fd257600080fd5b336000908152601460205260409020805460ff19166001179055611ff4611530565b600160a060020a038082166000908152600f602090815260408083203380855290835281842054845483517fa9059cbb0000000000000000000000000000000000000000000000000000000081526004810193909352602483018290529251969950975093169363a9059cbb93604480820194918390030190829087803b15801561207e57600080fd5b505af1158015612092573d6000803e3d6000fd5b505050506040513d60208110156120a857600080fd5b505115156120b557600080fd5b60408051838152905133917f529314119e568ebeb046e7fb288642e03aea33279f2f6762afd0e56a74c7aa42919081900360200190a250505050565b60035481565b600054600160a060020a0316331461210e57600080fd5b610a5b81612e47565b60008080600180601d5460ff16600481111561212f57fe5b1461213957600080fd5b600160a060020a0388166000908152600a6020526040902054889060ff16151561216257600080fd5b60165460ff161561217257600080fd5b6016805460ff19166001179055600954885114801561219357506009548751145b151561219e57600080fd5b6000945060009350600092505b60095460ff841610156122b357878360ff168151811015156121c957fe5b90602001906020020151600d600060098660ff168154811015156121e957fe5b6000918252602080832090910154600160a060020a031683528201929092526040019020558651879060ff851690811061221f57fe5b90602001906020020151600e600060098660ff1681548110151561223f57fe5b6000918252602080832090910154600160a060020a03168352820192909252604001902055875161227990899060ff861690811061141457fe5b93506122a6878460ff1681518110151561228f57fe5b60209081029091010151869063ffffffff612a1b16565b94506001909201916121ab565b8484146122bf57600080fd5b60118690556122cd89612e47565b88600160a060020a03167fd33aabc7fc9a1f5861dc19acc754cc8fe8c4400063f1e32d2bf90ac64b628daf8989896040518080602001806020018460001916600019168152602001838103835286818151815260200191508051906020019060200280838360005b8381101561234d578181015183820152602001612335565b50505050905001838103825285818151815260200191508051906020019060200280838360005b8381101561238c578181015183820152602001612374565b505050509050019550505050505060405180910390a2505050505050505050565b6000808080601d5460ff1660048111156123c357fe5b146123cd57600080fd5b600160a060020a0384166000908152600a6020526040902054849060ff1615156123f657600080fd5b600160a060020a03851660009081526012602052604090205460ff161561241c57600080fd5b600160a060020a038086166000818152601260209081526040808320805460ff191660011790558254600c83528184205482517f23b872dd0000000000000000000000000000000000000000000000000000000081526004810196909652306024870152604486015290519416936323b872dd93606480820194918390030190829087803b1580156124ad57600080fd5b505af11580156124c1573d6000803e3d6000fd5b505050506040513d60208110156124d757600080fd5b505115156124e457600080fd5b60019350600092505b60095460ff8416101561254e5783801561254157506012600060098560ff1681548110151561251857fe5b6000918252602080832090910154600160a060020a0316835282019290925260400190205460ff165b93506001909201916124ed565b831561255e5761255e6001613399565b600160a060020a0385166000818152600c602090815260409182902054825190815291517fa8cc9409769b9614f3ae4056957bfbb32d986e4b61c886b5e29b324b5bf92d0a9281900390910190a25050505050565b600080808080600180601d5460ff1660048111156125cd57fe5b146125d757600080fd5b600160a060020a0389166000908152600a6020526040902054899060ff16151561260057600080fd5b60095488511461260f57600080fd5b60165460ff161561262257612622610d39565b61262c6003613399565b6000965060009550600094505b60095460ff8616101561274557878560ff1681518110151561265757fe5b90602001906020020151600f60008c600160a060020a0316600160a060020a03168152602001908152602001600020600060098860ff1681548110151561269a57fe5b6000918252602080832090910154600160a060020a0316835282019290925260400190205587516126eb90899060ff88169081106126d457fe5b60209081029091010151889063ffffffff612a1b16565b9650612738600c600060098860ff1681548110151561270657fe5b6000918252602080832090910154600160a060020a03168352820192909252604001902054879063ffffffff612a1b16565b9550600190940193612639565b86861461275157600080fd5b612772670de0b6b3a764000061109d600754896129dd90919063ffffffff16565b89101561277e57600080fd5b6127916127896129d9565b600254612a1b565b60178190556001546127a39190612a1b565b601855600093505b60095460ff8516101561286e5789600160a060020a031660098560ff168154811015156127d457fe5b600091825260209091200154600160a060020a0316146128635785600f600060098760ff1681548110151561280557fe5b6000918252602080832090910154600160a060020a0316835282019290925260400181206009805491929160ff891690811061283d57fe5b6000918252602080832090910154600160a060020a031683528201929092526040019020555b6001909301926127ab565b600092505b60095460ff8416101561292c57600c600060098560ff1681548110151561289657fe5b6000918252602080832090910154600160a060020a03168352828101939093526040909101812054818052600f909252600980547ff4803e074bd026baaf6ed2e288c9515f68c72fb7216eebdd7cae1718a53ec37592919060ff88169081106128fb57fe5b6000918252602080832090910154600160a060020a0316835282019290925260400190205560019290920191612873565b89600160a060020a03167f978fff33bfee4716da21bf89e67d0757d6550d4b6f53676919de1d1d209f5ef0896040518080602001828103825283818151815260200191508051906020019060200280838360005b83811015612998578181015183820152602001612980565b505050509050019250505060405180910390a26129b68a8b8b612a28565b50505050505050505050565b6000828211156129ce57fe5b508082035b92915050565b4290565b60008215156129ee575060006129d3565b508181028183828115156129fe57fe5b04146129d357fe5b60008183811515612a1357fe5b049392505050565b818101828110156129d357fe5b6000806000612a35613483565b600380601d5460ff166004811115612a4957fe5b14612a5357600080fd5b612a5b61103b565b6018549095508514612aab5760185460408051878152602081019290925280517f04e9f9a05f2b0f7b76cbaeafc40a3136a1870f82f8eff85e766f7eb868a8b9e09281900390910190a160188590555b601854612ab66129d9565b10612ac057600080fd5b601754612acb6129d9565b101580612af05750600160a060020a0388166000908152600a602052604090205460ff165b1515612afb57600080fd5b600160a060020a0387166000908152600a602052604090205460ff1680612b295750600160a060020a038716155b1515612b3457600080fd5b612b57670de0b6b3a764000061109d6007546019546129dd90919063ffffffff16565b861015612b6357600080fd5b60195415612c4d57612b73610a5e565b9094509250600160a060020a038781169085161415612bef57600160a060020a0383166000908152601b6020526040902054612bb690600263ffffffff6129dd16565b600160a060020a0388166000908152601b6020526040902054612bdf908863ffffffff612a1b16565b1115612bea57600080fd5b612c4d565b600160a060020a0384166000908152601b6020526040902054612c1990600263ffffffff6129dd16565b600160a060020a0388166000908152601b6020526040902054612c42908863ffffffff612a1b16565b1115612c4d57600080fd5b60408051606081018252878152600160a060020a03808a166000908152601b60209081528482205481850152838501829052815485517f23b872dd0000000000000000000000000000000000000000000000000000000081528e85166004820152306024820152604481018d90529551949750909216936323b872dd936064808301949391928390030190829087803b158015612ce957600080fd5b505af1158015612cfd573d6000803e3d6000fd5b505050506040513d6020811015612d1357600080fd5b50511515612d2057600080fd5b601854612d359061070863ffffffff6129c216565b612d3d6129d9565b10612d5957601a54612d55908763ffffffff612a1b16565b601a555b601954612d6c908763ffffffff612a1b16565b601955600160a060020a0387166000908152601b6020526040902054612d98908763ffffffff612a1b16565b600160a060020a038881166000818152601b6020908152604080832095909555928c16808252601c845284822083835284528482208054600180820183559184529285902088516003909402019283558785015190830155868501516002909201805460ff19169215159290921790915583518a81529351919390927f484413c33463e7d976e3ded2a85b0c31610d0906977df2cd9cbd6d12a6872a8492918290030190a35050505050505050565b600080808080600180601d5460ff166004811115612e6157fe5b14612e6b57600080fd5b600160a060020a0387166000908152600a6020526040902054879060ff161515612e9457600080fd5b60165460ff161515612ea557600080fd5b600160a060020a03881660009081526015602052604090205460ff1615612ecb57600080fd5b600160a060020a0388166000908152601560209081526040808320805460ff19166001179055600c825280832054600e909252909120541115612fec57600160a060020a0388166000908152600c6020908152604080832054600e90925290912054612f3c9163ffffffff6129c216565b60008054604080517f23b872dd000000000000000000000000000000000000000000000000000000008152600160a060020a038d81166004830152306024830152604482018690529151949b509116926323b872dd92606480840193602093929083900390910190829087803b158015612fb557600080fd5b505af1158015612fc9573d6000803e3d6000fd5b505050506040513d6020811015612fdf57600080fd5b50511515612fec57600080fd5b604051600160a060020a038916907fa49e1bf6eca68fcbe0f530f9389e60870664cb4b8cd290ade9d0fe3b7c4d9c7590600090a260019550600094505b60095460ff8616101561308a5785801561307d57506015600060098760ff1681548110151561305457fe5b6000918252602080832090910154600160a060020a0316835282019290925260400190205460ff165b9550600190940193613029565b851561338f576016805460ff19169055600093505b60095460ff851610156133885760006015600060098760ff168154811015156130c457fe5b600091825260208083209190910154600160a060020a031683528201929092526040018120805460ff19169215159290921790915560098054600c92919060ff881690811061310f57fe5b6000918252602080832090910154600160a060020a03168352820192909252604001812054600980549192600e9290919060ff891690811061314d57fe5b6000918252602080832090910154600160a060020a031683528201929092526040019020541015613287576131cf600e600060098760ff1681548110151561319157fe5b6000918252602080832090910154600160a060020a03168352820192909252604001812054600980549192600c9290919060ff8a16908110610f0b57fe5b60005460098054929550600160a060020a039091169163a9059cbb919060ff88169081106131f957fe5b60009182526020808320909101546040805160e060020a63ffffffff8716028152600160a060020a039092166004830152602482018990525160448083019491928390030190829087803b15801561325057600080fd5b505af1158015613264573d6000803e3d6000fd5b505050506040513d602081101561327a57600080fd5b5051151561328757600080fd5b600e600060098660ff1681548110151561329d57fe5b6000918252602080832090910154600160a060020a03168352820192909252604001812054600980549192600c9290919060ff89169081106132db57fe5b6000918252602080832090910154600160a060020a0316835282019290925260400181209190915560098054600d92919060ff881690811061331957fe5b6000918252602080832090910154600160a060020a03168352820192909252604001812054600980549192600b9290919060ff891690811061335757fe5b6000918252602080832090910154600160a060020a031683528201929092526040019020556001939093019261309f565b6011546010555b5050505050505050565b601d547f7a86a836fcb7b1724e95db8cca29b460e17febee51b6f03e272720350340352e9060ff16826133ca6129d9565b604051808460048111156133da57fe5b60ff1681526020018360048111156133ee57fe5b60ff168152602001828152602001935050505060405180910390a1601d805482919060ff1916600183600481111561342257fe5b021790555050565b60006134488261109d85670de0b6b3a764000063ffffffff6129dd16565b9392505050565b600081831061345e5781613448565b5090919050565b6000613448670de0b6b3a764000061109d858563ffffffff6129dd16565b606060405190810160405280600081526020016000815260200160001515815250905600a165627a7a72305820bd35426edb93665096a28d2c591da18d3be525e343e05446ed6f991a3c6c91bd0029",
  "source": "pragma solidity ^0.4.23;\n\nimport \"openzeppelin-solidity/contracts/token/ERC20/ERC20.sol\";\nimport \"openzeppelin-solidity/contracts/math/SafeMath.sol\";\nimport \"openzeppelin-solidity/contracts/math/Math.sol\";\n\ncontract Arbitration {\n  using SafeMath for uint256;\n\n  event StateChange(State _oldState, State _newState, uint256 _timestamp);\n  event ContractCreated(address indexed _party1, address indexed _party2, uint256[] _dispersal, uint256[] _funding, bytes32 _agreementHash);\n  event ContractSigned(address indexed _party, uint256 _funding);\n  event ContractUnsigned(address indexed _party, uint256 _funding);\n  event ContractAgreed(address indexed _party);\n  event ContractUnagreed(address indexed _party);\n  event ContractAmendmentProposed(address indexed _party, uint256[] _dispersal, uint256[] _funding, bytes32 _agreementHash);\n  event ContractAmendmentAgreed(address indexed _party);\n  event ContractAmendmentUnagreed(address indexed _party);\n  event ContractWithdrawn(address indexed _party, uint256 _dispersal);\n  event ContractDisputed(address indexed _party, uint256[] _dispersal);\n  event ContractDisputeDispersalAmended(address indexed _party, uint256[] _dispersal);\n\n  event DisputeEndsAdjusted(uint256 _oldDisputeEnds, uint256 _newDisputeEnds);\n\n  event VoteCast(address indexed _voter, address indexed _party, uint256 _amount);\n  event VoterPayout(address indexed _voter, uint256 _stakedAmount, uint256 _rewardAmount);\n  event PartyPayout(address indexed _party, uint256 _dispersalAmount);\n\n  //Token for escrow & voting\n  ERC20 public jurToken;\n\n  //Globals - could be pulled from factory contract or passed in to constructor\n  uint256 public DISPUTE_VOTE_DURATION = 7 days;\n  uint256 public DISPUTE_DISPERSAL_DURATION = 1 days;\n  uint256 public DISPUTE_WINDOW = 30 minutes;\n  uint256 public DISPUTE_EXTENSION = 30 minutes;\n  uint256 public VOTE_LOCKUP = 24 hours; //amount of time users must wait to withdraw their tokens\n  uint256 public DISPUTE_WINDOW_MAX = 5 * 10**16; //percentage multiplued by 10**16\n  uint256 public MIN_VOTE = 1 * 10**16; //percentage multiplied by 10**16\n  uint256 public MIN_WIN = 1 * 10**16; //percentage multiplied by 10**16\n\n  //Agreement Details\n  address[] public allParties;\n  mapping (address => bool) public parties;\n  mapping (address => uint256) public dispersal;\n  mapping (address => uint256) public funding;\n  mapping (address => uint256) public amendedDispersal;\n  mapping (address => uint256) public amendedFunding;\n  mapping (address => mapping (address => uint256)) public disputeDispersal;\n  bytes32 public agreementHash;\n  bytes32 public amendedAgreementHash;\n\n  //User granularity state tracking\n  mapping (address => bool) public hasSigned;\n  mapping (address => bool) public hasAgreed;\n  mapping (address => bool) public hasWithdrawn;\n  mapping (address => bool) public hasFundedAmendment;\n  bool public amendmentProposed;\n\n  //Dispute / voting parameters\n  uint256 public disputeStarts;\n  uint256 public disputeEnds;\n  uint256 public totalVotes;\n  uint256 public disputeWindowVotes;\n  mapping (address => uint256) public partyVotes;\n  mapping (address => mapping (address => Vote[])) userVotes;\n\n  struct Vote {\n    uint256 amount;\n    uint256 previousVotes;\n    bool claimed;\n  }\n\n  //Initialise state\n  enum State {Unsigned, Signed, Agreed, Dispute, Closed}\n  State public state = State.Unsigned;\n\n  //Decimals used for voting token\n  uint256 constant DECIMALS = 10 ** 18;\n\n  modifier onlyParties {\n    require(parties[msg.sender]);\n    _;\n  }\n\n  modifier isParty(address _sender) {\n    require(parties[_sender]);\n    _;\n  }\n\n  modifier hasState(State _state) {\n    require(state == _state);\n    _;\n  }\n\n  modifier onlyJUR {\n    require(msg.sender == address(jurToken));\n    _;\n  }\n\n  /**\n   * @dev Constructor\n   * @param _jurToken Address of the JUR token\n   * @param _parties Addresses of parties involved in arbitration\n   * @param _dispersal Dispersal of funds if arbitration agreed\n   * @param _funding Source of funds for arbitration\n   * @param _agreementHash Hash of arbitration agreement\n   */\n  constructor(address _jurToken, address[] _parties, uint256[] _dispersal, uint256[] _funding, bytes32 _agreementHash) public {\n\n    //Check that we are only setting up an arbitration between two parties\n    require((_dispersal.length == 2) && (_funding.length == 2) && (_parties.length == 2));\n\n    //Check that party addresses are valid\n    require((_parties[0] != 0x0) && (_parties[1] != 0x0));\n\n    //Check that dispersals match funding and initialise mappings\n    uint256 totalFunding = 0;\n    uint256 totalDispersal = 0;\n    for (uint8 i = 0; i < _parties.length; i++) {\n      parties[_parties[i]] = true;\n      dispersal[_parties[i]] = _dispersal[i];\n      funding[_parties[i]] = _funding[i];\n      totalDispersal = totalDispersal.add(_dispersal[i]);\n      totalFunding = totalFunding.add(_funding[i]);\n    }\n    require(totalFunding == totalDispersal);\n    allParties = _parties;\n    agreementHash = _agreementHash;\n\n    //Initialise JUR token\n    jurToken = ERC20(_jurToken);\n\n    emit ContractCreated(_parties[0], _parties[1], _dispersal, _funding, _agreementHash);\n  }\n\n  function setState(State _state) internal {\n    emit StateChange(state, _state, getNow());\n    state = _state;\n  }\n\n  //Functions to sign and unsign contract\n\n  /**\n   * @dev Allows sender to sign agreeement\n   */\n  function sign() public {\n    _sign(msg.sender);\n  }\n\n  /**\n   * @dev Allows sender to sign agreeement using approve and call\n   * @param _sender Address of signing party\n   */\n  function signJUR(address _sender) public onlyJUR {\n    _sign(_sender);\n  }\n\n  function _sign(address _sender) internal hasState(State.Unsigned) isParty(_sender) {\n    require(!hasSigned[_sender]);\n    hasSigned[_sender] = true;\n    require(jurToken.transferFrom(_sender, address(this), funding[_sender]));\n    bool allSigned = true;\n    for (uint8 i = 0; i < allParties.length; i++) {\n      allSigned = allSigned && hasSigned[allParties[i]];\n    }\n    if (allSigned) {\n      setState(State.Signed);\n    }\n    emit ContractSigned(_sender, funding[_sender]);\n  }\n\n  /**\n   * @dev Allows sender to unsign agreeement\n   */\n  function unsign() public hasState(State.Unsigned) onlyParties {\n    require(hasSigned[msg.sender]);\n    hasSigned[msg.sender] = false;\n    require(jurToken.transfer(msg.sender, funding[msg.sender]));\n    emit ContractUnsigned(msg.sender, funding[msg.sender]);\n  }\n\n  //Functions to agree / unagree contract\n\n  /**\n   * @dev Allows sender to agree dispersals (so that funds can be dispursed)\n   */\n  function agree() public hasState(State.Signed) onlyParties {\n    require(!hasAgreed[msg.sender]);\n    hasAgreed[msg.sender] = true;\n    // If there is an amendment proposed, but not agreed refund all amendment funds\n    if (amendmentProposed) {\n      unagreeAmendment();\n    }\n    bool allAgreed = true;\n    for (uint8 i = 0; i < allParties.length; i++) {\n      allAgreed = allAgreed && hasAgreed[allParties[i]];\n    }\n    if (allAgreed) {\n      setState(State.Agreed);\n    }\n    emit ContractAgreed(msg.sender);\n  }\n\n  /**\n   * @dev Allows sender to unagree dispersals (so that funds cannot be dispursed)\n   */\n  function unagree() public hasState(State.Signed) onlyParties {\n    require(hasAgreed[msg.sender]);\n    hasAgreed[msg.sender] = false;\n    emit ContractUnagreed(msg.sender);\n  }\n\n  //Functions to propose a new dispersals / funding\n\n  /**\n   * @dev Allows sender to propose a new dispersal and agreement hash\n   * @param _dispersal Dispersal of funds if arbitration agreed\n   * @param _funding Source of funds for arbitration\n   * @param _agreementHash Hash of arbitration agreement\n   */\n  function proposeAmendment(uint256[] _dispersal, uint256[] _funding, bytes32 _agreementHash) public {\n    _proposeAmendment(msg.sender, _dispersal, _funding, _agreementHash);\n  }\n\n  /**\n   * @dev Allows sender to propose a new dispersal and agreement hash using approve and call\n   * @param _sender Address of amending party\n   * @param _dispersal Dispersal of funds if arbitration agreed\n   * @param _funding Source of funds for arbitration\n   * @param _agreementHash Hash of arbitration agreement\n   */\n  function proposeAmendmentJUR(address _sender, uint256[] _dispersal, uint256[] _funding, bytes32 _agreementHash) public onlyJUR {\n    _proposeAmendment(_sender, _dispersal, _funding, _agreementHash);\n  }\n\n  function _proposeAmendment(address _sender, uint256[] _dispersal, uint256[] _funding, bytes32 _agreementHash) internal hasState(State.Signed) isParty(_sender) {\n    //There can only be one proposed amendment at a time\n    require(!amendmentProposed);\n    amendmentProposed = true;\n    require((_dispersal.length == allParties.length) && (_funding.length == allParties.length));\n    uint256 totalFunding = 0;\n    uint256 totalDispersal = 0;\n    for (uint8 i = 0; i < allParties.length; i++) {\n      amendedDispersal[allParties[i]] = _dispersal[i];\n      amendedFunding[allParties[i]] = _funding[i];\n      totalDispersal = totalDispersal.add(_dispersal[i]);\n      totalFunding = totalFunding.add(_funding[i]);\n    }\n    require(totalFunding == totalDispersal);\n    amendedAgreementHash = _agreementHash;\n    //Must pay any excess dispersal required\n    _agreeAmendment(_sender);\n    emit ContractAmendmentProposed(_sender, _dispersal, _funding, _agreementHash);\n  }\n\n  //Functions to agree or unagree a new amendment\n\n  /**\n   * @dev Allows sender to agree an amendment to dispersals and agreement hash\n   */\n  function agreeAmendment() public {\n    _agreeAmendment(msg.sender);\n  }\n\n  /**\n   * @dev Allows sender to agree an amendment to dispersals and agreement hash using approve and call\n   * @param _sender Address of amendment agreeing party\n   */\n  function agreeAmendmentJUR(address _sender) public onlyJUR {\n    _agreeAmendment(_sender);\n  }\n\n  function _agreeAmendment(address _sender) internal hasState(State.Signed) isParty(_sender) {\n    require(amendmentProposed);\n    require(!hasFundedAmendment[_sender]);\n    hasFundedAmendment[_sender] = true;\n    if (amendedFunding[_sender] > funding[_sender]) {\n      uint256 deficit = amendedFunding[_sender].sub(funding[_sender]);\n      require(jurToken.transferFrom(_sender, address(this), deficit));\n    }\n    emit ContractAmendmentAgreed(_sender);\n    bool allFundedAmendment = true;\n    for (uint8 i = 0; i < allParties.length; i++) {\n      allFundedAmendment = allFundedAmendment && hasFundedAmendment[allParties[i]];\n    }\n    // If all parties have funded / agreed an amendment, refund any excess and reset proposals\n    if (allFundedAmendment) {\n      amendmentProposed = false;\n      for (uint8 j = 0; j < allParties.length; j++) {\n        hasFundedAmendment[allParties[j]] = false;\n        if (amendedFunding[allParties[j]] < funding[allParties[j]]) {\n          uint256 excess = funding[allParties[j]].sub(amendedFunding[allParties[j]]);\n          require(jurToken.transfer(allParties[j], excess));\n        }\n        funding[allParties[j]] = amendedFunding[allParties[j]];\n        dispersal[allParties[j]] = amendedDispersal[allParties[j]];\n      }\n      agreementHash = amendedAgreementHash;\n    }\n\n  }\n\n  /**\n   * @dev Allows sender to unagree an amendment to dispersals and agreement hash\n   */\n  function unagreeAmendment() public hasState(State.Signed) onlyParties {\n    //Could be done by original proposer, or other party\n    //If anyone disagrees, amendment is removed\n    require(amendmentProposed);\n    amendmentProposed = false;\n    //Refund any deficits paid\n    for (uint8 i = 0; i < allParties.length; i++) {\n      if (hasFundedAmendment[allParties[i]]) {\n        hasFundedAmendment[allParties[i]] = false;\n        if (amendedFunding[allParties[i]] > funding[allParties[i]]) {\n          uint256 excess = amendedFunding[allParties[i]].sub(funding[allParties[i]]);\n          require(jurToken.transfer(allParties[i], excess));\n        }\n      }\n    }\n    emit ContractAmendmentUnagreed(msg.sender);\n  }\n\n  /**\n   * @dev Once a contract has been agreed withdrawals dispersal amount\n   */\n  function withdrawDispersal() public hasState(State.Agreed) onlyParties {\n    require(!hasWithdrawn[msg.sender]);\n    hasWithdrawn[msg.sender] = true;\n    require(jurToken.transfer(msg.sender, dispersal[msg.sender]));\n    bool allWithdrawn = true;\n    for (uint8 i = 0; i < allParties.length; i++) {\n      allWithdrawn = allWithdrawn && (hasWithdrawn[allParties[i]] || (dispersal[allParties[i]] == 0));\n    }\n    emit ContractWithdrawn(msg.sender, dispersal[msg.sender]);\n    if (allWithdrawn) {\n      setState(State.Closed);\n    }\n  }\n\n  //Functions to initiate a dispute\n\n  /**\n   * @dev Allows sender to put the arbitration into a dispute State\n   * @param _voteAmount Amount of tokens to stake to the disputing parties side\n   * @param _dispersal Dispersal should the disputing party win\n   */\n  function dispute(uint256 _voteAmount, uint256[] _dispersal) public {\n    _dispute(msg.sender, _voteAmount, _dispersal);\n  }\n\n  /**\n   * @dev Allows sender to put the arbitration into a dispute State using approve and call\n   * @param _sender Address of disputing party\n   * @param _voteAmount Amount of tokens to stake to the disputing parties side\n   * @param _dispersal Dispersal should the disputing party win\n   */\n  function disputeJUR(address _sender, uint256 _voteAmount, uint256[] _dispersal) public onlyJUR {\n    _dispute(_sender, _voteAmount, _dispersal);\n  }\n\n  function _dispute(address _sender, uint256 _voteAmount, uint256[] _dispersal) internal hasState(State.Signed) isParty(_sender) {\n    require(_dispersal.length == allParties.length);\n    // If there is an amendment proposed, but not agreed refund all amendment funds\n    if (amendmentProposed) {\n      unagreeAmendment();\n    }\n    setState(State.Dispute);\n    uint256 totalDispersal = 0;\n    uint256 totalFunding = 0;\n    for (uint8 i = 0; i < allParties.length; i++) {\n      disputeDispersal[_sender][allParties[i]] = _dispersal[i];\n      totalDispersal = totalDispersal.add(_dispersal[i]);\n      totalFunding = totalFunding.add(funding[allParties[i]]);\n    }\n    require(totalDispersal == totalFunding);\n    require(_voteAmount >= totalFunding.mul(MIN_VOTE).div(10**18));\n    disputeStarts = SafeMath.add(getNow(), DISPUTE_DISPERSAL_DURATION);\n    disputeEnds = SafeMath.add(disputeStarts, DISPUTE_VOTE_DURATION);\n    //Default other parties dispute dispersals\n    for (uint8 j = 0; j < allParties.length; j++) {\n      if (allParties[j] != _sender) {\n        disputeDispersal[allParties[j]][allParties[j]] = totalFunding;\n      }\n    }\n    //Default reject option dispute dispersals\n    for (uint8 k = 0; k < allParties.length; k++) {\n      disputeDispersal[address(0)][allParties[k]] = funding[allParties[k]];\n    }\n    emit ContractDisputed(_sender, _dispersal);\n    _vote(_sender, _sender, _voteAmount);\n  }\n\n  /**\n   * @dev Allows sender to amend their dispersals should they win\n   * @param _dispersal Dispersal should the disputing party win\n   */\n  function amendDisputeDispersal(uint256[] _dispersal) public hasState(State.Dispute) onlyParties {\n    require(_dispersal.length == allParties.length);\n    require(getNow() < disputeStarts);\n    uint256 totalDispersal = 0;\n    uint256 totalFunding = 0;\n    for (uint8 i = 0; i < allParties.length; i++) {\n      disputeDispersal[msg.sender][allParties[i]] = _dispersal[i];\n      totalDispersal = totalDispersal.add(_dispersal[i]);\n      totalFunding = totalFunding.add(funding[allParties[i]]);\n    }\n    require(totalDispersal == totalFunding);\n    emit ContractDisputeDispersalAmended(msg.sender, _dispersal);\n  }\n\n  /**\n   * @dev Calculates the current end time of the voting period\n   */\n  function calcDisputeEnds() public hasState(State.Dispute) returns(uint256) {\n    //Extend dispute period if:\n    //  - vote is tied\n    //  - more than 5% of votes places in last 30 minutes of dispute period\n    if (getNow() < disputeEnds) {\n      return disputeEnds;\n    }\n    if (disputeWindowVotes > totalVotes.mul(DISPUTE_WINDOW_MAX).div(10**18)) {\n      disputeWindowVotes = 0;\n      return disputeEnds.add(DISPUTE_EXTENSION);\n    }\n    uint256 winningVotes = partyVotes[address(0)];\n    for (uint8 i = 0; i < allParties.length; i++) {\n      if (partyVotes[allParties[i]] > winningVotes) {\n        winningVotes = partyVotes[allParties[i]];\n      }\n    }\n    uint8 countWinners = 0;\n    if (partyVotes[address(0)] == winningVotes) {\n      countWinners = countWinners + 1;\n    }\n    for (uint8 j = 0; j < allParties.length; j++) {\n      if (partyVotes[allParties[j]] == winningVotes) {\n        countWinners = countWinners + 1;\n      }\n    }\n    if (countWinners > 1) {\n      disputeWindowVotes = 0;\n      //New end time is calculated from now\n      return getNow().add(DISPUTE_EXTENSION);\n    }\n    return disputeEnds;\n  }\n\n  //Functions to allow voting on disputed agreements\n\n  /**\n   * @dev Allows sender to vote\n   * @param _voteAddress Address of party who is being voted for (0 for reject option)\n   * @param _voteAmount Amount of tokens to stake to the _voteAddress side\n   */\n  function vote(address _voteAddress, uint256 _voteAmount) public {\n    _vote(msg.sender, _voteAddress, _voteAmount);\n  }\n\n  /**\n   * @dev Allows sender to vote using approve and call\n   * @param _sender Address of voting party\n   * @param _voteAddress Address of party who is being voted for (0 for reject option)\n   * @param _voteAmount Amount of tokens to stake to the _voteAddress side\n   */\n  function voteJUR(address _sender, address _voteAddress, uint256 _voteAmount) public onlyJUR {\n    _vote(_sender, _voteAddress, _voteAmount);\n  }\n\n  function _vote(address _sender, address _voteAddress, uint256 _voteAmount) internal hasState(State.Dispute) {\n    uint256 newDisputeEnds = calcDisputeEnds();\n    if (newDisputeEnds != disputeEnds) {\n      emit DisputeEndsAdjusted(newDisputeEnds, disputeEnds);\n      disputeEnds = newDisputeEnds;\n    }\n    require(getNow() < disputeEnds);\n    //Parties are allowed to vote straightaway\n    require((getNow() >= disputeStarts) || parties[_sender]);\n    //Check vote is for a valid address\n    require(parties[_voteAddress] || (_voteAddress == address(0)));\n    //Vote must be at least MIN_VOTE of the totalVotes\n    require(_voteAmount >= totalVotes.mul(MIN_VOTE).div(10**18));\n    //Vote must not mean the new winning party after the vote has strictly more than twice the next best party\n    if (totalVotes != 0) {\n      address winnerParty;\n      address bestMinortyParty;\n      (winnerParty, bestMinortyParty) = getWinnerAndBestMinorty();\n      if (_voteAddress == winnerParty) {\n        require(partyVotes[_voteAddress].add(_voteAmount) <=  partyVotes[bestMinortyParty].mul(2));\n      } else {\n        require(partyVotes[_voteAddress].add(_voteAmount) <=  partyVotes[winnerParty].mul(2));\n      }\n    }\n\n    Vote memory newVote = Vote(_voteAmount, partyVotes[_voteAddress], false);\n\n    //Commit votes\n    require(jurToken.transferFrom(_sender, address(this), _voteAmount));\n\n    //Track votes during last 30 mins of voting period\n    if (getNow() >= disputeEnds.sub(30 * 60)) {\n      disputeWindowVotes = disputeWindowVotes.add(_voteAmount);\n    }\n\n    //Record votes\n    totalVotes = totalVotes.add(_voteAmount);\n    partyVotes[_voteAddress] = partyVotes[_voteAddress].add(_voteAmount);\n    userVotes[_sender][_voteAddress].push(newVote);\n\n    emit VoteCast(_sender, _voteAddress, _voteAmount);\n\n  }\n\n  /**\n   * @dev Allows sender (voter) to claim their staked and reward tokens\n   * @param _start Index at which to start iterating through votes\n   * @param _end Index at which to end iterating through votes\n   */\n  function payoutVoter(uint256 _start, uint256 _end) public hasState(State.Dispute) {\n    //Generally setting _start to 0 and _end to a large number should be fine, but having the option avoids a possible block gas limit issue\n    uint256 newDisputeEnds = calcDisputeEnds();\n    if (newDisputeEnds != disputeEnds) {\n      emit DisputeEndsAdjusted(newDisputeEnds, disputeEnds);\n      disputeEnds = newDisputeEnds;\n    }\n    require(getNow() >= disputeEnds.add(VOTE_LOCKUP));\n    //There should be a clear winner now, otherwise the dispute would have been extended.\n    address winnerParty;\n    address bestMinortyParty;\n    (winnerParty, bestMinortyParty) = getWinnerAndBestMinorty();\n    uint256 totalMinorityVotes = totalVotes.sub(partyVotes[winnerParty]);\n    uint256 bestMinorityVotes = partyVotes[bestMinortyParty];\n\n    //If there were no votes on any minority options (all votes on the winner) then there is no payout\n    uint256 reward = 0;\n    if (totalMinorityVotes != 0) {\n      reward = decimalDiv(totalMinorityVotes, bestMinorityVotes);\n    }\n\n    uint256 eligableVotes = 0;\n    uint256 stakedVotes = 0;\n\n    for (uint256 i = _start; i < Math.min256(userVotes[msg.sender][winnerParty].length, _end); i++) {\n      if (!userVotes[msg.sender][winnerParty][i].claimed) {\n        userVotes[msg.sender][winnerParty][i].claimed = true;\n        stakedVotes = stakedVotes.add(userVotes[msg.sender][winnerParty][i].amount);\n        if (userVotes[msg.sender][winnerParty][i].previousVotes < bestMinorityVotes) {\n          eligableVotes = eligableVotes.add(Math.min256(bestMinorityVotes.sub(userVotes[msg.sender][winnerParty][i].previousVotes), userVotes[msg.sender][winnerParty][i].amount));\n        }\n      }\n    }\n    require(jurToken.transfer(msg.sender, stakedVotes.add(decimalMul(eligableVotes, reward))));\n    emit VoterPayout(msg.sender, stakedVotes, decimalMul(eligableVotes, reward));\n  }\n\n  /**\n   * @notice Returns the current winner\n   */\n  function getWinner() public view returns(address) {\n    uint256 winnerVotes = partyVotes[address(0)];\n    address winnerParty = address(0);\n    for (uint8 i = 0; i < allParties.length; i++) {\n      if (winnerVotes < partyVotes[allParties[i]]) {\n        winnerVotes = partyVotes[allParties[i]];\n        winnerParty = allParties[i];\n      }\n    }\n    return winnerParty;\n  }\n\n  /**\n   * @notice Returns the current winner and next best minority party\n   */\n  function getWinnerAndBestMinorty() public view returns(address, address) {\n    address winnerParty = getWinner();\n    address bestMinorityParty = (winnerParty == address(0)) ? allParties[0] : address(0);\n    uint256 bestMinorityVotes = partyVotes[bestMinorityParty];\n    for (uint8 j = 0; j < allParties.length; j++) {\n      if ((bestMinorityVotes < partyVotes[allParties[j]]) && (winnerParty != allParties[j])) {\n        bestMinorityParty = allParties[j];\n        bestMinorityVotes = partyVotes[bestMinorityParty];\n      }\n    }\n    return (winnerParty, bestMinorityParty);\n  }\n\n  /**\n   * @dev Allows sender (party) to claim their dispersal tokens\n   */\n  function payoutParty() public hasState(State.Dispute) onlyParties {\n    uint256 newDisputeEnds = calcDisputeEnds();\n    if (newDisputeEnds != disputeEnds) {\n      emit DisputeEndsAdjusted(newDisputeEnds, disputeEnds);\n      disputeEnds = newDisputeEnds;\n    }\n    require(getNow() >= disputeEnds);\n    require(!hasWithdrawn[msg.sender]);\n    hasWithdrawn[msg.sender] = true;\n    address winnerParty = getWinner();\n    uint256 payout = disputeDispersal[winnerParty][msg.sender];\n    require(jurToken.transfer(msg.sender, payout));\n    emit PartyPayout(msg.sender, payout);\n  }\n\n  /**\n   * @notice Returns division assuming both inputs are decimals multiplied by DECIMALS\n   */\n  function decimalDiv(uint256 x, uint256 y) internal pure returns (uint256) {\n    return x.mul(DECIMALS).div(y);\n  }\n\n  /**\n   * @notice Returns multiplication assuming both inputs are decimals multiplied by DECIMALS\n   */\n  function decimalMul(uint256 x, uint256 y) internal pure returns (uint256) {\n    return x.mul(y).div(DECIMALS);\n  }\n\n  /**\n   * @notice Returns current timestamp\n   */\n  function getNow() internal constant returns (uint256) {\n    return now;\n  }\n\n}\n",
  "sourcePath": "/Users/marcomarasco/Sites/dev/jur-mvp/protocol/contracts/Arbitration.sol",
  "compiler": {
    "name": "solc",
    "version": "0.4.25+commit.59dbf8f1.Emscripten.clang"
  },
  "schemaVersion": "2.0.2",
  "updatedAt": "2019-07-28T14:53:41.597Z"
}