{
  "contractName": "ArbitrationFactory",
  "abi": [
    {
      "constant": true,
      "inputs": [],
      "name": "jurToken",
      "outputs": [
        {
          "name": "",
          "type": "address"
        }
      ],
      "payable": false,
      "stateMutability": "view",
      "type": "function"
    },
    {
      "constant": false,
      "inputs": [],
      "name": "renounceOwnership",
      "outputs": [],
      "payable": false,
      "stateMutability": "nonpayable",
      "type": "function"
    },
    {
      "constant": true,
      "inputs": [],
      "name": "owner",
      "outputs": [
        {
          "name": "",
          "type": "address"
        }
      ],
      "payable": false,
      "stateMutability": "view",
      "type": "function"
    },
    {
      "constant": true,
      "inputs": [
        {
          "name": "",
          "type": "uint256"
        }
      ],
      "name": "arbirations",
      "outputs": [
        {
          "name": "",
          "type": "address"
        }
      ],
      "payable": false,
      "stateMutability": "view",
      "type": "function"
    },
    {
      "constant": false,
      "inputs": [
        {
          "name": "_newOwner",
          "type": "address"
        }
      ],
      "name": "transferOwnership",
      "outputs": [],
      "payable": false,
      "stateMutability": "nonpayable",
      "type": "function"
    },
    {
      "inputs": [
        {
          "name": "_jurToken",
          "type": "address"
        }
      ],
      "payable": false,
      "stateMutability": "nonpayable",
      "type": "constructor"
    },
    {
      "anonymous": false,
      "inputs": [
        {
          "indexed": true,
          "name": "_creator",
          "type": "address"
        },
        {
          "indexed": false,
          "name": "_arbitration",
          "type": "address"
        },
        {
          "indexed": true,
          "name": "_party1",
          "type": "address"
        },
        {
          "indexed": true,
          "name": "_party2",
          "type": "address"
        },
        {
          "indexed": false,
          "name": "_dispersal",
          "type": "uint256[]"
        },
        {
          "indexed": false,
          "name": "_funding",
          "type": "uint256[]"
        },
        {
          "indexed": false,
          "name": "_agreementHash",
          "type": "bytes32"
        }
      ],
      "name": "ArbitrationCreated",
      "type": "event"
    },
    {
      "anonymous": false,
      "inputs": [
        {
          "indexed": true,
          "name": "previousOwner",
          "type": "address"
        }
      ],
      "name": "OwnershipRenounced",
      "type": "event"
    },
    {
      "anonymous": false,
      "inputs": [
        {
          "indexed": true,
          "name": "previousOwner",
          "type": "address"
        },
        {
          "indexed": true,
          "name": "newOwner",
          "type": "address"
        }
      ],
      "name": "OwnershipTransferred",
      "type": "event"
    },
    {
      "constant": false,
      "inputs": [
        {
          "name": "_parties",
          "type": "address[]"
        },
        {
          "name": "_dispersal",
          "type": "uint256[]"
        },
        {
          "name": "_funding",
          "type": "uint256[]"
        },
        {
          "name": "_agreementHash",
          "type": "bytes32"
        }
      ],
      "name": "createArbitration",
      "outputs": [],
      "payable": false,
      "stateMutability": "nonpayable",
      "type": "function"
    },
    {
      "constant": false,
      "inputs": [
        {
          "name": "_jurToken",
          "type": "address"
        }
      ],
      "name": "changeToken",
      "outputs": [],
      "payable": false,
      "stateMutability": "nonpayable",
      "type": "function"
    },
    {
      "constant": true,
      "inputs": [
        {
          "name": "_input",
          "type": "string"
        }
      ],
      "name": "generateHash",
      "outputs": [
        {
          "name": "",
          "type": "bytes32"
        }
      ],
      "payable": false,
      "stateMutability": "pure",
      "type": "function"
    }
  ],
  "bytecode": "0x608060405234801561001057600080fd5b5060405160208061419f833981016040525160008054600160a060020a0319908116331790915560018054600160a060020a03909316929091169190911790556141408061005f6000396000f300608060405260043610620000965763ffffffff7c01000000000000000000000000000000000000000000000000000000006000350416635f068b4381146200009b57806366829b1614620000cf578063715018a614620000f55780638da5cb5b146200010d578063b063152a1462000125578063bfabc1e01462000193578063dabf142d146200025f578063f2fde38b146200027a575b600080fd5b348015620000a857600080fd5b50620000b36200029e565b60408051600160a060020a039092168252519081900360200190f35b348015620000dc57600080fd5b50620000f3600160a060020a0360043516620002ad565b005b3480156200010257600080fd5b50620000f3620002f4565b3480156200011a57600080fd5b50620000b362000361565b3480156200013257600080fd5b506040805160206004803580820135601f810184900484028501840190955284845262000181943694929360249392840191908190840183828082843750949750620003709650505050505050565b60408051918252519081900360200190f35b348015620001a057600080fd5b5060408051602060048035808201358381028086018501909652808552620000f395369593946024949385019291829185019084908082843750506040805187358901803560208181028481018201909552818452989b9a998901989297509082019550935083925085019084908082843750506040805187358901803560208181028481018201909552818452989b9a9989019892975090820195509350839250850190849080828437509497505093359450620003d69350505050565b3480156200026c57600080fd5b50620000b360043562000699565b3480156200028757600080fd5b50620000f3600160a060020a0360043516620006c2565b600154600160a060020a031681565b600054600160a060020a03163314620002c557600080fd5b6001805473ffffffffffffffffffffffffffffffffffffffff1916600160a060020a0392909216919091179055565b600054600160a060020a031633146200030c57600080fd5b60008054604051600160a060020a03909116917ff8df31144d9c2f0f6b59d69b8b98abd5459d07f2742c4df920b25aae33c6482091a26000805473ffffffffffffffffffffffffffffffffffffffff19169055565b600054600160a060020a031681565b6000816040518082805190602001908083835b60208310620003a45780518252601f19909201916020918201910162000383565b5181516020939093036101000a6000190180199091169216919091179052604051920182900390912095945050505050565b600154600090600160a060020a031685858585620003f362000766565b600160a060020a03861681526080810182905260a0602080830182815287519284019290925286516040840191606085019160c08601918a8101910280838360005b838110156200044f57818101518382015260200162000435565b50505050905001848103835287818151815260200191508051906020019060200280838360005b838110156200049057818101518382015260200162000476565b50505050905001848103825286818151815260200191508051906020019060200280838360005b83811015620004d1578181015183820152602001620004b7565b5050505090500198505050505050505050604051809103906000f080158015620004ff573d6000803e3d6000fd5b5060028054600180820183556000929092527f405787fa12a823e0f2b7631cc41b3ba8828b3321ca811111fa75cd3aa3bb5ace01805473ffffffffffffffffffffffffffffffffffffffff1916600160a060020a0384161790558651919250869181106200056957fe5b90602001906020020151600160a060020a03168560008151811015156200058c57fe5b90602001906020020151600160a060020a031633600160a060020a03167f10e90922e9ef80d8cdfa2621c8fd50a670b92c91da43f6f7d953a721d0faddd2848888886040518085600160a060020a0316600160a060020a0316815260200180602001806020018460001916600019168152602001838103835286818151815260200191508051906020019060200280838360005b838110156200063a57818101518382015260200162000620565b50505050905001838103825285818151815260200191508051906020019060200280838360005b838110156200067b57818101518382015260200162000661565b50505050905001965050505050505060405180910390a45050505050565b6002805482908110620006a857fe5b600091825260209091200154600160a060020a0316905081565b600054600160a060020a03163314620006da57600080fd5b620006e581620006e8565b50565b600160a060020a0381161515620006fe57600080fd5b60008054604051600160a060020a03808516939216917f8be0079c531659141344cd1fd0a4f28419497f9722a3daafe3b4186f6b6457e091a36000805473ffffffffffffffffffffffffffffffffffffffff1916600160a060020a0392909216919091179055565b60405161399d8062000778833901905600608060405262093a80600155620151806002819055610708600381905560045560055566b1a2bc2ec50000600655662386f26fc100006007819055600855601d805460ff191690553480156200005457600080fd5b506040516200399d3803806200399d8339810160409081528151602083015191830151606084015160808501519185018051939594850194909391019190600090819081906002148015620000aa575084516002145b8015620000b8575086516002145b1515620000c457600080fd5b866000815181101515620000d457fe5b90602001906020020151600160a060020a03166000141580156200011b57508660018151811015156200010357fe5b90602001906020020151600160a060020a0316600014155b15156200012757600080fd5b5060009150819050805b86518160ff161015620002ac576001600a6000898460ff168151811015156200015657fe5b602090810291909101810151600160a060020a03168252810191909152604001600020805460ff19169115159190911790558551869060ff83169081106200019a57fe5b90602001906020020151600b6000898460ff16815181101515620001ba57fe5b6020908102909101810151600160a060020a03168252810191909152604001600020558451859060ff8316908110620001ef57fe5b90602001906020020151600c6000898460ff168151811015156200020f57fe5b6020908102909101810151600160a060020a031682528101919091526040016000205585516200026990879060ff84169081106200024957fe5b60209081029091010151839064010000000062002a1b6200041282021704565b9150620002a1858260ff168151811015156200028157fe5b60209081029091010151849064010000000062002a1b6200041282021704565b925060010162000131565b828214620002b957600080fd5b8651620002ce9060099060208a019062000426565b50601084905560008054600160a060020a031916600160a060020a038a16179055865187906001908110620002ff57fe5b90602001906020020151600160a060020a03168760008151811015156200032257fe5b90602001906020020151600160a060020a03167f18a9c4249303b74ecff5e58f4dcc486cd7de84cd3feec18d74f4c9216963fb9e8888886040518080602001806020018460001916600019168152602001838103835286818151815260200191508051906020019060200280838360005b83811015620003ad57818101518382015260200162000393565b50505050905001838103825285818151815260200191508051906020019060200280838360005b83811015620003ee578181015183820152602001620003d4565b505050509050019550505050505060405180910390a35050505050505050620004ba565b818101828110156200042057fe5b92915050565b8280548282559060005260206000209081019282156200047e579160200282015b828111156200047e5782518254600160a060020a031916600160a060020a0390911617825560209092019160019091019062000447565b506200048c92915062000490565b5090565b620004b791905b808211156200048c578054600160a060020a031916815560010162000497565b90565b6134d380620004ca6000396000f3006080604052600436106102425763ffffffff60e060020a60003504166302edcbfb8114610247578063049f2d8a146102d95780630ab55d0b1461030c5780630d15fd771461032157806312feb4a714610336578063188c0e431461034b5780631ff2e2141461036057806325ce690b146103fe5780632731c6c61461041f5780632a50b544146104345780632ca15122146104495780632efab6fa1461045e5780632f36cacf1461047357806337c2afda146104cd5780633ad17f6d146104ee5780633f606aa31461052957806341e60c861461053e57806344633297146105535780634f2352071461057a5780634f802f8a146105af57806352e18f33146105c45780635a9e17a7146105d95780635cfe585a146105ee5780635e2c19db146106035780635f068b43146106245780635f74bbde1461065557806360d505961461067957806364a8a11f14610691578063682644fd146106bb57806368e664bd146106dc5780636eae555d146106fd57806374e6cfd3146107525780638b90dc94146107735780638bfb85c3146107885780638e7ea5b21461079d5780638fae60a5146107b2578063918c9373146107c7578063994d4060146107dc5780639cff621a146107fd578063a3f5700d14610812578063a7e92fb514610827578063adef40db1461083c578063b40b7841146108a3578063b7c1ae81146108b8578063bf6a1413146108d9578063c19d93fb146108fa578063d15e317014610933578063d5e03fc61461094e578063f585dc5714610963578063fc76317614610978575b600080fd5b34801561025357600080fd5b50604080516020600480358082013583810280860185019096528085526102d795369593946024949385019291829185019084908082843750506040805187358901803560208181028481018201909552818452989b9a99890198929750908201955093508392508501908490808284375094975050933594506109999350505050565b005b3480156102e557600080fd5b506102fa600160a060020a03600435166109aa565b60408051918252519081900360200190f35b34801561031857600080fd5b506102fa6109bc565b34801561032d57600080fd5b506102fa6109c2565b34801561034257600080fd5b506102fa6109c8565b34801561035757600080fd5b506102fa6109ce565b34801561036c57600080fd5b506040805160206004602480358281013584810280870186019097528086526102d7968435600160a060020a031696369660449591949091019291829185019084908082843750506040805187358901803560208181028481018201909552818452989b9a99890198929750908201955093508392508501908490808284375094975050933594506109d49350505050565b34801561040a57600080fd5b506102fa600160a060020a03600435166109fd565b34801561042b57600080fd5b506102fa610a0f565b34801561044057600080fd5b506102fa610a15565b34801561045557600080fd5b506102d7610a1b565b34801561046a57600080fd5b506102fa610a26565b34801561047f57600080fd5b506040805160206004602480358281013584810280870186019097528086526102d796843596369660449591949091019291829185019084908082843750949750610a2c9650505050505050565b3480156104d957600080fd5b506102d7600160a060020a0360043516610a3b565b3480156104fa57600080fd5b50610503610a5e565b60408051600160a060020a03938416815291909216602082015281519081900390910190f35b34801561053557600080fd5b506102fa610ba0565b34801561054a57600080fd5b506102d7610ba6565b34801561055f57600080fd5b506102fa600160a060020a0360043581169060243516610d07565b34801561058657600080fd5b5061059b600160a060020a0360043516610d24565b604080519115158252519081900360200190f35b3480156105bb57600080fd5b506102d7610d39565b3480156105d057600080fd5b506102fa61102f565b3480156105e557600080fd5b506102fa611035565b3480156105fa57600080fd5b506102fa61103b565b34801561060f57600080fd5b5061059b600160a060020a0360043516611279565b34801561063057600080fd5b5061063961128e565b60408051600160a060020a039092168252519081900360200190f35b34801561066157600080fd5b506102d7600160a060020a036004351660243561129d565b34801561068557600080fd5b506106396004356112a8565b34801561069d57600080fd5b506102d7600160a060020a03600435811690602435166044356112d0565b3480156106c757600080fd5b5061059b600160a060020a03600435166112f2565b3480156106e857600080fd5b5061059b600160a060020a0360043516611307565b34801561070957600080fd5b50604080516020600480358082013583810280860185019096528085526102d79536959394602494938501929182918501908490808284375094975061131c9650505050505050565b34801561075e57600080fd5b506102fa600160a060020a036004351661150c565b34801561077f57600080fd5b5061059b61151e565b34801561079457600080fd5b506102d7611527565b3480156107a957600080fd5b50610639611530565b3480156107be57600080fd5b506102d7611625565b3480156107d357600080fd5b506102fa611758565b3480156107e857600080fd5b506102fa600160a060020a036004351661175e565b34801561080957600080fd5b506102d7611770565b34801561081e57600080fd5b506102fa611990565b34801561083357600080fd5b506102d7611996565b34801561084857600080fd5b5060408051602060046044358181013583810280860185019096528085526102d7958335600160a060020a0316956024803596369695606495939492019291829185019084908082843750949750611a309650505050505050565b3480156108af57600080fd5b506102fa611a52565b3480156108c457600080fd5b506102fa600160a060020a0360043516611a58565b3480156108e557600080fd5b5061059b600160a060020a0360043516611a6a565b34801561090657600080fd5b5061090f611a7f565b6040518082600481111561091f57fe5b60ff16815260200191505060405180910390f35b34801561093f57600080fd5b506102d7600435602435611a88565b34801561095a57600080fd5b506102d7611f07565b34801561096f57600080fd5b506102fa6120f1565b34801561098457600080fd5b506102d7600160a060020a03600435166120f7565b6109a533848484612117565b505050565b600c6020526000908152604090205481565b60105481565b60195481565b60185481565b60115481565b600054600160a060020a031633146109eb57600080fd5b6109f784848484612117565b50505050565b600b6020526000908152604090205481565b60015481565b60025481565b610a24336123ad565b565b60075481565b610a373383836125b3565b5050565b600054600160a060020a03163314610a5257600080fd5b610a5b816123ad565b50565b600080600080600080610a6f611530565b9350600160a060020a03841615610a87576000610aac565b600980546000908110610a9657fe5b600091825260209091200154600160a060020a03165b600160a060020a0381166000908152601b602052604081205491945090925090505b60095460ff82161015610b9557601b600060098360ff16815481101515610af157fe5b6000918252602080832090910154600160a060020a0316835282019290925260400190205482108015610b4c57506009805460ff8316908110610b3057fe5b600091825260209091200154600160a060020a03858116911614155b15610b8d576009805460ff8316908110610b6257fe5b6000918252602080832090910154600160a060020a0316808352601b90915260409091205490935091505b600101610ace565b509194909350915050565b60055481565b600080601d5460ff166004811115610bba57fe5b14610bc457600080fd5b336000908152600a602052604090205460ff161515610be257600080fd5b3360009081526012602052604090205460ff161515610c0057600080fd5b336000818152601260209081526040808320805460ff191690558254600c83528184205482517fa9059cbb000000000000000000000000000000000000000000000000000000008152600481019690965260248601529051600160a060020a039091169363a9059cbb9360448083019493928390030190829087803b158015610c8857600080fd5b505af1158015610c9c573d6000803e3d6000fd5b505050506040513d6020811015610cb257600080fd5b50511515610cbf57600080fd5b336000818152600c602090815260409182902054825190815291517ff915f6adcfba53634fa63225573ad1f78d2f842387fe91379c27c14a259537cf9281900390910190a250565b600f60209081526000928352604080842090915290825290205481565b600a6020526000908152604090205460ff1681565b600080600180601d5460ff166004811115610d5057fe5b14610d5a57600080fd5b336000908152600a602052604090205460ff161515610d7857600080fd5b60165460ff161515610d8957600080fd5b6016805460ff19169055600092505b60095460ff84161015610fff576015600060098560ff16815481101515610dbb57fe5b6000918252602080832090910154600160a060020a0316835282019290925260400190205460ff1615610ff45760006015600060098660ff16815481101515610e0057fe5b600091825260208083209190910154600160a060020a031683528201929092526040018120805460ff19169215159290921790915560098054600c92919060ff8716908110610e4b57fe5b6000918252602080832090910154600160a060020a03168352820192909252604001812054600980549192600e9290919060ff8816908110610e8957fe5b6000918252602080832090910154600160a060020a031683528201929092526040019020541115610ff457610f3c600c600060098660ff16815481101515610ecd57fe5b6000918252602080832090910154600160a060020a03168352820192909252604001812054600980549192600e9290919060ff8916908110610f0b57fe5b6000918252602080832090910154600160a060020a031683528201929092526040019020549063ffffffff6129c216565b60005460098054929450600160a060020a039091169163a9059cbb919060ff8716908110610f6657fe5b60009182526020808320909101546040805160e060020a63ffffffff8716028152600160a060020a039092166004830152602482018890525160448083019491928390030190829087803b158015610fbd57600080fd5b505af1158015610fd1573d6000803e3d6000fd5b505050506040513d6020811015610fe757600080fd5b50511515610ff457600080fd5b600190920191610d98565b60405133907fc42ff889a5bf104cb88fddd83f34d59c6162fb4c97c5c075d3e5143b977407d090600090a2505050565b60065481565b601a5481565b600080808080600380601d5460ff16600481111561105557fe5b1461105f57600080fd5b60185461106a6129d9565b101561107a576018549550611271565b6110a9670de0b6b3a764000061109d6006546019546129dd90919063ffffffff16565b9063ffffffff612a0616565b601a5411156110d3576000601a556004546018546110cc9163ffffffff612a1b16565b9550611271565b6000808052601b6020527f584f46c60af19681376031579adb04a2416e54ee5505351c2a8435e3766026ea54955093505b60095460ff8516101561119c5784601b600060098760ff1681548110151561112857fe5b6000918252602080832090910154600160a060020a03168352820192909252604001902054111561119157601b600060098660ff1681548110151561116957fe5b6000918252602080832090910154600160a060020a0316835282019290925260400190205494505b600190930192611104565b6000808052601b6020527f584f46c60af19681376031579adb04a2416e54ee5505351c2a8435e3766026ea549093508514156111d9578260010192505b600091505b60095460ff8316101561123f5784601b600060098560ff1681548110151561120257fe5b6000918252602080832090910154600160a060020a031683528201929092526040019020541415611234578260010192505b6001909101906111de565b60018360ff16111561126b576000601a556004546110cc9061125f6129d9565b9063ffffffff612a1b16565b60185495505b505050505090565b60146020526000908152604090205460ff1681565b600054600160a060020a031681565b610a37338383612a28565b60098054829081106112b657fe5b600091825260209091200154600160a060020a0316905081565b600054600160a060020a031633146112e757600080fd5b6109a5838383612a28565b60136020526000908152604090205460ff1681565b60156020526000908152604090205460ff1681565b60008080600380601d5460ff16600481111561133457fe5b1461133e57600080fd5b336000908152600a602052604090205460ff16151561135c57600080fd5b60095485511461136b57600080fd5b6017546113766129d9565b1061138057600080fd5b6000935060009250600091505b60095460ff8316101561148557848260ff168151811015156113ab57fe5b6020908102909101810151336000908152600f90925260408220600980549293919260ff87169081106113da57fe5b6000918252602080832090910154600160a060020a03168352820192909252604001902055845161142b90869060ff851690811061141457fe5b60209081029091010151859063ffffffff612a1b16565b9350611478600c600060098560ff1681548110151561144657fe5b6000918252602080832090910154600160a060020a03168352820192909252604001902054849063ffffffff612a1b16565b925060019091019061138d565b83831461149157600080fd5b604080516020808252875181830152875133937fe98983adb63591508c2f748970470e7487b3bebd763d08abc3334beeb72a00b0938a9390928392830191808601910280838360005b838110156114f25781810151838201526020016114da565b505050509050019250505060405180910390a25050505050565b601b6020526000908152604090205481565b60165460ff1681565b610a2433612e47565b6000808052601b6020527f584f46c60af19681376031579adb04a2416e54ee5505351c2a8435e3766026ea5481805b60095460ff8216101561161e57601b600060098360ff1681548110151561158257fe5b6000918252602080832090910154600160a060020a0316835282019290925260400190205483101561161657601b600060098360ff168154811015156115c457fe5b6000918252602080832090910154600160a060020a03168352820192909252604001902054600980549194509060ff83169081106115fe57fe5b600091825260209091200154600160a060020a031691505b60010161155f565b5092915050565b600080600180601d5460ff16600481111561163c57fe5b1461164657600080fd5b336000908152600a602052604090205460ff16151561166457600080fd5b3360009081526013602052604090205460ff161561168157600080fd5b336000908152601360205260409020805460ff1916600117905560165460ff16156116ae576116ae610d39565b60019250600091505b60095460ff831610156117185782801561170b57506013600060098460ff168154811015156116e257fe5b6000918252602080832090910154600160a060020a0316835282019290925260400190205460ff165b92506001909101906116b7565b8215611728576117286002613399565b60405133907fcdfedae112bb2610775e69a6ffd348e7dfdd996e3fb3a5f6d46b52651867b49790600090a2505050565b60175481565b600d6020526000908152604090205481565b600080600280601d5460ff16600481111561178757fe5b1461179157600080fd5b336000908152600a602052604090205460ff1615156117af57600080fd5b3360009081526014602052604090205460ff16156117cc57600080fd5b336000818152601460209081526040808320805460ff191660011790558254600b83528184205482517fa9059cbb000000000000000000000000000000000000000000000000000000008152600481019690965260248601529051600160a060020a03919091169363a9059cbb9360448083019493928390030190829087803b15801561185857600080fd5b505af115801561186c573d6000803e3d6000fd5b505050506040513d602081101561188257600080fd5b5051151561188f57600080fd5b60019250600091505b60095460ff8316101561193b5782801561192e57506014600060098460ff168154811015156118c357fe5b6000918252602080832090910154600160a060020a0316835282019290925260400190205460ff168061192e5750600b600060098460ff1681548110151561190757fe5b6000918252602080832090910154600160a060020a03168352820192909252604001902054155b9250600190910190611898565b336000818152600b602090815260409182902054825190815291517f76cc4dd05e1fc280969f3363b5db432911cddfadcfae9bef818a492c0f8d57329281900390910190a282156109a5576109a56004613399565b60085481565b600180601d5460ff1660048111156119aa57fe5b146119b457600080fd5b336000908152600a602052604090205460ff1615156119d257600080fd5b3360009081526013602052604090205460ff1615156119f057600080fd5b33600081815260136020526040808220805460ff19169055517f6faffafe1cb6a0bf26e66cc0178734aa9fe07d7c6961884c4a93920423c0bd0e9190a250565b600054600160a060020a03163314611a4757600080fd5b6109a58383836125b3565b60045481565b600e6020526000908152604090205481565b60126020526000908152604090205460ff1681565b601d5460ff1681565b60008080808080808080600380601d5460ff166004811115611aa657fe5b14611ab057600080fd5b611ab861103b565b601854909a508a14611b0857601854604080518c8152602081019290925280517f04e9f9a05f2b0f7b76cbaeafc40a3136a1870f82f8eff85e766f7eb868a8b9e09281900390910190a160188a90555b600554601854611b1d9163ffffffff612a1b16565b611b256129d9565b1015611b3057600080fd5b611b38610a5e565b600160a060020a0382166000908152601b6020526040902054601954929b50909950611b6a919063ffffffff6129c216565b600160a060020a0389166000908152601b602052604081205491985090965094508615611b9e57611b9b878761342a565b94505b60009350600092508b91505b336000908152601c60209081526040808320600160a060020a038d168452909152902054611bd8908c61344f565b821015611dff57336000908152601c60209081526040808320600160a060020a038d1684529091529020805483908110611c0e57fe5b600091825260209091206002600390920201015460ff161515611df457336000908152601c60209081526040808320600160a060020a038d168452909152902080546001919084908110611c5e57fe5b60009182526020808320600392909202909101600201805460ff191693151593909317909255338152601c82526040808220600160a060020a038d168352909252208054611ccf919084908110611cb157fe5b6000918252602090912060039091020154849063ffffffff612a1b16565b336000908152601c60209081526040808320600160a060020a038e16845290915290208054919450879184908110611d0357fe5b9060005260206000209060030201600101541015611df457336000908152601c60209081526040808320600160a060020a038d16845290915290208054611df191611de491611d78919086908110611d5757fe5b906000526020600020906003020160010154896129c290919063ffffffff16565b601c600033600160a060020a0316600160a060020a0316815260200190815260200160002060008d600160a060020a0316600160a060020a0316815260200190815260200160002085815481101515611dcd57fe5b90600052602060002090600302016000015461344f565b859063ffffffff612a1b16565b93505b600190910190611baa565b600054600160a060020a031663a9059cbb33611e2b611e1e888a613465565b879063ffffffff612a1b16565b6040518363ffffffff1660e060020a0281526004018083600160a060020a0316600160a060020a0316815260200182815260200192505050602060405180830381600087803b158015611e7d57600080fd5b505af1158015611e91573d6000803e3d6000fd5b505050506040513d6020811015611ea757600080fd5b50511515611eb457600080fd5b337f49329039ffba66f8761d4a6d68b169063aa8f3a76a256007f5d55ceecf9be82484611ee18789613465565b6040805192835260208301919091528051918290030190a2505050505050505050505050565b60008080600380601d5460ff166004811115611f1f57fe5b14611f2957600080fd5b336000908152600a602052604090205460ff161515611f4757600080fd5b611f4f61103b565b6018549094508414611f9f5760185460408051868152602081019290925280517f04e9f9a05f2b0f7b76cbaeafc40a3136a1870f82f8eff85e766f7eb868a8b9e09281900390910190a160188490555b601854611faa6129d9565b1015611fb557600080fd5b3360009081526014602052604090205460ff1615611fd257600080fd5b336000908152601460205260409020805460ff19166001179055611ff4611530565b600160a060020a038082166000908152600f602090815260408083203380855290835281842054845483517fa9059cbb0000000000000000000000000000000000000000000000000000000081526004810193909352602483018290529251969950975093169363a9059cbb93604480820194918390030190829087803b15801561207e57600080fd5b505af1158015612092573d6000803e3d6000fd5b505050506040513d60208110156120a857600080fd5b505115156120b557600080fd5b60408051838152905133917f529314119e568ebeb046e7fb288642e03aea33279f2f6762afd0e56a74c7aa42919081900360200190a250505050565b60035481565b600054600160a060020a0316331461210e57600080fd5b610a5b81612e47565b60008080600180601d5460ff16600481111561212f57fe5b1461213957600080fd5b600160a060020a0388166000908152600a6020526040902054889060ff16151561216257600080fd5b60165460ff161561217257600080fd5b6016805460ff19166001179055600954885114801561219357506009548751145b151561219e57600080fd5b6000945060009350600092505b60095460ff841610156122b357878360ff168151811015156121c957fe5b90602001906020020151600d600060098660ff168154811015156121e957fe5b6000918252602080832090910154600160a060020a031683528201929092526040019020558651879060ff851690811061221f57fe5b90602001906020020151600e600060098660ff1681548110151561223f57fe5b6000918252602080832090910154600160a060020a03168352820192909252604001902055875161227990899060ff861690811061141457fe5b93506122a6878460ff1681518110151561228f57fe5b60209081029091010151869063ffffffff612a1b16565b94506001909201916121ab565b8484146122bf57600080fd5b60118690556122cd89612e47565b88600160a060020a03167fd33aabc7fc9a1f5861dc19acc754cc8fe8c4400063f1e32d2bf90ac64b628daf8989896040518080602001806020018460001916600019168152602001838103835286818151815260200191508051906020019060200280838360005b8381101561234d578181015183820152602001612335565b50505050905001838103825285818151815260200191508051906020019060200280838360005b8381101561238c578181015183820152602001612374565b505050509050019550505050505060405180910390a2505050505050505050565b6000808080601d5460ff1660048111156123c357fe5b146123cd57600080fd5b600160a060020a0384166000908152600a6020526040902054849060ff1615156123f657600080fd5b600160a060020a03851660009081526012602052604090205460ff161561241c57600080fd5b600160a060020a038086166000818152601260209081526040808320805460ff191660011790558254600c83528184205482517f23b872dd0000000000000000000000000000000000000000000000000000000081526004810196909652306024870152604486015290519416936323b872dd93606480820194918390030190829087803b1580156124ad57600080fd5b505af11580156124c1573d6000803e3d6000fd5b505050506040513d60208110156124d757600080fd5b505115156124e457600080fd5b60019350600092505b60095460ff8416101561254e5783801561254157506012600060098560ff1681548110151561251857fe5b6000918252602080832090910154600160a060020a0316835282019290925260400190205460ff165b93506001909201916124ed565b831561255e5761255e6001613399565b600160a060020a0385166000818152600c602090815260409182902054825190815291517fa8cc9409769b9614f3ae4056957bfbb32d986e4b61c886b5e29b324b5bf92d0a9281900390910190a25050505050565b600080808080600180601d5460ff1660048111156125cd57fe5b146125d757600080fd5b600160a060020a0389166000908152600a6020526040902054899060ff16151561260057600080fd5b60095488511461260f57600080fd5b60165460ff161561262257612622610d39565b61262c6003613399565b6000965060009550600094505b60095460ff8616101561274557878560ff1681518110151561265757fe5b90602001906020020151600f60008c600160a060020a0316600160a060020a03168152602001908152602001600020600060098860ff1681548110151561269a57fe5b6000918252602080832090910154600160a060020a0316835282019290925260400190205587516126eb90899060ff88169081106126d457fe5b60209081029091010151889063ffffffff612a1b16565b9650612738600c600060098860ff1681548110151561270657fe5b6000918252602080832090910154600160a060020a03168352820192909252604001902054879063ffffffff612a1b16565b9550600190940193612639565b86861461275157600080fd5b612772670de0b6b3a764000061109d600754896129dd90919063ffffffff16565b89101561277e57600080fd5b6127916127896129d9565b600254612a1b565b60178190556001546127a39190612a1b565b601855600093505b60095460ff8516101561286e5789600160a060020a031660098560ff168154811015156127d457fe5b600091825260209091200154600160a060020a0316146128635785600f600060098760ff1681548110151561280557fe5b6000918252602080832090910154600160a060020a0316835282019290925260400181206009805491929160ff891690811061283d57fe5b6000918252602080832090910154600160a060020a031683528201929092526040019020555b6001909301926127ab565b600092505b60095460ff8416101561292c57600c600060098560ff1681548110151561289657fe5b6000918252602080832090910154600160a060020a03168352828101939093526040909101812054818052600f909252600980547ff4803e074bd026baaf6ed2e288c9515f68c72fb7216eebdd7cae1718a53ec37592919060ff88169081106128fb57fe5b6000918252602080832090910154600160a060020a0316835282019290925260400190205560019290920191612873565b89600160a060020a03167f978fff33bfee4716da21bf89e67d0757d6550d4b6f53676919de1d1d209f5ef0896040518080602001828103825283818151815260200191508051906020019060200280838360005b83811015612998578181015183820152602001612980565b505050509050019250505060405180910390a26129b68a8b8b612a28565b50505050505050505050565b6000828211156129ce57fe5b508082035b92915050565b4290565b60008215156129ee575060006129d3565b508181028183828115156129fe57fe5b04146129d357fe5b60008183811515612a1357fe5b049392505050565b818101828110156129d357fe5b6000806000612a35613483565b600380601d5460ff166004811115612a4957fe5b14612a5357600080fd5b612a5b61103b565b6018549095508514612aab5760185460408051878152602081019290925280517f04e9f9a05f2b0f7b76cbaeafc40a3136a1870f82f8eff85e766f7eb868a8b9e09281900390910190a160188590555b601854612ab66129d9565b10612ac057600080fd5b601754612acb6129d9565b101580612af05750600160a060020a0388166000908152600a602052604090205460ff165b1515612afb57600080fd5b600160a060020a0387166000908152600a602052604090205460ff1680612b295750600160a060020a038716155b1515612b3457600080fd5b612b57670de0b6b3a764000061109d6007546019546129dd90919063ffffffff16565b861015612b6357600080fd5b60195415612c4d57612b73610a5e565b9094509250600160a060020a038781169085161415612bef57600160a060020a0383166000908152601b6020526040902054612bb690600263ffffffff6129dd16565b600160a060020a0388166000908152601b6020526040902054612bdf908863ffffffff612a1b16565b1115612bea57600080fd5b612c4d565b600160a060020a0384166000908152601b6020526040902054612c1990600263ffffffff6129dd16565b600160a060020a0388166000908152601b6020526040902054612c42908863ffffffff612a1b16565b1115612c4d57600080fd5b60408051606081018252878152600160a060020a03808a166000908152601b60209081528482205481850152838501829052815485517f23b872dd0000000000000000000000000000000000000000000000000000000081528e85166004820152306024820152604481018d90529551949750909216936323b872dd936064808301949391928390030190829087803b158015612ce957600080fd5b505af1158015612cfd573d6000803e3d6000fd5b505050506040513d6020811015612d1357600080fd5b50511515612d2057600080fd5b601854612d359061070863ffffffff6129c216565b612d3d6129d9565b10612d5957601a54612d55908763ffffffff612a1b16565b601a555b601954612d6c908763ffffffff612a1b16565b601955600160a060020a0387166000908152601b6020526040902054612d98908763ffffffff612a1b16565b600160a060020a038881166000818152601b6020908152604080832095909555928c16808252601c845284822083835284528482208054600180820183559184529285902088516003909402019283558785015190830155868501516002909201805460ff19169215159290921790915583518a81529351919390927f484413c33463e7d976e3ded2a85b0c31610d0906977df2cd9cbd6d12a6872a8492918290030190a35050505050505050565b600080808080600180601d5460ff166004811115612e6157fe5b14612e6b57600080fd5b600160a060020a0387166000908152600a6020526040902054879060ff161515612e9457600080fd5b60165460ff161515612ea557600080fd5b600160a060020a03881660009081526015602052604090205460ff1615612ecb57600080fd5b600160a060020a0388166000908152601560209081526040808320805460ff19166001179055600c825280832054600e909252909120541115612fec57600160a060020a0388166000908152600c6020908152604080832054600e90925290912054612f3c9163ffffffff6129c216565b60008054604080517f23b872dd000000000000000000000000000000000000000000000000000000008152600160a060020a038d81166004830152306024830152604482018690529151949b509116926323b872dd92606480840193602093929083900390910190829087803b158015612fb557600080fd5b505af1158015612fc9573d6000803e3d6000fd5b505050506040513d6020811015612fdf57600080fd5b50511515612fec57600080fd5b604051600160a060020a038916907fa49e1bf6eca68fcbe0f530f9389e60870664cb4b8cd290ade9d0fe3b7c4d9c7590600090a260019550600094505b60095460ff8616101561308a5785801561307d57506015600060098760ff1681548110151561305457fe5b6000918252602080832090910154600160a060020a0316835282019290925260400190205460ff165b9550600190940193613029565b851561338f576016805460ff19169055600093505b60095460ff851610156133885760006015600060098760ff168154811015156130c457fe5b600091825260208083209190910154600160a060020a031683528201929092526040018120805460ff19169215159290921790915560098054600c92919060ff881690811061310f57fe5b6000918252602080832090910154600160a060020a03168352820192909252604001812054600980549192600e9290919060ff891690811061314d57fe5b6000918252602080832090910154600160a060020a031683528201929092526040019020541015613287576131cf600e600060098760ff1681548110151561319157fe5b6000918252602080832090910154600160a060020a03168352820192909252604001812054600980549192600c9290919060ff8a16908110610f0b57fe5b60005460098054929550600160a060020a039091169163a9059cbb919060ff88169081106131f957fe5b60009182526020808320909101546040805160e060020a63ffffffff8716028152600160a060020a039092166004830152602482018990525160448083019491928390030190829087803b15801561325057600080fd5b505af1158015613264573d6000803e3d6000fd5b505050506040513d602081101561327a57600080fd5b5051151561328757600080fd5b600e600060098660ff1681548110151561329d57fe5b6000918252602080832090910154600160a060020a03168352820192909252604001812054600980549192600c9290919060ff89169081106132db57fe5b6000918252602080832090910154600160a060020a0316835282019290925260400181209190915560098054600d92919060ff881690811061331957fe5b6000918252602080832090910154600160a060020a03168352820192909252604001812054600980549192600b9290919060ff891690811061335757fe5b6000918252602080832090910154600160a060020a031683528201929092526040019020556001939093019261309f565b6011546010555b5050505050505050565b601d547f7a86a836fcb7b1724e95db8cca29b460e17febee51b6f03e272720350340352e9060ff16826133ca6129d9565b604051808460048111156133da57fe5b60ff1681526020018360048111156133ee57fe5b60ff168152602001828152602001935050505060405180910390a1601d805482919060ff1916600183600481111561342257fe5b021790555050565b60006134488261109d85670de0b6b3a764000063ffffffff6129dd16565b9392505050565b600081831061345e5781613448565b5090919050565b6000613448670de0b6b3a764000061109d858563ffffffff6129dd16565b606060405190810160405280600081526020016000815260200160001515815250905600a165627a7a72305820bd35426edb93665096a28d2c591da18d3be525e343e05446ed6f991a3c6c91bd0029a165627a7a723058206e0427f0e9118421bfca0b9ad75f19c99854e858d07816b99814f5ccc1dec6e00029",
  "source": "pragma solidity ^0.4.23;\n\nimport \"openzeppelin-solidity/contracts/token/ERC20/ERC20.sol\";\nimport \"openzeppelin-solidity/contracts/math/SafeMath.sol\";\nimport \"openzeppelin-solidity/contracts/ownership/Ownable.sol\";\nimport \"./Arbitration.sol\";\n\ncontract ArbitrationFactory is Ownable {\n\n  event ArbitrationCreated(address indexed _creator, address _arbitration, address indexed _party1, address indexed _party2, uint256[] _dispersal, uint256[] _funding, bytes32 _agreementHash);\n\n  address public jurToken;\n  address[] public arbirations;\n\n  /**\n   * @dev Constructor\n   * @param _jurToken Address of the JUR token\n   */\n  constructor(address _jurToken) public {\n    jurToken = _jurToken;\n  }\n\n  /**\n   * @dev Creates a new arbitration\n   * @param _parties Addresses of parties involved in arbitration\n   * @param _dispersal Dispersal of funds if arbitration agreed\n   * @param _funding Source of funds for arbitration\n   * @param _agreementHash Hash of arbitration agreement\n   */\n  function createArbitration(address[] _parties, uint256[] _dispersal, uint256[] _funding, bytes32 _agreementHash) public {\n    address newArbitration = new Arbitration(jurToken, _parties, _dispersal, _funding, _agreementHash);\n    arbirations.push(newArbitration);\n    emit ArbitrationCreated(msg.sender, newArbitration, _parties[0], _parties[1], _dispersal, _funding, _agreementHash);\n  }\n\n  /**\n   * @dev Changes the address of the JUR token\n   * @param _jurToken New address of the JUR token\n   */\n  function changeToken(address _jurToken) onlyOwner public {\n    jurToken = _jurToken;\n  }\n\n  /**\n   * @notice Returns the hash of an agreement string\n   */\n  function generateHash(string _input) pure public returns (bytes32) {\n    return keccak256(bytes(_input));\n  }\n\n}\n",
  "sourcePath": "/Users/marcomarasco/Sites/dev/jur-mvp/protocol/contracts/ArbitrationFactory.sol",
  "compiler": {
    "name": "solc",
    "version": "0.4.25+commit.59dbf8f1.Emscripten.clang"
  },
  "schemaVersion": "2.0.2",
  "updatedAt": "2019-08-21T09:19:42.099Z"
}