{
  "contractName": "ArbitrationMock",
  "abi": [
    {
      "constant": false,
      "inputs": [
        {
          "name": "_dispersal",
          "type": "uint256[]"
        },
        {
          "name": "_funding",
          "type": "uint256[]"
        },
        {
          "name": "_agreementHash",
          "type": "bytes32"
        }
      ],
      "name": "proposeAmendment",
      "outputs": [],
      "payable": false,
      "stateMutability": "nonpayable",
      "type": "function"
    },
    {
      "constant": true,
      "inputs": [
        {
          "name": "",
          "type": "address"
        }
      ],
      "name": "funding",
      "outputs": [
        {
          "name": "",
          "type": "uint256"
        }
      ],
      "payable": false,
      "stateMutability": "view",
      "type": "function"
    },
    {
      "constant": true,
      "inputs": [],
      "name": "agreementHash",
      "outputs": [
        {
          "name": "",
          "type": "bytes32"
        }
      ],
      "payable": false,
      "stateMutability": "view",
      "type": "function"
    },
    {
      "constant": true,
      "inputs": [],
      "name": "totalVotes",
      "outputs": [
        {
          "name": "",
          "type": "uint256"
        }
      ],
      "payable": false,
      "stateMutability": "view",
      "type": "function"
    },
    {
      "constant": true,
      "inputs": [],
      "name": "disputeEnds",
      "outputs": [
        {
          "name": "",
          "type": "uint256"
        }
      ],
      "payable": false,
      "stateMutability": "view",
      "type": "function"
    },
    {
      "constant": true,
      "inputs": [],
      "name": "amendedAgreementHash",
      "outputs": [
        {
          "name": "",
          "type": "bytes32"
        }
      ],
      "payable": false,
      "stateMutability": "view",
      "type": "function"
    },
    {
      "constant": false,
      "inputs": [
        {
          "name": "_sender",
          "type": "address"
        },
        {
          "name": "_dispersal",
          "type": "uint256[]"
        },
        {
          "name": "_funding",
          "type": "uint256[]"
        },
        {
          "name": "_agreementHash",
          "type": "bytes32"
        }
      ],
      "name": "proposeAmendmentJUR",
      "outputs": [],
      "payable": false,
      "stateMutability": "nonpayable",
      "type": "function"
    },
    {
      "constant": true,
      "inputs": [
        {
          "name": "",
          "type": "address"
        }
      ],
      "name": "dispersal",
      "outputs": [
        {
          "name": "",
          "type": "uint256"
        }
      ],
      "payable": false,
      "stateMutability": "view",
      "type": "function"
    },
    {
      "constant": true,
      "inputs": [],
      "name": "DISPUTE_VOTE_DURATION",
      "outputs": [
        {
          "name": "",
          "type": "uint256"
        }
      ],
      "payable": false,
      "stateMutability": "view",
      "type": "function"
    },
    {
      "constant": true,
      "inputs": [],
      "name": "DISPUTE_DISPERSAL_DURATION",
      "outputs": [
        {
          "name": "",
          "type": "uint256"
        }
      ],
      "payable": false,
      "stateMutability": "view",
      "type": "function"
    },
    {
      "constant": false,
      "inputs": [],
      "name": "sign",
      "outputs": [],
      "payable": false,
      "stateMutability": "nonpayable",
      "type": "function"
    },
    {
      "constant": true,
      "inputs": [],
      "name": "MIN_VOTE",
      "outputs": [
        {
          "name": "",
          "type": "uint256"
        }
      ],
      "payable": false,
      "stateMutability": "view",
      "type": "function"
    },
    {
      "constant": false,
      "inputs": [
        {
          "name": "_voteAmount",
          "type": "uint256"
        },
        {
          "name": "_dispersal",
          "type": "uint256[]"
        }
      ],
      "name": "dispute",
      "outputs": [],
      "payable": false,
      "stateMutability": "nonpayable",
      "type": "function"
    },
    {
      "constant": false,
      "inputs": [
        {
          "name": "_sender",
          "type": "address"
        }
      ],
      "name": "signJUR",
      "outputs": [],
      "payable": false,
      "stateMutability": "nonpayable",
      "type": "function"
    },
    {
      "constant": true,
      "inputs": [],
      "name": "getWinnerAndBestMinorty",
      "outputs": [
        {
          "name": "",
          "type": "address"
        },
        {
          "name": "",
          "type": "address"
        }
      ],
      "payable": false,
      "stateMutability": "view",
      "type": "function"
    },
    {
      "constant": true,
      "inputs": [],
      "name": "VOTE_LOCKUP",
      "outputs": [
        {
          "name": "",
          "type": "uint256"
        }
      ],
      "payable": false,
      "stateMutability": "view",
      "type": "function"
    },
    {
      "constant": false,
      "inputs": [],
      "name": "unsign",
      "outputs": [],
      "payable": false,
      "stateMutability": "nonpayable",
      "type": "function"
    },
    {
      "constant": true,
      "inputs": [
        {
          "name": "",
          "type": "address"
        },
        {
          "name": "",
          "type": "address"
        }
      ],
      "name": "disputeDispersal",
      "outputs": [
        {
          "name": "",
          "type": "uint256"
        }
      ],
      "payable": false,
      "stateMutability": "view",
      "type": "function"
    },
    {
      "constant": true,
      "inputs": [
        {
          "name": "",
          "type": "address"
        }
      ],
      "name": "parties",
      "outputs": [
        {
          "name": "",
          "type": "bool"
        }
      ],
      "payable": false,
      "stateMutability": "view",
      "type": "function"
    },
    {
      "constant": false,
      "inputs": [],
      "name": "unagreeAmendment",
      "outputs": [],
      "payable": false,
      "stateMutability": "nonpayable",
      "type": "function"
    },
    {
      "constant": true,
      "inputs": [],
      "name": "DISPUTE_WINDOW_MAX",
      "outputs": [
        {
          "name": "",
          "type": "uint256"
        }
      ],
      "payable": false,
      "stateMutability": "view",
      "type": "function"
    },
    {
      "constant": true,
      "inputs": [],
      "name": "disputeWindowVotes",
      "outputs": [
        {
          "name": "",
          "type": "uint256"
        }
      ],
      "payable": false,
      "stateMutability": "view",
      "type": "function"
    },
    {
      "constant": false,
      "inputs": [],
      "name": "calcDisputeEnds",
      "outputs": [
        {
          "name": "",
          "type": "uint256"
        }
      ],
      "payable": false,
      "stateMutability": "nonpayable",
      "type": "function"
    },
    {
      "constant": true,
      "inputs": [
        {
          "name": "",
          "type": "address"
        }
      ],
      "name": "hasWithdrawn",
      "outputs": [
        {
          "name": "",
          "type": "bool"
        }
      ],
      "payable": false,
      "stateMutability": "view",
      "type": "function"
    },
    {
      "constant": true,
      "inputs": [],
      "name": "jurToken",
      "outputs": [
        {
          "name": "",
          "type": "address"
        }
      ],
      "payable": false,
      "stateMutability": "view",
      "type": "function"
    },
    {
      "constant": false,
      "inputs": [
        {
          "name": "_voteAddress",
          "type": "address"
        },
        {
          "name": "_voteAmount",
          "type": "uint256"
        }
      ],
      "name": "vote",
      "outputs": [],
      "payable": false,
      "stateMutability": "nonpayable",
      "type": "function"
    },
    {
      "constant": true,
      "inputs": [
        {
          "name": "",
          "type": "uint256"
        }
      ],
      "name": "allParties",
      "outputs": [
        {
          "name": "",
          "type": "address"
        }
      ],
      "payable": false,
      "stateMutability": "view",
      "type": "function"
    },
    {
      "constant": false,
      "inputs": [
        {
          "name": "_sender",
          "type": "address"
        },
        {
          "name": "_voteAddress",
          "type": "address"
        },
        {
          "name": "_voteAmount",
          "type": "uint256"
        }
      ],
      "name": "voteJUR",
      "outputs": [],
      "payable": false,
      "stateMutability": "nonpayable",
      "type": "function"
    },
    {
      "constant": true,
      "inputs": [
        {
          "name": "",
          "type": "address"
        }
      ],
      "name": "hasAgreed",
      "outputs": [
        {
          "name": "",
          "type": "bool"
        }
      ],
      "payable": false,
      "stateMutability": "view",
      "type": "function"
    },
    {
      "constant": true,
      "inputs": [
        {
          "name": "",
          "type": "address"
        }
      ],
      "name": "hasFundedAmendment",
      "outputs": [
        {
          "name": "",
          "type": "bool"
        }
      ],
      "payable": false,
      "stateMutability": "view",
      "type": "function"
    },
    {
      "constant": false,
      "inputs": [
        {
          "name": "_dispersal",
          "type": "uint256[]"
        }
      ],
      "name": "amendDisputeDispersal",
      "outputs": [],
      "payable": false,
      "stateMutability": "nonpayable",
      "type": "function"
    },
    {
      "constant": true,
      "inputs": [
        {
          "name": "",
          "type": "address"
        }
      ],
      "name": "partyVotes",
      "outputs": [
        {
          "name": "",
          "type": "uint256"
        }
      ],
      "payable": false,
      "stateMutability": "view",
      "type": "function"
    },
    {
      "constant": true,
      "inputs": [],
      "name": "amendmentProposed",
      "outputs": [
        {
          "name": "",
          "type": "bool"
        }
      ],
      "payable": false,
      "stateMutability": "view",
      "type": "function"
    },
    {
      "constant": false,
      "inputs": [],
      "name": "agreeAmendment",
      "outputs": [],
      "payable": false,
      "stateMutability": "nonpayable",
      "type": "function"
    },
    {
      "constant": true,
      "inputs": [],
      "name": "getWinner",
      "outputs": [
        {
          "name": "",
          "type": "address"
        }
      ],
      "payable": false,
      "stateMutability": "view",
      "type": "function"
    },
    {
      "constant": false,
      "inputs": [],
      "name": "agree",
      "outputs": [],
      "payable": false,
      "stateMutability": "nonpayable",
      "type": "function"
    },
    {
      "constant": true,
      "inputs": [],
      "name": "disputeStarts",
      "outputs": [
        {
          "name": "",
          "type": "uint256"
        }
      ],
      "payable": false,
      "stateMutability": "view",
      "type": "function"
    },
    {
      "constant": true,
      "inputs": [
        {
          "name": "",
          "type": "address"
        }
      ],
      "name": "amendedDispersal",
      "outputs": [
        {
          "name": "",
          "type": "uint256"
        }
      ],
      "payable": false,
      "stateMutability": "view",
      "type": "function"
    },
    {
      "constant": false,
      "inputs": [],
      "name": "withdrawDispersal",
      "outputs": [],
      "payable": false,
      "stateMutability": "nonpayable",
      "type": "function"
    },
    {
      "constant": true,
      "inputs": [],
      "name": "MIN_WIN",
      "outputs": [
        {
          "name": "",
          "type": "uint256"
        }
      ],
      "payable": false,
      "stateMutability": "view",
      "type": "function"
    },
    {
      "constant": false,
      "inputs": [],
      "name": "unagree",
      "outputs": [],
      "payable": false,
      "stateMutability": "nonpayable",
      "type": "function"
    },
    {
      "constant": false,
      "inputs": [
        {
          "name": "_sender",
          "type": "address"
        },
        {
          "name": "_voteAmount",
          "type": "uint256"
        },
        {
          "name": "_dispersal",
          "type": "uint256[]"
        }
      ],
      "name": "disputeJUR",
      "outputs": [],
      "payable": false,
      "stateMutability": "nonpayable",
      "type": "function"
    },
    {
      "constant": true,
      "inputs": [],
      "name": "DISPUTE_EXTENSION",
      "outputs": [
        {
          "name": "",
          "type": "uint256"
        }
      ],
      "payable": false,
      "stateMutability": "view",
      "type": "function"
    },
    {
      "constant": true,
      "inputs": [
        {
          "name": "",
          "type": "address"
        }
      ],
      "name": "amendedFunding",
      "outputs": [
        {
          "name": "",
          "type": "uint256"
        }
      ],
      "payable": false,
      "stateMutability": "view",
      "type": "function"
    },
    {
      "constant": true,
      "inputs": [
        {
          "name": "",
          "type": "address"
        }
      ],
      "name": "hasSigned",
      "outputs": [
        {
          "name": "",
          "type": "bool"
        }
      ],
      "payable": false,
      "stateMutability": "view",
      "type": "function"
    },
    {
      "constant": true,
      "inputs": [],
      "name": "state",
      "outputs": [
        {
          "name": "",
          "type": "uint8"
        }
      ],
      "payable": false,
      "stateMutability": "view",
      "type": "function"
    },
    {
      "constant": false,
      "inputs": [
        {
          "name": "_start",
          "type": "uint256"
        },
        {
          "name": "_end",
          "type": "uint256"
        }
      ],
      "name": "payoutVoter",
      "outputs": [],
      "payable": false,
      "stateMutability": "nonpayable",
      "type": "function"
    },
    {
      "constant": false,
      "inputs": [],
      "name": "payoutParty",
      "outputs": [],
      "payable": false,
      "stateMutability": "nonpayable",
      "type": "function"
    },
    {
      "constant": true,
      "inputs": [],
      "name": "DISPUTE_WINDOW",
      "outputs": [
        {
          "name": "",
          "type": "uint256"
        }
      ],
      "payable": false,
      "stateMutability": "view",
      "type": "function"
    },
    {
      "constant": false,
      "inputs": [
        {
          "name": "_sender",
          "type": "address"
        }
      ],
      "name": "agreeAmendmentJUR",
      "outputs": [],
      "payable": false,
      "stateMutability": "nonpayable",
      "type": "function"
    },
    {
      "inputs": [
        {
          "name": "_jurToken",
          "type": "address"
        },
        {
          "name": "_parties",
          "type": "address[]"
        },
        {
          "name": "_dispersal",
          "type": "uint256[]"
        },
        {
          "name": "_funding",
          "type": "uint256[]"
        },
        {
          "name": "_agreementHash",
          "type": "bytes32"
        }
      ],
      "payable": false,
      "stateMutability": "nonpayable",
      "type": "constructor"
    },
    {
      "anonymous": false,
      "inputs": [
        {
          "indexed": false,
          "name": "_blockNumber",
          "type": "uint256"
        }
      ],
      "name": "MockBlockNumber",
      "type": "event"
    },
    {
      "anonymous": false,
      "inputs": [
        {
          "indexed": false,
          "name": "_mockedNow",
          "type": "uint256"
        }
      ],
      "name": "MockNow",
      "type": "event"
    },
    {
      "anonymous": false,
      "inputs": [
        {
          "indexed": false,
          "name": "_oldState",
          "type": "uint8"
        },
        {
          "indexed": false,
          "name": "_newState",
          "type": "uint8"
        },
        {
          "indexed": false,
          "name": "_timestamp",
          "type": "uint256"
        }
      ],
      "name": "StateChange",
      "type": "event"
    },
    {
      "anonymous": false,
      "inputs": [
        {
          "indexed": true,
          "name": "_party1",
          "type": "address"
        },
        {
          "indexed": true,
          "name": "_party2",
          "type": "address"
        },
        {
          "indexed": false,
          "name": "_dispersal",
          "type": "uint256[]"
        },
        {
          "indexed": false,
          "name": "_funding",
          "type": "uint256[]"
        },
        {
          "indexed": false,
          "name": "_agreementHash",
          "type": "bytes32"
        }
      ],
      "name": "ContractCreated",
      "type": "event"
    },
    {
      "anonymous": false,
      "inputs": [
        {
          "indexed": true,
          "name": "_party",
          "type": "address"
        },
        {
          "indexed": false,
          "name": "_funding",
          "type": "uint256"
        }
      ],
      "name": "ContractSigned",
      "type": "event"
    },
    {
      "anonymous": false,
      "inputs": [
        {
          "indexed": true,
          "name": "_party",
          "type": "address"
        },
        {
          "indexed": false,
          "name": "_funding",
          "type": "uint256"
        }
      ],
      "name": "ContractUnsigned",
      "type": "event"
    },
    {
      "anonymous": false,
      "inputs": [
        {
          "indexed": true,
          "name": "_party",
          "type": "address"
        }
      ],
      "name": "ContractAgreed",
      "type": "event"
    },
    {
      "anonymous": false,
      "inputs": [
        {
          "indexed": true,
          "name": "_party",
          "type": "address"
        }
      ],
      "name": "ContractUnagreed",
      "type": "event"
    },
    {
      "anonymous": false,
      "inputs": [
        {
          "indexed": true,
          "name": "_party",
          "type": "address"
        },
        {
          "indexed": false,
          "name": "_dispersal",
          "type": "uint256[]"
        },
        {
          "indexed": false,
          "name": "_funding",
          "type": "uint256[]"
        },
        {
          "indexed": false,
          "name": "_agreementHash",
          "type": "bytes32"
        }
      ],
      "name": "ContractAmendmentProposed",
      "type": "event"
    },
    {
      "anonymous": false,
      "inputs": [
        {
          "indexed": true,
          "name": "_party",
          "type": "address"
        }
      ],
      "name": "ContractAmendmentAgreed",
      "type": "event"
    },
    {
      "anonymous": false,
      "inputs": [
        {
          "indexed": true,
          "name": "_party",
          "type": "address"
        }
      ],
      "name": "ContractAmendmentUnagreed",
      "type": "event"
    },
    {
      "anonymous": false,
      "inputs": [
        {
          "indexed": true,
          "name": "_party",
          "type": "address"
        },
        {
          "indexed": false,
          "name": "_dispersal",
          "type": "uint256"
        }
      ],
      "name": "ContractWithdrawn",
      "type": "event"
    },
    {
      "anonymous": false,
      "inputs": [
        {
          "indexed": true,
          "name": "_party",
          "type": "address"
        },
        {
          "indexed": false,
          "name": "_dispersal",
          "type": "uint256[]"
        }
      ],
      "name": "ContractDisputed",
      "type": "event"
    },
    {
      "anonymous": false,
      "inputs": [
        {
          "indexed": true,
          "name": "_party",
          "type": "address"
        },
        {
          "indexed": false,
          "name": "_dispersal",
          "type": "uint256[]"
        }
      ],
      "name": "ContractDisputeDispersalAmended",
      "type": "event"
    },
    {
      "anonymous": false,
      "inputs": [
        {
          "indexed": false,
          "name": "_oldDisputeEnds",
          "type": "uint256"
        },
        {
          "indexed": false,
          "name": "_newDisputeEnds",
          "type": "uint256"
        }
      ],
      "name": "DisputeEndsAdjusted",
      "type": "event"
    },
    {
      "anonymous": false,
      "inputs": [
        {
          "indexed": true,
          "name": "_voter",
          "type": "address"
        },
        {
          "indexed": true,
          "name": "_party",
          "type": "address"
        },
        {
          "indexed": false,
          "name": "_amount",
          "type": "uint256"
        }
      ],
      "name": "VoteCast",
      "type": "event"
    },
    {
      "anonymous": false,
      "inputs": [
        {
          "indexed": true,
          "name": "_voter",
          "type": "address"
        },
        {
          "indexed": false,
          "name": "_stakedAmount",
          "type": "uint256"
        },
        {
          "indexed": false,
          "name": "_rewardAmount",
          "type": "uint256"
        }
      ],
      "name": "VoterPayout",
      "type": "event"
    },
    {
      "anonymous": false,
      "inputs": [
        {
          "indexed": true,
          "name": "_party",
          "type": "address"
        },
        {
          "indexed": false,
          "name": "_dispersalAmount",
          "type": "uint256"
        }
      ],
      "name": "PartyPayout",
      "type": "event"
    },
    {
      "constant": false,
      "inputs": [
        {
          "name": "_blockNumber",
          "type": "uint256"
        }
      ],
      "name": "setMockedBlockNumber",
      "outputs": [],
      "payable": false,
      "stateMutability": "nonpayable",
      "type": "function"
    },
    {
      "constant": false,
      "inputs": [
        {
          "name": "_mockedNow",
          "type": "uint256"
        }
      ],
      "name": "setMockedNow",
      "outputs": [],
      "payable": false,
      "stateMutability": "nonpayable",
      "type": "function"
    }
  ],
  "bytecode": "0x608060405262093a806001556202a30060025561070860035562015180600481905560055566b1a2bc2ec50000600655662386f26fc100006007819055600855601d805460ff191690556000601e819055601f553480156200006057600080fd5b5060405162003a7638038062003a76833981016040908152815160208301519183015160608401516080850151918501805193959485019490939101919085908590859085908590600090819081906002148015620000c0575084516002145b8015620000ce575086516002145b1515620000da57600080fd5b866000815181101515620000ea57fe5b90602001906020020151600160a060020a03166000141580156200013157508660018151811015156200011957fe5b90602001906020020151600160a060020a0316600014155b15156200013d57600080fd5b5060009150819050805b86518160ff161015620002c2576001600a6000898460ff168151811015156200016c57fe5b602090810291909101810151600160a060020a03168252810191909152604001600020805460ff19169115159190911790558551869060ff8316908110620001b057fe5b90602001906020020151600b6000898460ff16815181101515620001d057fe5b6020908102909101810151600160a060020a03168252810191909152604001600020558451859060ff83169081106200020557fe5b90602001906020020151600c6000898460ff168151811015156200022557fe5b6020908102909101810151600160a060020a031682528101919091526040016000205585516200027f90879060ff84169081106200025f57fe5b60209081029091010151839064010000000062002ad96200042d82021704565b9150620002b7858260ff168151811015156200029757fe5b60209081029091010151849064010000000062002ad96200042d82021704565b925060010162000147565b828214620002cf57600080fd5b8651620002e49060099060208a019062000441565b50601084905560008054600160a060020a031916600160a060020a038a161790558651879060019081106200031557fe5b90602001906020020151600160a060020a03168760008151811015156200033857fe5b90602001906020020151600160a060020a03167f18a9c4249303b74ecff5e58f4dcc486cd7de84cd3feec18d74f4c9216963fb9e8888886040518080602001806020018460001916600019168152602001838103835286818151815260200191508051906020019060200280838360005b83811015620003c3578181015183820152602001620003a9565b50505050905001838103825285818151815260200191508051906020019060200280838360005b8381101562000404578181015183820152602001620003ea565b505050509050019550505050505060405180910390a350505050505050505050505050620004d5565b818101828110156200043b57fe5b92915050565b82805482825590600052602060002090810192821562000499579160200282015b82811115620004995782518254600160a060020a031916600160a060020a0390911617825560209092019160019091019062000462565b50620004a7929150620004ab565b5090565b620004d291905b80821115620004a7578054600160a060020a0319168155600101620004b2565b90565b61359180620004e56000396000f3006080604052600436106102585763ffffffff60e060020a60003504166302edcbfb811461025d578063049f2d8a146102ef5780630ab55d0b146103225780630d15fd771461033757806312feb4a71461034c578063188c0e43146103615780631ff2e2141461037657806325ce690b146104145780632731c6c6146104355780632a50b5441461044a5780632ca151221461045f5780632efab6fa146104745780632f36cacf1461048957806337c2afda146104e35780633ad17f6d146105045780633f606aa31461053f57806341e60c861461055457806344633297146105695780634f235207146105905780634f802f8a146105c557806352e18f33146105da5780635a9e17a7146105ef5780635cfe585a146106045780635e2c19db146106195780635f068b431461063a5780635f74bbde1461066b57806360d505961461068f57806364a8a11f146106a7578063682644fd146106d157806368e664bd146106f25780636eae555d1461071357806374e6cfd3146107685780638b90dc94146107895780638bfb85c31461079e5780638e7ea5b2146107b35780638fae60a5146107c8578063911058df146107dd578063918c9373146107f5578063994d40601461080a5780639cff621a1461082b578063a3f5700d14610840578063a7e92fb514610855578063adef40db1461086a578063b40b7841146108d1578063b7c1ae81146108e6578063bf6a141314610907578063c0c6a68a14610928578063c19d93fb14610940578063d15e317014610979578063d5e03fc614610994578063f585dc57146109a9578063fc763176146109be575b600080fd5b34801561026957600080fd5b50604080516020600480358082013583810280860185019096528085526102ed95369593946024949385019291829185019084908082843750506040805187358901803560208181028481018201909552818452989b9a99890198929750908201955093508392508501908490808284375094975050933594506109df9350505050565b005b3480156102fb57600080fd5b50610310600160a060020a03600435166109f0565b60408051918252519081900360200190f35b34801561032e57600080fd5b50610310610a02565b34801561034357600080fd5b50610310610a08565b34801561035857600080fd5b50610310610a0e565b34801561036d57600080fd5b50610310610a14565b34801561038257600080fd5b506040805160206004602480358281013584810280870186019097528086526102ed968435600160a060020a031696369660449591949091019291829185019084908082843750506040805187358901803560208181028481018201909552818452989b9a9989019892975090820195509350839250850190849080828437509497505093359450610a1a9350505050565b34801561042057600080fd5b50610310600160a060020a0360043516610a43565b34801561044157600080fd5b50610310610a55565b34801561045657600080fd5b50610310610a5b565b34801561046b57600080fd5b506102ed610a61565b34801561048057600080fd5b50610310610a6c565b34801561049557600080fd5b506040805160206004602480358281013584810280870186019097528086526102ed96843596369660449591949091019291829185019084908082843750949750610a729650505050505050565b3480156104ef57600080fd5b506102ed600160a060020a0360043516610a81565b34801561051057600080fd5b50610519610aa4565b60408051600160a060020a03938416815291909216602082015281519081900390910190f35b34801561054b57600080fd5b50610310610be6565b34801561056057600080fd5b506102ed610bec565b34801561057557600080fd5b50610310600160a060020a0360043581169060243516610d4d565b34801561059c57600080fd5b506105b1600160a060020a0360043516610d6a565b604080519115158252519081900360200190f35b3480156105d157600080fd5b506102ed610d7f565b3480156105e657600080fd5b50610310611075565b3480156105fb57600080fd5b5061031061107b565b34801561061057600080fd5b50610310611081565b34801561062557600080fd5b506105b1600160a060020a03600435166112bf565b34801561064657600080fd5b5061064f6112d4565b60408051600160a060020a039092168252519081900360200190f35b34801561067757600080fd5b506102ed600160a060020a03600435166024356112e3565b34801561069b57600080fd5b5061064f6004356112ee565b3480156106b357600080fd5b506102ed600160a060020a0360043581169060243516604435611316565b3480156106dd57600080fd5b506105b1600160a060020a0360043516611338565b3480156106fe57600080fd5b506105b1600160a060020a036004351661134d565b34801561071f57600080fd5b50604080516020600480358082013583810280860185019096528085526102ed953695939460249493850192918291850190849080828437509497506113629650505050505050565b34801561077457600080fd5b50610310600160a060020a0360043516611552565b34801561079557600080fd5b506105b1611564565b3480156107aa57600080fd5b506102ed61156d565b3480156107bf57600080fd5b5061064f611576565b3480156107d457600080fd5b506102ed61166b565b3480156107e957600080fd5b506102ed60043561179e565b34801561080157600080fd5b506103106117d9565b34801561081657600080fd5b50610310600160a060020a03600435166117df565b34801561083757600080fd5b506102ed6117f1565b34801561084c57600080fd5b50610310611a11565b34801561086157600080fd5b506102ed611a17565b34801561087657600080fd5b5060408051602060046044358181013583810280860185019096528085526102ed958335600160a060020a0316956024803596369695606495939492019291829185019084908082843750949750611ab19650505050505050565b3480156108dd57600080fd5b50610310611ad3565b3480156108f257600080fd5b50610310600160a060020a0360043516611ad9565b34801561091357600080fd5b506105b1600160a060020a0360043516611aeb565b34801561093457600080fd5b506102ed600435611b00565b34801561094c57600080fd5b50610955611b3b565b6040518082600481111561096557fe5b60ff16815260200191505060405180910390f35b34801561098557600080fd5b506102ed600435602435611b44565b3480156109a057600080fd5b506102ed611fc3565b3480156109b557600080fd5b506103106121ad565b3480156109ca57600080fd5b506102ed600160a060020a03600435166121b3565b6109eb338484846121d3565b505050565b600c6020526000908152604090205481565b60105481565b60195481565b60185481565b60115481565b600054600160a060020a03163314610a3157600080fd5b610a3d848484846121d3565b50505050565b600b6020526000908152604090205481565b60015481565b60025481565b610a6a33612469565b565b60075481565b610a7d33838361266f565b5050565b600054600160a060020a03163314610a9857600080fd5b610aa181612469565b50565b600080600080600080610ab5611576565b9350600160a060020a03841615610acd576000610af2565b600980546000908110610adc57fe5b600091825260209091200154600160a060020a03165b600160a060020a0381166000908152601b602052604081205491945090925090505b60095460ff82161015610bdb57601b600060098360ff16815481101515610b3757fe5b6000918252602080832090910154600160a060020a0316835282019290925260400190205482108015610b9257506009805460ff8316908110610b7657fe5b600091825260209091200154600160a060020a03858116911614155b15610bd3576009805460ff8316908110610ba857fe5b6000918252602080832090910154600160a060020a0316808352601b90915260409091205490935091505b600101610b14565b509194909350915050565b60055481565b600080601d5460ff166004811115610c0057fe5b14610c0a57600080fd5b336000908152600a602052604090205460ff161515610c2857600080fd5b3360009081526012602052604090205460ff161515610c4657600080fd5b336000818152601260209081526040808320805460ff191690558254600c83528184205482517fa9059cbb000000000000000000000000000000000000000000000000000000008152600481019690965260248601529051600160a060020a039091169363a9059cbb9360448083019493928390030190829087803b158015610cce57600080fd5b505af1158015610ce2573d6000803e3d6000fd5b505050506040513d6020811015610cf857600080fd5b50511515610d0557600080fd5b336000818152600c602090815260409182902054825190815291517ff915f6adcfba53634fa63225573ad1f78d2f842387fe91379c27c14a259537cf9281900390910190a250565b600f60209081526000928352604080842090915290825290205481565b600a6020526000908152604090205460ff1681565b600080600180601d5460ff166004811115610d9657fe5b14610da057600080fd5b336000908152600a602052604090205460ff161515610dbe57600080fd5b60165460ff161515610dcf57600080fd5b6016805460ff19169055600092505b60095460ff84161015611045576015600060098560ff16815481101515610e0157fe5b6000918252602080832090910154600160a060020a0316835282019290925260400190205460ff161561103a5760006015600060098660ff16815481101515610e4657fe5b600091825260208083209190910154600160a060020a031683528201929092526040018120805460ff19169215159290921790915560098054600c92919060ff8716908110610e9157fe5b6000918252602080832090910154600160a060020a03168352820192909252604001812054600980549192600e9290919060ff8816908110610ecf57fe5b6000918252602080832090910154600160a060020a03168352820192909252604001902054111561103a57610f82600c600060098660ff16815481101515610f1357fe5b6000918252602080832090910154600160a060020a03168352820192909252604001812054600980549192600e9290919060ff8916908110610f5157fe5b6000918252602080832090910154600160a060020a031683528201929092526040019020549063ffffffff612a7e16565b60005460098054929450600160a060020a039091169163a9059cbb919060ff8716908110610fac57fe5b60009182526020808320909101546040805160e060020a63ffffffff8716028152600160a060020a039092166004830152602482018890525160448083019491928390030190829087803b15801561100357600080fd5b505af1158015611017573d6000803e3d6000fd5b505050506040513d602081101561102d57600080fd5b5051151561103a57600080fd5b600190920191610dde565b60405133907fc42ff889a5bf104cb88fddd83f34d59c6162fb4c97c5c075d3e5143b977407d090600090a2505050565b60065481565b601a5481565b600080808080600380601d5460ff16600481111561109b57fe5b146110a557600080fd5b6018546110b0612a95565b10156110c05760185495506112b7565b6110ef670de0b6b3a76400006110e3600654601954612a9b90919063ffffffff16565b9063ffffffff612ac416565b601a541115611119576000601a556004546018546111129163ffffffff612ad916565b95506112b7565b6000808052601b6020527f584f46c60af19681376031579adb04a2416e54ee5505351c2a8435e3766026ea54955093505b60095460ff851610156111e25784601b600060098760ff1681548110151561116e57fe5b6000918252602080832090910154600160a060020a0316835282019290925260400190205411156111d757601b600060098660ff168154811015156111af57fe5b6000918252602080832090910154600160a060020a0316835282019290925260400190205494505b60019093019261114a565b6000808052601b6020527f584f46c60af19681376031579adb04a2416e54ee5505351c2a8435e3766026ea5490935085141561121f578260010192505b600091505b60095460ff831610156112855784601b600060098560ff1681548110151561124857fe5b6000918252602080832090910154600160a060020a03168352820192909252604001902054141561127a578260010192505b600190910190611224565b60018360ff1611156112b1576000601a55600454611112906112a5612a95565b9063ffffffff612ad916565b60185495505b505050505090565b60146020526000908152604090205460ff1681565b600054600160a060020a031681565b610a7d338383612ae6565b60098054829081106112fc57fe5b600091825260209091200154600160a060020a0316905081565b600054600160a060020a0316331461132d57600080fd5b6109eb838383612ae6565b60136020526000908152604090205460ff1681565b60156020526000908152604090205460ff1681565b60008080600380601d5460ff16600481111561137a57fe5b1461138457600080fd5b336000908152600a602052604090205460ff1615156113a257600080fd5b6009548551146113b157600080fd5b6017546113bc612a95565b106113c657600080fd5b6000935060009250600091505b60095460ff831610156114cb57848260ff168151811015156113f157fe5b6020908102909101810151336000908152600f90925260408220600980549293919260ff871690811061142057fe5b6000918252602080832090910154600160a060020a03168352820192909252604001902055845161147190869060ff851690811061145a57fe5b60209081029091010151859063ffffffff612ad916565b93506114be600c600060098560ff1681548110151561148c57fe5b6000918252602080832090910154600160a060020a03168352820192909252604001902054849063ffffffff612ad916565b92506001909101906113d3565b8383146114d757600080fd5b604080516020808252875181830152875133937fe98983adb63591508c2f748970470e7487b3bebd763d08abc3334beeb72a00b0938a9390928392830191808601910280838360005b83811015611538578181015183820152602001611520565b505050509050019250505060405180910390a25050505050565b601b6020526000908152604090205481565b60165460ff1681565b610a6a33612f05565b6000808052601b6020527f584f46c60af19681376031579adb04a2416e54ee5505351c2a8435e3766026ea5481805b60095460ff8216101561166457601b600060098360ff168154811015156115c857fe5b6000918252602080832090910154600160a060020a0316835282019290925260400190205483101561165c57601b600060098360ff1681548110151561160a57fe5b6000918252602080832090910154600160a060020a03168352820192909252604001902054600980549194509060ff831690811061164457fe5b600091825260209091200154600160a060020a031691505b6001016115a5565b5092915050565b600080600180601d5460ff16600481111561168257fe5b1461168c57600080fd5b336000908152600a602052604090205460ff1615156116aa57600080fd5b3360009081526013602052604090205460ff16156116c757600080fd5b336000908152601360205260409020805460ff1916600117905560165460ff16156116f4576116f4610d7f565b60019250600091505b60095460ff8316101561175e5782801561175157506013600060098460ff1681548110151561172857fe5b6000918252602080832090910154600160a060020a0316835282019290925260400190205460ff165b92506001909101906116fd565b821561176e5761176e6002613457565b60405133907fcdfedae112bb2610775e69a6ffd348e7dfdd996e3fb3a5f6d46b52651867b49790600090a2505050565b601f8190556040805182815290517ff54bf4ed226aa1df732802a8bd56e85755aab0a0ef7c2fbf204cf0de0765f0739181900360200190a150565b60175481565b600d6020526000908152604090205481565b600080600280601d5460ff16600481111561180857fe5b1461181257600080fd5b336000908152600a602052604090205460ff16151561183057600080fd5b3360009081526014602052604090205460ff161561184d57600080fd5b336000818152601460209081526040808320805460ff191660011790558254600b83528184205482517fa9059cbb000000000000000000000000000000000000000000000000000000008152600481019690965260248601529051600160a060020a03919091169363a9059cbb9360448083019493928390030190829087803b1580156118d957600080fd5b505af11580156118ed573d6000803e3d6000fd5b505050506040513d602081101561190357600080fd5b5051151561191057600080fd5b60019250600091505b60095460ff831610156119bc578280156119af57506014600060098460ff1681548110151561194457fe5b6000918252602080832090910154600160a060020a0316835282019290925260400190205460ff16806119af5750600b600060098460ff1681548110151561198857fe5b6000918252602080832090910154600160a060020a03168352820192909252604001902054155b9250600190910190611919565b336000818152600b602090815260409182902054825190815291517f76cc4dd05e1fc280969f3363b5db432911cddfadcfae9bef818a492c0f8d57329281900390910190a282156109eb576109eb6004613457565b60085481565b600180601d5460ff166004811115611a2b57fe5b14611a3557600080fd5b336000908152600a602052604090205460ff161515611a5357600080fd5b3360009081526013602052604090205460ff161515611a7157600080fd5b33600081815260136020526040808220805460ff19169055517f6faffafe1cb6a0bf26e66cc0178734aa9fe07d7c6961884c4a93920423c0bd0e9190a250565b600054600160a060020a03163314611ac857600080fd5b6109eb83838361266f565b60045481565b600e6020526000908152604090205481565b60126020526000908152604090205460ff1681565b601e8190556040805182815290517fb5650d845cdd2d20be38618a709ffc597b681b4a60ec873333f2959dead54e399181900360200190a150565b601d5460ff1681565b60008080808080808080600380601d5460ff166004811115611b6257fe5b14611b6c57600080fd5b611b74611081565b601854909a508a14611bc457601854604080518c8152602081019290925280517f04e9f9a05f2b0f7b76cbaeafc40a3136a1870f82f8eff85e766f7eb868a8b9e09281900390910190a160188a90555b600554601854611bd99163ffffffff612ad916565b611be1612a95565b1015611bec57600080fd5b611bf4610aa4565b600160a060020a0382166000908152601b6020526040902054601954929b50909950611c26919063ffffffff612a7e16565b600160a060020a0389166000908152601b602052604081205491985090965094508615611c5a57611c5787876134e8565b94505b60009350600092508b91505b336000908152601c60209081526040808320600160a060020a038d168452909152902054611c94908c61350d565b821015611ebb57336000908152601c60209081526040808320600160a060020a038d1684529091529020805483908110611cca57fe5b600091825260209091206002600390920201015460ff161515611eb057336000908152601c60209081526040808320600160a060020a038d168452909152902080546001919084908110611d1a57fe5b60009182526020808320600392909202909101600201805460ff191693151593909317909255338152601c82526040808220600160a060020a038d168352909252208054611d8b919084908110611d6d57fe5b6000918252602090912060039091020154849063ffffffff612ad916565b336000908152601c60209081526040808320600160a060020a038e16845290915290208054919450879184908110611dbf57fe5b9060005260206000209060030201600101541015611eb057336000908152601c60209081526040808320600160a060020a038d16845290915290208054611ead91611ea091611e34919086908110611e1357fe5b90600052602060002090600302016001015489612a7e90919063ffffffff16565b601c600033600160a060020a0316600160a060020a0316815260200190815260200160002060008d600160a060020a0316600160a060020a0316815260200190815260200160002085815481101515611e8957fe5b90600052602060002090600302016000015461350d565b859063ffffffff612ad916565b93505b600190910190611c66565b600054600160a060020a031663a9059cbb33611ee7611eda888a613523565b879063ffffffff612ad916565b6040518363ffffffff1660e060020a0281526004018083600160a060020a0316600160a060020a0316815260200182815260200192505050602060405180830381600087803b158015611f3957600080fd5b505af1158015611f4d573d6000803e3d6000fd5b505050506040513d6020811015611f6357600080fd5b50511515611f7057600080fd5b337f49329039ffba66f8761d4a6d68b169063aa8f3a76a256007f5d55ceecf9be82484611f9d8789613523565b6040805192835260208301919091528051918290030190a2505050505050505050505050565b60008080600380601d5460ff166004811115611fdb57fe5b14611fe557600080fd5b336000908152600a602052604090205460ff16151561200357600080fd5b61200b611081565b601854909450841461205b5760185460408051868152602081019290925280517f04e9f9a05f2b0f7b76cbaeafc40a3136a1870f82f8eff85e766f7eb868a8b9e09281900390910190a160188490555b601854612066612a95565b101561207157600080fd5b3360009081526014602052604090205460ff161561208e57600080fd5b336000908152601460205260409020805460ff191660011790556120b0611576565b600160a060020a038082166000908152600f602090815260408083203380855290835281842054845483517fa9059cbb0000000000000000000000000000000000000000000000000000000081526004810193909352602483018290529251969950975093169363a9059cbb93604480820194918390030190829087803b15801561213a57600080fd5b505af115801561214e573d6000803e3d6000fd5b505050506040513d602081101561216457600080fd5b5051151561217157600080fd5b60408051838152905133917f529314119e568ebeb046e7fb288642e03aea33279f2f6762afd0e56a74c7aa42919081900360200190a250505050565b60035481565b600054600160a060020a031633146121ca57600080fd5b610aa181612f05565b60008080600180601d5460ff1660048111156121eb57fe5b146121f557600080fd5b600160a060020a0388166000908152600a6020526040902054889060ff16151561221e57600080fd5b60165460ff161561222e57600080fd5b6016805460ff19166001179055600954885114801561224f57506009548751145b151561225a57600080fd5b6000945060009350600092505b60095460ff8416101561236f57878360ff1681518110151561228557fe5b90602001906020020151600d600060098660ff168154811015156122a557fe5b6000918252602080832090910154600160a060020a031683528201929092526040019020558651879060ff85169081106122db57fe5b90602001906020020151600e600060098660ff168154811015156122fb57fe5b6000918252602080832090910154600160a060020a03168352820192909252604001902055875161233590899060ff861690811061145a57fe5b9350612362878460ff1681518110151561234b57fe5b60209081029091010151869063ffffffff612ad916565b9450600190920191612267565b84841461237b57600080fd5b601186905561238989612f05565b88600160a060020a03167fd33aabc7fc9a1f5861dc19acc754cc8fe8c4400063f1e32d2bf90ac64b628daf8989896040518080602001806020018460001916600019168152602001838103835286818151815260200191508051906020019060200280838360005b838110156124095781810151838201526020016123f1565b50505050905001838103825285818151815260200191508051906020019060200280838360005b83811015612448578181015183820152602001612430565b505050509050019550505050505060405180910390a2505050505050505050565b6000808080601d5460ff16600481111561247f57fe5b1461248957600080fd5b600160a060020a0384166000908152600a6020526040902054849060ff1615156124b257600080fd5b600160a060020a03851660009081526012602052604090205460ff16156124d857600080fd5b600160a060020a038086166000818152601260209081526040808320805460ff191660011790558254600c83528184205482517f23b872dd0000000000000000000000000000000000000000000000000000000081526004810196909652306024870152604486015290519416936323b872dd93606480820194918390030190829087803b15801561256957600080fd5b505af115801561257d573d6000803e3d6000fd5b505050506040513d602081101561259357600080fd5b505115156125a057600080fd5b60019350600092505b60095460ff8416101561260a578380156125fd57506012600060098560ff168154811015156125d457fe5b6000918252602080832090910154600160a060020a0316835282019290925260400190205460ff165b93506001909201916125a9565b831561261a5761261a6001613457565b600160a060020a0385166000818152600c602090815260409182902054825190815291517fa8cc9409769b9614f3ae4056957bfbb32d986e4b61c886b5e29b324b5bf92d0a9281900390910190a25050505050565b600080808080600180601d5460ff16600481111561268957fe5b1461269357600080fd5b600160a060020a0389166000908152600a6020526040902054899060ff1615156126bc57600080fd5b6009548851146126cb57600080fd5b60165460ff16156126de576126de610d7f565b6126e86003613457565b6000965060009550600094505b60095460ff8616101561280157878560ff1681518110151561271357fe5b90602001906020020151600f60008c600160a060020a0316600160a060020a03168152602001908152602001600020600060098860ff1681548110151561275657fe5b6000918252602080832090910154600160a060020a0316835282019290925260400190205587516127a790899060ff881690811061279057fe5b60209081029091010151889063ffffffff612ad916565b96506127f4600c600060098860ff168154811015156127c257fe5b6000918252602080832090910154600160a060020a03168352820192909252604001902054879063ffffffff612ad916565b95506001909401936126f5565b86861461280d57600080fd5b61282e670de0b6b3a76400006110e360075489612a9b90919063ffffffff16565b89101561283a57600080fd5b61284d612845612a95565b600254612ad9565b601781905560015461285f9190612ad9565b601855600093505b60095460ff8516101561292a5789600160a060020a031660098560ff1681548110151561289057fe5b600091825260209091200154600160a060020a03161461291f5785600f600060098760ff168154811015156128c157fe5b6000918252602080832090910154600160a060020a0316835282019290925260400181206009805491929160ff89169081106128f957fe5b6000918252602080832090910154600160a060020a031683528201929092526040019020555b600190930192612867565b600092505b60095460ff841610156129e857600c600060098560ff1681548110151561295257fe5b6000918252602080832090910154600160a060020a03168352828101939093526040909101812054818052600f909252600980547ff4803e074bd026baaf6ed2e288c9515f68c72fb7216eebdd7cae1718a53ec37592919060ff88169081106129b757fe5b6000918252602080832090910154600160a060020a031683528201929092526040019020556001929092019161292f565b89600160a060020a03167f978fff33bfee4716da21bf89e67d0757d6550d4b6f53676919de1d1d209f5ef0896040518080602001828103825283818151815260200191508051906020019060200280838360005b83811015612a54578181015183820152602001612a3c565b505050509050019250505060405180910390a2612a728a8b8b612ae6565b50505050505050505050565b600082821115612a8a57fe5b508082035b92915050565b601f5490565b6000821515612aac57506000612a8f565b50818102818382811515612abc57fe5b0414612a8f57fe5b60008183811515612ad157fe5b049392505050565b81810182811015612a8f57fe5b6000806000612af3613541565b600380601d5460ff166004811115612b0757fe5b14612b1157600080fd5b612b19611081565b6018549095508514612b695760185460408051878152602081019290925280517f04e9f9a05f2b0f7b76cbaeafc40a3136a1870f82f8eff85e766f7eb868a8b9e09281900390910190a160188590555b601854612b74612a95565b10612b7e57600080fd5b601754612b89612a95565b101580612bae5750600160a060020a0388166000908152600a602052604090205460ff165b1515612bb957600080fd5b600160a060020a0387166000908152600a602052604090205460ff1680612be75750600160a060020a038716155b1515612bf257600080fd5b612c15670de0b6b3a76400006110e3600754601954612a9b90919063ffffffff16565b861015612c2157600080fd5b60195415612d0b57612c31610aa4565b9094509250600160a060020a038781169085161415612cad57600160a060020a0383166000908152601b6020526040902054612c7490600263ffffffff612a9b16565b600160a060020a0388166000908152601b6020526040902054612c9d908863ffffffff612ad916565b1115612ca857600080fd5b612d0b565b600160a060020a0384166000908152601b6020526040902054612cd790600263ffffffff612a9b16565b600160a060020a0388166000908152601b6020526040902054612d00908863ffffffff612ad916565b1115612d0b57600080fd5b60408051606081018252878152600160a060020a03808a166000908152601b60209081528482205481850152838501829052815485517f23b872dd0000000000000000000000000000000000000000000000000000000081528e85166004820152306024820152604481018d90529551949750909216936323b872dd936064808301949391928390030190829087803b158015612da757600080fd5b505af1158015612dbb573d6000803e3d6000fd5b505050506040513d6020811015612dd157600080fd5b50511515612dde57600080fd5b601854612df39061070863ffffffff612a7e16565b612dfb612a95565b10612e1757601a54612e13908763ffffffff612ad916565b601a555b601954612e2a908763ffffffff612ad916565b601955600160a060020a0387166000908152601b6020526040902054612e56908763ffffffff612ad916565b600160a060020a038881166000818152601b6020908152604080832095909555928c16808252601c845284822083835284528482208054600180820183559184529285902088516003909402019283558785015190830155868501516002909201805460ff19169215159290921790915583518a81529351919390927f484413c33463e7d976e3ded2a85b0c31610d0906977df2cd9cbd6d12a6872a8492918290030190a35050505050505050565b600080808080600180601d5460ff166004811115612f1f57fe5b14612f2957600080fd5b600160a060020a0387166000908152600a6020526040902054879060ff161515612f5257600080fd5b60165460ff161515612f6357600080fd5b600160a060020a03881660009081526015602052604090205460ff1615612f8957600080fd5b600160a060020a0388166000908152601560209081526040808320805460ff19166001179055600c825280832054600e9092529091205411156130aa57600160a060020a0388166000908152600c6020908152604080832054600e90925290912054612ffa9163ffffffff612a7e16565b60008054604080517f23b872dd000000000000000000000000000000000000000000000000000000008152600160a060020a038d81166004830152306024830152604482018690529151949b509116926323b872dd92606480840193602093929083900390910190829087803b15801561307357600080fd5b505af1158015613087573d6000803e3d6000fd5b505050506040513d602081101561309d57600080fd5b505115156130aa57600080fd5b604051600160a060020a038916907fa49e1bf6eca68fcbe0f530f9389e60870664cb4b8cd290ade9d0fe3b7c4d9c7590600090a260019550600094505b60095460ff861610156131485785801561313b57506015600060098760ff1681548110151561311257fe5b6000918252602080832090910154600160a060020a0316835282019290925260400190205460ff165b95506001909401936130e7565b851561344d576016805460ff19169055600093505b60095460ff851610156134465760006015600060098760ff1681548110151561318257fe5b600091825260208083209190910154600160a060020a031683528201929092526040018120805460ff19169215159290921790915560098054600c92919060ff88169081106131cd57fe5b6000918252602080832090910154600160a060020a03168352820192909252604001812054600980549192600e9290919060ff891690811061320b57fe5b6000918252602080832090910154600160a060020a0316835282019290925260400190205410156133455761328d600e600060098760ff1681548110151561324f57fe5b6000918252602080832090910154600160a060020a03168352820192909252604001812054600980549192600c9290919060ff8a16908110610f5157fe5b60005460098054929550600160a060020a039091169163a9059cbb919060ff88169081106132b757fe5b60009182526020808320909101546040805160e060020a63ffffffff8716028152600160a060020a039092166004830152602482018990525160448083019491928390030190829087803b15801561330e57600080fd5b505af1158015613322573d6000803e3d6000fd5b505050506040513d602081101561333857600080fd5b5051151561334557600080fd5b600e600060098660ff1681548110151561335b57fe5b6000918252602080832090910154600160a060020a03168352820192909252604001812054600980549192600c9290919060ff891690811061339957fe5b6000918252602080832090910154600160a060020a0316835282019290925260400181209190915560098054600d92919060ff88169081106133d757fe5b6000918252602080832090910154600160a060020a03168352820192909252604001812054600980549192600b9290919060ff891690811061341557fe5b6000918252602080832090910154600160a060020a031683528201929092526040019020556001939093019261315d565b6011546010555b5050505050505050565b601d547f7a86a836fcb7b1724e95db8cca29b460e17febee51b6f03e272720350340352e9060ff1682613488612a95565b6040518084600481111561349857fe5b60ff1681526020018360048111156134ac57fe5b60ff168152602001828152602001935050505060405180910390a1601d805482919060ff191660018360048111156134e057fe5b021790555050565b6000613506826110e385670de0b6b3a764000063ffffffff612a9b16565b9392505050565b600081831061351c5781613506565b5090919050565b6000613506670de0b6b3a76400006110e3858563ffffffff612a9b16565b606060405190810160405280600081526020016000815260200160001515815250905600a165627a7a72305820776504847198d02c2a56b191e4027224b093f6530b5bc95d02beadbaf8f8b0800029",
  "source": "pragma solidity ^0.4.23;\n\nimport \"../Arbitration.sol\";\n\ncontract ArbitrationMock is Arbitration {\n\n  event MockBlockNumber(uint256 _blockNumber);\n  event MockNow(uint256 _mockedNow);\n\n  uint blockNumber = 0;\n\n  uint mockedNow = 0;\n\n  constructor(address _jurToken, address[] _parties, uint256[] _dispersal, uint256[] _funding, bytes32 _agreementHash) public\n    Arbitration(_jurToken, _parties, _dispersal, _funding, _agreementHash)\n  {\n\n  }\n\n  function getBlockNumber() view internal returns (uint) {\n      return blockNumber;\n  }\n\n  function setMockedBlockNumber(uint256 _blockNumber) public {\n      blockNumber = _blockNumber;\n      emit MockBlockNumber(blockNumber);\n  }\n\n  function getNow() view internal returns (uint256) {\n      return mockedNow;\n  }\n\n  function setMockedNow(uint256 _mockedNow) public {\n      mockedNow = _mockedNow;\n      emit MockNow(mockedNow);\n  }\n\n}\n",
  "sourcePath": "/Users/marcomarasco/Sites/dev/jur-mvp/protocol/contracts/mock/ArbitrationMock.sol",
  "compiler": {
    "name": "solc",
    "version": "0.4.25+commit.59dbf8f1.Emscripten.clang"
  },
  "schemaVersion": "2.0.2",
  "updatedAt": "2019-09-17T05:18:04.263Z"
}