{
  "contractName": "Arbitration",
  "abi": [
    {
      "constant": true,
      "inputs": [
        {
          "name": "",
          "type": "address"
        }
      ],
      "name": "funding",
      "outputs": [
        {
          "name": "",
          "type": "uint256"
        }
      ],
      "payable": false,
      "stateMutability": "view",
      "type": "function"
    },
    {
      "constant": true,
      "inputs": [],
      "name": "agreementHash",
      "outputs": [
        {
          "name": "",
          "type": "bytes32"
        }
      ],
      "payable": false,
      "stateMutability": "view",
      "type": "function"
    },
    {
      "constant": true,
      "inputs": [],
      "name": "totalVotes",
      "outputs": [
        {
          "name": "",
          "type": "uint256"
        }
      ],
      "payable": false,
      "stateMutability": "view",
      "type": "function"
    },
    {
      "constant": true,
      "inputs": [],
      "name": "disputeEnds",
      "outputs": [
        {
          "name": "",
          "type": "uint256"
        }
      ],
      "payable": false,
      "stateMutability": "view",
      "type": "function"
    },
    {
      "constant": true,
      "inputs": [],
      "name": "amendedAgreementHash",
      "outputs": [
        {
          "name": "",
          "type": "bytes32"
        }
      ],
      "payable": false,
      "stateMutability": "view",
      "type": "function"
    },
    {
      "constant": true,
      "inputs": [
        {
          "name": "",
          "type": "address"
        }
      ],
      "name": "dispersal",
      "outputs": [
        {
          "name": "",
          "type": "uint256"
        }
      ],
      "payable": false,
      "stateMutability": "view",
      "type": "function"
    },
    {
      "constant": true,
      "inputs": [],
      "name": "DISPUTE_VOTE_DURATION",
      "outputs": [
        {
          "name": "",
          "type": "uint256"
        }
      ],
      "payable": false,
      "stateMutability": "view",
      "type": "function"
    },
    {
      "constant": true,
      "inputs": [],
      "name": "DISPUTE_DISPERSAL_DURATION",
      "outputs": [
        {
          "name": "",
          "type": "uint256"
        }
      ],
      "payable": false,
      "stateMutability": "view",
      "type": "function"
    },
    {
      "constant": true,
      "inputs": [],
      "name": "MIN_VOTE",
      "outputs": [
        {
          "name": "",
          "type": "uint256"
        }
      ],
      "payable": false,
      "stateMutability": "view",
      "type": "function"
    },
    {
      "constant": true,
      "inputs": [],
      "name": "VOTE_LOCKUP",
      "outputs": [
        {
          "name": "",
          "type": "uint256"
        }
      ],
      "payable": false,
      "stateMutability": "view",
      "type": "function"
    },
    {
      "constant": true,
      "inputs": [
        {
          "name": "",
          "type": "address"
        },
        {
          "name": "",
          "type": "address"
        }
      ],
      "name": "disputeDispersal",
      "outputs": [
        {
          "name": "",
          "type": "uint256"
        }
      ],
      "payable": false,
      "stateMutability": "view",
      "type": "function"
    },
    {
      "constant": true,
      "inputs": [
        {
          "name": "",
          "type": "address"
        }
      ],
      "name": "parties",
      "outputs": [
        {
          "name": "",
          "type": "bool"
        }
      ],
      "payable": false,
      "stateMutability": "view",
      "type": "function"
    },
    {
      "constant": true,
      "inputs": [],
      "name": "DISPUTE_WINDOW_MAX",
      "outputs": [
        {
          "name": "",
          "type": "uint256"
        }
      ],
      "payable": false,
      "stateMutability": "view",
      "type": "function"
    },
    {
      "constant": true,
      "inputs": [],
      "name": "disputeWindowVotes",
      "outputs": [
        {
          "name": "",
          "type": "uint256"
        }
      ],
      "payable": false,
      "stateMutability": "view",
      "type": "function"
    },
    {
      "constant": true,
      "inputs": [
        {
          "name": "",
          "type": "address"
        }
      ],
      "name": "hasWithdrawn",
      "outputs": [
        {
          "name": "",
          "type": "bool"
        }
      ],
      "payable": false,
      "stateMutability": "view",
      "type": "function"
    },
    {
      "constant": true,
      "inputs": [],
      "name": "jurToken",
      "outputs": [
        {
          "name": "",
          "type": "address"
        }
      ],
      "payable": false,
      "stateMutability": "view",
      "type": "function"
    },
    {
      "constant": true,
      "inputs": [
        {
          "name": "",
          "type": "uint256"
        }
      ],
      "name": "allParties",
      "outputs": [
        {
          "name": "",
          "type": "address"
        }
      ],
      "payable": false,
      "stateMutability": "view",
      "type": "function"
    },
    {
      "constant": true,
      "inputs": [
        {
          "name": "",
          "type": "address"
        }
      ],
      "name": "hasAgreed",
      "outputs": [
        {
          "name": "",
          "type": "bool"
        }
      ],
      "payable": false,
      "stateMutability": "view",
      "type": "function"
    },
    {
      "constant": true,
      "inputs": [
        {
          "name": "",
          "type": "address"
        }
      ],
      "name": "hasFundedAmendment",
      "outputs": [
        {
          "name": "",
          "type": "bool"
        }
      ],
      "payable": false,
      "stateMutability": "view",
      "type": "function"
    },
    {
      "constant": true,
      "inputs": [
        {
          "name": "",
          "type": "address"
        }
      ],
      "name": "partyVotes",
      "outputs": [
        {
          "name": "",
          "type": "uint256"
        }
      ],
      "payable": false,
      "stateMutability": "view",
      "type": "function"
    },
    {
      "constant": true,
      "inputs": [],
      "name": "amendmentProposed",
      "outputs": [
        {
          "name": "",
          "type": "bool"
        }
      ],
      "payable": false,
      "stateMutability": "view",
      "type": "function"
    },
    {
      "constant": true,
      "inputs": [],
      "name": "disputeStarts",
      "outputs": [
        {
          "name": "",
          "type": "uint256"
        }
      ],
      "payable": false,
      "stateMutability": "view",
      "type": "function"
    },
    {
      "constant": true,
      "inputs": [
        {
          "name": "",
          "type": "address"
        }
      ],
      "name": "amendedDispersal",
      "outputs": [
        {
          "name": "",
          "type": "uint256"
        }
      ],
      "payable": false,
      "stateMutability": "view",
      "type": "function"
    },
    {
      "constant": true,
      "inputs": [],
      "name": "MIN_WIN",
      "outputs": [
        {
          "name": "",
          "type": "uint256"
        }
      ],
      "payable": false,
      "stateMutability": "view",
      "type": "function"
    },
    {
      "constant": true,
      "inputs": [],
      "name": "DISPUTE_EXTENSION",
      "outputs": [
        {
          "name": "",
          "type": "uint256"
        }
      ],
      "payable": false,
      "stateMutability": "view",
      "type": "function"
    },
    {
      "constant": true,
      "inputs": [
        {
          "name": "",
          "type": "address"
        }
      ],
      "name": "amendedFunding",
      "outputs": [
        {
          "name": "",
          "type": "uint256"
        }
      ],
      "payable": false,
      "stateMutability": "view",
      "type": "function"
    },
    {
      "constant": true,
      "inputs": [
        {
          "name": "",
          "type": "address"
        }
      ],
      "name": "hasSigned",
      "outputs": [
        {
          "name": "",
          "type": "bool"
        }
      ],
      "payable": false,
      "stateMutability": "view",
      "type": "function"
    },
    {
      "constant": true,
      "inputs": [],
      "name": "state",
      "outputs": [
        {
          "name": "",
          "type": "uint8"
        }
      ],
      "payable": false,
      "stateMutability": "view",
      "type": "function"
    },
    {
      "constant": true,
      "inputs": [],
      "name": "DISPUTE_WINDOW",
      "outputs": [
        {
          "name": "",
          "type": "uint256"
        }
      ],
      "payable": false,
      "stateMutability": "view",
      "type": "function"
    },
    {
      "inputs": [
        {
          "name": "_jurToken",
          "type": "address"
        },
        {
          "name": "_parties",
          "type": "address[]"
        },
        {
          "name": "_dispersal",
          "type": "uint256[]"
        },
        {
          "name": "_funding",
          "type": "uint256[]"
        },
        {
          "name": "_agreementHash",
          "type": "bytes32"
        }
      ],
      "payable": false,
      "stateMutability": "nonpayable",
      "type": "constructor"
    },
    {
      "anonymous": false,
      "inputs": [
        {
          "indexed": false,
          "name": "_oldState",
          "type": "uint8"
        },
        {
          "indexed": false,
          "name": "_newState",
          "type": "uint8"
        },
        {
          "indexed": false,
          "name": "_timestamp",
          "type": "uint256"
        }
      ],
      "name": "StateChange",
      "type": "event"
    },
    {
      "anonymous": false,
      "inputs": [
        {
          "indexed": true,
          "name": "_party1",
          "type": "address"
        },
        {
          "indexed": true,
          "name": "_party2",
          "type": "address"
        },
        {
          "indexed": false,
          "name": "_dispersal",
          "type": "uint256[]"
        },
        {
          "indexed": false,
          "name": "_funding",
          "type": "uint256[]"
        },
        {
          "indexed": false,
          "name": "_agreementHash",
          "type": "bytes32"
        }
      ],
      "name": "ContractCreated",
      "type": "event"
    },
    {
      "anonymous": false,
      "inputs": [
        {
          "indexed": true,
          "name": "_party",
          "type": "address"
        },
        {
          "indexed": false,
          "name": "_funding",
          "type": "uint256"
        }
      ],
      "name": "ContractSigned",
      "type": "event"
    },
    {
      "anonymous": false,
      "inputs": [
        {
          "indexed": true,
          "name": "_party",
          "type": "address"
        },
        {
          "indexed": false,
          "name": "_funding",
          "type": "uint256"
        }
      ],
      "name": "ContractUnsigned",
      "type": "event"
    },
    {
      "anonymous": false,
      "inputs": [
        {
          "indexed": true,
          "name": "_party",
          "type": "address"
        }
      ],
      "name": "ContractAgreed",
      "type": "event"
    },
    {
      "anonymous": false,
      "inputs": [
        {
          "indexed": true,
          "name": "_party",
          "type": "address"
        }
      ],
      "name": "ContractUnagreed",
      "type": "event"
    },
    {
      "anonymous": false,
      "inputs": [
        {
          "indexed": true,
          "name": "_party",
          "type": "address"
        },
        {
          "indexed": false,
          "name": "_dispersal",
          "type": "uint256[]"
        },
        {
          "indexed": false,
          "name": "_funding",
          "type": "uint256[]"
        },
        {
          "indexed": false,
          "name": "_agreementHash",
          "type": "bytes32"
        }
      ],
      "name": "ContractAmendmentProposed",
      "type": "event"
    },
    {
      "anonymous": false,
      "inputs": [
        {
          "indexed": true,
          "name": "_party",
          "type": "address"
        }
      ],
      "name": "ContractAmendmentAgreed",
      "type": "event"
    },
    {
      "anonymous": false,
      "inputs": [
        {
          "indexed": true,
          "name": "_party",
          "type": "address"
        }
      ],
      "name": "ContractAmendmentUnagreed",
      "type": "event"
    },
    {
      "anonymous": false,
      "inputs": [
        {
          "indexed": true,
          "name": "_party",
          "type": "address"
        },
        {
          "indexed": false,
          "name": "_dispersal",
          "type": "uint256"
        }
      ],
      "name": "ContractWithdrawn",
      "type": "event"
    },
    {
      "anonymous": false,
      "inputs": [
        {
          "indexed": true,
          "name": "_party",
          "type": "address"
        },
        {
          "indexed": false,
          "name": "_dispersal",
          "type": "uint256[]"
        }
      ],
      "name": "ContractDisputed",
      "type": "event"
    },
    {
      "anonymous": false,
      "inputs": [
        {
          "indexed": true,
          "name": "_party",
          "type": "address"
        },
        {
          "indexed": false,
          "name": "_dispersal",
          "type": "uint256[]"
        }
      ],
      "name": "ContractDisputeDispersalAmended",
      "type": "event"
    },
    {
      "anonymous": false,
      "inputs": [
        {
          "indexed": false,
          "name": "_oldDisputeEnds",
          "type": "uint256"
        },
        {
          "indexed": false,
          "name": "_newDisputeEnds",
          "type": "uint256"
        }
      ],
      "name": "DisputeEndsAdjusted",
      "type": "event"
    },
    {
      "anonymous": false,
      "inputs": [
        {
          "indexed": true,
          "name": "_voter",
          "type": "address"
        },
        {
          "indexed": true,
          "name": "_party",
          "type": "address"
        },
        {
          "indexed": false,
          "name": "_amount",
          "type": "uint256"
        }
      ],
      "name": "VoteCast",
      "type": "event"
    },
    {
      "anonymous": false,
      "inputs": [
        {
          "indexed": true,
          "name": "_voter",
          "type": "address"
        },
        {
          "indexed": false,
          "name": "_stakedAmount",
          "type": "uint256"
        },
        {
          "indexed": false,
          "name": "_rewardAmount",
          "type": "uint256"
        }
      ],
      "name": "VoterPayout",
      "type": "event"
    },
    {
      "anonymous": false,
      "inputs": [
        {
          "indexed": true,
          "name": "_party",
          "type": "address"
        },
        {
          "indexed": false,
          "name": "_dispersalAmount",
          "type": "uint256"
        }
      ],
      "name": "PartyPayout",
      "type": "event"
    },
    {
      "constant": false,
      "inputs": [],
      "name": "sign",
      "outputs": [],
      "payable": false,
      "stateMutability": "nonpayable",
      "type": "function"
    },
    {
      "constant": false,
      "inputs": [
        {
          "name": "_sender",
          "type": "address"
        }
      ],
      "name": "signJUR",
      "outputs": [],
      "payable": false,
      "stateMutability": "nonpayable",
      "type": "function"
    },
    {
      "constant": false,
      "inputs": [],
      "name": "unsign",
      "outputs": [],
      "payable": false,
      "stateMutability": "nonpayable",
      "type": "function"
    },
    {
      "constant": false,
      "inputs": [],
      "name": "agree",
      "outputs": [],
      "payable": false,
      "stateMutability": "nonpayable",
      "type": "function"
    },
    {
      "constant": false,
      "inputs": [],
      "name": "unagree",
      "outputs": [],
      "payable": false,
      "stateMutability": "nonpayable",
      "type": "function"
    },
    {
      "constant": false,
      "inputs": [
        {
          "name": "_dispersal",
          "type": "uint256[]"
        },
        {
          "name": "_funding",
          "type": "uint256[]"
        },
        {
          "name": "_agreementHash",
          "type": "bytes32"
        }
      ],
      "name": "proposeAmendment",
      "outputs": [],
      "payable": false,
      "stateMutability": "nonpayable",
      "type": "function"
    },
    {
      "constant": false,
      "inputs": [
        {
          "name": "_sender",
          "type": "address"
        },
        {
          "name": "_dispersal",
          "type": "uint256[]"
        },
        {
          "name": "_funding",
          "type": "uint256[]"
        },
        {
          "name": "_agreementHash",
          "type": "bytes32"
        }
      ],
      "name": "proposeAmendmentJUR",
      "outputs": [],
      "payable": false,
      "stateMutability": "nonpayable",
      "type": "function"
    },
    {
      "constant": false,
      "inputs": [],
      "name": "agreeAmendment",
      "outputs": [],
      "payable": false,
      "stateMutability": "nonpayable",
      "type": "function"
    },
    {
      "constant": false,
      "inputs": [
        {
          "name": "_sender",
          "type": "address"
        }
      ],
      "name": "agreeAmendmentJUR",
      "outputs": [],
      "payable": false,
      "stateMutability": "nonpayable",
      "type": "function"
    },
    {
      "constant": false,
      "inputs": [],
      "name": "unagreeAmendment",
      "outputs": [],
      "payable": false,
      "stateMutability": "nonpayable",
      "type": "function"
    },
    {
      "constant": false,
      "inputs": [],
      "name": "withdrawDispersal",
      "outputs": [],
      "payable": false,
      "stateMutability": "nonpayable",
      "type": "function"
    },
    {
      "constant": false,
      "inputs": [
        {
          "name": "_voteAmount",
          "type": "uint256"
        },
        {
          "name": "_dispersal",
          "type": "uint256[]"
        }
      ],
      "name": "dispute",
      "outputs": [],
      "payable": false,
      "stateMutability": "nonpayable",
      "type": "function"
    },
    {
      "constant": false,
      "inputs": [
        {
          "name": "_sender",
          "type": "address"
        },
        {
          "name": "_voteAmount",
          "type": "uint256"
        },
        {
          "name": "_dispersal",
          "type": "uint256[]"
        }
      ],
      "name": "disputeJUR",
      "outputs": [],
      "payable": false,
      "stateMutability": "nonpayable",
      "type": "function"
    },
    {
      "constant": false,
      "inputs": [
        {
          "name": "_dispersal",
          "type": "uint256[]"
        }
      ],
      "name": "amendDisputeDispersal",
      "outputs": [],
      "payable": false,
      "stateMutability": "nonpayable",
      "type": "function"
    },
    {
      "constant": true,
      "inputs": [],
      "name": "calcDisputeEnds",
      "outputs": [
        {
          "name": "",
          "type": "uint256"
        },
        {
          "name": "",
          "type": "uint256"
        }
      ],
      "payable": false,
      "stateMutability": "view",
      "type": "function"
    },
    {
      "constant": true,
      "inputs": [
        {
          "name": "_currentTimestamp",
          "type": "uint256"
        }
      ],
      "name": "isClosed",
      "outputs": [
        {
          "name": "",
          "type": "bool"
        },
        {
          "name": "",
          "type": "uint256"
        },
        {
          "name": "",
          "type": "uint256"
        }
      ],
      "payable": false,
      "stateMutability": "view",
      "type": "function"
    },
    {
      "constant": false,
      "inputs": [
        {
          "name": "_voteAddress",
          "type": "address"
        },
        {
          "name": "_voteAmount",
          "type": "uint256"
        }
      ],
      "name": "vote",
      "outputs": [],
      "payable": false,
      "stateMutability": "nonpayable",
      "type": "function"
    },
    {
      "constant": false,
      "inputs": [
        {
          "name": "_sender",
          "type": "address"
        },
        {
          "name": "_voteAddress",
          "type": "address"
        },
        {
          "name": "_voteAmount",
          "type": "uint256"
        }
      ],
      "name": "voteJUR",
      "outputs": [],
      "payable": false,
      "stateMutability": "nonpayable",
      "type": "function"
    },
    {
      "constant": false,
      "inputs": [
        {
          "name": "_start",
          "type": "uint256"
        },
        {
          "name": "_end",
          "type": "uint256"
        }
      ],
      "name": "payoutVoter",
      "outputs": [],
      "payable": false,
      "stateMutability": "nonpayable",
      "type": "function"
    },
    {
      "constant": true,
      "inputs": [
        {
          "name": "_start",
          "type": "uint256"
        },
        {
          "name": "_end",
          "type": "uint256"
        }
      ],
      "name": "canClaimReward",
      "outputs": [
        {
          "name": "",
          "type": "uint8"
        },
        {
          "name": "",
          "type": "uint256"
        }
      ],
      "payable": false,
      "stateMutability": "view",
      "type": "function"
    },
    {
      "constant": true,
      "inputs": [],
      "name": "getWinner",
      "outputs": [
        {
          "name": "",
          "type": "address"
        }
      ],
      "payable": false,
      "stateMutability": "view",
      "type": "function"
    },
    {
      "constant": true,
      "inputs": [],
      "name": "getWinnerAndBestMinorty",
      "outputs": [
        {
          "name": "",
          "type": "address"
        },
        {
          "name": "",
          "type": "address"
        }
      ],
      "payable": false,
      "stateMutability": "view",
      "type": "function"
    },
    {
      "constant": false,
      "inputs": [],
      "name": "payoutParty",
      "outputs": [],
      "payable": false,
      "stateMutability": "nonpayable",
      "type": "function"
    },
    {
      "constant": true,
      "inputs": [],
      "name": "canWithdraw",
      "outputs": [
        {
          "name": "",
          "type": "bool"
        },
        {
          "name": "",
          "type": "uint256"
        }
      ],
      "payable": false,
      "stateMutability": "view",
      "type": "function"
    }
  ],
  "bytecode": "0x608060405262093a806001556202a30060025561070860035562015180600481905560055566b1a2bc2ec50000600655662386f26fc100006007819055600855601d805460ff191690553480156200005657600080fd5b5060405162003f6b38038062003f6b8339810160409081528151602083015191830151606084015160808501519185018051939594850194909391019190600090819081906002148015620000ac575084516002145b8015620000ba575086516002145b1515620000c657600080fd5b866000815181101515620000d657fe5b90602001906020020151600160a060020a03166000141580156200011d57508660018151811015156200010557fe5b90602001906020020151600160a060020a0316600014155b15156200012957600080fd5b5060009150819050805b86518160ff161015620002ae576001600a6000898460ff168151811015156200015857fe5b602090810291909101810151600160a060020a03168252810191909152604001600020805460ff19169115159190911790558551869060ff83169081106200019c57fe5b90602001906020020151600b6000898460ff16815181101515620001bc57fe5b6020908102909101810151600160a060020a03168252810191909152604001600020558451859060ff8316908110620001f157fe5b90602001906020020151600c6000898460ff168151811015156200021157fe5b6020908102909101810151600160a060020a031682528101919091526040016000205585516200026b90879060ff84169081106200024b57fe5b60209081029091010151839064010000000062002fbe6200041482021704565b9150620002a3858260ff168151811015156200028357fe5b60209081029091010151849064010000000062002fbe6200041482021704565b925060010162000133565b828214620002bb57600080fd5b8651620002d09060099060208a019062000428565b50601084905560008054600160a060020a031916600160a060020a038a161790558651879060019081106200030157fe5b90602001906020020151600160a060020a03168760008151811015156200032457fe5b90602001906020020151600160a060020a03167f18a9c4249303b74ecff5e58f4dcc486cd7de84cd3feec18d74f4c9216963fb9e8888886040518080602001806020018460001916600019168152602001838103835286818151815260200191508051906020019060200280838360005b83811015620003af57818101518382015260200162000395565b50505050905001838103825285818151815260200191508051906020019060200280838360005b83811015620003f0578181015183820152602001620003d6565b505050509050019550505050505060405180910390a35050505050505050620004bc565b818101828110156200042257fe5b92915050565b82805482825590600052602060002090810192821562000480579160200282015b82811115620004805782518254600160a060020a031916600160a060020a0390911617825560209092019160019091019062000449565b506200048e92915062000492565b5090565b620004b991905b808211156200048e578054600160a060020a031916815560010162000499565b90565b613a9f80620004cc6000396000f3006080604052600436106102635763ffffffff60e060020a60003504166302edcbfb8114610268578063049f2d8a146102fa5780630ab55d0b1461032d5780630d15fd771461034257806312feb4a714610357578063188c0e431461036c5780631ff2e2141461038157806325ce690b1461041f5780632731c6c6146104405780632a50b544146104555780632ca151221461046a5780632efab6fa1461047f5780632f36cacf1461049457806337c2afda146104ee5780633ad17f6d1461050f5780633f606aa31461054a57806341e60c861461055f57806344633297146105745780634f2352071461059b5780634f802f8a146105d057806352e18f33146105e55780635a9e17a7146105fa5780635cfe585a1461060f5780635e2c19db1461063d5780635f068b431461065e5780635f74bbde1461068f57806360d50596146106b357806364a8a11f146106cb578063682644fd146106f557806368e664bd146107165780636eae555d1461073757806374e6cfd31461078c5780638b90dc94146107ad5780638bfb85c3146107c25780638e7ea5b2146107d75780638fae60a5146107ec578063918c937314610801578063994d4060146108165780639cff621a14610837578063a3f5700d1461084c578063a7e92fb514610861578063adef40db14610876578063b40b7841146108dd578063b51459fe146108f2578063b7c1ae8114610922578063bf6a141314610943578063c19d93fb14610964578063d15e31701461099d578063d5c78a28146109b8578063d5e03fc6146109f0578063f585dc5714610a05578063fc76317614610a1a578063fdff8d5d14610a3b575b600080fd5b34801561027457600080fd5b50604080516020600480358082013583810280860185019096528085526102f895369593946024949385019291829185019084908082843750506040805187358901803560208181028481018201909552818452989b9a9989019892975090820195509350839250850190849080828437509497505093359450610a739350505050565b005b34801561030657600080fd5b5061031b600160a060020a0360043516610a84565b60408051918252519081900360200190f35b34801561033957600080fd5b5061031b610a96565b34801561034e57600080fd5b5061031b610a9c565b34801561036357600080fd5b5061031b610aa2565b34801561037857600080fd5b5061031b610aa8565b34801561038d57600080fd5b506040805160206004602480358281013584810280870186019097528086526102f8968435600160a060020a031696369660449591949091019291829185019084908082843750506040805187358901803560208181028481018201909552818452989b9a9989019892975090820195509350839250850190849080828437509497505093359450610aae9350505050565b34801561042b57600080fd5b5061031b600160a060020a0360043516610ad7565b34801561044c57600080fd5b5061031b610ae9565b34801561046157600080fd5b5061031b610aef565b34801561047657600080fd5b506102f8610af5565b34801561048b57600080fd5b5061031b610b00565b3480156104a057600080fd5b506040805160206004602480358281013584810280870186019097528086526102f896843596369660449591949091019291829185019084908082843750949750610b069650505050505050565b3480156104fa57600080fd5b506102f8600160a060020a0360043516610b15565b34801561051b57600080fd5b50610524610b38565b60408051600160a060020a03938416815291909216602082015281519081900390910190f35b34801561055657600080fd5b5061031b610c7a565b34801561056b57600080fd5b506102f8610c80565b34801561058057600080fd5b5061031b600160a060020a0360043581169060243516610de1565b3480156105a757600080fd5b506105bc600160a060020a0360043516610dfe565b604080519115158252519081900360200190f35b3480156105dc57600080fd5b506102f8610e13565b3480156105f157600080fd5b5061031b611109565b34801561060657600080fd5b5061031b61110f565b34801561061b57600080fd5b50610624611115565b6040805192835260208301919091528051918290030190f35b34801561064957600080fd5b506105bc600160a060020a0360043516611334565b34801561066a57600080fd5b50610673611349565b60408051600160a060020a039092168252519081900360200190f35b34801561069b57600080fd5b506102f8600160a060020a0360043516602435611358565b3480156106bf57600080fd5b50610673600435611363565b3480156106d757600080fd5b506102f8600160a060020a036004358116906024351660443561138b565b34801561070157600080fd5b506105bc600160a060020a03600435166113ad565b34801561072257600080fd5b506105bc600160a060020a03600435166113c2565b34801561074357600080fd5b50604080516020600480358082013583810280860185019096528085526102f8953695939460249493850192918291850190849080828437509497506113d79650505050505050565b34801561079857600080fd5b5061031b600160a060020a03600435166115c7565b3480156107b957600080fd5b506105bc6115d9565b3480156107ce57600080fd5b506102f86115e2565b3480156107e357600080fd5b506106736115eb565b3480156107f857600080fd5b506102f86116ce565b34801561080d57600080fd5b5061031b611801565b34801561082257600080fd5b5061031b600160a060020a0360043516611807565b34801561084357600080fd5b506102f8611819565b34801561085857600080fd5b5061031b611a39565b34801561086d57600080fd5b506102f8611a3f565b34801561088257600080fd5b5060408051602060046044358181013583810280860185019096528085526102f8958335600160a060020a0316956024803596369695606495939492019291829185019084908082843750949750611ad99650505050505050565b3480156108e957600080fd5b5061031b611afb565b3480156108fe57600080fd5b50610907611b01565b60408051921515835260208301919091528051918290030190f35b34801561092e57600080fd5b5061031b600160a060020a0360043516611b48565b34801561094f57600080fd5b506105bc600160a060020a0360043516611b5a565b34801561097057600080fd5b50610979611b6f565b6040518082600481111561098957fe5b60ff16815260200191505060405180910390f35b3480156109a957600080fd5b506102f8600435602435611b78565b3480156109c457600080fd5b506109d0600435612000565b604080519315158452602084019290925282820152519081900360600190f35b3480156109fc57600080fd5b506102f86121e8565b348015610a1157600080fd5b5061031b6123db565b348015610a2657600080fd5b506102f8600160a060020a03600435166123e1565b348015610a4757600080fd5b50610a56600435602435612401565b6040805160ff909316835260208301919091528051918290030190f35b610a7f338484846126ba565b505050565b600c6020526000908152604090205481565b60105481565b60195481565b60185481565b60115481565b600054600160a060020a03163314610ac557600080fd5b610ad1848484846126ba565b50505050565b600b6020526000908152604090205481565b60015481565b60025481565b610afe33612950565b565b60075481565b610b11338383612b56565b5050565b600054600160a060020a03163314610b2c57600080fd5b610b3581612950565b50565b600080600080600080610b496115eb565b9350600160a060020a03841615610b61576000610b86565b600980546000908110610b7057fe5b600091825260209091200154600160a060020a03165b600160a060020a0381166000908152601b602052604081205491945090925090505b60095460ff82161015610c6f57601b600060098360ff16815481101515610bcb57fe5b6000918252602080832090910154600160a060020a0316835282019290925260400190205482108015610c2657506009805460ff8316908110610c0a57fe5b600091825260209091200154600160a060020a03858116911614155b15610c67576009805460ff8316908110610c3c57fe5b6000918252602080832090910154600160a060020a0316808352601b90915260409091205490935091505b600101610ba8565b509194909350915050565b60055481565b600080601d5460ff166004811115610c9457fe5b14610c9e57600080fd5b336000908152600a602052604090205460ff161515610cbc57600080fd5b3360009081526012602052604090205460ff161515610cda57600080fd5b336000818152601260209081526040808320805460ff191690558254600c83528184205482517fa9059cbb000000000000000000000000000000000000000000000000000000008152600481019690965260248601529051600160a060020a039091169363a9059cbb9360448083019493928390030190829087803b158015610d6257600080fd5b505af1158015610d76573d6000803e3d6000fd5b505050506040513d6020811015610d8c57600080fd5b50511515610d9957600080fd5b336000818152600c602090815260409182902054825190815291517ff915f6adcfba53634fa63225573ad1f78d2f842387fe91379c27c14a259537cf9281900390910190a250565b600f60209081526000928352604080842090915290825290205481565b600a6020526000908152604090205460ff1681565b600080600180601d5460ff166004811115610e2a57fe5b14610e3457600080fd5b336000908152600a602052604090205460ff161515610e5257600080fd5b60165460ff161515610e6357600080fd5b6016805460ff19169055600092505b60095460ff841610156110d9576015600060098560ff16815481101515610e9557fe5b6000918252602080832090910154600160a060020a0316835282019290925260400190205460ff16156110ce5760006015600060098660ff16815481101515610eda57fe5b600091825260208083209190910154600160a060020a031683528201929092526040018120805460ff19169215159290921790915560098054600c92919060ff8716908110610f2557fe5b6000918252602080832090910154600160a060020a03168352820192909252604001812054600980549192600e9290919060ff8816908110610f6357fe5b6000918252602080832090910154600160a060020a0316835282019290925260400190205411156110ce57611016600c600060098660ff16815481101515610fa757fe5b6000918252602080832090910154600160a060020a03168352820192909252604001812054600980549192600e9290919060ff8916908110610fe557fe5b6000918252602080832090910154600160a060020a031683528201929092526040019020549063ffffffff612f6516565b60005460098054929450600160a060020a039091169163a9059cbb919060ff871690811061104057fe5b60009182526020808320909101546040805160e060020a63ffffffff8716028152600160a060020a039092166004830152602482018890525160448083019491928390030190829087803b15801561109757600080fd5b505af11580156110ab573d6000803e3d6000fd5b505050506040513d60208110156110c157600080fd5b505115156110ce57600080fd5b600190920191610e72565b60405133907fc42ff889a5bf104cb88fddd83f34d59c6162fb4c97c5c075d3e5143b977407d090600090a2505050565b60065481565b601a5481565b60008080808080600380601d5460ff16600481111561113057fe5b1461113a57600080fd5b601854611145612f7c565b101561115a57601854601a549650965061132b565b611189670de0b6b3a764000061117d600654601954612f8090919063ffffffff16565b9063ffffffff612fa916565b601a5411156111b2576004546018546111a79163ffffffff612fbe16565b96506000955061132b565b6000808052601b602052600080516020613a5483398151915254955093505b60095460ff851610156112695784601b600060098760ff168154811015156111f557fe5b6000918252602080832090910154600160a060020a03168352820192909252604001902054111561125e57601b600060098660ff1681548110151561123657fe5b6000918252602080832090910154600160a060020a0316835282019290925260400190205494505b6001909301926111d1565b6000808052601b602052600080516020613a5483398151915254909350851415611294578260010192505b600091505b60095460ff831610156112fa5784601b600060098560ff168154811015156112bd57fe5b6000918252602080832090910154600160a060020a0316835282019290925260400190205414156112ef578260010192505b600190910190611299565b60018360ff161115611320576111a7600454611314612f7c565b9063ffffffff612fbe16565b601854601a54965096505b50505050509091565b60146020526000908152604090205460ff1681565b600054600160a060020a031681565b610b11338383612fcb565b600980548290811061137157fe5b600091825260209091200154600160a060020a0316905081565b600054600160a060020a031633146113a257600080fd5b610a7f838383612fcb565b60136020526000908152604090205460ff1681565b60156020526000908152604090205460ff1681565b60008080600380601d5460ff1660048111156113ef57fe5b146113f957600080fd5b336000908152600a602052604090205460ff16151561141757600080fd5b60095485511461142657600080fd5b601754611431612f7c565b1061143b57600080fd5b6000935060009250600091505b60095460ff8316101561154057848260ff1681518110151561146657fe5b6020908102909101810151336000908152600f90925260408220600980549293919260ff871690811061149557fe5b6000918252602080832090910154600160a060020a0316835282019290925260400190205584516114e690869060ff85169081106114cf57fe5b60209081029091010151859063ffffffff612fbe16565b9350611533600c600060098560ff1681548110151561150157fe5b6000918252602080832090910154600160a060020a03168352820192909252604001902054849063ffffffff612fbe16565b9250600190910190611448565b83831461154c57600080fd5b604080516020808252875181830152875133937fe98983adb63591508c2f748970470e7487b3bebd763d08abc3334beeb72a00b0938a9390928392830191808601910280838360005b838110156115ad578181015183820152602001611595565b505050509050019250505060405180910390a25050505050565b601b6020526000908152604090205481565b60165460ff1681565b610afe336133f3565b6000808052601b602052600080516020613a548339815191525481805b60095460ff821610156116c757601b600060098360ff1681548110151561162b57fe5b6000918252602080832090910154600160a060020a031683528201929092526040019020548310156116bf57601b600060098360ff1681548110151561166d57fe5b6000918252602080832090910154600160a060020a03168352820192909252604001902054600980549194509060ff83169081106116a757fe5b600091825260209091200154600160a060020a031691505b600101611608565b5092915050565b600080600180601d5460ff1660048111156116e557fe5b146116ef57600080fd5b336000908152600a602052604090205460ff16151561170d57600080fd5b3360009081526013602052604090205460ff161561172a57600080fd5b336000908152601360205260409020805460ff1916600117905560165460ff161561175757611757610e13565b60019250600091505b60095460ff831610156117c1578280156117b457506013600060098460ff1681548110151561178b57fe5b6000918252602080832090910154600160a060020a0316835282019290925260400190205460ff165b9250600190910190611760565b82156117d1576117d16002613945565b60405133907fcdfedae112bb2610775e69a6ffd348e7dfdd996e3fb3a5f6d46b52651867b49790600090a2505050565b60175481565b600d6020526000908152604090205481565b600080600280601d5460ff16600481111561183057fe5b1461183a57600080fd5b336000908152600a602052604090205460ff16151561185857600080fd5b3360009081526014602052604090205460ff161561187557600080fd5b336000818152601460209081526040808320805460ff191660011790558254600b83528184205482517fa9059cbb000000000000000000000000000000000000000000000000000000008152600481019690965260248601529051600160a060020a03919091169363a9059cbb9360448083019493928390030190829087803b15801561190157600080fd5b505af1158015611915573d6000803e3d6000fd5b505050506040513d602081101561192b57600080fd5b5051151561193857600080fd5b60019250600091505b60095460ff831610156119e4578280156119d757506014600060098460ff1681548110151561196c57fe5b6000918252602080832090910154600160a060020a0316835282019290925260400190205460ff16806119d75750600b600060098460ff168154811015156119b057fe5b6000918252602080832090910154600160a060020a03168352820192909252604001902054155b9250600190910190611941565b336000818152600b602090815260409182902054825190815291517f76cc4dd05e1fc280969f3363b5db432911cddfadcfae9bef818a492c0f8d57329281900390910190a28215610a7f57610a7f6004613945565b60085481565b600180601d5460ff166004811115611a5357fe5b14611a5d57600080fd5b336000908152600a602052604090205460ff161515611a7b57600080fd5b3360009081526013602052604090205460ff161515611a9957600080fd5b33600081815260136020526040808220805460ff19169055517f6faffafe1cb6a0bf26e66cc0178734aa9fe07d7c6961884c4a93920423c0bd0e9190a250565b600054600160a060020a03163314611af057600080fd5b610a7f838383612b56565b60045481565b600080600080611b0f6115eb565b600160a060020a03166000908152600f6020908152604080832033845282528083205460149092529091205460ff169590945092505050565b600e6020526000908152604090205481565b60126020526000908152604090205460ff1681565b601d5460ff1681565b6000808080808080808080600380601d5460ff166004811115611b9757fe5b14611ba157600080fd5b611ba9611115565b601854919c509a508b14611c0057601854604080518d8152602081019290925280517f04e9f9a05f2b0f7b76cbaeafc40a3136a1870f82f8eff85e766f7eb868a8b9e09281900390910190a160188b9055601a8a90555b600554601854611c159163ffffffff612fbe16565b611c1d612f7c565b1015611c2857600080fd5b611c30610b38565b600160a060020a0382166000908152601b6020526040902054601954929b50909950611c62919063ffffffff612f6516565b600160a060020a0389166000908152601b602052604081205491985090965094508615611c9657611c9387876139d6565b94505b60009350600092508c91505b336000908152601c60209081526040808320600160a060020a038d168452909152902054611cd0908d6139fb565b821015611ef757336000908152601c60209081526040808320600160a060020a038d1684529091529020805483908110611d0657fe5b600091825260209091206002600390920201015460ff161515611eec57336000908152601c60209081526040808320600160a060020a038d168452909152902080546001919084908110611d5657fe5b60009182526020808320600392909202909101600201805460ff191693151593909317909255338152601c82526040808220600160a060020a038d168352909252208054611dc7919084908110611da957fe5b6000918252602090912060039091020154849063ffffffff612fbe16565b336000908152601c60209081526040808320600160a060020a038e16845290915290208054919450879184908110611dfb57fe5b9060005260206000209060030201600101541015611eec57336000908152601c60209081526040808320600160a060020a038d16845290915290208054611ee991611edc91611e70919086908110611e4f57fe5b90600052602060002090600302016001015489612f6590919063ffffffff16565b601c600033600160a060020a0316600160a060020a0316815260200190815260200160002060008d600160a060020a0316600160a060020a0316815260200190815260200160002085815481101515611ec557fe5b9060005260206000209060030201600001546139fb565b859063ffffffff612fbe16565b93505b600190910190611ca2565b600054600160a060020a031663a9059cbb33611f23611f16888a613a11565b879063ffffffff612fbe16565b6040518363ffffffff1660e060020a0281526004018083600160a060020a0316600160a060020a0316815260200182815260200192505050602060405180830381600087803b158015611f7557600080fd5b505af1158015611f89573d6000803e3d6000fd5b505050506040513d6020811015611f9f57600080fd5b50511515611fac57600080fd5b337f49329039ffba66f8761d4a6d68b169063aa8f3a76a256007f5d55ceecf9be82484611fd98789613a11565b6040805192835260208301919091528051918290030190a250505050505050505050505050565b600080600080600080600080612014612f7c565b9450601854891015612031576000856018549750975097506121dc565b6000808052601b602052600080516020613a5483398151915254945092505b60095460ff841610156120e85783601b600060098660ff1681548110151561207457fe5b6000918252602080832090910154600160a060020a0316835282019290925260400190205411156120dd57601b600060098560ff168154811015156120b557fe5b6000918252602080832090910154600160a060020a0316835282019290925260400190205493505b600190920191612050565b6000808052601b602052600080516020613a5483398151915254909250841415612113578160010191505b5060005b60095460ff821610156121755783601b600060098460ff1681548110151561213b57fe5b6000918252602080832090910154600160a060020a03168352820192909252604001902054141561216d578160010191505b600101612117565b60018260ff161115612192576000856018549750975097506121dc565b6121b5670de0b6b3a764000061117d600654601954612f8090919063ffffffff16565b601a5411156121cf576000856018549750975097506121dc565b6001856018549750975097505b50505050509193909250565b6000808080600380601d5460ff16600481111561220157fe5b1461220b57600080fd5b336000908152600a602052604090205460ff16151561222957600080fd5b612231611115565b601854919650945085146122885760185460408051878152602081019290925280517f04e9f9a05f2b0f7b76cbaeafc40a3136a1870f82f8eff85e766f7eb868a8b9e09281900390910190a16018859055601a8490555b601854612293612f7c565b101561229e57600080fd5b3360009081526014602052604090205460ff16156122bb57600080fd5b336000908152601460205260409020805460ff191660011790556122dd6115eb565b600160a060020a038082166000908152600f602090815260408083203380855290835281842054845483517fa9059cbb0000000000000000000000000000000000000000000000000000000081526004810193909352602483018290529251969950975093169363a9059cbb93604480820194918390030190829087803b15801561236757600080fd5b505af115801561237b573d6000803e3d6000fd5b505050506040513d602081101561239157600080fd5b5051151561239e57600080fd5b60408051838152905133917f529314119e568ebeb046e7fb288642e03aea33279f2f6762afd0e56a74c7aa42919081900360200190a25050505050565b60035481565b600054600160a060020a031633146123f857600080fd5b610b35816133f3565b60008080808080808080808080612416610b38565b600554601854929a50909850612432919063ffffffff612fbe16565b61243a612f7c565b1015612449576001995061244e565b600299505b600160a060020a0388166000908152601b60205260409020546019546124799163ffffffff612f6516565b600160a060020a0388166000908152601b6020526040812054919750909550935085156124ad576124aa86866139d6565b93505b50600091508190508c5b336000908152601c60209081526040808320600160a060020a038c1684529091529020546124e5908e6139fb565b81101561267e57336000908152601c60209081526040808320600160a060020a038c168452909152902080548290811061251b57fe5b600091825260209091206002600390920201015460ff161561253c57600399505b336000908152601c60209081526040808320600160a060020a038c1684529091529020805461258e91908390811061257057fe5b6000918252602090912060039091020154839063ffffffff612fbe16565b336000908152601c60209081526040808320600160a060020a038d168452909152902080549193508691839081106125c257fe5b906000526020600020906003020160010154101561267657336000908152601c60209081526040808320600160a060020a038c16845290915290208054612673916126669161263791908590811061261657fe5b90600052602060002090600302016001015488612f6590919063ffffffff16565b336000908152601c60209081526040808320600160a060020a038f1684529091529020805485908110611ec557fe5b849063ffffffff612fbe16565b92505b6001016124b7565b61269861268b8486613a11565b839063ffffffff612fbe16565b98508815156126a657600099505b50979c969b50959950505050505050505050565b60008080600180601d5460ff1660048111156126d257fe5b146126dc57600080fd5b600160a060020a0388166000908152600a6020526040902054889060ff16151561270557600080fd5b60165460ff161561271557600080fd5b6016805460ff19166001179055600954885114801561273657506009548751145b151561274157600080fd5b6000945060009350600092505b60095460ff8416101561285657878360ff1681518110151561276c57fe5b90602001906020020151600d600060098660ff1681548110151561278c57fe5b6000918252602080832090910154600160a060020a031683528201929092526040019020558651879060ff85169081106127c257fe5b90602001906020020151600e600060098660ff168154811015156127e257fe5b6000918252602080832090910154600160a060020a03168352820192909252604001902055875161281c90899060ff86169081106114cf57fe5b9350612849878460ff1681518110151561283257fe5b60209081029091010151869063ffffffff612fbe16565b945060019092019161274e565b84841461286257600080fd5b6011869055612870896133f3565b88600160a060020a03167fd33aabc7fc9a1f5861dc19acc754cc8fe8c4400063f1e32d2bf90ac64b628daf8989896040518080602001806020018460001916600019168152602001838103835286818151815260200191508051906020019060200280838360005b838110156128f05781810151838201526020016128d8565b50505050905001838103825285818151815260200191508051906020019060200280838360005b8381101561292f578181015183820152602001612917565b505050509050019550505050505060405180910390a2505050505050505050565b6000808080601d5460ff16600481111561296657fe5b1461297057600080fd5b600160a060020a0384166000908152600a6020526040902054849060ff16151561299957600080fd5b600160a060020a03851660009081526012602052604090205460ff16156129bf57600080fd5b600160a060020a038086166000818152601260209081526040808320805460ff191660011790558254600c83528184205482517f23b872dd0000000000000000000000000000000000000000000000000000000081526004810196909652306024870152604486015290519416936323b872dd93606480820194918390030190829087803b158015612a5057600080fd5b505af1158015612a64573d6000803e3d6000fd5b505050506040513d6020811015612a7a57600080fd5b50511515612a8757600080fd5b60019350600092505b60095460ff84161015612af157838015612ae457506012600060098560ff16815481101515612abb57fe5b6000918252602080832090910154600160a060020a0316835282019290925260400190205460ff165b9350600190920191612a90565b8315612b0157612b016001613945565b600160a060020a0385166000818152600c602090815260409182902054825190815291517fa8cc9409769b9614f3ae4056957bfbb32d986e4b61c886b5e29b324b5bf92d0a9281900390910190a25050505050565b600080808080600180601d5460ff166004811115612b7057fe5b14612b7a57600080fd5b600160a060020a0389166000908152600a6020526040902054899060ff161515612ba357600080fd5b600954885114612bb257600080fd5b60165460ff1615612bc557612bc5610e13565b612bcf6003613945565b6000965060009550600094505b60095460ff86161015612ce857878560ff16815181101515612bfa57fe5b90602001906020020151600f60008c600160a060020a0316600160a060020a03168152602001908152602001600020600060098860ff16815481101515612c3d57fe5b6000918252602080832090910154600160a060020a031683528201929092526040019020558751612c8e90899060ff8816908110612c7757fe5b60209081029091010151889063ffffffff612fbe16565b9650612cdb600c600060098860ff16815481101515612ca957fe5b6000918252602080832090910154600160a060020a03168352820192909252604001902054879063ffffffff612fbe16565b9550600190940193612bdc565b868614612cf457600080fd5b612d15670de0b6b3a764000061117d60075489612f8090919063ffffffff16565b891015612d2157600080fd5b612d34612d2c612f7c565b600254612fbe565b6017819055600154612d469190612fbe565b601855600093505b60095460ff85161015612e115789600160a060020a031660098560ff16815481101515612d7757fe5b600091825260209091200154600160a060020a031614612e065785600f600060098760ff16815481101515612da857fe5b6000918252602080832090910154600160a060020a0316835282019290925260400181206009805491929160ff8916908110612de057fe5b6000918252602080832090910154600160a060020a031683528201929092526040019020555b600190930192612d4e565b600092505b60095460ff84161015612ecf57600c600060098560ff16815481101515612e3957fe5b6000918252602080832090910154600160a060020a03168352828101939093526040909101812054818052600f909252600980547ff4803e074bd026baaf6ed2e288c9515f68c72fb7216eebdd7cae1718a53ec37592919060ff8816908110612e9e57fe5b6000918252602080832090910154600160a060020a0316835282019290925260400190205560019290920191612e16565b89600160a060020a03167f978fff33bfee4716da21bf89e67d0757d6550d4b6f53676919de1d1d209f5ef0896040518080602001828103825283818151815260200191508051906020019060200280838360005b83811015612f3b578181015183820152602001612f23565b505050509050019250505060405180910390a2612f598a8b8b612fcb565b50505050505050505050565b600082821115612f7157fe5b508082035b92915050565b4290565b6000821515612f9157506000612f76565b50818102818382811515612fa157fe5b0414612f7657fe5b60008183811515612fb657fe5b049392505050565b81810182811015612f7657fe5b600080600080612fd9613a2f565b600380601d5460ff166004811115612fed57fe5b14612ff757600080fd5b612fff611115565b601854919750955086146130565760185460408051888152602081019290925280517f04e9f9a05f2b0f7b76cbaeafc40a3136a1870f82f8eff85e766f7eb868a8b9e09281900390910190a16018869055601a8590555b601854613061612f7c565b1061306b57600080fd5b601754613076612f7c565b10158061309b5750600160a060020a0389166000908152600a602052604090205460ff165b15156130a657600080fd5b600160a060020a0388166000908152600a602052604090205460ff16806130d45750600160a060020a038816155b15156130df57600080fd5b613102670de0b6b3a764000061117d600754601954612f8090919063ffffffff16565b87101561310e57600080fd5b601954156131f85761311e610b38565b9094509250600160a060020a03888116908516141561319a57600160a060020a0383166000908152601b602052604090205461316190600263ffffffff612f8016565b600160a060020a0389166000908152601b602052604090205461318a908963ffffffff612fbe16565b111561319557600080fd5b6131f8565b600160a060020a0384166000908152601b60205260409020546131c490600263ffffffff612f8016565b600160a060020a0389166000908152601b60205260409020546131ed908963ffffffff612fbe16565b11156131f857600080fd5b60408051606081018252888152600160a060020a03808b166000908152601b60209081528482205481850152838501829052815485517f23b872dd0000000000000000000000000000000000000000000000000000000081528f85166004820152306024820152604481018e90529551949750909216936323b872dd936064808301949391928390030190829087803b15801561329457600080fd5b505af11580156132a8573d6000803e3d6000fd5b505050506040513d60208110156132be57600080fd5b505115156132cb57600080fd5b6018546132e09061070863ffffffff612f6516565b6132e8612f7c565b1061330457601a54613300908863ffffffff612fbe16565b601a555b601954613317908863ffffffff612fbe16565b601955600160a060020a0388166000908152601b6020526040902054613343908863ffffffff612fbe16565b600160a060020a038981166000818152601b6020908152604080832095909555928d16808252601c845284822083835284528482208054600180820183559184529285902088516003909402019283558785015190830155868501516002909201805460ff19169215159290921790915583518b81529351919390927f484413c33463e7d976e3ded2a85b0c31610d0906977df2cd9cbd6d12a6872a8492918290030190a3505050505050505050565b600080808080600180601d5460ff16600481111561340d57fe5b1461341757600080fd5b600160a060020a0387166000908152600a6020526040902054879060ff16151561344057600080fd5b60165460ff16151561345157600080fd5b600160a060020a03881660009081526015602052604090205460ff161561347757600080fd5b600160a060020a0388166000908152601560209081526040808320805460ff19166001179055600c825280832054600e90925290912054111561359857600160a060020a0388166000908152600c6020908152604080832054600e909252909120546134e89163ffffffff612f6516565b60008054604080517f23b872dd000000000000000000000000000000000000000000000000000000008152600160a060020a038d81166004830152306024830152604482018690529151949b509116926323b872dd92606480840193602093929083900390910190829087803b15801561356157600080fd5b505af1158015613575573d6000803e3d6000fd5b505050506040513d602081101561358b57600080fd5b5051151561359857600080fd5b604051600160a060020a038916907fa49e1bf6eca68fcbe0f530f9389e60870664cb4b8cd290ade9d0fe3b7c4d9c7590600090a260019550600094505b60095460ff861610156136365785801561362957506015600060098760ff1681548110151561360057fe5b6000918252602080832090910154600160a060020a0316835282019290925260400190205460ff165b95506001909401936135d5565b851561393b576016805460ff19169055600093505b60095460ff851610156139345760006015600060098760ff1681548110151561367057fe5b600091825260208083209190910154600160a060020a031683528201929092526040018120805460ff19169215159290921790915560098054600c92919060ff88169081106136bb57fe5b6000918252602080832090910154600160a060020a03168352820192909252604001812054600980549192600e9290919060ff89169081106136f957fe5b6000918252602080832090910154600160a060020a0316835282019290925260400190205410156138335761377b600e600060098760ff1681548110151561373d57fe5b6000918252602080832090910154600160a060020a03168352820192909252604001812054600980549192600c9290919060ff8a16908110610fe557fe5b60005460098054929550600160a060020a039091169163a9059cbb919060ff88169081106137a557fe5b60009182526020808320909101546040805160e060020a63ffffffff8716028152600160a060020a039092166004830152602482018990525160448083019491928390030190829087803b1580156137fc57600080fd5b505af1158015613810573d6000803e3d6000fd5b505050506040513d602081101561382657600080fd5b5051151561383357600080fd5b600e600060098660ff1681548110151561384957fe5b6000918252602080832090910154600160a060020a03168352820192909252604001812054600980549192600c9290919060ff891690811061388757fe5b6000918252602080832090910154600160a060020a0316835282019290925260400181209190915560098054600d92919060ff88169081106138c557fe5b6000918252602080832090910154600160a060020a03168352820192909252604001812054600980549192600b9290919060ff891690811061390357fe5b6000918252602080832090910154600160a060020a031683528201929092526040019020556001939093019261364b565b6011546010555b5050505050505050565b601d547f7a86a836fcb7b1724e95db8cca29b460e17febee51b6f03e272720350340352e9060ff1682613976612f7c565b6040518084600481111561398657fe5b60ff16815260200183600481111561399a57fe5b60ff168152602001828152602001935050505060405180910390a1601d805482919060ff191660018360048111156139ce57fe5b021790555050565b60006139f48261117d85670de0b6b3a764000063ffffffff612f8016565b9392505050565b6000818310613a0a57816139f4565b5090919050565b60006139f4670de0b6b3a764000061117d858563ffffffff612f8016565b606060405190810160405280600081526020016000815260200160001515815250905600584f46c60af19681376031579adb04a2416e54ee5505351c2a8435e3766026eaa165627a7a7230582073ada0578b8775b3f745c7ba8da0628e5cb8baef4791aba4c23cdbd020d6c65f0029",
  "source": "pragma solidity ^0.4.23;\n\nimport \"openzeppelin-solidity/contracts/token/ERC20/ERC20.sol\";\nimport \"openzeppelin-solidity/contracts/math/SafeMath.sol\";\nimport \"openzeppelin-solidity/contracts/math/Math.sol\";\n\ncontract Arbitration {\n  using SafeMath for uint256;\n\n  event StateChange(State _oldState, State _newState, uint256 _timestamp);\n  event ContractCreated(address indexed _party1, address indexed _party2, uint256[] _dispersal, uint256[] _funding, bytes32 _agreementHash);\n  event ContractSigned(address indexed _party, uint256 _funding);\n  event ContractUnsigned(address indexed _party, uint256 _funding);\n  event ContractAgreed(address indexed _party);\n  event ContractUnagreed(address indexed _party);\n  event ContractAmendmentProposed(address indexed _party, uint256[] _dispersal, uint256[] _funding, bytes32 _agreementHash);\n  event ContractAmendmentAgreed(address indexed _party);\n  event ContractAmendmentUnagreed(address indexed _party);\n  event ContractWithdrawn(address indexed _party, uint256 _dispersal);\n  event ContractDisputed(address indexed _party, uint256[] _dispersal);\n  event ContractDisputeDispersalAmended(address indexed _party, uint256[] _dispersal);\n\n  event DisputeEndsAdjusted(uint256 _oldDisputeEnds, uint256 _newDisputeEnds);\n\n  event VoteCast(address indexed _voter, address indexed _party, uint256 _amount);\n  event VoterPayout(address indexed _voter, uint256 _stakedAmount, uint256 _rewardAmount);\n  event PartyPayout(address indexed _party, uint256 _dispersalAmount);\n\n  //Token for escrow & voting\n  ERC20 public jurToken;\n\n  //Globals - could be pulled from factory contract or passed in to constructor\n  uint256 public DISPUTE_VOTE_DURATION = 7 days; // minimum dispute time\n  uint256 public DISPUTE_DISPERSAL_DURATION = 2 days; // time for counterpart to submit dispute resolution proposal\n  uint256 public DISPUTE_WINDOW = 30 minutes; // time window where to check last minute votes\n  uint256 public DISPUTE_EXTENSION = 24 hours; // a dispute gets extended by this much if there are the tie conditions or more than x%\n  uint256 public VOTE_LOCKUP = 24 hours; // amount of time users must wait to withdraw their rewards\n  uint256 public DISPUTE_WINDOW_MAX = 5 * 10**16; // percentage of last minute votes to trigger extension\n  uint256 public MIN_VOTE = 1 * 10**16; // minimum vote possible is 1% of total votes at the time of voting\n  uint256 public MIN_WIN = 1 * 10**16; //percentage multiplied by 10**16\n\n  //Agreement Details\n  address[] public allParties;\n  mapping (address => bool) public parties;\n  mapping (address => uint256) public dispersal;\n  mapping (address => uint256) public funding;\n  mapping (address => uint256) public amendedDispersal;\n  mapping (address => uint256) public amendedFunding;\n  mapping (address => mapping (address => uint256)) public disputeDispersal;\n  bytes32 public agreementHash;\n  bytes32 public amendedAgreementHash;\n\n  //User granularity state tracking\n  mapping (address => bool) public hasSigned;\n  mapping (address => bool) public hasAgreed;\n  mapping (address => bool) public hasWithdrawn;\n  mapping (address => bool) public hasFundedAmendment;\n  bool public amendmentProposed;\n\n  //Dispute / voting parameters\n  uint256 public disputeStarts;\n  uint256 public disputeEnds;\n  uint256 public totalVotes;\n  uint256 public disputeWindowVotes;\n  mapping (address => uint256) public partyVotes;\n  mapping (address => mapping (address => Vote[])) userVotes;\n\n  struct Vote {\n    uint256 amount;\n    uint256 previousVotes;\n    bool claimed;\n  }\n\n  //Initialise state\n  enum State {Unsigned, Signed, Agreed, Dispute, Closed}\n  State public state = State.Unsigned;\n\n  //Decimals used for voting token\n  uint256 constant DECIMALS = 10 ** 18;\n\n  modifier onlyParties {\n    require(parties[msg.sender]);\n    _;\n  }\n\n  modifier isParty(address _sender) {\n    require(parties[_sender]);\n    _;\n  }\n\n  modifier hasState(State _state) {\n    require(state == _state);\n    _;\n  }\n\n  modifier onlyJUR {\n    require(msg.sender == address(jurToken));\n    _;\n  }\n\n  /**\n   * @dev Constructor\n   * @param _jurToken Address of the JUR token\n   * @param _parties Addresses of parties involved in arbitration\n   * @param _dispersal Dispersal of funds if arbitration agreed\n   * @param _funding Source of funds for arbitration\n   * @param _agreementHash Hash of arbitration agreement\n   */\n  constructor(address _jurToken, address[] _parties, uint256[] _dispersal, uint256[] _funding, bytes32 _agreementHash) public {\n\n    //Check that we are only setting up an arbitration between two parties\n    require((_dispersal.length == 2) && (_funding.length == 2) && (_parties.length == 2));\n\n    //Check that party addresses are valid\n    require((_parties[0] != 0x0) && (_parties[1] != 0x0));\n\n    //Check that dispersals match funding and initialise mappings\n    uint256 totalFunding = 0;\n    uint256 totalDispersal = 0;\n    for (uint8 i = 0; i < _parties.length; i++) {\n      parties[_parties[i]] = true;\n      dispersal[_parties[i]] = _dispersal[i];\n      funding[_parties[i]] = _funding[i];\n      totalDispersal = totalDispersal.add(_dispersal[i]);\n      totalFunding = totalFunding.add(_funding[i]);\n    }\n    require(totalFunding == totalDispersal);\n    allParties = _parties;\n    agreementHash = _agreementHash;\n\n    //Initialise JUR token\n    jurToken = ERC20(_jurToken);\n\n    emit ContractCreated(_parties[0], _parties[1], _dispersal, _funding, _agreementHash);\n  }\n\n  function setState(State _state) internal {\n    emit StateChange(state, _state, getNow());\n    state = _state;\n  }\n\n  //Functions to sign and unsign contract\n\n  /**\n   * @dev Allows sender to sign agreeement\n   */\n  function sign() public {\n    _sign(msg.sender);\n  }\n\n  /**\n   * @dev Allows sender to sign agreeement using approve and call\n   * @param _sender Address of signing party\n   */\n  function signJUR(address _sender) public onlyJUR {\n    _sign(_sender);\n  }\n\n  function _sign(address _sender) internal hasState(State.Unsigned) isParty(_sender) {\n    require(!hasSigned[_sender]);\n    hasSigned[_sender] = true;\n    require(jurToken.transferFrom(_sender, address(this), funding[_sender]));\n    bool allSigned = true;\n    for (uint8 i = 0; i < allParties.length; i++) {\n      allSigned = allSigned && hasSigned[allParties[i]];\n    }\n    if (allSigned) {\n      setState(State.Signed);\n    }\n    emit ContractSigned(_sender, funding[_sender]);\n  }\n\n  /**\n   * @dev Allows sender to unsign agreeement\n   */\n  function unsign() public hasState(State.Unsigned) onlyParties {\n    require(hasSigned[msg.sender]);\n    hasSigned[msg.sender] = false;\n    require(jurToken.transfer(msg.sender, funding[msg.sender]));\n    emit ContractUnsigned(msg.sender, funding[msg.sender]);\n  }\n\n  //Functions to agree / unagree contract\n\n  /**\n   * @dev Allows sender to agree dispersals (so that funds can be dispursed)\n   */\n  function agree() public hasState(State.Signed) onlyParties {\n    require(!hasAgreed[msg.sender]);\n    hasAgreed[msg.sender] = true;\n    // If there is an amendment proposed, but not agreed refund all amendment funds\n    if (amendmentProposed) {\n      unagreeAmendment();\n    }\n    bool allAgreed = true;\n    for (uint8 i = 0; i < allParties.length; i++) {\n      allAgreed = allAgreed && hasAgreed[allParties[i]];\n    }\n    if (allAgreed) {\n      setState(State.Agreed);\n    }\n    emit ContractAgreed(msg.sender);\n  }\n\n  /**\n   * @dev Allows sender to unagree dispersals (so that funds cannot be dispursed)\n   */\n  function unagree() public hasState(State.Signed) onlyParties {\n    require(hasAgreed[msg.sender]);\n    hasAgreed[msg.sender] = false;\n    emit ContractUnagreed(msg.sender);\n  }\n\n  //Functions to propose a new dispersals / funding\n\n  /**\n   * @dev Allows sender to propose a new dispersal and agreement hash\n   * @param _dispersal Dispersal of funds if arbitration agreed\n   * @param _funding Source of funds for arbitration\n   * @param _agreementHash Hash of arbitration agreement\n   */\n  function proposeAmendment(uint256[] _dispersal, uint256[] _funding, bytes32 _agreementHash) public {\n    _proposeAmendment(msg.sender, _dispersal, _funding, _agreementHash);\n  }\n\n  /**\n   * @dev Allows sender to propose a new dispersal and agreement hash using approve and call\n   * @param _sender Address of amending party\n   * @param _dispersal Dispersal of funds if arbitration agreed\n   * @param _funding Source of funds for arbitration\n   * @param _agreementHash Hash of arbitration agreement\n   */\n  function proposeAmendmentJUR(address _sender, uint256[] _dispersal, uint256[] _funding, bytes32 _agreementHash) public onlyJUR {\n    _proposeAmendment(_sender, _dispersal, _funding, _agreementHash);\n  }\n\n  function _proposeAmendment(address _sender, uint256[] _dispersal, uint256[] _funding, bytes32 _agreementHash) internal hasState(State.Signed) isParty(_sender) {\n    //There can only be one proposed amendment at a time\n    require(!amendmentProposed);\n    amendmentProposed = true;\n    require((_dispersal.length == allParties.length) && (_funding.length == allParties.length));\n    uint256 totalFunding = 0;\n    uint256 totalDispersal = 0;\n    for (uint8 i = 0; i < allParties.length; i++) {\n      amendedDispersal[allParties[i]] = _dispersal[i];\n      amendedFunding[allParties[i]] = _funding[i];\n      totalDispersal = totalDispersal.add(_dispersal[i]);\n      totalFunding = totalFunding.add(_funding[i]);\n    }\n    require(totalFunding == totalDispersal);\n    amendedAgreementHash = _agreementHash;\n    //Must pay any excess dispersal required\n    _agreeAmendment(_sender);\n    emit ContractAmendmentProposed(_sender, _dispersal, _funding, _agreementHash);\n  }\n\n  //Functions to agree or unagree a new amendment\n\n  /**\n   * @dev Allows sender to agree an amendment to dispersals and agreement hash\n   */\n  function agreeAmendment() public {\n    _agreeAmendment(msg.sender);\n  }\n\n  /**\n   * @dev Allows sender to agree an amendment to dispersals and agreement hash using approve and call\n   * @param _sender Address of amendment agreeing party\n   */\n  function agreeAmendmentJUR(address _sender) public onlyJUR {\n    _agreeAmendment(_sender);\n  }\n\n  function _agreeAmendment(address _sender) internal hasState(State.Signed) isParty(_sender) {\n    require(amendmentProposed);\n    require(!hasFundedAmendment[_sender]);\n    hasFundedAmendment[_sender] = true;\n    if (amendedFunding[_sender] > funding[_sender]) {\n      uint256 deficit = amendedFunding[_sender].sub(funding[_sender]);\n      require(jurToken.transferFrom(_sender, address(this), deficit));\n    }\n    emit ContractAmendmentAgreed(_sender);\n    bool allFundedAmendment = true;\n    for (uint8 i = 0; i < allParties.length; i++) {\n      allFundedAmendment = allFundedAmendment && hasFundedAmendment[allParties[i]];\n    }\n    // If all parties have funded / agreed an amendment, refund any excess and reset proposals\n    if (allFundedAmendment) {\n      amendmentProposed = false;\n      for (uint8 j = 0; j < allParties.length; j++) {\n        hasFundedAmendment[allParties[j]] = false;\n        if (amendedFunding[allParties[j]] < funding[allParties[j]]) {\n          uint256 excess = funding[allParties[j]].sub(amendedFunding[allParties[j]]);\n          require(jurToken.transfer(allParties[j], excess));\n        }\n        funding[allParties[j]] = amendedFunding[allParties[j]];\n        dispersal[allParties[j]] = amendedDispersal[allParties[j]];\n      }\n      agreementHash = amendedAgreementHash;\n    }\n\n  }\n\n  /**\n   * @dev Allows sender to unagree an amendment to dispersals and agreement hash\n   */\n  function unagreeAmendment() public hasState(State.Signed) onlyParties {\n    //Could be done by original proposer, or other party\n    //If anyone disagrees, amendment is removed\n    require(amendmentProposed);\n    amendmentProposed = false;\n    //Refund any deficits paid\n    for (uint8 i = 0; i < allParties.length; i++) {\n      if (hasFundedAmendment[allParties[i]]) {\n        hasFundedAmendment[allParties[i]] = false;\n        if (amendedFunding[allParties[i]] > funding[allParties[i]]) {\n          uint256 excess = amendedFunding[allParties[i]].sub(funding[allParties[i]]);\n          require(jurToken.transfer(allParties[i], excess));\n        }\n      }\n    }\n    emit ContractAmendmentUnagreed(msg.sender);\n  }\n\n  /**\n   * @dev Once a contract has been agreed withdrawals dispersal amount\n   */\n  function withdrawDispersal() public hasState(State.Agreed) onlyParties {\n    require(!hasWithdrawn[msg.sender]);\n    hasWithdrawn[msg.sender] = true;\n    require(jurToken.transfer(msg.sender, dispersal[msg.sender]));\n    bool allWithdrawn = true;\n    for (uint8 i = 0; i < allParties.length; i++) {\n      allWithdrawn = allWithdrawn && (hasWithdrawn[allParties[i]] || (dispersal[allParties[i]] == 0));\n    }\n    emit ContractWithdrawn(msg.sender, dispersal[msg.sender]);\n    if (allWithdrawn) {\n      setState(State.Closed);\n    }\n  }\n\n  //Functions to initiate a dispute\n\n  /**\n   * @dev Allows sender to put the arbitration into a dispute State\n   * @param _voteAmount Amount of tokens to stake to the disputing parties side\n   * @param _dispersal Dispersal should the disputing party win\n   */\n  function dispute(uint256 _voteAmount, uint256[] _dispersal) public {\n    _dispute(msg.sender, _voteAmount, _dispersal);\n  }\n\n  /**\n   * @dev Allows sender to put the arbitration into a dispute State using approve and call\n   * @param _sender Address of disputing party\n   * @param _voteAmount Amount of tokens to stake to the disputing parties side\n   * @param _dispersal Dispersal should the disputing party win\n   */\n  function disputeJUR(address _sender, uint256 _voteAmount, uint256[] _dispersal) public onlyJUR {\n    _dispute(_sender, _voteAmount, _dispersal);\n  }\n\n  function _dispute(address _sender, uint256 _voteAmount, uint256[] _dispersal) internal hasState(State.Signed) isParty(_sender) {\n    require(_dispersal.length == allParties.length);\n    // If there is an amendment proposed, but not agreed refund all amendment funds\n    if (amendmentProposed) {\n      unagreeAmendment();\n    }\n    setState(State.Dispute);\n    uint256 totalDispersal = 0;\n    uint256 totalFunding = 0;\n    for (uint8 i = 0; i < allParties.length; i++) {\n      disputeDispersal[_sender][allParties[i]] = _dispersal[i];\n      totalDispersal = totalDispersal.add(_dispersal[i]);\n      totalFunding = totalFunding.add(funding[allParties[i]]);\n    }\n    require(totalDispersal == totalFunding);\n    require(_voteAmount >= totalFunding.mul(MIN_VOTE).div(10**18));\n    disputeStarts = SafeMath.add(getNow(), DISPUTE_DISPERSAL_DURATION);\n    disputeEnds = SafeMath.add(disputeStarts, DISPUTE_VOTE_DURATION);\n    //Default other parties dispute dispersals\n    for (uint8 j = 0; j < allParties.length; j++) {\n      if (allParties[j] != _sender) {\n        disputeDispersal[allParties[j]][allParties[j]] = totalFunding;\n      }\n    }\n    //Default reject option dispute dispersals\n    for (uint8 k = 0; k < allParties.length; k++) {\n      disputeDispersal[address(0)][allParties[k]] = funding[allParties[k]];\n    }\n    emit ContractDisputed(_sender, _dispersal);\n    _vote(_sender, _sender, _voteAmount);\n  }\n\n  /**\n   * @dev Allows sender to amend their dispersals should they win\n   * @param _dispersal Dispersal should the disputing party win\n   */\n  function amendDisputeDispersal(uint256[] _dispersal) public hasState(State.Dispute) onlyParties {\n    require(_dispersal.length == allParties.length);\n    require(getNow() < disputeStarts);\n    uint256 totalDispersal = 0;\n    uint256 totalFunding = 0;\n    for (uint8 i = 0; i < allParties.length; i++) {\n      disputeDispersal[msg.sender][allParties[i]] = _dispersal[i];\n      totalDispersal = totalDispersal.add(_dispersal[i]);\n      totalFunding = totalFunding.add(funding[allParties[i]]);\n    }\n    require(totalDispersal == totalFunding);\n    emit ContractDisputeDispersalAmended(msg.sender, _dispersal);\n  }\n\n  /**\n   * @dev Calculates the current end time of the voting period\n   */\n  function calcDisputeEnds() public view hasState(State.Dispute) returns(uint256, uint256) {\n    //Extend dispute period if:\n    //  - vote is tied\n    //  - more than 5% of votes places in last 30 minutes of dispute period\n    if (getNow() < disputeEnds) {\n      return (disputeEnds, disputeWindowVotes);\n    }\n    if (disputeWindowVotes > totalVotes.mul(DISPUTE_WINDOW_MAX).div(10**18)) {\n      //disputeWindowVotes = 0;\n      return (disputeEnds.add(DISPUTE_EXTENSION), 0);\n    }\n    uint256 winningVotes = partyVotes[address(0)];\n    for (uint8 i = 0; i < allParties.length; i++) {\n      if (partyVotes[allParties[i]] > winningVotes) {\n        winningVotes = partyVotes[allParties[i]];\n      }\n    }\n    uint8 countWinners = 0;\n    if (partyVotes[address(0)] == winningVotes) {\n      countWinners = countWinners + 1;\n    }\n    for (uint8 j = 0; j < allParties.length; j++) {\n      if (partyVotes[allParties[j]] == winningVotes) {\n        countWinners = countWinners + 1;\n      }\n    }\n    if (countWinners > 1) {\n      //disputeWindowVotes = 0;\n      //New end time is calculated from now\n      return (getNow().add(DISPUTE_EXTENSION), 0);\n    }\n    return (disputeEnds, disputeWindowVotes);\n  }\n\n\n  /**\n   * @dev Calculates if current dispute is closed\n   */\n  function isClosed(uint256 _currentTimestamp) public view returns (bool, uint256, uint256) {\n    //Extend dispute period if:\n    //  - vote is tied\n    //  - more than 5% of votes places in last 30 minutes of dispute period\n\n    uint256 _now = getNow();\n\n    if (_currentTimestamp < disputeEnds) {\n      return (false, _now, disputeEnds);\n    }\n\n    // check for tie\n    uint256 winningVotes = partyVotes[address(0)];\n    for (uint8 i = 0; i < allParties.length; i++) {\n      if (partyVotes[allParties[i]] > winningVotes) {\n        winningVotes = partyVotes[allParties[i]];\n      }\n    }\n    uint8 countWinners = 0;\n    if (partyVotes[address(0)] == winningVotes) {\n      countWinners = countWinners + 1;\n    }\n    for (uint8 j = 0; j < allParties.length; j++) {\n      if (partyVotes[allParties[j]] == winningVotes) {\n        countWinners = countWinners + 1;\n      }\n    }\n    if (countWinners > 1) {\n      return (false, _now, disputeEnds);\n    }\n\n    // check if more than 5% of votes places in last 30 minutes of dispute period\n    if (disputeWindowVotes > totalVotes.mul(DISPUTE_WINDOW_MAX).div(10**18)) {\n      //disputeWindowVotes = 0;\n      return (false, _now, disputeEnds);\n    }\n\n    \n\n    return (true, _now, disputeEnds);\n  }\n\n\n  //Functions to allow voting on disputed agreements\n\n  /**\n   * @dev Allows sender to vote\n   * @param _voteAddress Address of party who is being voted for (0 for reject option)\n   * @param _voteAmount Amount of tokens to stake to the _voteAddress side\n   */\n  function vote(address _voteAddress, uint256 _voteAmount) public {\n    _vote(msg.sender, _voteAddress, _voteAmount);\n  }\n\n  /**\n   * @dev Allows sender to vote using approve and call\n   * @param _sender Address of voting party\n   * @param _voteAddress Address of party who is being voted for (0 for reject option)\n   * @param _voteAmount Amount of tokens to stake to the _voteAddress side\n   */\n  function voteJUR(address _sender, address _voteAddress, uint256 _voteAmount) public onlyJUR {\n    _vote(_sender, _voteAddress, _voteAmount);\n  }\n\n  function _vote(address _sender, address _voteAddress, uint256 _voteAmount) internal hasState(State.Dispute) {\n    (uint256 newDisputeEnds, uint256 newDisputeWindowVotes) = calcDisputeEnds();\n    if (newDisputeEnds != disputeEnds) {\n      emit DisputeEndsAdjusted(newDisputeEnds, disputeEnds);\n      disputeEnds = newDisputeEnds;\n      disputeWindowVotes = newDisputeWindowVotes;\n    }\n    require(getNow() < disputeEnds);\n    //Parties are allowed to vote straightaway\n    require((getNow() >= disputeStarts) || parties[_sender]);\n    //Check vote is for a valid address\n    require(parties[_voteAddress] || (_voteAddress == address(0)));\n    //Vote must be at least MIN_VOTE of the totalVotes\n    require(_voteAmount >= totalVotes.mul(MIN_VOTE).div(10**18));\n    //Vote must not mean the new winning party after the vote has strictly more than twice the next best party\n    if (totalVotes != 0) {\n      address winnerParty;\n      address bestMinortyParty;\n      (winnerParty, bestMinortyParty) = getWinnerAndBestMinorty();\n      if (_voteAddress == winnerParty) {\n        require(partyVotes[_voteAddress].add(_voteAmount) <=  partyVotes[bestMinortyParty].mul(2));\n      } else {\n        require(partyVotes[_voteAddress].add(_voteAmount) <=  partyVotes[winnerParty].mul(2));\n      }\n    }\n\n    Vote memory newVote = Vote(_voteAmount, partyVotes[_voteAddress], false);\n\n    //Commit votes\n    require(jurToken.transferFrom(_sender, address(this), _voteAmount));\n\n    //Track votes during last 30 mins of voting period\n    if (getNow() >= disputeEnds.sub(30 * 60)) {\n      disputeWindowVotes = disputeWindowVotes.add(_voteAmount);\n    }\n\n    //Record votes\n    totalVotes = totalVotes.add(_voteAmount);\n    partyVotes[_voteAddress] = partyVotes[_voteAddress].add(_voteAmount);\n    userVotes[_sender][_voteAddress].push(newVote);\n\n    emit VoteCast(_sender, _voteAddress, _voteAmount);\n\n  }\n\n  /**\n   * @dev Allows sender (voter) to claim their staked and reward tokens\n   * @param _start Index at which to start iterating through votes\n   * @param _end Index at which to end iterating through votes\n   */\n  function payoutVoter(uint256 _start, uint256 _end) public hasState(State.Dispute) {\n    //Generally setting _start to 0 and _end to a large number should be fine, but having the option avoids a possible block gas limit issue\n    (uint256 newDisputeEnds, uint256 newDisputeWindowVotes) = calcDisputeEnds();\n    if (newDisputeEnds != disputeEnds) {\n      emit DisputeEndsAdjusted(newDisputeEnds, disputeEnds);\n      disputeEnds = newDisputeEnds;\n      disputeWindowVotes = newDisputeWindowVotes;\n    }\n    require(getNow() >= disputeEnds.add(VOTE_LOCKUP));\n    //There should be a clear winner now, otherwise the dispute would have been extended.\n    address winnerParty;\n    address bestMinortyParty;\n    (winnerParty, bestMinortyParty) = getWinnerAndBestMinorty();\n    uint256 totalMinorityVotes = totalVotes.sub(partyVotes[winnerParty]);\n    uint256 bestMinorityVotes = partyVotes[bestMinortyParty];\n\n    //If there were no votes on any minority options (all votes on the winner) then there is no payout\n    uint256 reward = 0;\n    if (totalMinorityVotes != 0) {\n      reward = decimalDiv(totalMinorityVotes, bestMinorityVotes);\n    }\n\n    uint256 eligableVotes = 0;\n    uint256 stakedVotes = 0;\n\n    for (uint256 i = _start; i < Math.min256(userVotes[msg.sender][winnerParty].length, _end); i++) {\n      if (!userVotes[msg.sender][winnerParty][i].claimed) {\n        userVotes[msg.sender][winnerParty][i].claimed = true;\n        stakedVotes = stakedVotes.add(userVotes[msg.sender][winnerParty][i].amount);\n        if (userVotes[msg.sender][winnerParty][i].previousVotes < bestMinorityVotes) {\n          eligableVotes = eligableVotes.add(Math.min256(bestMinorityVotes.sub(userVotes[msg.sender][winnerParty][i].previousVotes), userVotes[msg.sender][winnerParty][i].amount));\n        }\n      }\n    }\n    require(jurToken.transfer(msg.sender, stakedVotes.add(decimalMul(eligableVotes, reward))));\n    emit VoterPayout(msg.sender, stakedVotes, decimalMul(eligableVotes, reward));\n  }\n\n\n  /**\n   * @notice Returns a state for vote to be claimed and the amount of reward\n   * 0: reward not due\n   * 1: now is before disputeEnd + vote_lookup\n   * 2: ok! Reward is claimable\n   * 3: reward is already claimed!\n   */\n  function canClaimReward(uint256 _start, uint256 _end) public view returns(uint8,uint256) {\n\n    uint8 status;\n    uint256 amount = 0;\n\n    address winnerParty;\n    address bestMinortyParty;\n    (winnerParty, bestMinortyParty) = getWinnerAndBestMinorty();\n\n\n    if(getNow() < disputeEnds.add(VOTE_LOCKUP)) {\n      status = 1;\n    }\n    else\n    {\n      status = 2;\n    }\n\n    uint256 totalMinorityVotes = totalVotes.sub(partyVotes[winnerParty]);\n    uint256 bestMinorityVotes = partyVotes[bestMinortyParty];\n\n    //If there were no votes on any minority options (all votes on the winner) then there is no payout\n    uint256 reward = 0;\n    if (totalMinorityVotes != 0) {\n      reward = decimalDiv(totalMinorityVotes, bestMinorityVotes);\n    }\n\n    uint256 eligableVotes = 0;\n    uint256 stakedVotes = 0;\n\n    for (uint256 i = _start; i < Math.min256(userVotes[msg.sender][winnerParty].length, _end); i++) {\n      if (userVotes[msg.sender][winnerParty][i].claimed) {\n        status = 3;\n      }\n\n      stakedVotes = stakedVotes.add(userVotes[msg.sender][winnerParty][i].amount);\n      if (userVotes[msg.sender][winnerParty][i].previousVotes < bestMinorityVotes) {\n        eligableVotes = eligableVotes.add(Math.min256(bestMinorityVotes.sub(userVotes[msg.sender][winnerParty][i].previousVotes), userVotes[msg.sender][winnerParty][i].amount));\n      }\n    }\n\n    amount = stakedVotes.add(decimalMul(eligableVotes, reward));\n\n    if (amount == 0)\n    {\n      status = 0;\n    }\n\n    return (status, amount);\n\n  }\n\n  /**\n   * @notice Returns the current winner\n   */\n  function getWinner() public view returns(address) {\n    uint256 winnerVotes = partyVotes[address(0)];\n    address winnerParty = address(0);\n    for (uint8 i = 0; i < allParties.length; i++) {\n      if (winnerVotes < partyVotes[allParties[i]]) {\n        winnerVotes = partyVotes[allParties[i]];\n        winnerParty = allParties[i];\n      }\n    }\n    return winnerParty;\n  }\n\n  /**\n   * @notice Returns the current winner and next best minority party\n   */\n  function getWinnerAndBestMinorty() public view returns(address, address) {\n    address winnerParty = getWinner();\n    address bestMinorityParty = (winnerParty == address(0)) ? allParties[0] : address(0);\n    uint256 bestMinorityVotes = partyVotes[bestMinorityParty];\n    for (uint8 j = 0; j < allParties.length; j++) {\n      if ((bestMinorityVotes < partyVotes[allParties[j]]) && (winnerParty != allParties[j])) {\n        bestMinorityParty = allParties[j];\n        bestMinorityVotes = partyVotes[bestMinorityParty];\n      }\n    }\n    return (winnerParty, bestMinorityParty);\n  }\n\n  /**\n   * @dev Allows sender (party) to claim their dispersal tokens\n   */\n  function payoutParty() public hasState(State.Dispute) onlyParties {\n    (uint256 newDisputeEnds, uint256 newDisputeWindowVotes) = calcDisputeEnds();\n    if (newDisputeEnds != disputeEnds) {\n      emit DisputeEndsAdjusted(newDisputeEnds, disputeEnds);\n      disputeEnds = newDisputeEnds;\n      disputeWindowVotes = newDisputeWindowVotes;\n    }\n    require(getNow() >= disputeEnds);\n    require(!hasWithdrawn[msg.sender]);\n    hasWithdrawn[msg.sender] = true;\n    address winnerParty = getWinner();\n    uint256 payout = disputeDispersal[winnerParty][msg.sender];\n    require(jurToken.transfer(msg.sender, payout));\n    emit PartyPayout(msg.sender, payout);\n  }\n\n  /**\n   * @dev Returns a bool if can withdraw and the amount of withdraw\n   */\n  function canWithdraw() public view returns(bool,uint256) {\n    \n    address winnerParty = getWinner();\n    uint256 payout = disputeDispersal[winnerParty][msg.sender];\n\n    return (hasWithdrawn[msg.sender], payout);\n  }\n\n  /**\n   * @notice Returns division assuming both inputs are decimals multiplied by DECIMALS\n   */\n  function decimalDiv(uint256 x, uint256 y) internal pure returns (uint256) {\n    return x.mul(DECIMALS).div(y);\n  }\n\n  /**\n   * @notice Returns multiplication assuming both inputs are decimals multiplied by DECIMALS\n   */\n  function decimalMul(uint256 x, uint256 y) internal pure returns (uint256) {\n    return x.mul(y).div(DECIMALS);\n  }\n\n  /**\n   * @notice Returns current timestamp\n   */\n  function getNow() internal constant returns (uint256) {\n    return now;\n  }\n\n}",
  "sourcePath": "/Users/frugge/Sites/jur-mvp/protocol/contracts/Arbitration.sol",
  "compiler": {
    "name": "solc",
    "version": "0.4.25+commit.59dbf8f1.Emscripten.clang"
  },
  "schemaVersion": "2.0.2",
  "updatedAt": "2019-12-04T15:52:22.999Z"
}