{
  "contractName": "ArbitrationMock",
  "abi": [
    {
      "constant": false,
      "inputs": [
        {
          "name": "_dispersal",
          "type": "uint256[]"
        },
        {
          "name": "_funding",
          "type": "uint256[]"
        },
        {
          "name": "_agreementHash",
          "type": "bytes32"
        }
      ],
      "name": "proposeAmendment",
      "outputs": [],
      "payable": false,
      "stateMutability": "nonpayable",
      "type": "function"
    },
    {
      "constant": true,
      "inputs": [
        {
          "name": "",
          "type": "address"
        }
      ],
      "name": "funding",
      "outputs": [
        {
          "name": "",
          "type": "uint256"
        }
      ],
      "payable": false,
      "stateMutability": "view",
      "type": "function"
    },
    {
      "constant": true,
      "inputs": [],
      "name": "agreementHash",
      "outputs": [
        {
          "name": "",
          "type": "bytes32"
        }
      ],
      "payable": false,
      "stateMutability": "view",
      "type": "function"
    },
    {
      "constant": true,
      "inputs": [],
      "name": "totalVotes",
      "outputs": [
        {
          "name": "",
          "type": "uint256"
        }
      ],
      "payable": false,
      "stateMutability": "view",
      "type": "function"
    },
    {
      "constant": true,
      "inputs": [],
      "name": "disputeEnds",
      "outputs": [
        {
          "name": "",
          "type": "uint256"
        }
      ],
      "payable": false,
      "stateMutability": "view",
      "type": "function"
    },
    {
      "constant": true,
      "inputs": [],
      "name": "amendedAgreementHash",
      "outputs": [
        {
          "name": "",
          "type": "bytes32"
        }
      ],
      "payable": false,
      "stateMutability": "view",
      "type": "function"
    },
    {
      "constant": false,
      "inputs": [
        {
          "name": "_sender",
          "type": "address"
        },
        {
          "name": "_dispersal",
          "type": "uint256[]"
        },
        {
          "name": "_funding",
          "type": "uint256[]"
        },
        {
          "name": "_agreementHash",
          "type": "bytes32"
        }
      ],
      "name": "proposeAmendmentJUR",
      "outputs": [],
      "payable": false,
      "stateMutability": "nonpayable",
      "type": "function"
    },
    {
      "constant": true,
      "inputs": [
        {
          "name": "",
          "type": "address"
        }
      ],
      "name": "dispersal",
      "outputs": [
        {
          "name": "",
          "type": "uint256"
        }
      ],
      "payable": false,
      "stateMutability": "view",
      "type": "function"
    },
    {
      "constant": true,
      "inputs": [],
      "name": "DISPUTE_VOTE_DURATION",
      "outputs": [
        {
          "name": "",
          "type": "uint256"
        }
      ],
      "payable": false,
      "stateMutability": "view",
      "type": "function"
    },
    {
      "constant": true,
      "inputs": [],
      "name": "DISPUTE_DISPERSAL_DURATION",
      "outputs": [
        {
          "name": "",
          "type": "uint256"
        }
      ],
      "payable": false,
      "stateMutability": "view",
      "type": "function"
    },
    {
      "constant": false,
      "inputs": [],
      "name": "sign",
      "outputs": [],
      "payable": false,
      "stateMutability": "nonpayable",
      "type": "function"
    },
    {
      "constant": true,
      "inputs": [],
      "name": "MIN_VOTE",
      "outputs": [
        {
          "name": "",
          "type": "uint256"
        }
      ],
      "payable": false,
      "stateMutability": "view",
      "type": "function"
    },
    {
      "constant": false,
      "inputs": [
        {
          "name": "_voteAmount",
          "type": "uint256"
        },
        {
          "name": "_dispersal",
          "type": "uint256[]"
        }
      ],
      "name": "dispute",
      "outputs": [],
      "payable": false,
      "stateMutability": "nonpayable",
      "type": "function"
    },
    {
      "constant": false,
      "inputs": [
        {
          "name": "_sender",
          "type": "address"
        }
      ],
      "name": "signJUR",
      "outputs": [],
      "payable": false,
      "stateMutability": "nonpayable",
      "type": "function"
    },
    {
      "constant": true,
      "inputs": [],
      "name": "getWinnerAndBestMinorty",
      "outputs": [
        {
          "name": "",
          "type": "address"
        },
        {
          "name": "",
          "type": "address"
        }
      ],
      "payable": false,
      "stateMutability": "view",
      "type": "function"
    },
    {
      "constant": true,
      "inputs": [],
      "name": "VOTE_LOCKUP",
      "outputs": [
        {
          "name": "",
          "type": "uint256"
        }
      ],
      "payable": false,
      "stateMutability": "view",
      "type": "function"
    },
    {
      "constant": false,
      "inputs": [],
      "name": "unsign",
      "outputs": [],
      "payable": false,
      "stateMutability": "nonpayable",
      "type": "function"
    },
    {
      "constant": true,
      "inputs": [
        {
          "name": "",
          "type": "address"
        },
        {
          "name": "",
          "type": "address"
        }
      ],
      "name": "disputeDispersal",
      "outputs": [
        {
          "name": "",
          "type": "uint256"
        }
      ],
      "payable": false,
      "stateMutability": "view",
      "type": "function"
    },
    {
      "constant": true,
      "inputs": [
        {
          "name": "",
          "type": "address"
        }
      ],
      "name": "parties",
      "outputs": [
        {
          "name": "",
          "type": "bool"
        }
      ],
      "payable": false,
      "stateMutability": "view",
      "type": "function"
    },
    {
      "constant": false,
      "inputs": [],
      "name": "unagreeAmendment",
      "outputs": [],
      "payable": false,
      "stateMutability": "nonpayable",
      "type": "function"
    },
    {
      "constant": true,
      "inputs": [],
      "name": "DISPUTE_WINDOW_MAX",
      "outputs": [
        {
          "name": "",
          "type": "uint256"
        }
      ],
      "payable": false,
      "stateMutability": "view",
      "type": "function"
    },
    {
      "constant": true,
      "inputs": [],
      "name": "disputeWindowVotes",
      "outputs": [
        {
          "name": "",
          "type": "uint256"
        }
      ],
      "payable": false,
      "stateMutability": "view",
      "type": "function"
    },
    {
      "constant": true,
      "inputs": [],
      "name": "calcDisputeEnds",
      "outputs": [
        {
          "name": "",
          "type": "uint256"
        },
        {
          "name": "",
          "type": "uint256"
        }
      ],
      "payable": false,
      "stateMutability": "view",
      "type": "function"
    },
    {
      "constant": true,
      "inputs": [
        {
          "name": "",
          "type": "address"
        }
      ],
      "name": "hasWithdrawn",
      "outputs": [
        {
          "name": "",
          "type": "bool"
        }
      ],
      "payable": false,
      "stateMutability": "view",
      "type": "function"
    },
    {
      "constant": true,
      "inputs": [],
      "name": "jurToken",
      "outputs": [
        {
          "name": "",
          "type": "address"
        }
      ],
      "payable": false,
      "stateMutability": "view",
      "type": "function"
    },
    {
      "constant": false,
      "inputs": [
        {
          "name": "_voteAddress",
          "type": "address"
        },
        {
          "name": "_voteAmount",
          "type": "uint256"
        }
      ],
      "name": "vote",
      "outputs": [],
      "payable": false,
      "stateMutability": "nonpayable",
      "type": "function"
    },
    {
      "constant": true,
      "inputs": [
        {
          "name": "",
          "type": "uint256"
        }
      ],
      "name": "allParties",
      "outputs": [
        {
          "name": "",
          "type": "address"
        }
      ],
      "payable": false,
      "stateMutability": "view",
      "type": "function"
    },
    {
      "constant": false,
      "inputs": [
        {
          "name": "_sender",
          "type": "address"
        },
        {
          "name": "_voteAddress",
          "type": "address"
        },
        {
          "name": "_voteAmount",
          "type": "uint256"
        }
      ],
      "name": "voteJUR",
      "outputs": [],
      "payable": false,
      "stateMutability": "nonpayable",
      "type": "function"
    },
    {
      "constant": true,
      "inputs": [
        {
          "name": "",
          "type": "address"
        }
      ],
      "name": "hasAgreed",
      "outputs": [
        {
          "name": "",
          "type": "bool"
        }
      ],
      "payable": false,
      "stateMutability": "view",
      "type": "function"
    },
    {
      "constant": true,
      "inputs": [
        {
          "name": "",
          "type": "address"
        }
      ],
      "name": "hasFundedAmendment",
      "outputs": [
        {
          "name": "",
          "type": "bool"
        }
      ],
      "payable": false,
      "stateMutability": "view",
      "type": "function"
    },
    {
      "constant": false,
      "inputs": [
        {
          "name": "_dispersal",
          "type": "uint256[]"
        }
      ],
      "name": "amendDisputeDispersal",
      "outputs": [],
      "payable": false,
      "stateMutability": "nonpayable",
      "type": "function"
    },
    {
      "constant": true,
      "inputs": [
        {
          "name": "",
          "type": "address"
        }
      ],
      "name": "partyVotes",
      "outputs": [
        {
          "name": "",
          "type": "uint256"
        }
      ],
      "payable": false,
      "stateMutability": "view",
      "type": "function"
    },
    {
      "constant": true,
      "inputs": [],
      "name": "amendmentProposed",
      "outputs": [
        {
          "name": "",
          "type": "bool"
        }
      ],
      "payable": false,
      "stateMutability": "view",
      "type": "function"
    },
    {
      "constant": false,
      "inputs": [],
      "name": "agreeAmendment",
      "outputs": [],
      "payable": false,
      "stateMutability": "nonpayable",
      "type": "function"
    },
    {
      "constant": true,
      "inputs": [],
      "name": "getWinner",
      "outputs": [
        {
          "name": "",
          "type": "address"
        }
      ],
      "payable": false,
      "stateMutability": "view",
      "type": "function"
    },
    {
      "constant": false,
      "inputs": [],
      "name": "agree",
      "outputs": [],
      "payable": false,
      "stateMutability": "nonpayable",
      "type": "function"
    },
    {
      "constant": true,
      "inputs": [],
      "name": "disputeStarts",
      "outputs": [
        {
          "name": "",
          "type": "uint256"
        }
      ],
      "payable": false,
      "stateMutability": "view",
      "type": "function"
    },
    {
      "constant": true,
      "inputs": [
        {
          "name": "",
          "type": "address"
        }
      ],
      "name": "amendedDispersal",
      "outputs": [
        {
          "name": "",
          "type": "uint256"
        }
      ],
      "payable": false,
      "stateMutability": "view",
      "type": "function"
    },
    {
      "constant": false,
      "inputs": [],
      "name": "withdrawDispersal",
      "outputs": [],
      "payable": false,
      "stateMutability": "nonpayable",
      "type": "function"
    },
    {
      "constant": true,
      "inputs": [],
      "name": "MIN_WIN",
      "outputs": [
        {
          "name": "",
          "type": "uint256"
        }
      ],
      "payable": false,
      "stateMutability": "view",
      "type": "function"
    },
    {
      "constant": false,
      "inputs": [],
      "name": "unagree",
      "outputs": [],
      "payable": false,
      "stateMutability": "nonpayable",
      "type": "function"
    },
    {
      "constant": false,
      "inputs": [
        {
          "name": "_sender",
          "type": "address"
        },
        {
          "name": "_voteAmount",
          "type": "uint256"
        },
        {
          "name": "_dispersal",
          "type": "uint256[]"
        }
      ],
      "name": "disputeJUR",
      "outputs": [],
      "payable": false,
      "stateMutability": "nonpayable",
      "type": "function"
    },
    {
      "constant": true,
      "inputs": [],
      "name": "DISPUTE_EXTENSION",
      "outputs": [
        {
          "name": "",
          "type": "uint256"
        }
      ],
      "payable": false,
      "stateMutability": "view",
      "type": "function"
    },
    {
      "constant": true,
      "inputs": [],
      "name": "canWithdraw",
      "outputs": [
        {
          "name": "",
          "type": "bool"
        },
        {
          "name": "",
          "type": "uint256"
        }
      ],
      "payable": false,
      "stateMutability": "view",
      "type": "function"
    },
    {
      "constant": true,
      "inputs": [
        {
          "name": "",
          "type": "address"
        }
      ],
      "name": "amendedFunding",
      "outputs": [
        {
          "name": "",
          "type": "uint256"
        }
      ],
      "payable": false,
      "stateMutability": "view",
      "type": "function"
    },
    {
      "constant": true,
      "inputs": [
        {
          "name": "",
          "type": "address"
        }
      ],
      "name": "hasSigned",
      "outputs": [
        {
          "name": "",
          "type": "bool"
        }
      ],
      "payable": false,
      "stateMutability": "view",
      "type": "function"
    },
    {
      "constant": true,
      "inputs": [],
      "name": "state",
      "outputs": [
        {
          "name": "",
          "type": "uint8"
        }
      ],
      "payable": false,
      "stateMutability": "view",
      "type": "function"
    },
    {
      "constant": false,
      "inputs": [
        {
          "name": "_start",
          "type": "uint256"
        },
        {
          "name": "_end",
          "type": "uint256"
        }
      ],
      "name": "payoutVoter",
      "outputs": [],
      "payable": false,
      "stateMutability": "nonpayable",
      "type": "function"
    },
    {
      "constant": true,
      "inputs": [
        {
          "name": "_currentTimestamp",
          "type": "uint256"
        }
      ],
      "name": "isClosed",
      "outputs": [
        {
          "name": "",
          "type": "bool"
        },
        {
          "name": "",
          "type": "uint256"
        },
        {
          "name": "",
          "type": "uint256"
        }
      ],
      "payable": false,
      "stateMutability": "view",
      "type": "function"
    },
    {
      "constant": false,
      "inputs": [],
      "name": "payoutParty",
      "outputs": [],
      "payable": false,
      "stateMutability": "nonpayable",
      "type": "function"
    },
    {
      "constant": true,
      "inputs": [],
      "name": "DISPUTE_WINDOW",
      "outputs": [
        {
          "name": "",
          "type": "uint256"
        }
      ],
      "payable": false,
      "stateMutability": "view",
      "type": "function"
    },
    {
      "constant": false,
      "inputs": [
        {
          "name": "_sender",
          "type": "address"
        }
      ],
      "name": "agreeAmendmentJUR",
      "outputs": [],
      "payable": false,
      "stateMutability": "nonpayable",
      "type": "function"
    },
    {
      "constant": true,
      "inputs": [
        {
          "name": "_start",
          "type": "uint256"
        },
        {
          "name": "_end",
          "type": "uint256"
        }
      ],
      "name": "canClaimReward",
      "outputs": [
        {
          "name": "",
          "type": "uint8"
        },
        {
          "name": "",
          "type": "uint256"
        }
      ],
      "payable": false,
      "stateMutability": "view",
      "type": "function"
    },
    {
      "inputs": [
        {
          "name": "_jurToken",
          "type": "address"
        },
        {
          "name": "_parties",
          "type": "address[]"
        },
        {
          "name": "_dispersal",
          "type": "uint256[]"
        },
        {
          "name": "_funding",
          "type": "uint256[]"
        },
        {
          "name": "_agreementHash",
          "type": "bytes32"
        }
      ],
      "payable": false,
      "stateMutability": "nonpayable",
      "type": "constructor"
    },
    {
      "anonymous": false,
      "inputs": [
        {
          "indexed": false,
          "name": "_blockNumber",
          "type": "uint256"
        }
      ],
      "name": "MockBlockNumber",
      "type": "event"
    },
    {
      "anonymous": false,
      "inputs": [
        {
          "indexed": false,
          "name": "_mockedNow",
          "type": "uint256"
        }
      ],
      "name": "MockNow",
      "type": "event"
    },
    {
      "anonymous": false,
      "inputs": [
        {
          "indexed": false,
          "name": "_oldState",
          "type": "uint8"
        },
        {
          "indexed": false,
          "name": "_newState",
          "type": "uint8"
        },
        {
          "indexed": false,
          "name": "_timestamp",
          "type": "uint256"
        }
      ],
      "name": "StateChange",
      "type": "event"
    },
    {
      "anonymous": false,
      "inputs": [
        {
          "indexed": true,
          "name": "_party1",
          "type": "address"
        },
        {
          "indexed": true,
          "name": "_party2",
          "type": "address"
        },
        {
          "indexed": false,
          "name": "_dispersal",
          "type": "uint256[]"
        },
        {
          "indexed": false,
          "name": "_funding",
          "type": "uint256[]"
        },
        {
          "indexed": false,
          "name": "_agreementHash",
          "type": "bytes32"
        }
      ],
      "name": "ContractCreated",
      "type": "event"
    },
    {
      "anonymous": false,
      "inputs": [
        {
          "indexed": true,
          "name": "_party",
          "type": "address"
        },
        {
          "indexed": false,
          "name": "_funding",
          "type": "uint256"
        }
      ],
      "name": "ContractSigned",
      "type": "event"
    },
    {
      "anonymous": false,
      "inputs": [
        {
          "indexed": true,
          "name": "_party",
          "type": "address"
        },
        {
          "indexed": false,
          "name": "_funding",
          "type": "uint256"
        }
      ],
      "name": "ContractUnsigned",
      "type": "event"
    },
    {
      "anonymous": false,
      "inputs": [
        {
          "indexed": true,
          "name": "_party",
          "type": "address"
        }
      ],
      "name": "ContractAgreed",
      "type": "event"
    },
    {
      "anonymous": false,
      "inputs": [
        {
          "indexed": true,
          "name": "_party",
          "type": "address"
        }
      ],
      "name": "ContractUnagreed",
      "type": "event"
    },
    {
      "anonymous": false,
      "inputs": [
        {
          "indexed": true,
          "name": "_party",
          "type": "address"
        },
        {
          "indexed": false,
          "name": "_dispersal",
          "type": "uint256[]"
        },
        {
          "indexed": false,
          "name": "_funding",
          "type": "uint256[]"
        },
        {
          "indexed": false,
          "name": "_agreementHash",
          "type": "bytes32"
        }
      ],
      "name": "ContractAmendmentProposed",
      "type": "event"
    },
    {
      "anonymous": false,
      "inputs": [
        {
          "indexed": true,
          "name": "_party",
          "type": "address"
        }
      ],
      "name": "ContractAmendmentAgreed",
      "type": "event"
    },
    {
      "anonymous": false,
      "inputs": [
        {
          "indexed": true,
          "name": "_party",
          "type": "address"
        }
      ],
      "name": "ContractAmendmentUnagreed",
      "type": "event"
    },
    {
      "anonymous": false,
      "inputs": [
        {
          "indexed": true,
          "name": "_party",
          "type": "address"
        },
        {
          "indexed": false,
          "name": "_dispersal",
          "type": "uint256"
        }
      ],
      "name": "ContractWithdrawn",
      "type": "event"
    },
    {
      "anonymous": false,
      "inputs": [
        {
          "indexed": true,
          "name": "_party",
          "type": "address"
        },
        {
          "indexed": false,
          "name": "_dispersal",
          "type": "uint256[]"
        }
      ],
      "name": "ContractDisputed",
      "type": "event"
    },
    {
      "anonymous": false,
      "inputs": [
        {
          "indexed": true,
          "name": "_party",
          "type": "address"
        },
        {
          "indexed": false,
          "name": "_dispersal",
          "type": "uint256[]"
        }
      ],
      "name": "ContractDisputeDispersalAmended",
      "type": "event"
    },
    {
      "anonymous": false,
      "inputs": [
        {
          "indexed": false,
          "name": "_oldDisputeEnds",
          "type": "uint256"
        },
        {
          "indexed": false,
          "name": "_newDisputeEnds",
          "type": "uint256"
        }
      ],
      "name": "DisputeEndsAdjusted",
      "type": "event"
    },
    {
      "anonymous": false,
      "inputs": [
        {
          "indexed": true,
          "name": "_voter",
          "type": "address"
        },
        {
          "indexed": true,
          "name": "_party",
          "type": "address"
        },
        {
          "indexed": false,
          "name": "_amount",
          "type": "uint256"
        }
      ],
      "name": "VoteCast",
      "type": "event"
    },
    {
      "anonymous": false,
      "inputs": [
        {
          "indexed": true,
          "name": "_voter",
          "type": "address"
        },
        {
          "indexed": false,
          "name": "_stakedAmount",
          "type": "uint256"
        },
        {
          "indexed": false,
          "name": "_rewardAmount",
          "type": "uint256"
        }
      ],
      "name": "VoterPayout",
      "type": "event"
    },
    {
      "anonymous": false,
      "inputs": [
        {
          "indexed": true,
          "name": "_party",
          "type": "address"
        },
        {
          "indexed": false,
          "name": "_dispersalAmount",
          "type": "uint256"
        }
      ],
      "name": "PartyPayout",
      "type": "event"
    },
    {
      "constant": false,
      "inputs": [
        {
          "name": "_blockNumber",
          "type": "uint256"
        }
      ],
      "name": "setMockedBlockNumber",
      "outputs": [],
      "payable": false,
      "stateMutability": "nonpayable",
      "type": "function"
    },
    {
      "constant": false,
      "inputs": [
        {
          "name": "_mockedNow",
          "type": "uint256"
        }
      ],
      "name": "setMockedNow",
      "outputs": [],
      "payable": false,
      "stateMutability": "nonpayable",
      "type": "function"
    }
  ],
  "bytecode": "0x608060405262093a806001556202a30060025561070860035562015180600481905560055566b1a2bc2ec50000600655662386f26fc100006007819055600855601d805460ff191690556000601e819055601f553480156200006057600080fd5b506040516200404238038062004042833981016040908152815160208301519183015160608401516080850151918501805193959485019490939101919085908590859085908590600090819081906002148015620000c0575084516002145b8015620000ce575086516002145b1515620000da57600080fd5b866000815181101515620000ea57fe5b90602001906020020151600160a060020a03166000141580156200013157508660018151811015156200011957fe5b90602001906020020151600160a060020a0316600014155b15156200013d57600080fd5b5060009150819050805b86518160ff161015620002c2576001600a6000898460ff168151811015156200016c57fe5b602090810291909101810151600160a060020a03168252810191909152604001600020805460ff19169115159190911790558551869060ff8316908110620001b057fe5b90602001906020020151600b6000898460ff16815181101515620001d057fe5b6020908102909101810151600160a060020a03168252810191909152604001600020558451859060ff83169081106200020557fe5b90602001906020020151600c6000898460ff168151811015156200022557fe5b6020908102909101810151600160a060020a031682528101919091526040016000205585516200027f90879060ff84169081106200025f57fe5b6020908102909101015183906401000000006200307c6200042d82021704565b9150620002b7858260ff168151811015156200029757fe5b6020908102909101015184906401000000006200307c6200042d82021704565b925060010162000147565b828214620002cf57600080fd5b8651620002e49060099060208a019062000441565b50601084905560008054600160a060020a031916600160a060020a038a161790558651879060019081106200031557fe5b90602001906020020151600160a060020a03168760008151811015156200033857fe5b90602001906020020151600160a060020a03167f18a9c4249303b74ecff5e58f4dcc486cd7de84cd3feec18d74f4c9216963fb9e8888886040518080602001806020018460001916600019168152602001838103835286818151815260200191508051906020019060200280838360005b83811015620003c3578181015183820152602001620003a9565b50505050905001838103825285818151815260200191508051906020019060200280838360005b8381101562000404578181015183820152602001620003ea565b505050509050019550505050505060405180910390a350505050505050505050505050620004d5565b818101828110156200043b57fe5b92915050565b82805482825590600052602060002090810192821562000499579160200282015b82811115620004995782518254600160a060020a031916600160a060020a0390911617825560209092019160019091019062000462565b50620004a7929150620004ab565b5090565b620004d291905b80821115620004a7578054600160a060020a0319168155600101620004b2565b90565b613b5d80620004e56000396000f3006080604052600436106102795763ffffffff60e060020a60003504166302edcbfb811461027e578063049f2d8a146103105780630ab55d0b146103435780630d15fd771461035857806312feb4a71461036d578063188c0e43146103825780631ff2e2141461039757806325ce690b146104355780632731c6c6146104565780632a50b5441461046b5780632ca15122146104805780632efab6fa146104955780632f36cacf146104aa57806337c2afda146105045780633ad17f6d146105255780633f606aa31461056057806341e60c8614610575578063446332971461058a5780634f235207146105b15780634f802f8a146105e657806352e18f33146105fb5780635a9e17a7146106105780635cfe585a146106255780635e2c19db146106535780635f068b43146106745780635f74bbde146106a557806360d50596146106c957806364a8a11f146106e1578063682644fd1461070b57806368e664bd1461072c5780636eae555d1461074d57806374e6cfd3146107a25780638b90dc94146107c35780638bfb85c3146107d85780638e7ea5b2146107ed5780638fae60a514610802578063911058df14610817578063918c93731461082f578063994d4060146108445780639cff621a14610865578063a3f5700d1461087a578063a7e92fb51461088f578063adef40db146108a4578063b40b78411461090b578063b51459fe14610920578063b7c1ae8114610950578063bf6a141314610971578063c0c6a68a14610992578063c19d93fb146109aa578063d15e3170146109e3578063d5c78a28146109fe578063d5e03fc614610a36578063f585dc5714610a4b578063fc76317614610a60578063fdff8d5d14610a81575b600080fd5b34801561028a57600080fd5b506040805160206004803580820135838102808601850190965280855261030e95369593946024949385019291829185019084908082843750506040805187358901803560208181028481018201909552818452989b9a9989019892975090820195509350839250850190849080828437509497505093359450610ab99350505050565b005b34801561031c57600080fd5b50610331600160a060020a0360043516610aca565b60408051918252519081900360200190f35b34801561034f57600080fd5b50610331610adc565b34801561036457600080fd5b50610331610ae2565b34801561037957600080fd5b50610331610ae8565b34801561038e57600080fd5b50610331610aee565b3480156103a357600080fd5b5060408051602060046024803582810135848102808701860190975280865261030e968435600160a060020a031696369660449591949091019291829185019084908082843750506040805187358901803560208181028481018201909552818452989b9a9989019892975090820195509350839250850190849080828437509497505093359450610af49350505050565b34801561044157600080fd5b50610331600160a060020a0360043516610b1d565b34801561046257600080fd5b50610331610b2f565b34801561047757600080fd5b50610331610b35565b34801561048c57600080fd5b5061030e610b3b565b3480156104a157600080fd5b50610331610b46565b3480156104b657600080fd5b5060408051602060046024803582810135848102808701860190975280865261030e96843596369660449591949091019291829185019084908082843750949750610b4c9650505050505050565b34801561051057600080fd5b5061030e600160a060020a0360043516610b5b565b34801561053157600080fd5b5061053a610b7e565b60408051600160a060020a03938416815291909216602082015281519081900390910190f35b34801561056c57600080fd5b50610331610cc0565b34801561058157600080fd5b5061030e610cc6565b34801561059657600080fd5b50610331600160a060020a0360043581169060243516610e27565b3480156105bd57600080fd5b506105d2600160a060020a0360043516610e44565b604080519115158252519081900360200190f35b3480156105f257600080fd5b5061030e610e59565b34801561060757600080fd5b5061033161114f565b34801561061c57600080fd5b50610331611155565b34801561063157600080fd5b5061063a61115b565b6040805192835260208301919091528051918290030190f35b34801561065f57600080fd5b506105d2600160a060020a036004351661137a565b34801561068057600080fd5b5061068961138f565b60408051600160a060020a039092168252519081900360200190f35b3480156106b157600080fd5b5061030e600160a060020a036004351660243561139e565b3480156106d557600080fd5b506106896004356113a9565b3480156106ed57600080fd5b5061030e600160a060020a03600435811690602435166044356113d1565b34801561071757600080fd5b506105d2600160a060020a03600435166113f3565b34801561073857600080fd5b506105d2600160a060020a0360043516611408565b34801561075957600080fd5b506040805160206004803580820135838102808601850190965280855261030e9536959394602494938501929182918501908490808284375094975061141d9650505050505050565b3480156107ae57600080fd5b50610331600160a060020a036004351661160d565b3480156107cf57600080fd5b506105d261161f565b3480156107e457600080fd5b5061030e611628565b3480156107f957600080fd5b50610689611631565b34801561080e57600080fd5b5061030e611714565b34801561082357600080fd5b5061030e600435611847565b34801561083b57600080fd5b50610331611882565b34801561085057600080fd5b50610331600160a060020a0360043516611888565b34801561087157600080fd5b5061030e61189a565b34801561088657600080fd5b50610331611aba565b34801561089b57600080fd5b5061030e611ac0565b3480156108b057600080fd5b50604080516020600460443581810135838102808601850190965280855261030e958335600160a060020a0316956024803596369695606495939492019291829185019084908082843750949750611b5a9650505050505050565b34801561091757600080fd5b50610331611b7c565b34801561092c57600080fd5b50610935611b82565b60408051921515835260208301919091528051918290030190f35b34801561095c57600080fd5b50610331600160a060020a0360043516611bc9565b34801561097d57600080fd5b506105d2600160a060020a0360043516611bdb565b34801561099e57600080fd5b5061030e600435611bf0565b3480156109b657600080fd5b506109bf611c2b565b604051808260048111156109cf57fe5b60ff16815260200191505060405180910390f35b3480156109ef57600080fd5b5061030e600435602435611c34565b348015610a0a57600080fd5b50610a166004356120bc565b604080519315158452602084019290925282820152519081900360600190f35b348015610a4257600080fd5b5061030e6122a4565b348015610a5757600080fd5b50610331612497565b348015610a6c57600080fd5b5061030e600160a060020a036004351661249d565b348015610a8d57600080fd5b50610a9c6004356024356124bd565b6040805160ff909316835260208301919091528051918290030190f35b610ac533848484612776565b505050565b600c6020526000908152604090205481565b60105481565b60195481565b60185481565b60115481565b600054600160a060020a03163314610b0b57600080fd5b610b1784848484612776565b50505050565b600b6020526000908152604090205481565b60015481565b60025481565b610b4433612a0c565b565b60075481565b610b57338383612c12565b5050565b600054600160a060020a03163314610b7257600080fd5b610b7b81612a0c565b50565b600080600080600080610b8f611631565b9350600160a060020a03841615610ba7576000610bcc565b600980546000908110610bb657fe5b600091825260209091200154600160a060020a03165b600160a060020a0381166000908152601b602052604081205491945090925090505b60095460ff82161015610cb557601b600060098360ff16815481101515610c1157fe5b6000918252602080832090910154600160a060020a0316835282019290925260400190205482108015610c6c57506009805460ff8316908110610c5057fe5b600091825260209091200154600160a060020a03858116911614155b15610cad576009805460ff8316908110610c8257fe5b6000918252602080832090910154600160a060020a0316808352601b90915260409091205490935091505b600101610bee565b509194909350915050565b60055481565b600080601d5460ff166004811115610cda57fe5b14610ce457600080fd5b336000908152600a602052604090205460ff161515610d0257600080fd5b3360009081526012602052604090205460ff161515610d2057600080fd5b336000818152601260209081526040808320805460ff191690558254600c83528184205482517fa9059cbb000000000000000000000000000000000000000000000000000000008152600481019690965260248601529051600160a060020a039091169363a9059cbb9360448083019493928390030190829087803b158015610da857600080fd5b505af1158015610dbc573d6000803e3d6000fd5b505050506040513d6020811015610dd257600080fd5b50511515610ddf57600080fd5b336000818152600c602090815260409182902054825190815291517ff915f6adcfba53634fa63225573ad1f78d2f842387fe91379c27c14a259537cf9281900390910190a250565b600f60209081526000928352604080842090915290825290205481565b600a6020526000908152604090205460ff1681565b600080600180601d5460ff166004811115610e7057fe5b14610e7a57600080fd5b336000908152600a602052604090205460ff161515610e9857600080fd5b60165460ff161515610ea957600080fd5b6016805460ff19169055600092505b60095460ff8416101561111f576015600060098560ff16815481101515610edb57fe5b6000918252602080832090910154600160a060020a0316835282019290925260400190205460ff16156111145760006015600060098660ff16815481101515610f2057fe5b600091825260208083209190910154600160a060020a031683528201929092526040018120805460ff19169215159290921790915560098054600c92919060ff8716908110610f6b57fe5b6000918252602080832090910154600160a060020a03168352820192909252604001812054600980549192600e9290919060ff8816908110610fa957fe5b6000918252602080832090910154600160a060020a0316835282019290925260400190205411156111145761105c600c600060098660ff16815481101515610fed57fe5b6000918252602080832090910154600160a060020a03168352820192909252604001812054600980549192600e9290919060ff891690811061102b57fe5b6000918252602080832090910154600160a060020a031683528201929092526040019020549063ffffffff61302116565b60005460098054929450600160a060020a039091169163a9059cbb919060ff871690811061108657fe5b60009182526020808320909101546040805160e060020a63ffffffff8716028152600160a060020a039092166004830152602482018890525160448083019491928390030190829087803b1580156110dd57600080fd5b505af11580156110f1573d6000803e3d6000fd5b505050506040513d602081101561110757600080fd5b5051151561111457600080fd5b600190920191610eb8565b60405133907fc42ff889a5bf104cb88fddd83f34d59c6162fb4c97c5c075d3e5143b977407d090600090a2505050565b60065481565b601a5481565b60008080808080600380601d5460ff16600481111561117657fe5b1461118057600080fd5b60185461118b613038565b10156111a057601854601a5496509650611371565b6111cf670de0b6b3a76400006111c360065460195461303e90919063ffffffff16565b9063ffffffff61306716565b601a5411156111f8576004546018546111ed9163ffffffff61307c16565b965060009550611371565b6000808052601b602052600080516020613b1283398151915254955093505b60095460ff851610156112af5784601b600060098760ff1681548110151561123b57fe5b6000918252602080832090910154600160a060020a0316835282019290925260400190205411156112a457601b600060098660ff1681548110151561127c57fe5b6000918252602080832090910154600160a060020a0316835282019290925260400190205494505b600190930192611217565b6000808052601b602052600080516020613b12833981519152549093508514156112da578260010192505b600091505b60095460ff831610156113405784601b600060098560ff1681548110151561130357fe5b6000918252602080832090910154600160a060020a031683528201929092526040019020541415611335578260010192505b6001909101906112df565b60018360ff161115611366576111ed60045461135a613038565b9063ffffffff61307c16565b601854601a54965096505b50505050509091565b60146020526000908152604090205460ff1681565b600054600160a060020a031681565b610b57338383613089565b60098054829081106113b757fe5b600091825260209091200154600160a060020a0316905081565b600054600160a060020a031633146113e857600080fd5b610ac5838383613089565b60136020526000908152604090205460ff1681565b60156020526000908152604090205460ff1681565b60008080600380601d5460ff16600481111561143557fe5b1461143f57600080fd5b336000908152600a602052604090205460ff16151561145d57600080fd5b60095485511461146c57600080fd5b601754611477613038565b1061148157600080fd5b6000935060009250600091505b60095460ff8316101561158657848260ff168151811015156114ac57fe5b6020908102909101810151336000908152600f90925260408220600980549293919260ff87169081106114db57fe5b6000918252602080832090910154600160a060020a03168352820192909252604001902055845161152c90869060ff851690811061151557fe5b60209081029091010151859063ffffffff61307c16565b9350611579600c600060098560ff1681548110151561154757fe5b6000918252602080832090910154600160a060020a03168352820192909252604001902054849063ffffffff61307c16565b925060019091019061148e565b83831461159257600080fd5b604080516020808252875181830152875133937fe98983adb63591508c2f748970470e7487b3bebd763d08abc3334beeb72a00b0938a9390928392830191808601910280838360005b838110156115f35781810151838201526020016115db565b505050509050019250505060405180910390a25050505050565b601b6020526000908152604090205481565b60165460ff1681565b610b44336134b1565b6000808052601b602052600080516020613b128339815191525481805b60095460ff8216101561170d57601b600060098360ff1681548110151561167157fe5b6000918252602080832090910154600160a060020a0316835282019290925260400190205483101561170557601b600060098360ff168154811015156116b357fe5b6000918252602080832090910154600160a060020a03168352820192909252604001902054600980549194509060ff83169081106116ed57fe5b600091825260209091200154600160a060020a031691505b60010161164e565b5092915050565b600080600180601d5460ff16600481111561172b57fe5b1461173557600080fd5b336000908152600a602052604090205460ff16151561175357600080fd5b3360009081526013602052604090205460ff161561177057600080fd5b336000908152601360205260409020805460ff1916600117905560165460ff161561179d5761179d610e59565b60019250600091505b60095460ff83161015611807578280156117fa57506013600060098460ff168154811015156117d157fe5b6000918252602080832090910154600160a060020a0316835282019290925260400190205460ff165b92506001909101906117a6565b8215611817576118176002613a03565b60405133907fcdfedae112bb2610775e69a6ffd348e7dfdd996e3fb3a5f6d46b52651867b49790600090a2505050565b601f8190556040805182815290517ff54bf4ed226aa1df732802a8bd56e85755aab0a0ef7c2fbf204cf0de0765f0739181900360200190a150565b60175481565b600d6020526000908152604090205481565b600080600280601d5460ff1660048111156118b157fe5b146118bb57600080fd5b336000908152600a602052604090205460ff1615156118d957600080fd5b3360009081526014602052604090205460ff16156118f657600080fd5b336000818152601460209081526040808320805460ff191660011790558254600b83528184205482517fa9059cbb000000000000000000000000000000000000000000000000000000008152600481019690965260248601529051600160a060020a03919091169363a9059cbb9360448083019493928390030190829087803b15801561198257600080fd5b505af1158015611996573d6000803e3d6000fd5b505050506040513d60208110156119ac57600080fd5b505115156119b957600080fd5b60019250600091505b60095460ff83161015611a6557828015611a5857506014600060098460ff168154811015156119ed57fe5b6000918252602080832090910154600160a060020a0316835282019290925260400190205460ff1680611a585750600b600060098460ff16815481101515611a3157fe5b6000918252602080832090910154600160a060020a03168352820192909252604001902054155b92506001909101906119c2565b336000818152600b602090815260409182902054825190815291517f76cc4dd05e1fc280969f3363b5db432911cddfadcfae9bef818a492c0f8d57329281900390910190a28215610ac557610ac56004613a03565b60085481565b600180601d5460ff166004811115611ad457fe5b14611ade57600080fd5b336000908152600a602052604090205460ff161515611afc57600080fd5b3360009081526013602052604090205460ff161515611b1a57600080fd5b33600081815260136020526040808220805460ff19169055517f6faffafe1cb6a0bf26e66cc0178734aa9fe07d7c6961884c4a93920423c0bd0e9190a250565b600054600160a060020a03163314611b7157600080fd5b610ac5838383612c12565b60045481565b600080600080611b90611631565b600160a060020a03166000908152600f6020908152604080832033845282528083205460149092529091205460ff169590945092505050565b600e6020526000908152604090205481565b60126020526000908152604090205460ff1681565b601e8190556040805182815290517fb5650d845cdd2d20be38618a709ffc597b681b4a60ec873333f2959dead54e399181900360200190a150565b601d5460ff1681565b6000808080808080808080600380601d5460ff166004811115611c5357fe5b14611c5d57600080fd5b611c6561115b565b601854919c509a508b14611cbc57601854604080518d8152602081019290925280517f04e9f9a05f2b0f7b76cbaeafc40a3136a1870f82f8eff85e766f7eb868a8b9e09281900390910190a160188b9055601a8a90555b600554601854611cd19163ffffffff61307c16565b611cd9613038565b1015611ce457600080fd5b611cec610b7e565b600160a060020a0382166000908152601b6020526040902054601954929b50909950611d1e919063ffffffff61302116565b600160a060020a0389166000908152601b602052604081205491985090965094508615611d5257611d4f8787613a94565b94505b60009350600092508c91505b336000908152601c60209081526040808320600160a060020a038d168452909152902054611d8c908d613ab9565b821015611fb357336000908152601c60209081526040808320600160a060020a038d1684529091529020805483908110611dc257fe5b600091825260209091206002600390920201015460ff161515611fa857336000908152601c60209081526040808320600160a060020a038d168452909152902080546001919084908110611e1257fe5b60009182526020808320600392909202909101600201805460ff191693151593909317909255338152601c82526040808220600160a060020a038d168352909252208054611e83919084908110611e6557fe5b6000918252602090912060039091020154849063ffffffff61307c16565b336000908152601c60209081526040808320600160a060020a038e16845290915290208054919450879184908110611eb757fe5b9060005260206000209060030201600101541015611fa857336000908152601c60209081526040808320600160a060020a038d16845290915290208054611fa591611f9891611f2c919086908110611f0b57fe5b9060005260206000209060030201600101548961302190919063ffffffff16565b601c600033600160a060020a0316600160a060020a0316815260200190815260200160002060008d600160a060020a0316600160a060020a0316815260200190815260200160002085815481101515611f8157fe5b906000526020600020906003020160000154613ab9565b859063ffffffff61307c16565b93505b600190910190611d5e565b600054600160a060020a031663a9059cbb33611fdf611fd2888a613acf565b879063ffffffff61307c16565b6040518363ffffffff1660e060020a0281526004018083600160a060020a0316600160a060020a0316815260200182815260200192505050602060405180830381600087803b15801561203157600080fd5b505af1158015612045573d6000803e3d6000fd5b505050506040513d602081101561205b57600080fd5b5051151561206857600080fd5b337f49329039ffba66f8761d4a6d68b169063aa8f3a76a256007f5d55ceecf9be824846120958789613acf565b6040805192835260208301919091528051918290030190a250505050505050505050505050565b6000806000806000806000806120d0613038565b94506018548910156120ed57600085601854975097509750612298565b6000808052601b602052600080516020613b1283398151915254945092505b60095460ff841610156121a45783601b600060098660ff1681548110151561213057fe5b6000918252602080832090910154600160a060020a03168352820192909252604001902054111561219957601b600060098560ff1681548110151561217157fe5b6000918252602080832090910154600160a060020a0316835282019290925260400190205493505b60019092019161210c565b6000808052601b602052600080516020613b12833981519152549092508414156121cf578160010191505b5060005b60095460ff821610156122315783601b600060098460ff168154811015156121f757fe5b6000918252602080832090910154600160a060020a031683528201929092526040019020541415612229578160010191505b6001016121d3565b60018260ff16111561224e57600085601854975097509750612298565b612271670de0b6b3a76400006111c360065460195461303e90919063ffffffff16565b601a54111561228b57600085601854975097509750612298565b6001856018549750975097505b50505050509193909250565b6000808080600380601d5460ff1660048111156122bd57fe5b146122c757600080fd5b336000908152600a602052604090205460ff1615156122e557600080fd5b6122ed61115b565b601854919650945085146123445760185460408051878152602081019290925280517f04e9f9a05f2b0f7b76cbaeafc40a3136a1870f82f8eff85e766f7eb868a8b9e09281900390910190a16018859055601a8490555b60185461234f613038565b101561235a57600080fd5b3360009081526014602052604090205460ff161561237757600080fd5b336000908152601460205260409020805460ff19166001179055612399611631565b600160a060020a038082166000908152600f602090815260408083203380855290835281842054845483517fa9059cbb0000000000000000000000000000000000000000000000000000000081526004810193909352602483018290529251969950975093169363a9059cbb93604480820194918390030190829087803b15801561242357600080fd5b505af1158015612437573d6000803e3d6000fd5b505050506040513d602081101561244d57600080fd5b5051151561245a57600080fd5b60408051838152905133917f529314119e568ebeb046e7fb288642e03aea33279f2f6762afd0e56a74c7aa42919081900360200190a25050505050565b60035481565b600054600160a060020a031633146124b457600080fd5b610b7b816134b1565b600080808080808080808080806124d2610b7e565b600554601854929a509098506124ee919063ffffffff61307c16565b6124f6613038565b1015612505576001995061250a565b600299505b600160a060020a0388166000908152601b60205260409020546019546125359163ffffffff61302116565b600160a060020a0388166000908152601b602052604081205491975090955093508515612569576125668686613a94565b93505b50600091508190508c5b336000908152601c60209081526040808320600160a060020a038c1684529091529020546125a1908e613ab9565b81101561273a57336000908152601c60209081526040808320600160a060020a038c16845290915290208054829081106125d757fe5b600091825260209091206002600390920201015460ff16156125f857600399505b336000908152601c60209081526040808320600160a060020a038c1684529091529020805461264a91908390811061262c57fe5b6000918252602090912060039091020154839063ffffffff61307c16565b336000908152601c60209081526040808320600160a060020a038d1684529091529020805491935086918390811061267e57fe5b906000526020600020906003020160010154101561273257336000908152601c60209081526040808320600160a060020a038c1684529091529020805461272f91612722916126f39190859081106126d257fe5b9060005260206000209060030201600101548861302190919063ffffffff16565b336000908152601c60209081526040808320600160a060020a038f1684529091529020805485908110611f8157fe5b849063ffffffff61307c16565b92505b600101612573565b6127546127478486613acf565b839063ffffffff61307c16565b985088151561276257600099505b50979c969b50959950505050505050505050565b60008080600180601d5460ff16600481111561278e57fe5b1461279857600080fd5b600160a060020a0388166000908152600a6020526040902054889060ff1615156127c157600080fd5b60165460ff16156127d157600080fd5b6016805460ff1916600117905560095488511480156127f257506009548751145b15156127fd57600080fd5b6000945060009350600092505b60095460ff8416101561291257878360ff1681518110151561282857fe5b90602001906020020151600d600060098660ff1681548110151561284857fe5b6000918252602080832090910154600160a060020a031683528201929092526040019020558651879060ff851690811061287e57fe5b90602001906020020151600e600060098660ff1681548110151561289e57fe5b6000918252602080832090910154600160a060020a0316835282019290925260400190205587516128d890899060ff861690811061151557fe5b9350612905878460ff168151811015156128ee57fe5b60209081029091010151869063ffffffff61307c16565b945060019092019161280a565b84841461291e57600080fd5b601186905561292c896134b1565b88600160a060020a03167fd33aabc7fc9a1f5861dc19acc754cc8fe8c4400063f1e32d2bf90ac64b628daf8989896040518080602001806020018460001916600019168152602001838103835286818151815260200191508051906020019060200280838360005b838110156129ac578181015183820152602001612994565b50505050905001838103825285818151815260200191508051906020019060200280838360005b838110156129eb5781810151838201526020016129d3565b505050509050019550505050505060405180910390a2505050505050505050565b6000808080601d5460ff166004811115612a2257fe5b14612a2c57600080fd5b600160a060020a0384166000908152600a6020526040902054849060ff161515612a5557600080fd5b600160a060020a03851660009081526012602052604090205460ff1615612a7b57600080fd5b600160a060020a038086166000818152601260209081526040808320805460ff191660011790558254600c83528184205482517f23b872dd0000000000000000000000000000000000000000000000000000000081526004810196909652306024870152604486015290519416936323b872dd93606480820194918390030190829087803b158015612b0c57600080fd5b505af1158015612b20573d6000803e3d6000fd5b505050506040513d6020811015612b3657600080fd5b50511515612b4357600080fd5b60019350600092505b60095460ff84161015612bad57838015612ba057506012600060098560ff16815481101515612b7757fe5b6000918252602080832090910154600160a060020a0316835282019290925260400190205460ff165b9350600190920191612b4c565b8315612bbd57612bbd6001613a03565b600160a060020a0385166000818152600c602090815260409182902054825190815291517fa8cc9409769b9614f3ae4056957bfbb32d986e4b61c886b5e29b324b5bf92d0a9281900390910190a25050505050565b600080808080600180601d5460ff166004811115612c2c57fe5b14612c3657600080fd5b600160a060020a0389166000908152600a6020526040902054899060ff161515612c5f57600080fd5b600954885114612c6e57600080fd5b60165460ff1615612c8157612c81610e59565b612c8b6003613a03565b6000965060009550600094505b60095460ff86161015612da457878560ff16815181101515612cb657fe5b90602001906020020151600f60008c600160a060020a0316600160a060020a03168152602001908152602001600020600060098860ff16815481101515612cf957fe5b6000918252602080832090910154600160a060020a031683528201929092526040019020558751612d4a90899060ff8816908110612d3357fe5b60209081029091010151889063ffffffff61307c16565b9650612d97600c600060098860ff16815481101515612d6557fe5b6000918252602080832090910154600160a060020a03168352820192909252604001902054879063ffffffff61307c16565b9550600190940193612c98565b868614612db057600080fd5b612dd1670de0b6b3a76400006111c36007548961303e90919063ffffffff16565b891015612ddd57600080fd5b612df0612de8613038565b60025461307c565b6017819055600154612e02919061307c565b601855600093505b60095460ff85161015612ecd5789600160a060020a031660098560ff16815481101515612e3357fe5b600091825260209091200154600160a060020a031614612ec25785600f600060098760ff16815481101515612e6457fe5b6000918252602080832090910154600160a060020a0316835282019290925260400181206009805491929160ff8916908110612e9c57fe5b6000918252602080832090910154600160a060020a031683528201929092526040019020555b600190930192612e0a565b600092505b60095460ff84161015612f8b57600c600060098560ff16815481101515612ef557fe5b6000918252602080832090910154600160a060020a03168352828101939093526040909101812054818052600f909252600980547ff4803e074bd026baaf6ed2e288c9515f68c72fb7216eebdd7cae1718a53ec37592919060ff8816908110612f5a57fe5b6000918252602080832090910154600160a060020a0316835282019290925260400190205560019290920191612ed2565b89600160a060020a03167f978fff33bfee4716da21bf89e67d0757d6550d4b6f53676919de1d1d209f5ef0896040518080602001828103825283818151815260200191508051906020019060200280838360005b83811015612ff7578181015183820152602001612fdf565b505050509050019250505060405180910390a26130158a8b8b613089565b50505050505050505050565b60008282111561302d57fe5b508082035b92915050565b601f5490565b600082151561304f57506000613032565b5081810281838281151561305f57fe5b041461303257fe5b6000818381151561307457fe5b049392505050565b8181018281101561303257fe5b600080600080613097613aed565b600380601d5460ff1660048111156130ab57fe5b146130b557600080fd5b6130bd61115b565b601854919750955086146131145760185460408051888152602081019290925280517f04e9f9a05f2b0f7b76cbaeafc40a3136a1870f82f8eff85e766f7eb868a8b9e09281900390910190a16018869055601a8590555b60185461311f613038565b1061312957600080fd5b601754613134613038565b1015806131595750600160a060020a0389166000908152600a602052604090205460ff165b151561316457600080fd5b600160a060020a0388166000908152600a602052604090205460ff16806131925750600160a060020a038816155b151561319d57600080fd5b6131c0670de0b6b3a76400006111c360075460195461303e90919063ffffffff16565b8710156131cc57600080fd5b601954156132b6576131dc610b7e565b9094509250600160a060020a03888116908516141561325857600160a060020a0383166000908152601b602052604090205461321f90600263ffffffff61303e16565b600160a060020a0389166000908152601b6020526040902054613248908963ffffffff61307c16565b111561325357600080fd5b6132b6565b600160a060020a0384166000908152601b602052604090205461328290600263ffffffff61303e16565b600160a060020a0389166000908152601b60205260409020546132ab908963ffffffff61307c16565b11156132b657600080fd5b60408051606081018252888152600160a060020a03808b166000908152601b60209081528482205481850152838501829052815485517f23b872dd0000000000000000000000000000000000000000000000000000000081528f85166004820152306024820152604481018e90529551949750909216936323b872dd936064808301949391928390030190829087803b15801561335257600080fd5b505af1158015613366573d6000803e3d6000fd5b505050506040513d602081101561337c57600080fd5b5051151561338957600080fd5b60185461339e9061070863ffffffff61302116565b6133a6613038565b106133c257601a546133be908863ffffffff61307c16565b601a555b6019546133d5908863ffffffff61307c16565b601955600160a060020a0388166000908152601b6020526040902054613401908863ffffffff61307c16565b600160a060020a038981166000818152601b6020908152604080832095909555928d16808252601c845284822083835284528482208054600180820183559184529285902088516003909402019283558785015190830155868501516002909201805460ff19169215159290921790915583518b81529351919390927f484413c33463e7d976e3ded2a85b0c31610d0906977df2cd9cbd6d12a6872a8492918290030190a3505050505050505050565b600080808080600180601d5460ff1660048111156134cb57fe5b146134d557600080fd5b600160a060020a0387166000908152600a6020526040902054879060ff1615156134fe57600080fd5b60165460ff16151561350f57600080fd5b600160a060020a03881660009081526015602052604090205460ff161561353557600080fd5b600160a060020a0388166000908152601560209081526040808320805460ff19166001179055600c825280832054600e90925290912054111561365657600160a060020a0388166000908152600c6020908152604080832054600e909252909120546135a69163ffffffff61302116565b60008054604080517f23b872dd000000000000000000000000000000000000000000000000000000008152600160a060020a038d81166004830152306024830152604482018690529151949b509116926323b872dd92606480840193602093929083900390910190829087803b15801561361f57600080fd5b505af1158015613633573d6000803e3d6000fd5b505050506040513d602081101561364957600080fd5b5051151561365657600080fd5b604051600160a060020a038916907fa49e1bf6eca68fcbe0f530f9389e60870664cb4b8cd290ade9d0fe3b7c4d9c7590600090a260019550600094505b60095460ff861610156136f4578580156136e757506015600060098760ff168154811015156136be57fe5b6000918252602080832090910154600160a060020a0316835282019290925260400190205460ff165b9550600190940193613693565b85156139f9576016805460ff19169055600093505b60095460ff851610156139f25760006015600060098760ff1681548110151561372e57fe5b600091825260208083209190910154600160a060020a031683528201929092526040018120805460ff19169215159290921790915560098054600c92919060ff881690811061377957fe5b6000918252602080832090910154600160a060020a03168352820192909252604001812054600980549192600e9290919060ff89169081106137b757fe5b6000918252602080832090910154600160a060020a0316835282019290925260400190205410156138f157613839600e600060098760ff168154811015156137fb57fe5b6000918252602080832090910154600160a060020a03168352820192909252604001812054600980549192600c9290919060ff8a1690811061102b57fe5b60005460098054929550600160a060020a039091169163a9059cbb919060ff881690811061386357fe5b60009182526020808320909101546040805160e060020a63ffffffff8716028152600160a060020a039092166004830152602482018990525160448083019491928390030190829087803b1580156138ba57600080fd5b505af11580156138ce573d6000803e3d6000fd5b505050506040513d60208110156138e457600080fd5b505115156138f157600080fd5b600e600060098660ff1681548110151561390757fe5b6000918252602080832090910154600160a060020a03168352820192909252604001812054600980549192600c9290919060ff891690811061394557fe5b6000918252602080832090910154600160a060020a0316835282019290925260400181209190915560098054600d92919060ff881690811061398357fe5b6000918252602080832090910154600160a060020a03168352820192909252604001812054600980549192600b9290919060ff89169081106139c157fe5b6000918252602080832090910154600160a060020a0316835282019290925260400190205560019390930192613709565b6011546010555b5050505050505050565b601d547f7a86a836fcb7b1724e95db8cca29b460e17febee51b6f03e272720350340352e9060ff1682613a34613038565b60405180846004811115613a4457fe5b60ff168152602001836004811115613a5857fe5b60ff168152602001828152602001935050505060405180910390a1601d805482919060ff19166001836004811115613a8c57fe5b021790555050565b6000613ab2826111c385670de0b6b3a764000063ffffffff61303e16565b9392505050565b6000818310613ac85781613ab2565b5090919050565b6000613ab2670de0b6b3a76400006111c3858563ffffffff61303e16565b606060405190810160405280600081526020016000815260200160001515815250905600584f46c60af19681376031579adb04a2416e54ee5505351c2a8435e3766026eaa165627a7a7230582088a2218e33576e8c7778e0f3de7f6398e7d31c49102e5babe05a15104d0fd0aa0029",
  "source": "pragma solidity ^0.4.23;\n\nimport \"../Arbitration.sol\";\n\ncontract ArbitrationMock is Arbitration {\n\n  event MockBlockNumber(uint256 _blockNumber);\n  event MockNow(uint256 _mockedNow);\n\n  uint blockNumber = 0;\n\n  uint mockedNow = 0;\n\n  constructor(address _jurToken, address[] _parties, uint256[] _dispersal, uint256[] _funding, bytes32 _agreementHash) public\n    Arbitration(_jurToken, _parties, _dispersal, _funding, _agreementHash)\n  {\n\n  }\n\n  function getBlockNumber() view internal returns (uint) {\n      return blockNumber;\n  }\n\n  function setMockedBlockNumber(uint256 _blockNumber) public {\n      blockNumber = _blockNumber;\n      emit MockBlockNumber(blockNumber);\n  }\n\n  function getNow() view internal returns (uint256) {\n      return mockedNow;\n  }\n\n  function setMockedNow(uint256 _mockedNow) public {\n      mockedNow = _mockedNow;\n      emit MockNow(mockedNow);\n  }\n\n}\n",
  "sourcePath": "/Users/frugge/Sites/jur-mvp/protocol/contracts/mock/ArbitrationMock.sol",
  "compiler": {
    "name": "solc",
    "version": "0.4.25+commit.59dbf8f1.Emscripten.clang"
  },
  "schemaVersion": "2.0.2",
  "updatedAt": "2019-12-17T21:30:28.396Z"
}