{
  "contractName": "JurRewards",
  "abi": [
    {
      "inputs": [
        {
          "internalType": "address",
          "name": "_token",
          "type": "address"
        }
      ],
      "payable": false,
      "stateMutability": "nonpayable",
      "type": "constructor"
    },
    {
      "anonymous": false,
      "inputs": [
        {
          "indexed": false,
          "internalType": "uint256",
          "name": "activityId",
          "type": "uint256"
        },
        {
          "indexed": false,
          "internalType": "uint256",
          "name": "slotCount",
          "type": "uint256"
        },
        {
          "indexed": false,
          "internalType": "uint256",
          "name": "rewardAmount",
          "type": "uint256"
        },
        {
          "indexed": false,
          "internalType": "string",
          "name": "name",
          "type": "string"
        },
        {
          "indexed": false,
          "internalType": "address[]",
          "name": "accessTag",
          "type": "address[]"
        }
      ],
      "name": "ActivityCreated",
      "type": "event"
    },
    {
      "anonymous": false,
      "inputs": [
        {
          "indexed": false,
          "internalType": "uint256",
          "name": "activityId",
          "type": "uint256"
        },
        {
          "indexed": false,
          "internalType": "uint256",
          "name": "slotCount",
          "type": "uint256"
        },
        {
          "indexed": false,
          "internalType": "bool",
          "name": "newState",
          "type": "bool"
        }
      ],
      "name": "ActivityUpdated",
      "type": "event"
    },
    {
      "anonymous": false,
      "inputs": [
        {
          "indexed": true,
          "internalType": "address",
          "name": "manager",
          "type": "address"
        },
        {
          "indexed": true,
          "internalType": "bool",
          "name": "state",
          "type": "bool"
        }
      ],
      "name": "ManagerUpdated",
      "type": "event"
    },
    {
      "anonymous": false,
      "inputs": [
        {
          "indexed": true,
          "internalType": "address",
          "name": "previousOwner",
          "type": "address"
        },
        {
          "indexed": true,
          "internalType": "address",
          "name": "newOwner",
          "type": "address"
        }
      ],
      "name": "OwnershipTransferred",
      "type": "event"
    },
    {
      "anonymous": false,
      "inputs": [
        {
          "indexed": false,
          "internalType": "uint256",
          "name": "activityId",
          "type": "uint256"
        },
        {
          "indexed": false,
          "internalType": "uint256",
          "name": "slotId",
          "type": "uint256"
        },
        {
          "indexed": false,
          "internalType": "address",
          "name": "assignedTo",
          "type": "address"
        },
        {
          "indexed": false,
          "internalType": "uint256",
          "name": "createdAt",
          "type": "uint256"
        },
        {
          "indexed": false,
          "internalType": "uint256",
          "name": "dueDate",
          "type": "uint256"
        }
      ],
      "name": "SlotAssigned",
      "type": "event"
    },
    {
      "anonymous": false,
      "inputs": [
        {
          "indexed": false,
          "internalType": "uint256",
          "name": "activityId",
          "type": "uint256"
        },
        {
          "indexed": false,
          "internalType": "uint256",
          "name": "slotId",
          "type": "uint256"
        },
        {
          "indexed": false,
          "internalType": "uint256",
          "name": "rewardAmount",
          "type": "uint256"
        }
      ],
      "name": "SlotRewarded",
      "type": "event"
    },
    {
      "anonymous": false,
      "inputs": [
        {
          "indexed": false,
          "internalType": "uint256",
          "name": "activityId",
          "type": "uint256"
        },
        {
          "indexed": false,
          "internalType": "uint256",
          "name": "slotId",
          "type": "uint256"
        },
        {
          "indexed": false,
          "internalType": "enum JurRewards.SlotState",
          "name": "newState",
          "type": "uint8"
        }
      ],
      "name": "SlotUpdated",
      "type": "event"
    },
    {
      "constant": true,
      "inputs": [],
      "name": "REWARD_DELAY",
      "outputs": [
        {
          "internalType": "uint256",
          "name": "",
          "type": "uint256"
        }
      ],
      "payable": false,
      "stateMutability": "view",
      "type": "function"
    },
    {
      "constant": true,
      "inputs": [
        {
          "internalType": "uint256",
          "name": "",
          "type": "uint256"
        }
      ],
      "name": "activities",
      "outputs": [
        {
          "internalType": "uint256",
          "name": "id",
          "type": "uint256"
        },
        {
          "internalType": "string",
          "name": "name",
          "type": "string"
        },
        {
          "internalType": "uint256",
          "name": "slotCount",
          "type": "uint256"
        },
        {
          "internalType": "uint256",
          "name": "slotAssigned",
          "type": "uint256"
        },
        {
          "internalType": "uint256",
          "name": "rewardAmount",
          "type": "uint256"
        },
        {
          "internalType": "bool",
          "name": "isActive",
          "type": "bool"
        },
        {
          "internalType": "address",
          "name": "funder",
          "type": "address"
        }
      ],
      "payable": false,
      "stateMutability": "view",
      "type": "function"
    },
    {
      "constant": true,
      "inputs": [],
      "name": "activityBalance",
      "outputs": [
        {
          "internalType": "uint256",
          "name": "",
          "type": "uint256"
        }
      ],
      "payable": false,
      "stateMutability": "view",
      "type": "function"
    },
    {
      "constant": true,
      "inputs": [],
      "name": "activityCount",
      "outputs": [
        {
          "internalType": "uint256",
          "name": "",
          "type": "uint256"
        }
      ],
      "payable": false,
      "stateMutability": "view",
      "type": "function"
    },
    {
      "constant": true,
      "inputs": [
        {
          "internalType": "address",
          "name": "_sender",
          "type": "address"
        }
      ],
      "name": "isManager",
      "outputs": [
        {
          "internalType": "bool",
          "name": "",
          "type": "bool"
        }
      ],
      "payable": false,
      "stateMutability": "view",
      "type": "function"
    },
    {
      "constant": true,
      "inputs": [],
      "name": "isOwner",
      "outputs": [
        {
          "internalType": "bool",
          "name": "",
          "type": "bool"
        }
      ],
      "payable": false,
      "stateMutability": "view",
      "type": "function"
    },
    {
      "constant": true,
      "inputs": [],
      "name": "jurToken",
      "outputs": [
        {
          "internalType": "contract IERC20",
          "name": "",
          "type": "address"
        }
      ],
      "payable": false,
      "stateMutability": "view",
      "type": "function"
    },
    {
      "constant": true,
      "inputs": [
        {
          "internalType": "address",
          "name": "",
          "type": "address"
        }
      ],
      "name": "manager",
      "outputs": [
        {
          "internalType": "bool",
          "name": "",
          "type": "bool"
        }
      ],
      "payable": false,
      "stateMutability": "view",
      "type": "function"
    },
    {
      "constant": true,
      "inputs": [],
      "name": "owner",
      "outputs": [
        {
          "internalType": "address",
          "name": "",
          "type": "address"
        }
      ],
      "payable": false,
      "stateMutability": "view",
      "type": "function"
    },
    {
      "constant": false,
      "inputs": [],
      "name": "renounceManagership",
      "outputs": [],
      "payable": false,
      "stateMutability": "nonpayable",
      "type": "function"
    },
    {
      "constant": false,
      "inputs": [],
      "name": "renounceOwnership",
      "outputs": [],
      "payable": false,
      "stateMutability": "nonpayable",
      "type": "function"
    },
    {
      "constant": true,
      "inputs": [],
      "name": "rewardCount",
      "outputs": [
        {
          "internalType": "uint256",
          "name": "",
          "type": "uint256"
        }
      ],
      "payable": false,
      "stateMutability": "view",
      "type": "function"
    },
    {
      "constant": true,
      "inputs": [],
      "name": "rewardedAmount",
      "outputs": [
        {
          "internalType": "uint256",
          "name": "",
          "type": "uint256"
        }
      ],
      "payable": false,
      "stateMutability": "view",
      "type": "function"
    },
    {
      "constant": true,
      "inputs": [
        {
          "internalType": "address",
          "name": "",
          "type": "address"
        }
      ],
      "name": "rewardeeStats",
      "outputs": [
        {
          "internalType": "uint256",
          "name": "rewardCount",
          "type": "uint256"
        },
        {
          "internalType": "uint256",
          "name": "amountRewarded",
          "type": "uint256"
        }
      ],
      "payable": false,
      "stateMutability": "view",
      "type": "function"
    },
    {
      "constant": true,
      "inputs": [
        {
          "internalType": "address",
          "name": "",
          "type": "address"
        },
        {
          "internalType": "uint256",
          "name": "",
          "type": "uint256"
        }
      ],
      "name": "rewards",
      "outputs": [
        {
          "internalType": "uint256",
          "name": "activityId",
          "type": "uint256"
        },
        {
          "internalType": "uint256",
          "name": "slotId",
          "type": "uint256"
        },
        {
          "internalType": "uint256",
          "name": "rewardAmount",
          "type": "uint256"
        },
        {
          "internalType": "uint256",
          "name": "rewardedOn",
          "type": "uint256"
        }
      ],
      "payable": false,
      "stateMutability": "view",
      "type": "function"
    },
    {
      "constant": true,
      "inputs": [],
      "name": "role",
      "outputs": [
        {
          "internalType": "contract IRole",
          "name": "",
          "type": "address"
        }
      ],
      "payable": false,
      "stateMutability": "view",
      "type": "function"
    },
    {
      "constant": true,
      "inputs": [
        {
          "internalType": "uint256",
          "name": "",
          "type": "uint256"
        },
        {
          "internalType": "uint256",
          "name": "",
          "type": "uint256"
        }
      ],
      "name": "slots",
      "outputs": [
        {
          "internalType": "uint256",
          "name": "id",
          "type": "uint256"
        },
        {
          "internalType": "uint256",
          "name": "activityId",
          "type": "uint256"
        },
        {
          "internalType": "enum JurRewards.SlotState",
          "name": "state",
          "type": "uint8"
        },
        {
          "internalType": "address",
          "name": "assignedTo",
          "type": "address"
        },
        {
          "internalType": "uint256",
          "name": "createdAt",
          "type": "uint256"
        },
        {
          "internalType": "uint256",
          "name": "dueDate",
          "type": "uint256"
        },
        {
          "internalType": "uint256",
          "name": "rewardId",
          "type": "uint256"
        }
      ],
      "payable": false,
      "stateMutability": "view",
      "type": "function"
    },
    {
      "constant": false,
      "inputs": [
        {
          "internalType": "address",
          "name": "newOwner",
          "type": "address"
        }
      ],
      "name": "transferOwnership",
      "outputs": [],
      "payable": false,
      "stateMutability": "nonpayable",
      "type": "function"
    },
    {
      "constant": false,
      "inputs": [
        {
          "internalType": "address",
          "name": "_manager",
          "type": "address"
        },
        {
          "internalType": "bool",
          "name": "_status",
          "type": "bool"
        }
      ],
      "name": "updateManager",
      "outputs": [],
      "payable": false,
      "stateMutability": "nonpayable",
      "type": "function"
    },
    {
      "constant": true,
      "inputs": [
        {
          "internalType": "address",
          "name": "",
          "type": "address"
        }
      ],
      "name": "whitelistedContracts",
      "outputs": [
        {
          "internalType": "string",
          "name": "name",
          "type": "string"
        },
        {
          "internalType": "bool",
          "name": "isActive",
          "type": "bool"
        }
      ],
      "payable": false,
      "stateMutability": "view",
      "type": "function"
    },
    {
      "constant": false,
      "inputs": [
        {
          "internalType": "address",
          "name": "_contract",
          "type": "address"
        }
      ],
      "name": "whitelistRoleContract",
      "outputs": [],
      "payable": false,
      "stateMutability": "nonpayable",
      "type": "function"
    },
    {
      "constant": false,
      "inputs": [
        {
          "internalType": "string",
          "name": "_name",
          "type": "string"
        },
        {
          "internalType": "uint256",
          "name": "_slotCount",
          "type": "uint256"
        },
        {
          "internalType": "uint256",
          "name": "_rewardAmount",
          "type": "uint256"
        },
        {
          "internalType": "address[]",
          "name": "_roleContracts",
          "type": "address[]"
        }
      ],
      "name": "addActivity",
      "outputs": [],
      "payable": false,
      "stateMutability": "nonpayable",
      "type": "function"
    },
    {
      "constant": false,
      "inputs": [
        {
          "internalType": "uint256",
          "name": "_activityId",
          "type": "uint256"
        },
        {
          "internalType": "address",
          "name": "_assignedTo",
          "type": "address"
        },
        {
          "internalType": "uint256",
          "name": "_dueDate",
          "type": "uint256"
        }
      ],
      "name": "assignSlot",
      "outputs": [],
      "payable": false,
      "stateMutability": "nonpayable",
      "type": "function"
    },
    {
      "constant": false,
      "inputs": [
        {
          "internalType": "uint256",
          "name": "_activityId",
          "type": "uint256"
        },
        {
          "internalType": "uint256",
          "name": "_slotCount",
          "type": "uint256"
        }
      ],
      "name": "addSlots",
      "outputs": [],
      "payable": false,
      "stateMutability": "nonpayable",
      "type": "function"
    },
    {
      "constant": false,
      "inputs": [
        {
          "internalType": "uint256",
          "name": "_activityId",
          "type": "uint256"
        },
        {
          "internalType": "bool",
          "name": "_status",
          "type": "bool"
        }
      ],
      "name": "changeActivityState",
      "outputs": [],
      "payable": false,
      "stateMutability": "nonpayable",
      "type": "function"
    },
    {
      "constant": false,
      "inputs": [
        {
          "internalType": "uint256",
          "name": "_activityId",
          "type": "uint256"
        },
        {
          "internalType": "uint256",
          "name": "_slotId",
          "type": "uint256"
        }
      ],
      "name": "markSlotComplete",
      "outputs": [],
      "payable": false,
      "stateMutability": "nonpayable",
      "type": "function"
    },
    {
      "constant": false,
      "inputs": [
        {
          "internalType": "uint256",
          "name": "_activityId",
          "type": "uint256"
        },
        {
          "internalType": "uint256",
          "name": "_slotId",
          "type": "uint256"
        }
      ],
      "name": "cancelSlot",
      "outputs": [],
      "payable": false,
      "stateMutability": "nonpayable",
      "type": "function"
    },
    {
      "constant": false,
      "inputs": [
        {
          "internalType": "uint256",
          "name": "_activityId",
          "type": "uint256"
        },
        {
          "internalType": "uint256",
          "name": "_slotId",
          "type": "uint256"
        }
      ],
      "name": "unassignSlot",
      "outputs": [],
      "payable": false,
      "stateMutability": "nonpayable",
      "type": "function"
    },
    {
      "constant": false,
      "inputs": [
        {
          "internalType": "uint256",
          "name": "_activityId",
          "type": "uint256"
        },
        {
          "internalType": "uint256",
          "name": "_slotId",
          "type": "uint256"
        }
      ],
      "name": "withdrawReward",
      "outputs": [],
      "payable": false,
      "stateMutability": "nonpayable",
      "type": "function"
    },
    {
      "constant": false,
      "inputs": [
        {
          "internalType": "uint256",
          "name": "_activityId",
          "type": "uint256"
        },
        {
          "internalType": "uint256",
          "name": "_slotId",
          "type": "uint256"
        },
        {
          "internalType": "address",
          "name": "_assignedTo",
          "type": "address"
        },
        {
          "internalType": "uint256",
          "name": "_dueDate",
          "type": "uint256"
        }
      ],
      "name": "reassignSlot",
      "outputs": [],
      "payable": false,
      "stateMutability": "nonpayable",
      "type": "function"
    },
    {
      "constant": true,
      "inputs": [
        {
          "internalType": "uint256",
          "name": "_activityId",
          "type": "uint256"
        },
        {
          "internalType": "uint256",
          "name": "_slotId",
          "type": "uint256"
        }
      ],
      "name": "canWithdraw",
      "outputs": [
        {
          "internalType": "bool",
          "name": "",
          "type": "bool"
        }
      ],
      "payable": false,
      "stateMutability": "view",
      "type": "function"
    }
  ],
  "bytecode": "0x60806040526101a4600d553480156200001757600080fd5b50604051620032f6380380620032f6833981810160405260208110156200003d57600080fd5b50516000620000546001600160e01b03620000c416565b600080546001600160a01b0319166001600160a01b0383169081178255604051929350917f8be0079c531659141344cd1fd0a4f28419497f9722a3daafe3b4186f6b6457e0908290a350600380546001600160a01b0319166001600160a01b0392909216919091179055620000c8565b3390565b61321e80620000d86000396000f3fe608060405234801561001057600080fd5b50600436106101e55760003560e01c8063790854251161010f578063bf1db9b4116100a2578063e6240deb11610071578063e6240deb14610795578063ec823b6d1461079d578063f2fde38b14610817578063f3ae24151461083d576101e5565b8063bf1db9b4146105d7578063c23d4f19146105fa578063d4d2e7f214610639578063e02b80ad1461065f576101e5565b8063976ab20f116100de578063976ab20f14610550578063afd2c26014610558578063b201030214610560578063b933ceac14610585576101e5565b8063790854251461051e57806383b6062e146105385780638da5cb5b146105405780638f32d59b14610548576101e5565b80633a35ae2d116101875780635f068b43116101565780635f068b43146104ce5780636c146d9b146104d657806370f2f966146104de578063715018a614610516576101e5565b80633a35ae2d14610420578063421f9a6e1461044e5780634c96346c146104855780635a55b3af146104a8576101e5565b80631267f728116101c35780631267f728146102ff5780631c68c855146103225780632541888c14610345578063391feebb14610377576101e5565b80630d1657e8146101ea5780630d97e782146102b657806310055c1d146102db575b600080fd5b6102076004803603602081101561020057600080fd5b5035610863565b60408051888152908101869052606081018590526080810184905282151560a08201526001600160a01b03821660c082015260e0602080830182815289519284019290925288516101008401918a019080838360005b8381101561027557818101518382015260200161025d565b50505050905090810190601f1680156102a25780820380516001836020036101000a031916815260200191505b509850505050505050505060405180910390f35b6102d9600480360360408110156102cc57600080fd5b5080359060200135610936565b005b6102e3610da4565b604080516001600160a01b039092168252519081900360200190f35b6102d96004803603604081101561031557600080fd5b5080359060200135610db3565b6102d96004803603604081101561033857600080fd5b5080359060200135611087565b6102d96004803603606081101561035b57600080fd5b508035906001600160a01b0360208201351690604001356112dc565b61039d6004803603602081101561038d57600080fd5b50356001600160a01b031661169a565b604051808060200183151515158152602001828103825284818151815260200191508051906020019080838360005b838110156103e45781810151838201526020016103cc565b50505050905090810190601f1680156104115780820380516001836020036101000a031916815260200191505b50935050505060405180910390f35b6102d96004803603604081101561043657600080fd5b506001600160a01b0381351690602001351515611744565b6104716004803603604081101561046457600080fd5b50803590602001356117f1565b604080519115158252519081900360200190f35b6102d96004803603604081101561049b57600080fd5b5080359060200135611872565b6102d9600480360360208110156104be57600080fd5b50356001600160a01b03166119b2565b6102e3611e46565b6102d9611e55565b6102d9600480360360808110156104f457600080fd5b508035906020810135906001600160a01b036040820135169060600135611ee6565b6102d9612282565b610526612325565b60408051918252519081900360200190f35b61052661232b565b6102e3612331565b610471612341565b610526612365565b61052661236b565b6102d96004803603604081101561057657600080fd5b50803590602001351515612371565b6105b16004803603604081101561059b57600080fd5b506001600160a01b038135169060200135612486565b604080519485526020850193909352838301919091526060830152519081900360800190f35b6102d9600480360360408110156105ed57600080fd5b50803590602001356124b8565b6106206004803603602081101561061057600080fd5b50356001600160a01b03166127b0565b6040805192835260208301919091528051918290030190f35b6104716004803603602081101561064f57600080fd5b50356001600160a01b03166127c9565b6102d96004803603608081101561067557600080fd5b81019060208101813564010000000081111561069057600080fd5b8201836020820111156106a257600080fd5b803590602001918460018302840111640100000000831117156106c457600080fd5b91908080601f016020809104026020016040519081016040528093929190818152602001838380828437600092019190915250929584359560208601359591945092506060810191506040013564010000000081111561072357600080fd5b82018360208201111561073557600080fd5b8035906020019184602083028401116401000000008311171561075757600080fd5b9190808060200260200160405190810160405280939291908181526020018383602002808284376000920191909152509295506127de945050505050565b610526612ce9565b6107c0600480360360408110156107b357600080fd5b5080359060200135612cef565b604051808881526020018781526020018660048111156107dc57fe5b60ff1681526001600160a01b0390951660208601525060408085019390935260608401919091526080830152519081900360a0019350915050f35b6102d96004803603602081101561082d57600080fd5b50356001600160a01b0316612d41565b6104716004803603602081101561085357600080fd5b50356001600160a01b0316612da6565b6006602090815260009182526040918290208054600180830180548651600293821615610100026000190190911692909204601f8101869004860283018601909652858252919492939092908301828280156109005780601f106108d557610100808354040283529160200191610900565b820191906000526020600020905b8154815290600101906020018083116108e357829003601f168201915b505050506002830154600384015460048501546005909501549394919390925060ff81169061010090046001600160a01b031687565b6000828152600660209081526040808320600783528184208585528352818420600281015461010090046001600160a01b031685526009909352922061097b33612da6565b806109975750600282015461010090046001600160a01b031633145b6109de576040805162461bcd60e51b8152602060048201526013602482015272155cd95c881b9bdd08185d5d1a1bdc9a5e9959606a1b604482015290519081900360640190fd5b6109e733612da6565b15610c70576000600283015460ff166004811115610a0157fe5b1480610a1f57506001600283015460ff166004811115610a1d57fe5b145b610a70576040805162461bcd60e51b815260206004820152601d60248201527f536c6f74206973206e6f7420696e207265717569726564207374617465000000604482015290519081900360640190fd5b6002828101805460ff1916600183021790555080546005830181905560408051608081018252878152602080820188815260048801805484860190815242606086019081526002808b015461010090046001600160a01b031660009081526008875288812099815298909552959096209351845590516001808501919091559451918301919091559151600390910155825482018355600c805483019055908201549054610b1e9190612dc4565b50610b2f600a548460040154612dc4565b50610b40600b548460040154612e25565b5060035460028301546004808601546040805163a9059cbb60e01b81526101009094046001600160a01b039081169385019390935260248401919091525192169163a9059cbb916044808201926020929091908290030181600087803b158015610ba957600080fd5b505af1158015610bbd573d6000803e3d6000fd5b505050506040513d6020811015610bd357600080fd5b5051610c26576040805162461bcd60e51b815260206004820152601b60248201527f4e6f742061626c6520746f207472616e736665722066756e64732e0000000000604482015290519081900360640190fd5b6004830154604080518781526020810187905280820192909252517ffecf5bb385a45216108f7b8187af0cb0c86d5062ff4c5c8e3acda9c6a30e33259181900360600190a1610d9d565b600282015461010090046001600160a01b0316331415610d9d576000600283015460ff166004811115610c9f57fe5b14610cf1576040805162461bcd60e51b815260206004820152601460248201527f536c6f74206973206e6f742061737369676e6564000000000000000000000000604482015290519081900360640190fd5b81600401544211610d49576040805162461bcd60e51b815260206004820152601f60248201527f447565206461746520686173206e6f74206265656e207265616c697a65642e00604482015290519081900360640190fd5b600282018054600160ff199091168117909155604080518781526020810187905280820192909252517f0d9b6660c500c12a11bdc23e8951f8ceed3e7f0397a969e84108b51e8a79bfda9181900360600190a15b5050505050565b6002546001600160a01b031681565b6000828152600660209081526040808320600783528184208585528352818420600281015461010090046001600160a01b031680865260099094529190932090913314610e3d576040805162461bcd60e51b8152602060048201526013602482015272155cd95c881b9bdd08185d5d1a1bdc9a5e9959606a1b604482015290519081900360640190fd5b6001600283015460ff166004811115610e5257fe5b14610ea4576040805162461bcd60e51b815260206004820152601560248201527f536c6f74206973206e6f7420636f6d706c657465640000000000000000000000604482015290519081900360640190fd5b60028083015460ff166004811115610eb857fe5b505080546005830181905560408051608081018252878152602080820188815260048801805484860190815242606086019081526002808b015461010090046001600160a01b031660009081526008875288812099815298909552959096209351845590516001808501919091559451918301919091559151600390910155825482018355600c805483019055908201549054610f559190612dc4565b5060035460028301546004808601546040805163a9059cbb60e01b81526101009094046001600160a01b039081169385019390935260248401919091525192169163a9059cbb916044808201926020929091908290030181600087803b158015610fbe57600080fd5b505af1158015610fd2573d6000803e3d6000fd5b505050506040513d6020811015610fe857600080fd5b505161103b576040805162461bcd60e51b815260206004820152601b60248201527f4e6f742061626c6520746f207472616e736665722066756e64732e0000000000604482015290519081900360640190fd5b6004830154604080518781526020810187905280820192909252517ffecf5bb385a45216108f7b8187af0cb0c86d5062ff4c5c8e3acda9c6a30e33259181900360600190a15050505050565b3360009081526001602052604090205460ff166110d55760405162461bcd60e51b81526004018080602001828103825260238152602001806131a26023913960400191505060405180910390fd5b6000828152600660209081526040808320600783528184208585529092529091206001600282015460ff16600481111561110b57fe5b14158061112a575060028082015460ff16600481111561112757fe5b14155b6111655760405162461bcd60e51b81526004018080602001828103825260218152602001806131606021913960400191505060405180910390fd5b600281018054600460ff199091168117610100600160a81b031916909155600081830155600b549083015461119a9190612e25565b5060035460058301546004808501546040805163a9059cbb60e01b81526101009094046001600160a01b039081169385019390935260248401919091525192169163a9059cbb916044808201926020929091908290030181600087803b15801561120357600080fd5b505af1158015611217573d6000803e3d6000fd5b505050506040513d602081101561122d57600080fd5b5051611280576040805162461bcd60e51b815260206004820152601b60248201527f4e6f742061626c6520746f207472616e736665722066756e64732e0000000000604482015290519081900360640190fd5b7f0d9b6660c500c12a11bdc23e8951f8ceed3e7f0397a969e84108b51e8a79bfda84846004604051808481526020018381526020018260048111156112c157fe5b60ff168152602001935050505060405180910390a150505050565b3360009081526001602052604090205460ff1661132a5760405162461bcd60e51b81526004018080602001828103825260238152602001806131a26023913960400191505060405180910390fd5b6000838152600660205260409020600581015460ff16611391576040805162461bcd60e51b815260206004820152601e60248201527f4163746976697479206973206e6f742061637469766520616e796d6f72650000604482015290519081900360640190fd5b80600201548160030154106113ed576040805162461bcd60e51b815260206004820152601260248201527f416c6c20736c6f7473206172652066756c6c0000000000000000000000000000604482015290519081900360640190fd5b428211611441576040805162461bcd60e51b815260206004820152601660248201527f43616e6e6f742073657420612070617374206461746500000000000000000000604482015290519081900360640190fd5b6006810154156115435760005b60068201548110156115415781600601818154811061146957fe5b60009182526020918290200154600280546001600160a01b0319166001600160a01b03928316179081905560408051634209fff160e01b8152888416600482015290519190921692634209fff19260248082019391829003018186803b1580156114d257600080fd5b505afa1580156114e6573d6000803e3d6000fd5b505050506040513d60208110156114fc57600080fd5b50516115395760405162461bcd60e51b81526004018080602001828103825260258152602001806131c56025913960400191505060405180910390fd5b60010161144e565b505b6040805160e0810182526003830154808252602080830188815260008486018181526001600160a01b038a16606087015242608087015260a0860189905260c086018290528a8252600784528682209482529390925293902082518155925160018085019190915590516002840180549394939192909160ff1916908360048111156115cb57fe5b021790555060608201518160020160016101000a8154816001600160a01b0302191690836001600160a01b031602179055506080820151816003015560a0820151816004015560c082015181600501559050507f59cdb669f66c2025694a95b12dd1253f70eadb96f310304dd879bf5b9abc209b84826003015485428660405180868152602001858152602001846001600160a01b03166001600160a01b031681526020018381526020018281526020019550505050505060405180910390a160030180546001019055505050565b60056020908152600091825260409182902080548351601f600260001961010060018616150201909316929092049182018490048402810184019094528084529092918391908301828280156117315780601f1061170657610100808354040283529160200191611731565b820191906000526020600020905b81548152906001019060200180831161171457829003601f168201915b5050506001909301549192505060ff1682565b61174c612341565b61179d576040805162461bcd60e51b815260206004820181905260248201527f4f776e61626c653a2063616c6c6572206973206e6f7420746865206f776e6572604482015290519081900360640190fd5b6001600160a01b038216600081815260016020526040808220805460ff191685151590811790915590519092917fdbb9ed174593e4f785d50b5333b66e44e8ccfb28737fa34896411100a93d100e91a35050565b6000828152600760209081526040808320848452909152812081600282015460ff16600481111561181e57fe5b148061183c57506001600282015460ff16600481111561183a57fe5b145b801561185757506118538160040154600d54612dc4565b4210155b1561186657600191505061186c565b60009150505b92915050565b3360009081526001602052604090205460ff166118c05760405162461bcd60e51b81526004018080602001828103825260238152602001806131a26023913960400191505060405180910390fd5b6000828152600660209081526040808320600783528184208585529092529091206001600282015460ff1660048111156118f657fe5b141580611915575060028082015460ff16600481111561191257fe5b14155b6119505760405162461bcd60e51b81526004018080602001828103825260218152602001806131606021913960400191505060405180910390fd5b600281018054600360ff199091168117610100600160a81b0319169091556000600483015560408051868152602081018690527f0d9b6660c500c12a11bdc23e8951f8ceed3e7f0397a969e84108b51e8a79bfda9287928792908101826112c1565b6119ba612341565b611a0b576040805162461bcd60e51b815260206004820181905260248201527f4f776e61626c653a2063616c6c6572206973206e6f7420746865206f776e6572604482015290519081900360640190fd5b600280546001600160a01b0319166001600160a01b03838116919091179182905560408051633f78205d60e21b81529051929091169163fde0817491600480820192600092909190829003018186803b158015611a6757600080fd5b505afa158015611a7b573d6000803e3d6000fd5b505050506040513d6000823e601f3d908101601f191682016040526020811015611aa457600080fd5b8101908080516040519392919084640100000000821115611ac457600080fd5b908301906020820185811115611ad957600080fd5b8251640100000000811182820188101715611af357600080fd5b82525081516020918201929091019080838360005b83811015611b20578181015183820152602001611b08565b50505050905090810190601f168015611b4d5780820380516001836020036101000a031916815260200191505b506040525050505160001415611baa576040805162461bcd60e51b815260206004820152601460248201527f4e6f7420612076616c6964204a757220526f6c65000000000000000000000000604482015290519081900360640190fd5b6001600160a01b038116611c05576040805162461bcd60e51b815260206004820152601360248201527f4e6f7420612076616c696420636f6e7472617400000000000000000000000000604482015290519081900360640190fd5b6001600160a01b03811660009081526005602052604090206001015460ff16158015611c5a57506001600160a01b03811660009081526005602052604090205460026000196101006001841615020190911604155b611cab576040805162461bcd60e51b815260206004820152601760248201527f436f6e747261637420616c726561647920657869737473000000000000000000604482015290519081900360640190fd5b6040518060400160405280600260009054906101000a90046001600160a01b03166001600160a01b031663fde081746040518163ffffffff1660e01b815260040160006040518083038186803b158015611d0457600080fd5b505afa158015611d18573d6000803e3d6000fd5b505050506040513d6000823e601f3d908101601f191682016040526020811015611d4157600080fd5b8101908080516040519392919084640100000000821115611d6157600080fd5b908301906020820185811115611d7657600080fd5b8251640100000000811182820188101715611d9057600080fd5b82525081516020918201929091019080838360005b83811015611dbd578181015183820152602001611da5565b50505050905090810190601f168015611dea5780820380516001836020036101000a031916815260200191505b50604090815293855250506001602093840152506001600160a01b03841660009081526005835220825180519192611e2792849290910190612ffb565b50602091909101516001909101805460ff191691151591909117905550565b6003546001600160a01b031681565b3360009081526001602052604090205460ff16611ea35760405162461bcd60e51b81526004018080602001828103825260238152602001806131a26023913960400191505060405180910390fd5b33600081815260016020526040808220805460ff19169055519091907fdbb9ed174593e4f785d50b5333b66e44e8ccfb28737fa34896411100a93d100e908390a3565b3360009081526001602052604090205460ff16611f345760405162461bcd60e51b81526004018080602001828103825260238152602001806131a26023913960400191505060405180910390fd5b600084815260066020908152604080832060078352818420878552909252909120600582015460ff16611fae576040805162461bcd60e51b815260206004820152601e60248201527f4163746976697479206973206e6f742061637469766520616e796d6f72650000604482015290519081900360640190fd5b6003600282015460ff166004811115611fc357fe5b14611fff5760405162461bcd60e51b81526004018080602001828103825260218152602001806131606021913960400191505060405180910390fd5b428311612053576040805162461bcd60e51b815260206004820152601660248201527f43616e6e6f742073657420612070617374206461746500000000000000000000604482015290519081900360640190fd5b6006820154156121555760005b60068301548110156121535782600601818154811061207b57fe5b60009182526020918290200154600280546001600160a01b0319166001600160a01b03928316179081905560408051634209fff160e01b8152898416600482015290519190921692634209fff19260248082019391829003018186803b1580156120e457600080fd5b505afa1580156120f8573d6000803e3d6000fd5b505050506040513d602081101561210e57600080fd5b505161214b5760405162461bcd60e51b81526004018080602001828103825260258152602001806131c56025913960400191505060405180910390fd5b600101612060565b505b6040805160e081018252868152602080820189815260008385018181526001600160a01b038a16606086015242608086015260a0850189905260c085018290528b8252600784528582208b83529093529390932082518155925160018085019190915590516002840180549394939192909160ff1916908360048111156121d857fe5b0217905550606082810151600283018054610100600160a81b0319166101006001600160a01b0393841602179055608080850151600385015560a080860151600486015560c090950151600590940193909355604080518b8152602081018b9052918916828201524292820192909252918201869052517f59cdb669f66c2025694a95b12dd1253f70eadb96f310304dd879bf5b9abc209b929181900390910190a1505050505050565b61228a612341565b6122db576040805162461bcd60e51b815260206004820181905260248201527f4f776e61626c653a2063616c6c6572206973206e6f7420746865206f776e6572604482015290519081900360640190fd5b600080546040516001600160a01b03909116907f8be0079c531659141344cd1fd0a4f28419497f9722a3daafe3b4186f6b6457e0908390a3600080546001600160a01b0319169055565b600c5481565b600b5481565b6000546001600160a01b03165b90565b600080546001600160a01b0316612356612e67565b6001600160a01b031614905090565b600d5481565b600a5481565b3360009081526001602052604090205460ff166123bf5760405162461bcd60e51b81526004018080602001828103825260238152602001806131a26023913960400191505060405180910390fd5b6000828152600660205260409020600581015460ff161515821515141561242d576040805162461bcd60e51b815260206004820152601d60248201527f416c726561647920696e20746865207265717569726564207374617465000000604482015290519081900360640190fd5b60058101805483151560ff199091168117909155604080518581526000602082015280820192909252517f6da910bbc438229a463d4f2dd0eb3d0d2f93dcdfa4448d10b5ba5eb5779abde89181900360600190a1505050565b600860209081526000928352604080842090915290825290208054600182015460028301546003909301549192909184565b3360009081526001602052604090205460ff166125065760405162461bcd60e51b81526004018080602001828103825260238152602001806131a26023913960400191505060405180910390fd5b6000828152600660205260409020600581015460ff1661256d576040805162461bcd60e51b815260206004820152601e60248201527f4163746976697479206973206e6f742061637469766520616e796d6f72650000604482015290519081900360640190fd5b61257b816004015483612e6b565b60035460408051636eb1769f60e11b815233600482015230602482015290516001600160a01b039092169163dd62ed3e91604480820192602092909190829003018186803b1580156125cc57600080fd5b505afa1580156125e0573d6000803e3d6000fd5b505050506040513d60208110156125f657600080fd5b5051101561264b576040805162461bcd60e51b815260206004820152601560248201527f417070726f76652062616c616e63652066697273740000000000000000000000604482015290519081900360640190fd5b612659816002015483612dc4565b600282015560035460048201546001600160a01b03909116906323b872dd90339030906126869087612e6b565b6040518463ffffffff1660e01b815260040180846001600160a01b03166001600160a01b03168152602001836001600160a01b03166001600160a01b031681526020018281526020019350505050602060405180830381600087803b1580156126ee57600080fd5b505af1158015612702573d6000803e3d6000fd5b505050506040513d602081101561271857600080fd5b505161276b576040805162461bcd60e51b815260206004820152601b60248201527f4e6f742061626c6520746f207472616e736665722066756e64732e0000000000604482015290519081900360640190fd5b604080518481526020810184905260008183015290517f6da910bbc438229a463d4f2dd0eb3d0d2f93dcdfa4448d10b5ba5eb5779abde89181900360600190a1505050565b6009602052600090815260409020805460019091015482565b60016020526000908152604090205460ff1681565b3360009081526001602052604090205460ff1661282c5760405162461bcd60e51b81526004018080602001828103825260238152602001806131a26023913960400191505060405180910390fd5b60005b81518110156128b5576005600083838151811061284857fe5b6020908102919091018101516001600160a01b031682528101919091526040016000206001015460ff166128ad5760405162461bcd60e51b815260040180806020018281038252602181526020018061313f6021913960400191505060405180910390fd5b60010161282f565b506032831061290b576040805162461bcd60e51b815260206004820181905260248201527f43616e6e6f7420637265617465206d6f7265207468616e20353020736c6f7473604482015290519081900360640190fd5b6129158284612e6b565b60035460408051636eb1769f60e11b815233600482015230602482015290516001600160a01b039092169163dd62ed3e91604480820192602092909190829003018186803b15801561296657600080fd5b505afa15801561297a573d6000803e3d6000fd5b505050506040513d602081101561299057600080fd5b505110156129e5576040805162461bcd60e51b815260206004820152601560248201527f417070726f76652062616c616e63652066697273740000000000000000000000604482015290519081900360640190fd5b6040805161010081018252600454808252602080830188815283850188905260006060850181905260808501889052600160a086018190523360c087015260e0860188905293815260068352949094208351815593518051939493612a51938501929190910190612ffb565b5060408201516002820155606082015160038201556080820151600482015560a082015160058201805460c08501516001600160a01b031661010002610100600160a81b031993151560ff19909216919091179290921691909117905560e08201518051612ac9916006840191602090910190613079565b50905050612ae2600b54612add8486612e6b565b612dc4565b506003546001600160a01b03166323b872dd3330612b008688612e6b565b6040518463ffffffff1660e01b815260040180846001600160a01b03166001600160a01b03168152602001836001600160a01b03166001600160a01b031681526020018281526020019350505050602060405180830381600087803b158015612b6857600080fd5b505af1158015612b7c573d6000803e3d6000fd5b505050506040513d6020811015612b9257600080fd5b5051612be5576040805162461bcd60e51b815260206004820152601b60248201527f4e6f742061626c6520746f207472616e736665722066756e64732e0000000000604482015290519081900360640190fd5b7f0856f43cfdbe8322d98dc9ac8285232132feb08161cd117555d4249f268fc6ca60045484848785604051808681526020018581526020018481526020018060200180602001838103835285818151815260200191508051906020019080838360005b83811015612c60578181015183820152602001612c48565b50505050905090810190601f168015612c8d5780820380516001836020036101000a031916815260200191505b508381038252845181528451602091820191808701910280838360005b83811015612cc2578181015183820152602001612caa565b5050505090500197505050505050505060405180910390a150506004805460010190555050565b60045481565b60076020908152600092835260408084209091529082529020805460018201546002830154600384015460048501546005909501549394929360ff8316936101009093046001600160a01b0316929087565b612d49612341565b612d9a576040805162461bcd60e51b815260206004820181905260248201527f4f776e61626c653a2063616c6c6572206973206e6f7420746865206f776e6572604482015290519081900360640190fd5b612da381612ec4565b50565b6001600160a01b031660009081526001602052604090205460ff1690565b600082820183811015612e1e576040805162461bcd60e51b815260206004820152601b60248201527f536166654d6174683a206164646974696f6e206f766572666c6f770000000000604482015290519081900360640190fd5b9392505050565b6000612e1e83836040518060400160405280601e81526020017f536166654d6174683a207375627472616374696f6e206f766572666c6f770000815250612f64565b3390565b600082612e7a5750600061186c565b82820282848281612e8757fe5b0414612e1e5760405162461bcd60e51b81526004018080602001828103825260218152602001806131816021913960400191505060405180910390fd5b6001600160a01b038116612f095760405162461bcd60e51b81526004018080602001828103825260268152602001806131196026913960400191505060405180910390fd5b600080546040516001600160a01b03808516939216917f8be0079c531659141344cd1fd0a4f28419497f9722a3daafe3b4186f6b6457e091a3600080546001600160a01b0319166001600160a01b0392909216919091179055565b60008184841115612ff35760405162461bcd60e51b81526004018080602001828103825283818151815260200191508051906020019080838360005b83811015612fb8578181015183820152602001612fa0565b50505050905090810190601f168015612fe55780820380516001836020036101000a031916815260200191505b509250505060405180910390fd5b505050900390565b828054600181600116156101000203166002900490600052602060002090601f016020900481019282601f1061303c57805160ff1916838001178555613069565b82800160010185558215613069579182015b8281111561306957825182559160200191906001019061304e565b506130759291506130da565b5090565b8280548282559060005260206000209081019282156130ce579160200282015b828111156130ce57825182546001600160a01b0319166001600160a01b03909116178255602090920191600190910190613099565b506130759291506130f4565b61233e91905b8082111561307557600081556001016130e0565b61233e91905b808211156130755780546001600160a01b03191681556001016130fa56fe4f776e61626c653a206e6577206f776e657220697320746865207a65726f2061646472657373526f6c6520636f6e7472616374206973206e6f742077686974656c69737465642e536c6f74206973206e6f7420696e20746865207265717569726564207374617465536166654d6174683a206d756c7469706c69636174696f6e206f766572666c6f774d616e61676561626c653a2063616c6c6572206973206e6f742061204d616e616765725573657220646f6573206e6f74206861766520612077686974656c697374656420726f6c65a265627a7a72315820a6bc63f37e9bdd53bee4765cae948ad4a845f5d354e763836653c49f1018d0af64736f6c63430005110032",
  "source": "pragma solidity >=0.5.0 <0.7.0;\n\nimport \"@openzeppelin/contracts/token/ERC20/IERC20.sol\";\nimport \"@openzeppelin/contracts/math/SafeMath.sol\";\nimport \"./Manageable.sol\";\nimport \"./IRole.sol\";\n\ncontract JurRewards is Manageable {\n    event ActivityCreated(\n        uint256 activityId,\n        uint256 slotCount,\n        uint256 rewardAmount,\n        string name,\n        address[] accessTag\n    );\n    event ActivityUpdated(uint256 activityId, uint256 slotCount, bool newState);\n    event SlotAssigned(\n        uint256 activityId,\n        uint256 slotId,\n        address assignedTo,\n        uint256 createdAt,\n        uint256 dueDate\n    );\n    event SlotUpdated(uint256 activityId, uint256 slotId, SlotState newState);\n    event SlotRewarded(\n        uint256 activityId,\n        uint256 slotId,\n        uint256 rewardAmount\n    );\n\n    enum SlotState {Assigned, Completed, Rewarded, Unassigned, Cancelled}\n\n    struct Activity {\n        uint256 id;\n        string name;\n        uint256 slotCount;\n        uint256 slotAssigned;\n        uint256 rewardAmount;\n        bool isActive;\n        address funder;\n        address[] whiteListedContracts;\n    }\n    struct Slot {\n        uint256 id;\n        uint256 activityId;\n        SlotState state;\n        address assignedTo;\n        uint256 createdAt;\n        uint256 dueDate;\n        uint256 rewardId;\n    }\n    struct Rewards {\n        uint256 activityId;\n        uint256 slotId;\n        uint256 rewardAmount;\n        uint256 rewardedOn;\n    }\n    struct RewardeeStats {\n        uint256 rewardCount;\n        uint256 amountRewarded;\n    }\n    struct RoleContract {\n        string name;\n        bool isActive;\n    }\n\n    IRole public role;\n    /** JUR Token for distribution */\n    IERC20 public jurToken;\n    uint256 public activityCount;\n\n    mapping(address => RoleContract) public whitelistedContracts;\n    mapping(uint256 => Activity) public activities;\n    mapping(uint256 => mapping(uint256 => Slot)) public slots;\n    mapping(address => mapping(uint256 => Rewards)) public rewards;\n    mapping(address => RewardeeStats) public rewardeeStats;\n\n    uint256 public rewardedAmount;\n    uint256 public activityBalance;\n    uint256 public rewardCount;\n    uint256 public REWARD_DELAY = 7 minutes;\n\n    constructor(address _token) public {\n        jurToken = IERC20(_token);\n    }\n\n    function whitelistRoleContract(address _contract) public onlyOwner {\n        role = IRole(_contract);\n        require(bytes(role.getRole()).length != 0, \"Not a valid Jur Role\");\n        require(_contract != address(0), \"Not a valid contrat\");\n        require(\n            !whitelistedContracts[_contract].isActive &&\n                bytes(whitelistedContracts[_contract].name).length == 0,\n            \"Contract already exists\"\n        );\n        whitelistedContracts[_contract] = RoleContract(role.getRole(), true);\n    }\n\n    function addActivity(\n        string memory _name,\n        uint256 _slotCount,\n        uint256 _rewardAmount,\n        address[] memory _roleContracts\n    ) public onlyManager {\n        for (uint256 i = 0; i < _roleContracts.length; i++) {\n            require(\n                whitelistedContracts[_roleContracts[i]].isActive,\n                \"Role contract is not whitelisted.\"\n            );\n        }\n        require(_slotCount < 50, \"Cannot create more than 50 slots\");\n        require(\n            jurToken.allowance(msg.sender, address(this)) >=\n                SafeMath.mul(_rewardAmount, _slotCount),\n            \"Approve balance first\"\n        );\n        activities[activityCount] = Activity(\n            activityCount,\n            _name,\n            _slotCount,\n            0,\n            _rewardAmount,\n            true,\n            msg.sender,\n            _roleContracts\n        );\n        SafeMath.add(activityBalance, SafeMath.mul(_rewardAmount, _slotCount));\n        require(\n            jurToken.transferFrom(\n                msg.sender,\n                address(this),\n                SafeMath.mul(_rewardAmount, _slotCount)\n            ),\n            \"Not able to transfer funds.\"\n        );\n        emit ActivityCreated(\n            activityCount,\n            _slotCount,\n            _rewardAmount,\n            _name,\n            _roleContracts\n        );\n        activityCount++;\n    }\n\n    function assignSlot(\n        uint256 _activityId,\n        address _assignedTo,\n        uint256 _dueDate\n    ) public onlyManager {\n        Activity storage _activity = activities[_activityId];\n        require(_activity.isActive, \"Activity is not active anymore\");\n        require(\n            _activity.slotAssigned < _activity.slotCount,\n            \"All slots are full\"\n        );\n        require(_dueDate > block.timestamp, \"Cannot set a past date\");\n        //todo add require for allowing new or unassigned slots only\n        if (_activity.whiteListedContracts.length > 0) {\n            for (\n                uint256 i = 0;\n                i < _activity.whiteListedContracts.length;\n                i++\n            ) {\n                role = IRole(_activity.whiteListedContracts[i]);\n                require(\n                    role.isUser(_assignedTo),\n                    \"User does not have a whitelisted role\"\n                );\n            }\n        }\n\n        slots[_activityId][_activity.slotAssigned] = Slot(\n            _activity.slotAssigned,\n            _activityId,\n            SlotState.Assigned,\n            _assignedTo,\n            block.timestamp,\n            _dueDate,\n            0\n        );\n        emit SlotAssigned(\n            _activityId,\n            _activity.slotAssigned,\n            _assignedTo,\n            block.timestamp,\n            _dueDate\n        );\n        _activity.slotAssigned++;\n    }\n\n    function addSlots(uint256 _activityId, uint256 _slotCount)\n        public\n        onlyManager\n    {\n        Activity storage _activity = activities[_activityId];\n        require(_activity.isActive, \"Activity is not active anymore\");\n        require(\n            jurToken.allowance(msg.sender, address(this)) >=\n                SafeMath.mul(_activity.rewardAmount, _slotCount),\n            \"Approve balance first\"\n        );\n        _activity.slotCount = SafeMath.add(_activity.slotCount, _slotCount);\n        require(\n            jurToken.transferFrom(\n                msg.sender,\n                address(this),\n                SafeMath.mul(_activity.rewardAmount, _slotCount)\n            ),\n            \"Not able to transfer funds.\"\n        );\n        emit ActivityUpdated(_activityId, _slotCount, false);\n    }\n\n    function changeActivityState(uint256 _activityId, bool _status)\n        public\n        onlyManager\n    {\n        Activity storage _activity = activities[_activityId];\n        require(_activity.isActive != _status, \"Already in the required state\");\n        _activity.isActive = _status;\n        emit ActivityUpdated(_activityId, 0, _status);\n    }\n\n    function markSlotComplete(uint256 _activityId, uint256 _slotId) public {\n        Activity storage _activity = activities[_activityId];\n        Slot storage _slot = slots[_activityId][_slotId];\n        RewardeeStats storage _stats = rewardeeStats[_slot.assignedTo];\n        require(\n            isManager(msg.sender) || msg.sender == _slot.assignedTo,\n            \"User not authorized\"\n        );\n        if (isManager(msg.sender)) {\n            require(\n                _slot.state == SlotState.Assigned ||\n                    _slot.state == SlotState.Completed,\n                \"Slot is not in required state\"\n            );\n            _slot.state = SlotState.Rewarded;\n            _slot.rewardId = _stats.rewardCount;\n            rewards[_slot.assignedTo][_stats.rewardCount] = Rewards(\n                _activityId,\n                _slotId,\n                _activity.rewardAmount,\n                block.timestamp\n            );\n            _stats.rewardCount++;\n            rewardCount++;\n            SafeMath.add(_stats.amountRewarded, _activity.rewardAmount);\n            SafeMath.add(rewardedAmount, _activity.rewardAmount);\n            SafeMath.sub(activityBalance, _activity.rewardAmount);\n            require(\n                jurToken.transfer(_slot.assignedTo, _activity.rewardAmount),\n                \"Not able to transfer funds.\"\n            );\n            emit SlotRewarded(_activityId, _slotId, _activity.rewardAmount);\n        } else if (msg.sender == _slot.assignedTo) {\n            require(_slot.state == SlotState.Assigned, \"Slot is not assigned\");\n            require(\n                block.timestamp > _slot.dueDate,\n                \"Due date has not been realized.\"\n            );\n            _slot.state = SlotState.Completed;\n            emit SlotUpdated(_activityId, _slotId, SlotState.Completed);\n        }\n    }\n\n    function cancelSlot(uint256 _activityId, uint256 _slotId)\n        public\n        onlyManager\n    {\n        Activity storage _activity = activities[_activityId];\n        Slot storage _slot = slots[_activityId][_slotId];\n        require(\n            _slot.state != SlotState.Completed ||\n                _slot.state != SlotState.Rewarded,\n            \"Slot is not in the required state\"\n        );\n        _slot.state = SlotState.Cancelled;\n        _slot.assignedTo = address(0);\n        _slot.dueDate = 0;\n        SafeMath.sub(activityBalance, _activity.rewardAmount);\n        require(\n            jurToken.transfer(_activity.funder, _activity.rewardAmount),\n            \"Not able to transfer funds.\"\n        );\n        emit SlotUpdated(_activityId, _slotId, SlotState.Cancelled);\n    }\n\n    function unassignSlot(uint256 _activityId, uint256 _slotId)\n        public\n        onlyManager\n    {\n        Activity storage _activity = activities[_activityId];\n        Slot storage _slot = slots[_activityId][_slotId];\n        require(\n            _slot.state != SlotState.Completed ||\n                _slot.state != SlotState.Rewarded,\n            \"Slot is not in the required state\"\n        );\n        _slot.state = SlotState.Unassigned;\n        _slot.assignedTo = address(0);\n        _slot.dueDate = 0;\n        _activity.slotAssigned;\n        emit SlotUpdated(_activityId, _slotId, SlotState.Unassigned);\n    }\n\n    function withdrawReward(uint256 _activityId, uint256 _slotId) public {\n        Activity storage _activity = activities[_activityId];\n        Slot storage _slot = slots[_activityId][_slotId];\n        RewardeeStats storage _stats = rewardeeStats[_slot.assignedTo];\n        require(msg.sender == _slot.assignedTo, \"User not authorized\");\n        require(_slot.state == SlotState.Completed, \"Slot is not completed\");\n        _slot.state == SlotState.Rewarded;\n        _slot.rewardId = _stats.rewardCount;\n        rewards[_slot.assignedTo][_stats.rewardCount] = Rewards(\n            _activityId,\n            _slotId,\n            _activity.rewardAmount,\n            block.timestamp\n        );\n        _stats.rewardCount++;\n        rewardCount++;\n        //todo: check overall balance updates\n        SafeMath.add(_stats.amountRewarded, _activity.rewardAmount);\n        require(\n            jurToken.transfer(_slot.assignedTo, _activity.rewardAmount),\n            \"Not able to transfer funds.\"\n        );\n        emit SlotRewarded(_activityId, _slotId, _activity.rewardAmount);\n    }\n\n    function reassignSlot(\n        uint256 _activityId,\n        uint256 _slotId,\n        address _assignedTo,\n        uint256 _dueDate\n    ) public onlyManager {\n        Activity storage _activity = activities[_activityId];\n        Slot storage _slot = slots[_activityId][_slotId];\n        require(_activity.isActive, \"Activity is not active anymore\");\n        require(\n            _slot.state == SlotState.Unassigned,\n            \"Slot is not in the required state\"\n        );\n        require(_dueDate > block.timestamp, \"Cannot set a past date\");\n        //todo add require for allowing new or unassigned slots only\n        if (_activity.whiteListedContracts.length > 0) {\n            for (\n                uint256 i = 0;\n                i < _activity.whiteListedContracts.length;\n                i++\n            ) {\n                role = IRole(_activity.whiteListedContracts[i]);\n                require(\n                    role.isUser(_assignedTo),\n                    \"User does not have a whitelisted role\"\n                );\n            }\n        }\n\n        slots[_activityId][_slotId] = Slot(\n            _slotId,\n            _activityId,\n            SlotState.Assigned,\n            _assignedTo,\n            block.timestamp,\n            _dueDate,\n            0\n        );\n        emit SlotAssigned(\n            _activityId,\n            _slotId,\n            _assignedTo,\n            block.timestamp,\n            _dueDate\n        );\n    }\n\n    function canWithdraw(uint256 _activityId, uint256 _slotId)\n        public\n        view\n        returns (bool)\n    {\n        Slot storage _slot = slots[_activityId][_slotId];\n        if (\n            (_slot.state == SlotState.Assigned ||\n                _slot.state == SlotState.Completed) &&\n            (block.timestamp >= SafeMath.add(_slot.dueDate, REWARD_DELAY))\n        ) {\n            return true;\n        } else return false;\n    }\n}\n",
  "sourcePath": "/Users/shuchityagi/Jur/rewards-sc/contracts/JurRewards.sol",
  "compiler": {
    "name": "solc",
    "version": "0.5.17+commit.d19bba13.Emscripten.clang"
  },
  "schemaVersion": "3.2.0",
  "updatedAt": "2020-07-02T10:52:58.027Z",
  "networkType": "ethereum",
  "devdoc": {
    "methods": {
      "isManager(address)": {
        "details": "Returns true if the caller is a manager."
      },
      "isOwner()": {
        "details": "Returns true if the caller is the current owner."
      },
      "owner()": {
        "details": "Returns the address of the current owner."
      },
      "renounceManagership()": {
        "details": "Leaves the contract without manager in case there is only one manager alloted. It will not be possible to call `onlyManager` functions anymore."
      },
      "renounceOwnership()": {
        "details": "Leaves the contract without owner. It will not be possible to call `onlyOwner` functions anymore. Can only be called by the current owner.     * NOTE: Renouncing ownership will leave the contract without an owner, thereby removing any functionality that is only available to the owner."
      },
      "transferOwnership(address)": {
        "details": "Transfers ownership of the contract to a new account (`newOwner`). Can only be called by the current owner."
      },
      "updateManager(address,bool)": {
        "details": "Adds a new manager."
      }
    }
  },
  "userdoc": {
    "methods": {}
  }
}