{
  "contractName": "JurRewards",
  "abi": [
    {
      "inputs": [
        {
          "internalType": "address",
          "name": "_token",
          "type": "address"
        }
      ],
      "payable": false,
      "stateMutability": "nonpayable",
      "type": "constructor"
    },
    {
      "anonymous": false,
      "inputs": [
        {
          "indexed": false,
          "internalType": "uint256",
          "name": "activityId",
          "type": "uint256"
        },
        {
          "indexed": false,
          "internalType": "uint256",
          "name": "slotCount",
          "type": "uint256"
        },
        {
          "indexed": false,
          "internalType": "uint256",
          "name": "rewardAmount",
          "type": "uint256"
        },
        {
          "indexed": false,
          "internalType": "string",
          "name": "name",
          "type": "string"
        },
        {
          "indexed": false,
          "internalType": "address[]",
          "name": "whitelistContractAddresses",
          "type": "address[]"
        }
      ],
      "name": "ActivityCreated",
      "type": "event"
    },
    {
      "anonymous": false,
      "inputs": [
        {
          "indexed": false,
          "internalType": "uint256",
          "name": "activityId",
          "type": "uint256"
        },
        {
          "indexed": false,
          "internalType": "uint256",
          "name": "slotCount",
          "type": "uint256"
        },
        {
          "indexed": false,
          "internalType": "bool",
          "name": "newState",
          "type": "bool"
        }
      ],
      "name": "ActivityUpdated",
      "type": "event"
    },
    {
      "anonymous": false,
      "inputs": [
        {
          "indexed": true,
          "internalType": "address",
          "name": "manager",
          "type": "address"
        },
        {
          "indexed": true,
          "internalType": "bool",
          "name": "state",
          "type": "bool"
        }
      ],
      "name": "ManagerUpdated",
      "type": "event"
    },
    {
      "anonymous": false,
      "inputs": [
        {
          "indexed": true,
          "internalType": "address",
          "name": "previousOwner",
          "type": "address"
        },
        {
          "indexed": true,
          "internalType": "address",
          "name": "newOwner",
          "type": "address"
        }
      ],
      "name": "OwnershipTransferred",
      "type": "event"
    },
    {
      "anonymous": false,
      "inputs": [
        {
          "indexed": false,
          "internalType": "uint256",
          "name": "activityId",
          "type": "uint256"
        },
        {
          "indexed": false,
          "internalType": "uint256",
          "name": "slotId",
          "type": "uint256"
        },
        {
          "indexed": false,
          "internalType": "address",
          "name": "assignedTo",
          "type": "address"
        },
        {
          "indexed": false,
          "internalType": "uint256",
          "name": "createdAt",
          "type": "uint256"
        },
        {
          "indexed": false,
          "internalType": "uint256",
          "name": "dueDate",
          "type": "uint256"
        }
      ],
      "name": "SlotAssigned",
      "type": "event"
    },
    {
      "anonymous": false,
      "inputs": [
        {
          "indexed": false,
          "internalType": "uint256",
          "name": "activityId",
          "type": "uint256"
        },
        {
          "indexed": false,
          "internalType": "uint256",
          "name": "slotId",
          "type": "uint256"
        },
        {
          "indexed": false,
          "internalType": "uint256",
          "name": "rewardAmount",
          "type": "uint256"
        }
      ],
      "name": "SlotRewarded",
      "type": "event"
    },
    {
      "anonymous": false,
      "inputs": [
        {
          "indexed": false,
          "internalType": "uint256",
          "name": "activityId",
          "type": "uint256"
        },
        {
          "indexed": false,
          "internalType": "uint256",
          "name": "slotId",
          "type": "uint256"
        },
        {
          "indexed": false,
          "internalType": "enum JurRewards.SlotState",
          "name": "newState",
          "type": "uint8"
        }
      ],
      "name": "SlotUpdated",
      "type": "event"
    },
    {
      "constant": true,
      "inputs": [],
      "name": "REWARD_DELAY",
      "outputs": [
        {
          "internalType": "uint256",
          "name": "",
          "type": "uint256"
        }
      ],
      "payable": false,
      "stateMutability": "view",
      "type": "function"
    },
    {
      "constant": true,
      "inputs": [
        {
          "internalType": "uint256",
          "name": "",
          "type": "uint256"
        }
      ],
      "name": "activities",
      "outputs": [
        {
          "internalType": "uint256",
          "name": "id",
          "type": "uint256"
        },
        {
          "internalType": "string",
          "name": "name",
          "type": "string"
        },
        {
          "internalType": "uint256",
          "name": "slotCount",
          "type": "uint256"
        },
        {
          "internalType": "uint256",
          "name": "slotAssigned",
          "type": "uint256"
        },
        {
          "internalType": "uint256",
          "name": "rewardAmount",
          "type": "uint256"
        },
        {
          "internalType": "bool",
          "name": "isActive",
          "type": "bool"
        },
        {
          "internalType": "address",
          "name": "funder",
          "type": "address"
        }
      ],
      "payable": false,
      "stateMutability": "view",
      "type": "function"
    },
    {
      "constant": true,
      "inputs": [],
      "name": "activityBalance",
      "outputs": [
        {
          "internalType": "uint256",
          "name": "",
          "type": "uint256"
        }
      ],
      "payable": false,
      "stateMutability": "view",
      "type": "function"
    },
    {
      "constant": true,
      "inputs": [],
      "name": "activityCount",
      "outputs": [
        {
          "internalType": "uint256",
          "name": "",
          "type": "uint256"
        }
      ],
      "payable": false,
      "stateMutability": "view",
      "type": "function"
    },
    {
      "constant": true,
      "inputs": [
        {
          "internalType": "address",
          "name": "_sender",
          "type": "address"
        }
      ],
      "name": "isManager",
      "outputs": [
        {
          "internalType": "bool",
          "name": "",
          "type": "bool"
        }
      ],
      "payable": false,
      "stateMutability": "view",
      "type": "function"
    },
    {
      "constant": true,
      "inputs": [],
      "name": "isOwner",
      "outputs": [
        {
          "internalType": "bool",
          "name": "",
          "type": "bool"
        }
      ],
      "payable": false,
      "stateMutability": "view",
      "type": "function"
    },
    {
      "constant": true,
      "inputs": [],
      "name": "jurToken",
      "outputs": [
        {
          "internalType": "contract IERC20",
          "name": "",
          "type": "address"
        }
      ],
      "payable": false,
      "stateMutability": "view",
      "type": "function"
    },
    {
      "constant": true,
      "inputs": [
        {
          "internalType": "address",
          "name": "",
          "type": "address"
        }
      ],
      "name": "manager",
      "outputs": [
        {
          "internalType": "bool",
          "name": "",
          "type": "bool"
        }
      ],
      "payable": false,
      "stateMutability": "view",
      "type": "function"
    },
    {
      "constant": true,
      "inputs": [],
      "name": "owner",
      "outputs": [
        {
          "internalType": "address",
          "name": "",
          "type": "address"
        }
      ],
      "payable": false,
      "stateMutability": "view",
      "type": "function"
    },
    {
      "constant": false,
      "inputs": [],
      "name": "renounceManagership",
      "outputs": [],
      "payable": false,
      "stateMutability": "nonpayable",
      "type": "function"
    },
    {
      "constant": false,
      "inputs": [],
      "name": "renounceOwnership",
      "outputs": [],
      "payable": false,
      "stateMutability": "nonpayable",
      "type": "function"
    },
    {
      "constant": true,
      "inputs": [],
      "name": "rewardCount",
      "outputs": [
        {
          "internalType": "uint256",
          "name": "",
          "type": "uint256"
        }
      ],
      "payable": false,
      "stateMutability": "view",
      "type": "function"
    },
    {
      "constant": true,
      "inputs": [],
      "name": "rewardedAmount",
      "outputs": [
        {
          "internalType": "uint256",
          "name": "",
          "type": "uint256"
        }
      ],
      "payable": false,
      "stateMutability": "view",
      "type": "function"
    },
    {
      "constant": true,
      "inputs": [
        {
          "internalType": "address",
          "name": "",
          "type": "address"
        }
      ],
      "name": "rewardeeStats",
      "outputs": [
        {
          "internalType": "uint256",
          "name": "rewardCount",
          "type": "uint256"
        },
        {
          "internalType": "uint256",
          "name": "amountRewarded",
          "type": "uint256"
        }
      ],
      "payable": false,
      "stateMutability": "view",
      "type": "function"
    },
    {
      "constant": true,
      "inputs": [
        {
          "internalType": "address",
          "name": "",
          "type": "address"
        },
        {
          "internalType": "uint256",
          "name": "",
          "type": "uint256"
        }
      ],
      "name": "rewards",
      "outputs": [
        {
          "internalType": "uint256",
          "name": "activityId",
          "type": "uint256"
        },
        {
          "internalType": "uint256",
          "name": "slotId",
          "type": "uint256"
        },
        {
          "internalType": "uint256",
          "name": "rewardAmount",
          "type": "uint256"
        },
        {
          "internalType": "uint256",
          "name": "rewardedOn",
          "type": "uint256"
        }
      ],
      "payable": false,
      "stateMutability": "view",
      "type": "function"
    },
    {
      "constant": true,
      "inputs": [
        {
          "internalType": "uint256",
          "name": "",
          "type": "uint256"
        },
        {
          "internalType": "uint256",
          "name": "",
          "type": "uint256"
        }
      ],
      "name": "slots",
      "outputs": [
        {
          "internalType": "uint256",
          "name": "id",
          "type": "uint256"
        },
        {
          "internalType": "uint256",
          "name": "activityId",
          "type": "uint256"
        },
        {
          "internalType": "enum JurRewards.SlotState",
          "name": "state",
          "type": "uint8"
        },
        {
          "internalType": "address",
          "name": "assignedTo",
          "type": "address"
        },
        {
          "internalType": "uint256",
          "name": "createdAt",
          "type": "uint256"
        },
        {
          "internalType": "uint256",
          "name": "dueDate",
          "type": "uint256"
        },
        {
          "internalType": "uint256",
          "name": "rewardId",
          "type": "uint256"
        }
      ],
      "payable": false,
      "stateMutability": "view",
      "type": "function"
    },
    {
      "constant": false,
      "inputs": [
        {
          "internalType": "address",
          "name": "newOwner",
          "type": "address"
        }
      ],
      "name": "transferOwnership",
      "outputs": [],
      "payable": false,
      "stateMutability": "nonpayable",
      "type": "function"
    },
    {
      "constant": false,
      "inputs": [
        {
          "internalType": "address",
          "name": "_manager",
          "type": "address"
        },
        {
          "internalType": "bool",
          "name": "_status",
          "type": "bool"
        }
      ],
      "name": "updateManager",
      "outputs": [],
      "payable": false,
      "stateMutability": "nonpayable",
      "type": "function"
    },
    {
      "constant": true,
      "inputs": [
        {
          "internalType": "address",
          "name": "",
          "type": "address"
        }
      ],
      "name": "whitelistedContracts",
      "outputs": [
        {
          "internalType": "string",
          "name": "name",
          "type": "string"
        },
        {
          "internalType": "bool",
          "name": "isActive",
          "type": "bool"
        }
      ],
      "payable": false,
      "stateMutability": "view",
      "type": "function"
    },
    {
      "constant": false,
      "inputs": [
        {
          "internalType": "address",
          "name": "_contract",
          "type": "address"
        },
        {
          "internalType": "bool",
          "name": "_status",
          "type": "bool"
        }
      ],
      "name": "whitelistRoleContract",
      "outputs": [],
      "payable": false,
      "stateMutability": "nonpayable",
      "type": "function"
    },
    {
      "constant": false,
      "inputs": [
        {
          "internalType": "string",
          "name": "_name",
          "type": "string"
        },
        {
          "internalType": "uint256",
          "name": "_slotCount",
          "type": "uint256"
        },
        {
          "internalType": "uint256",
          "name": "_rewardAmount",
          "type": "uint256"
        },
        {
          "internalType": "address[]",
          "name": "_roleContracts",
          "type": "address[]"
        }
      ],
      "name": "addActivity",
      "outputs": [],
      "payable": false,
      "stateMutability": "nonpayable",
      "type": "function"
    },
    {
      "constant": false,
      "inputs": [
        {
          "internalType": "uint256",
          "name": "_activityId",
          "type": "uint256"
        },
        {
          "internalType": "address",
          "name": "_assignedTo",
          "type": "address"
        },
        {
          "internalType": "uint256",
          "name": "_dueDate",
          "type": "uint256"
        }
      ],
      "name": "assignSlot",
      "outputs": [],
      "payable": false,
      "stateMutability": "nonpayable",
      "type": "function"
    },
    {
      "constant": false,
      "inputs": [
        {
          "internalType": "uint256",
          "name": "_activityId",
          "type": "uint256"
        },
        {
          "internalType": "uint256",
          "name": "_slotCount",
          "type": "uint256"
        }
      ],
      "name": "addSlots",
      "outputs": [],
      "payable": false,
      "stateMutability": "nonpayable",
      "type": "function"
    },
    {
      "constant": false,
      "inputs": [
        {
          "internalType": "uint256",
          "name": "_activityId",
          "type": "uint256"
        },
        {
          "internalType": "bool",
          "name": "_status",
          "type": "bool"
        }
      ],
      "name": "changeActivityState",
      "outputs": [],
      "payable": false,
      "stateMutability": "nonpayable",
      "type": "function"
    },
    {
      "constant": false,
      "inputs": [
        {
          "internalType": "uint256",
          "name": "_activityId",
          "type": "uint256"
        },
        {
          "internalType": "uint256",
          "name": "_slotId",
          "type": "uint256"
        }
      ],
      "name": "markSlotComplete",
      "outputs": [],
      "payable": false,
      "stateMutability": "nonpayable",
      "type": "function"
    },
    {
      "constant": false,
      "inputs": [
        {
          "internalType": "uint256",
          "name": "_activityId",
          "type": "uint256"
        },
        {
          "internalType": "uint256",
          "name": "_slotId",
          "type": "uint256"
        }
      ],
      "name": "cancelSlot",
      "outputs": [],
      "payable": false,
      "stateMutability": "nonpayable",
      "type": "function"
    },
    {
      "constant": false,
      "inputs": [
        {
          "internalType": "uint256",
          "name": "_activityId",
          "type": "uint256"
        },
        {
          "internalType": "uint256",
          "name": "_slotId",
          "type": "uint256"
        }
      ],
      "name": "unassignSlot",
      "outputs": [],
      "payable": false,
      "stateMutability": "nonpayable",
      "type": "function"
    },
    {
      "constant": false,
      "inputs": [
        {
          "internalType": "uint256",
          "name": "_activityId",
          "type": "uint256"
        },
        {
          "internalType": "uint256",
          "name": "_slotId",
          "type": "uint256"
        }
      ],
      "name": "withdrawReward",
      "outputs": [],
      "payable": false,
      "stateMutability": "nonpayable",
      "type": "function"
    },
    {
      "constant": false,
      "inputs": [
        {
          "internalType": "uint256",
          "name": "_activityId",
          "type": "uint256"
        },
        {
          "internalType": "uint256",
          "name": "_slotId",
          "type": "uint256"
        },
        {
          "internalType": "address",
          "name": "_assignedTo",
          "type": "address"
        },
        {
          "internalType": "uint256",
          "name": "_dueDate",
          "type": "uint256"
        }
      ],
      "name": "reassignSlot",
      "outputs": [],
      "payable": false,
      "stateMutability": "nonpayable",
      "type": "function"
    },
    {
      "constant": true,
      "inputs": [
        {
          "internalType": "uint256",
          "name": "_activityId",
          "type": "uint256"
        },
        {
          "internalType": "uint256",
          "name": "_slotId",
          "type": "uint256"
        }
      ],
      "name": "canWithdraw",
      "outputs": [
        {
          "internalType": "bool",
          "name": "",
          "type": "bool"
        }
      ],
      "payable": false,
      "stateMutability": "view",
      "type": "function"
    },
    {
      "constant": true,
      "inputs": [
        {
          "internalType": "uint256",
          "name": "_activityId",
          "type": "uint256"
        }
      ],
      "name": "getWhitelistedContracts",
      "outputs": [
        {
          "internalType": "address[]",
          "name": "",
          "type": "address[]"
        }
      ],
      "payable": false,
      "stateMutability": "view",
      "type": "function"
    }
  ],
  "bytecode": "0x608060405262093a80600d553480156200001857600080fd5b50604051620032ed380380620032ed833981810160405260208110156200003e57600080fd5b50516000620000556001600160e01b03620000c516565b600080546001600160a01b0319166001600160a01b0383169081178255604051929350917f8be0079c531659141344cd1fd0a4f28419497f9722a3daafe3b4186f6b6457e0908290a350600380546001600160a01b0319166001600160a01b0392909216919091179055620000c9565b3390565b61321480620000d96000396000f3fe608060405234801561001057600080fd5b50600436106101e55760003560e01c80638da5cb5b1161010f578063c23d4f19116100a2578063e6240deb11610071578063e6240deb14610802578063ec823b6d1461080a578063f2fde38b14610884578063f3ae2415146108aa576101e5565b8063c23d4f19146105fa578063d4d2e7f214610639578063d96a4a721461065f578063e02b80ad146106cc576101e5565b8063b2010302116100de578063b201030214610532578063b933ceac14610557578063b9ccd907146105a9578063bf1db9b4146105d7576101e5565b80638da5cb5b146105125780638f32d59b1461051a578063976ab20f14610522578063afd2c2601461052a576101e5565b8063421f9a6e1161018757806370f2f9661161015657806370f2f966146104b0578063715018a6146104e857806379085425146104f057806383b6062e1461050a576101e5565b8063421f9a6e1461042a5780634c96346c146104615780635f068b43146104845780636c146d9b146104a8576101e5565b80631c68c855116101c35780631c68c855146102fe5780632541888c14610321578063391feebb146103535780633a35ae2d146103fc576101e5565b80630d1657e8146101ea5780630d97e782146102b65780631267f728146102db575b600080fd5b6102076004803603602081101561020057600080fd5b50356108d0565b60408051888152908101869052606081018590526080810184905282151560a08201526001600160a01b03821660c082015260e0602080830182815289519284019290925288516101008401918a019080838360005b8381101561027557818101518382015260200161025d565b50505050905090810190601f1680156102a25780820380516001836020036101000a031916815260200191505b509850505050505050505060405180910390f35b6102d9600480360360408110156102cc57600080fd5b50803590602001356109a3565b005b6102d9600480360360408110156102f157600080fd5b5080359060200135610e1d565b6102d96004803603604081101561031457600080fd5b508035906020013561110a565b6102d96004803603606081101561033757600080fd5b508035906001600160a01b036020820135169060400135611362565b6103796004803603602081101561036957600080fd5b50356001600160a01b0316611720565b604051808060200183151515158152602001828103825284818151815260200191508051906020019080838360005b838110156103c05781810151838201526020016103a8565b50505050905090810190601f1680156103ed5780820380516001836020036101000a031916815260200191505b50935050505060405180910390f35b6102d96004803603604081101561041257600080fd5b506001600160a01b03813516906020013515156117ca565b61044d6004803603604081101561044057600080fd5b5080359060200135611877565b604080519115158252519081900360200190f35b6102d96004803603604081101561047757600080fd5b50803590602001356118f8565b61048c611a39565b604080516001600160a01b039092168252519081900360200190f35b6102d9611a48565b6102d9600480360360808110156104c657600080fd5b508035906020810135906001600160a01b036040820135169060600135611ad9565b6102d9611e75565b6104f8611f18565b60408051918252519081900360200190f35b6104f8611f1e565b61048c611f24565b61044d611f34565b6104f8611f58565b6104f8611f5e565b6102d96004803603604081101561054857600080fd5b50803590602001351515611f64565b6105836004803603604081101561056d57600080fd5b506001600160a01b03813516906020013561201a565b604080519485526020850193909352838301919091526060830152519081900360800190f35b6102d9600480360360408110156105bf57600080fd5b506001600160a01b038135169060200135151561204c565b6102d9600480360360408110156105ed57600080fd5b508035906020013561243c565b6106206004803603602081101561061057600080fd5b50356001600160a01b0316612734565b6040805192835260208301919091528051918290030190f35b61044d6004803603602081101561064f57600080fd5b50356001600160a01b031661274d565b61067c6004803603602081101561067557600080fd5b5035612762565b60408051602080825283518183015283519192839290830191858101910280838360005b838110156106b85781810151838201526020016106a0565b505050509050019250505060405180910390f35b6102d9600480360360808110156106e257600080fd5b8101906020810181356401000000008111156106fd57600080fd5b82018360208201111561070f57600080fd5b8035906020019184600183028401116401000000008311171561073157600080fd5b91908080601f016020809104026020016040519081016040528093929190818152602001838380828437600092019190915250929584359560208601359591945092506060810191506040013564010000000081111561079057600080fd5b8201836020820111156107a257600080fd5b803590602001918460208302840111640100000000831117156107c457600080fd5b9190808060200260200160405190810160405280939291908181526020018383602002808284376000920191909152509295506127d2945050505050565b6104f8612cdf565b61082d6004803603604081101561082057600080fd5b5080359060200135612ce5565b6040518088815260200187815260200186600481111561084957fe5b60ff1681526001600160a01b0390951660208601525060408085019390935260608401919091526080830152519081900360a0019350915050f35b6102d96004803603602081101561089a57600080fd5b50356001600160a01b0316612d37565b61044d600480360360208110156108c057600080fd5b50356001600160a01b0316612d9c565b6006602090815260009182526040918290208054600180830180548651600293821615610100026000190190911692909204601f81018690048602830186019096528582529194929390929083018282801561096d5780601f106109425761010080835404028352916020019161096d565b820191906000526020600020905b81548152906001019060200180831161095057829003601f168201915b505050506002830154600384015460048501546005909501549394919390925060ff81169061010090046001600160a01b031687565b6000828152600660209081526040808320600783528184208585528352818420600281015461010090046001600160a01b03168552600990935292206109e833612d9c565b80610a045750600282015461010090046001600160a01b031633145b610a4b576040805162461bcd60e51b8152602060048201526013602482015272155cd95c881b9bdd08185d5d1a1bdc9a5e9959606a1b604482015290519081900360640190fd5b610a5433612d9c565b15610ce9576000600283015460ff166004811115610a6e57fe5b1480610a8c57506001600283015460ff166004811115610a8a57fe5b145b610add576040805162461bcd60e51b815260206004820152601d60248201527f536c6f74206973206e6f7420696e207265717569726564207374617465000000604482015290519081900360640190fd5b6002828101805460ff1916600183021790555080546005830181905560408051608081018252878152602080820188815260048801805484860190815242606086019081526002808b015461010090046001600160a01b031660009081526008875288812099815298909552959096209351845590516001808501919091559451918301919091559151600390910155825482018355600c805483019055908201549054610b8b9190612dba565b6001820155600a546004840154610ba29190612dba565b600a55600b546004840154610bb79190612e1b565b600b5560035460028301546004808601546040805163a9059cbb60e01b81526101009094046001600160a01b039081169385019390935260248401919091525192169163a9059cbb916044808201926020929091908290030181600087803b158015610c2257600080fd5b505af1158015610c36573d6000803e3d6000fd5b505050506040513d6020811015610c4c57600080fd5b5051610c9f576040805162461bcd60e51b815260206004820152601b60248201527f4e6f742061626c6520746f207472616e736665722066756e64732e0000000000604482015290519081900360640190fd5b6004830154604080518781526020810187905280820192909252517ffecf5bb385a45216108f7b8187af0cb0c86d5062ff4c5c8e3acda9c6a30e33259181900360600190a1610e16565b600282015461010090046001600160a01b0316331415610e16576000600283015460ff166004811115610d1857fe5b14610d6a576040805162461bcd60e51b815260206004820152601460248201527f536c6f74206973206e6f742061737369676e6564000000000000000000000000604482015290519081900360640190fd5b81600401544211610dc2576040805162461bcd60e51b815260206004820152601f60248201527f447565206461746520686173206e6f74206265656e207265616c697a65642e00604482015290519081900360640190fd5b600282018054600160ff199091168117909155604080518781526020810187905280820192909252517f0d9b6660c500c12a11bdc23e8951f8ceed3e7f0397a969e84108b51e8a79bfda9181900360600190a15b5050505050565b6000828152600660209081526040808320600783528184208585528352818420600281015461010090046001600160a01b031680865260099094529190932090913314610ea7576040805162461bcd60e51b8152602060048201526013602482015272155cd95c881b9bdd08185d5d1a1bdc9a5e9959606a1b604482015290519081900360640190fd5b6001600283015460ff166004811115610ebc57fe5b14610f0e576040805162461bcd60e51b815260206004820152601560248201527f536c6f74206973206e6f7420636f6d706c657465640000000000000000000000604482015290519081900360640190fd5b610f1e8260040154600d54612dba565b421015610f2a57600080fd5b6002828101805460ff1916600183021790555080546005830181905560408051608081018252878152602080820188815260048801805484860190815242606086019081526002808b015461010090046001600160a01b031660009081526008875288812099815298909552959096209351845590516001808501919091559451918301919091559151600390910155825482018355600c805483019055908201549054610fd89190612dba565b5060035460028301546004808601546040805163a9059cbb60e01b81526101009094046001600160a01b039081169385019390935260248401919091525192169163a9059cbb916044808201926020929091908290030181600087803b15801561104157600080fd5b505af1158015611055573d6000803e3d6000fd5b505050506040513d602081101561106b57600080fd5b50516110be576040805162461bcd60e51b815260206004820152601b60248201527f4e6f742061626c6520746f207472616e736665722066756e64732e0000000000604482015290519081900360640190fd5b6004830154604080518781526020810187905280820192909252517ffecf5bb385a45216108f7b8187af0cb0c86d5062ff4c5c8e3acda9c6a30e33259181900360600190a15050505050565b3360009081526001602052604090205460ff166111585760405162461bcd60e51b81526004018080602001828103825260238152602001806131986023913960400191505060405180910390fd5b6000828152600660209081526040808320600783528184208585529092529091206001600282015460ff16600481111561118e57fe5b141580156111ae575060028082015460ff1660048111156111ab57fe5b14155b6111e95760405162461bcd60e51b81526004018080602001828103825260218152602001806131566021913960400191505060405180910390fd5b600281018054600460ff199091168117610100600160a81b031916909155600081830155600b549083015461121e9190612e1b565b600b5560035460058301546004808501546040805163a9059cbb60e01b81526101009094046001600160a01b039081169385019390935260248401919091525192169163a9059cbb916044808201926020929091908290030181600087803b15801561128957600080fd5b505af115801561129d573d6000803e3d6000fd5b505050506040513d60208110156112b357600080fd5b5051611306576040805162461bcd60e51b815260206004820152601b60248201527f4e6f742061626c6520746f207472616e736665722066756e64732e0000000000604482015290519081900360640190fd5b7f0d9b6660c500c12a11bdc23e8951f8ceed3e7f0397a969e84108b51e8a79bfda848460046040518084815260200183815260200182600481111561134757fe5b60ff168152602001935050505060405180910390a150505050565b3360009081526001602052604090205460ff166113b05760405162461bcd60e51b81526004018080602001828103825260238152602001806131986023913960400191505060405180910390fd5b6000838152600660205260409020600581015460ff16611417576040805162461bcd60e51b815260206004820152601e60248201527f4163746976697479206973206e6f742061637469766520616e796d6f72650000604482015290519081900360640190fd5b8060020154816003015410611473576040805162461bcd60e51b815260206004820152601260248201527f416c6c20736c6f7473206172652066756c6c0000000000000000000000000000604482015290519081900360640190fd5b4282116114c7576040805162461bcd60e51b815260206004820152601660248201527f43616e6e6f742073657420612070617374206461746500000000000000000000604482015290519081900360640190fd5b6006810154156115c95760005b60068201548110156115c7578160060181815481106114ef57fe5b60009182526020918290200154600280546001600160a01b0319166001600160a01b03928316179081905560408051634209fff160e01b8152888416600482015290519190921692634209fff19260248082019391829003018186803b15801561155857600080fd5b505afa15801561156c573d6000803e3d6000fd5b505050506040513d602081101561158257600080fd5b50516115bf5760405162461bcd60e51b81526004018080602001828103825260258152602001806131bb6025913960400191505060405180910390fd5b6001016114d4565b505b6040805160e0810182526003830154808252602080830188815260008486018181526001600160a01b038a16606087015242608087015260a0860189905260c086018290528a8252600784528682209482529390925293902082518155925160018085019190915590516002840180549394939192909160ff19169083600481111561165157fe5b021790555060608201518160020160016101000a8154816001600160a01b0302191690836001600160a01b031602179055506080820151816003015560a0820151816004015560c082015181600501559050507f59cdb669f66c2025694a95b12dd1253f70eadb96f310304dd879bf5b9abc209b84826003015485428660405180868152602001858152602001846001600160a01b03166001600160a01b031681526020018381526020018281526020019550505050505060405180910390a160030180546001019055505050565b60056020908152600091825260409182902080548351601f600260001961010060018616150201909316929092049182018490048402810184019094528084529092918391908301828280156117b75780601f1061178c576101008083540402835291602001916117b7565b820191906000526020600020905b81548152906001019060200180831161179a57829003601f168201915b5050506001909301549192505060ff1682565b6117d2611f34565b611823576040805162461bcd60e51b815260206004820181905260248201527f4f776e61626c653a2063616c6c6572206973206e6f7420746865206f776e6572604482015290519081900360640190fd5b6001600160a01b038216600081815260016020526040808220805460ff191685151590811790915590519092917fdbb9ed174593e4f785d50b5333b66e44e8ccfb28737fa34896411100a93d100e91a35050565b6000828152600760209081526040808320848452909152812081600282015460ff1660048111156118a457fe5b14806118c257506001600282015460ff1660048111156118c057fe5b145b80156118dd57506118d98160040154600d54612dba565b4210155b156118ec5760019150506118f2565b60009150505b92915050565b3360009081526001602052604090205460ff166119465760405162461bcd60e51b81526004018080602001828103825260238152602001806131986023913960400191505060405180910390fd5b6000828152600660209081526040808320600783528184208585529092529091206001600282015460ff16600481111561197c57fe5b1415801561199c575060028082015460ff16600481111561199957fe5b14155b6119d75760405162461bcd60e51b81526004018080602001828103825260218152602001806131566021913960400191505060405180910390fd5b600281018054600360ff199091168117610100600160a81b0319169091556000600483015560408051868152602081018690527f0d9b6660c500c12a11bdc23e8951f8ceed3e7f0397a969e84108b51e8a79bfda928792879290810182611347565b6003546001600160a01b031681565b3360009081526001602052604090205460ff16611a965760405162461bcd60e51b81526004018080602001828103825260238152602001806131986023913960400191505060405180910390fd5b33600081815260016020526040808220805460ff19169055519091907fdbb9ed174593e4f785d50b5333b66e44e8ccfb28737fa34896411100a93d100e908390a3565b3360009081526001602052604090205460ff16611b275760405162461bcd60e51b81526004018080602001828103825260238152602001806131986023913960400191505060405180910390fd5b600084815260066020908152604080832060078352818420878552909252909120600582015460ff16611ba1576040805162461bcd60e51b815260206004820152601e60248201527f4163746976697479206973206e6f742061637469766520616e796d6f72650000604482015290519081900360640190fd5b6003600282015460ff166004811115611bb657fe5b14611bf25760405162461bcd60e51b81526004018080602001828103825260218152602001806131566021913960400191505060405180910390fd5b428311611c46576040805162461bcd60e51b815260206004820152601660248201527f43616e6e6f742073657420612070617374206461746500000000000000000000604482015290519081900360640190fd5b600682015415611d485760005b6006830154811015611d4657826006018181548110611c6e57fe5b60009182526020918290200154600280546001600160a01b0319166001600160a01b03928316179081905560408051634209fff160e01b8152898416600482015290519190921692634209fff19260248082019391829003018186803b158015611cd757600080fd5b505afa158015611ceb573d6000803e3d6000fd5b505050506040513d6020811015611d0157600080fd5b5051611d3e5760405162461bcd60e51b81526004018080602001828103825260258152602001806131bb6025913960400191505060405180910390fd5b600101611c53565b505b6040805160e081018252868152602080820189815260008385018181526001600160a01b038a16606086015242608086015260a0850189905260c085018290528b8252600784528582208b83529093529390932082518155925160018085019190915590516002840180549394939192909160ff191690836004811115611dcb57fe5b0217905550606082810151600283018054610100600160a81b0319166101006001600160a01b0393841602179055608080850151600385015560a080860151600486015560c090950151600590940193909355604080518b8152602081018b9052918916828201524292820192909252918201869052517f59cdb669f66c2025694a95b12dd1253f70eadb96f310304dd879bf5b9abc209b929181900390910190a1505050505050565b611e7d611f34565b611ece576040805162461bcd60e51b815260206004820181905260248201527f4f776e61626c653a2063616c6c6572206973206e6f7420746865206f776e6572604482015290519081900360640190fd5b600080546040516001600160a01b03909116907f8be0079c531659141344cd1fd0a4f28419497f9722a3daafe3b4186f6b6457e0908390a3600080546001600160a01b0319169055565b600c5481565b600b5481565b6000546001600160a01b03165b90565b600080546001600160a01b0316611f49612e5d565b6001600160a01b031614905090565b600d5481565b600a5481565b3360009081526001602052604090205460ff16611fb25760405162461bcd60e51b81526004018080602001828103825260238152602001806131986023913960400191505060405180910390fd5b600082815260066020908152604080832060058101805486151560ff19909116811790915582518781529384019490945282820193909352517f6da910bbc438229a463d4f2dd0eb3d0d2f93dcdfa4448d10b5ba5eb5779abde89181900360600190a1505050565b600860209081526000928352604080842090915290825290208054600182015460028301546003909301549192909184565b612054611f34565b6120a5576040805162461bcd60e51b815260206004820181905260248201527f4f776e61626c653a2063616c6c6572206973206e6f7420746865206f776e6572604482015290519081900360640190fd5b600280546001600160a01b0319166001600160a01b03848116919091179182905560408051633f78205d60e21b81529051929091169163fde0817491600480820192600092909190829003018186803b15801561210157600080fd5b505afa158015612115573d6000803e3d6000fd5b505050506040513d6000823e601f3d908101601f19168201604052602081101561213e57600080fd5b810190808051604051939291908464010000000082111561215e57600080fd5b90830190602082018581111561217357600080fd5b825164010000000081118282018810171561218d57600080fd5b82525081516020918201929091019080838360005b838110156121ba5781810151838201526020016121a2565b50505050905090810190601f1680156121e75780820380516001836020036101000a031916815260200191505b506040525050505160001415612244576040805162461bcd60e51b815260206004820152601460248201527f4e6f7420612076616c6964204a757220526f6c65000000000000000000000000604482015290519081900360640190fd5b6001600160a01b03821661229f576040805162461bcd60e51b815260206004820152601360248201527f4e6f7420612076616c696420636f6e7472617400000000000000000000000000604482015290519081900360640190fd5b6040518060400160405280600260009054906101000a90046001600160a01b03166001600160a01b031663fde081746040518163ffffffff1660e01b815260040160006040518083038186803b1580156122f857600080fd5b505afa15801561230c573d6000803e3d6000fd5b505050506040513d6000823e601f3d908101601f19168201604052602081101561233557600080fd5b810190808051604051939291908464010000000082111561235557600080fd5b90830190602082018581111561236a57600080fd5b825164010000000081118282018810171561238457600080fd5b82525081516020918201929091019080838360005b838110156123b1578181015183820152602001612399565b50505050905090810190601f1680156123de5780820380516001836020036101000a031916815260200191505b5060409081529385525050508315156020928301526001600160a01b0385166000908152600583522082518051919261241c92849290910190612ff1565b50602091909101516001909101805460ff19169115159190911790555050565b3360009081526001602052604090205460ff1661248a5760405162461bcd60e51b81526004018080602001828103825260238152602001806131986023913960400191505060405180910390fd5b6000828152600660205260409020600581015460ff166124f1576040805162461bcd60e51b815260206004820152601e60248201527f4163746976697479206973206e6f742061637469766520616e796d6f72650000604482015290519081900360640190fd5b6124ff816004015483612e61565b60035460408051636eb1769f60e11b815233600482015230602482015290516001600160a01b039092169163dd62ed3e91604480820192602092909190829003018186803b15801561255057600080fd5b505afa158015612564573d6000803e3d6000fd5b505050506040513d602081101561257a57600080fd5b505110156125cf576040805162461bcd60e51b815260206004820152601560248201527f417070726f76652062616c616e63652066697273740000000000000000000000604482015290519081900360640190fd5b6125dd816002015483612dba565b600282015560035460048201546001600160a01b03909116906323b872dd903390309061260a9087612e61565b6040518463ffffffff1660e01b815260040180846001600160a01b03166001600160a01b03168152602001836001600160a01b03166001600160a01b031681526020018281526020019350505050602060405180830381600087803b15801561267257600080fd5b505af1158015612686573d6000803e3d6000fd5b505050506040513d602081101561269c57600080fd5b50516126ef576040805162461bcd60e51b815260206004820152601b60248201527f4e6f742061626c6520746f207472616e736665722066756e64732e0000000000604482015290519081900360640190fd5b604080518481526020810184905260008183015290517f6da910bbc438229a463d4f2dd0eb3d0d2f93dcdfa4448d10b5ba5eb5779abde89181900360600190a1505050565b6009602052600090815260409020805460019091015482565b60016020526000908152604090205460ff1681565b6000818152600660208181526040928390209182018054845181840281018401909552808552606094928301828280156127c557602002820191906000526020600020905b81546001600160a01b031681526001909101906020018083116127a7575b5050505050915050919050565b3360009081526001602052604090205460ff166128205760405162461bcd60e51b81526004018080602001828103825260238152602001806131986023913960400191505060405180910390fd5b60005b81518110156128a9576005600083838151811061283c57fe5b6020908102919091018101516001600160a01b031682528101919091526040016000206001015460ff166128a15760405162461bcd60e51b81526004018080602001828103825260218152602001806131356021913960400191505060405180910390fd5b600101612823565b50603283106128ff576040805162461bcd60e51b815260206004820181905260248201527f43616e6e6f7420637265617465206d6f7265207468616e20353020736c6f7473604482015290519081900360640190fd5b6129098284612e61565b60035460408051636eb1769f60e11b815233600482015230602482015290516001600160a01b039092169163dd62ed3e91604480820192602092909190829003018186803b15801561295a57600080fd5b505afa15801561296e573d6000803e3d6000fd5b505050506040513d602081101561298457600080fd5b505110156129d9576040805162461bcd60e51b815260206004820152601560248201527f417070726f76652062616c616e63652066697273740000000000000000000000604482015290519081900360640190fd5b6040805161010081018252600454808252602080830188815283850188905260006060850181905260808501889052600160a086018190523360c087015260e0860188905293815260068352949094208351815593518051939493612a45938501929190910190612ff1565b5060408201516002820155606082015160038201556080820151600482015560a082015160058201805460c08501516001600160a01b031661010002610100600160a81b031993151560ff19909216919091179290921691909117905560e08201518051612abd91600684019160209091019061306f565b50905050612ad6600b54612ad18486612e61565b612dba565b600b556003546001600160a01b03166323b872dd3330612af68688612e61565b6040518463ffffffff1660e01b815260040180846001600160a01b03166001600160a01b03168152602001836001600160a01b03166001600160a01b031681526020018281526020019350505050602060405180830381600087803b158015612b5e57600080fd5b505af1158015612b72573d6000803e3d6000fd5b505050506040513d6020811015612b8857600080fd5b5051612bdb576040805162461bcd60e51b815260206004820152601b60248201527f4e6f742061626c6520746f207472616e736665722066756e64732e0000000000604482015290519081900360640190fd5b7f0856f43cfdbe8322d98dc9ac8285232132feb08161cd117555d4249f268fc6ca60045484848785604051808681526020018581526020018481526020018060200180602001838103835285818151815260200191508051906020019080838360005b83811015612c56578181015183820152602001612c3e565b50505050905090810190601f168015612c835780820380516001836020036101000a031916815260200191505b508381038252845181528451602091820191808701910280838360005b83811015612cb8578181015183820152602001612ca0565b5050505090500197505050505050505060405180910390a150506004805460010190555050565b60045481565b60076020908152600092835260408084209091529082529020805460018201546002830154600384015460048501546005909501549394929360ff8316936101009093046001600160a01b0316929087565b612d3f611f34565b612d90576040805162461bcd60e51b815260206004820181905260248201527f4f776e61626c653a2063616c6c6572206973206e6f7420746865206f776e6572604482015290519081900360640190fd5b612d9981612eba565b50565b6001600160a01b031660009081526001602052604090205460ff1690565b600082820183811015612e14576040805162461bcd60e51b815260206004820152601b60248201527f536166654d6174683a206164646974696f6e206f766572666c6f770000000000604482015290519081900360640190fd5b9392505050565b6000612e1483836040518060400160405280601e81526020017f536166654d6174683a207375627472616374696f6e206f766572666c6f770000815250612f5a565b3390565b600082612e70575060006118f2565b82820282848281612e7d57fe5b0414612e145760405162461bcd60e51b81526004018080602001828103825260218152602001806131776021913960400191505060405180910390fd5b6001600160a01b038116612eff5760405162461bcd60e51b815260040180806020018281038252602681526020018061310f6026913960400191505060405180910390fd5b600080546040516001600160a01b03808516939216917f8be0079c531659141344cd1fd0a4f28419497f9722a3daafe3b4186f6b6457e091a3600080546001600160a01b0319166001600160a01b0392909216919091179055565b60008184841115612fe95760405162461bcd60e51b81526004018080602001828103825283818151815260200191508051906020019080838360005b83811015612fae578181015183820152602001612f96565b50505050905090810190601f168015612fdb5780820380516001836020036101000a031916815260200191505b509250505060405180910390fd5b505050900390565b828054600181600116156101000203166002900490600052602060002090601f016020900481019282601f1061303257805160ff191683800117855561305f565b8280016001018555821561305f579182015b8281111561305f578251825591602001919060010190613044565b5061306b9291506130d0565b5090565b8280548282559060005260206000209081019282156130c4579160200282015b828111156130c457825182546001600160a01b0319166001600160a01b0390911617825560209092019160019091019061308f565b5061306b9291506130ea565b611f3191905b8082111561306b57600081556001016130d6565b611f3191905b8082111561306b5780546001600160a01b03191681556001016130f056fe4f776e61626c653a206e6577206f776e657220697320746865207a65726f2061646472657373526f6c6520636f6e7472616374206973206e6f742077686974656c69737465642e536c6f74206973206e6f7420696e20746865207265717569726564207374617465536166654d6174683a206d756c7469706c69636174696f6e206f766572666c6f774d616e61676561626c653a2063616c6c6572206973206e6f742061204d616e616765725573657220646f6573206e6f74206861766520612077686974656c697374656420726f6c65a265627a7a7231582095480a376e8375feca965b0e9b304400eb9a25e7627a424bb4574bcaf391bbdf64736f6c63430005110032",
  "source": "pragma solidity >=0.5.0 <0.7.0;\n\nimport \"@openzeppelin/contracts/token/ERC20/IERC20.sol\";\nimport \"@openzeppelin/contracts/math/SafeMath.sol\";\nimport \"./Manageable.sol\";\nimport \"./IRole.sol\";\n\n//TODO: Add a function to get the allowed access for an activity.\n\ncontract JurRewards is Manageable {\n    event ActivityCreated(\n        uint256 activityId,\n        uint256 slotCount,\n        uint256 rewardAmount,\n        string name,\n        address[] whitelistContractAddresses\n    );\n    event ActivityUpdated(uint256 activityId, uint256 slotCount, bool newState);\n    event SlotAssigned(\n        uint256 activityId,\n        uint256 slotId,\n        address assignedTo,\n        uint256 createdAt,\n        uint256 dueDate\n    );\n    event SlotUpdated(uint256 activityId, uint256 slotId, SlotState newState);\n    event SlotRewarded(\n        uint256 activityId,\n        uint256 slotId,\n        uint256 rewardAmount\n    );\n\n    enum SlotState {Assigned, Completed, Rewarded, Unassigned, Cancelled}\n\n    struct Activity {\n        uint256 id;\n        string name;\n        uint256 slotCount;\n        uint256 slotAssigned;\n        uint256 rewardAmount;\n        bool isActive;\n        address funder;\n        address[] whiteListedContracts;\n    }\n    struct Slot {\n        uint256 id;\n        uint256 activityId;\n        SlotState state;\n        address assignedTo;\n        uint256 createdAt;\n        uint256 dueDate;\n        uint256 rewardId;\n    }\n    struct Rewards {\n        uint256 activityId;\n        uint256 slotId;\n        uint256 rewardAmount;\n        uint256 rewardedOn;\n    }\n    struct RewardeeStats {\n        uint256 rewardCount;\n        uint256 amountRewarded;\n    }\n    struct RoleContract {\n        string name;\n        bool isActive;\n    }\n\n    IRole private role;\n    /** JUR Token for distribution */\n    IERC20 public jurToken;\n    uint256 public activityCount;\n\n    mapping(address => RoleContract) public whitelistedContracts;\n    mapping(uint256 => Activity) public activities;\n    mapping(uint256 => mapping(uint256 => Slot)) public slots;\n    mapping(address => mapping(uint256 => Rewards)) public rewards;\n    mapping(address => RewardeeStats) public rewardeeStats;\n\n    uint256 public rewardedAmount;\n    uint256 public activityBalance;\n    uint256 public rewardCount;\n    uint256 public REWARD_DELAY = 7 days;\n\n    constructor(address _token) public {\n        jurToken = IERC20(_token);\n    }\n\n    function whitelistRoleContract(address _contract, bool _status)\n        public\n        onlyOwner\n    {\n        role = IRole(_contract);\n        require(bytes(role.getRole()).length != 0, \"Not a valid Jur Role\");\n        require(_contract != address(0), \"Not a valid contrat\");\n        whitelistedContracts[_contract] = RoleContract(role.getRole(), _status);\n    }\n\n    function addActivity(\n        string memory _name,\n        uint256 _slotCount,\n        uint256 _rewardAmount,\n        address[] memory _roleContracts\n    ) public onlyManager {\n        for (uint256 i = 0; i < _roleContracts.length; i++) {\n            require(\n                whitelistedContracts[_roleContracts[i]].isActive,\n                \"Role contract is not whitelisted.\"\n            );\n        }\n        require(_slotCount < 50, \"Cannot create more than 50 slots\");\n        require(\n            jurToken.allowance(msg.sender, address(this)) >=\n                SafeMath.mul(_rewardAmount, _slotCount),\n            \"Approve balance first\"\n        );\n        activities[activityCount] = Activity(\n            activityCount,\n            _name,\n            _slotCount,\n            0,\n            _rewardAmount,\n            true,\n            msg.sender,\n            _roleContracts\n        );\n        activityBalance = SafeMath.add(\n            activityBalance,\n            SafeMath.mul(_rewardAmount, _slotCount)\n        );\n        require(\n            jurToken.transferFrom(\n                msg.sender,\n                address(this),\n                SafeMath.mul(_rewardAmount, _slotCount)\n            ),\n            \"Not able to transfer funds.\"\n        );\n        emit ActivityCreated(\n            activityCount,\n            _slotCount,\n            _rewardAmount,\n            _name,\n            _roleContracts\n        );\n        activityCount++;\n    }\n\n    function assignSlot(\n        uint256 _activityId,\n        address _assignedTo,\n        uint256 _dueDate\n    ) public onlyManager {\n        Activity storage _activity = activities[_activityId];\n        require(_activity.isActive, \"Activity is not active anymore\");\n        require(\n            _activity.slotAssigned < _activity.slotCount,\n            \"All slots are full\"\n        );\n        require(_dueDate > block.timestamp, \"Cannot set a past date\");\n        //todo add require for allowing new or unassigned slots only\n        if (_activity.whiteListedContracts.length > 0) {\n            for (\n                uint256 i = 0;\n                i < _activity.whiteListedContracts.length;\n                i++\n            ) {\n                role = IRole(_activity.whiteListedContracts[i]);\n                require(\n                    role.isUser(_assignedTo),\n                    \"User does not have a whitelisted role\"\n                );\n            }\n        }\n\n        slots[_activityId][_activity.slotAssigned] = Slot(\n            _activity.slotAssigned,\n            _activityId,\n            SlotState.Assigned,\n            _assignedTo,\n            block.timestamp,\n            _dueDate,\n            0\n        );\n        emit SlotAssigned(\n            _activityId,\n            _activity.slotAssigned,\n            _assignedTo,\n            block.timestamp,\n            _dueDate\n        );\n        _activity.slotAssigned++;\n    }\n\n    function addSlots(uint256 _activityId, uint256 _slotCount)\n        public\n        onlyManager\n    {\n        Activity storage _activity = activities[_activityId];\n        require(_activity.isActive, \"Activity is not active anymore\");\n        require(\n            jurToken.allowance(msg.sender, address(this)) >=\n                SafeMath.mul(_activity.rewardAmount, _slotCount),\n            \"Approve balance first\"\n        );\n        _activity.slotCount = SafeMath.add(_activity.slotCount, _slotCount);\n        require(\n            jurToken.transferFrom(\n                msg.sender,\n                address(this),\n                SafeMath.mul(_activity.rewardAmount, _slotCount)\n            ),\n            \"Not able to transfer funds.\"\n        );\n        emit ActivityUpdated(_activityId, _slotCount, false);\n    }\n\n    function changeActivityState(uint256 _activityId, bool _status)\n        public\n        onlyManager\n    {\n        Activity storage _activity = activities[_activityId];\n        _activity.isActive = _status;\n        emit ActivityUpdated(_activityId, 0, _status);\n    }\n\n    function markSlotComplete(uint256 _activityId, uint256 _slotId) public {\n        Activity storage _activity = activities[_activityId];\n        Slot storage _slot = slots[_activityId][_slotId];\n        RewardeeStats storage _stats = rewardeeStats[_slot.assignedTo];\n        require(\n            isManager(msg.sender) || msg.sender == _slot.assignedTo,\n            \"User not authorized\"\n        );\n        if (isManager(msg.sender)) {\n            require(\n                _slot.state == SlotState.Assigned ||\n                    _slot.state == SlotState.Completed,\n                \"Slot is not in required state\"\n            );\n            _slot.state = SlotState.Rewarded;\n            _slot.rewardId = _stats.rewardCount;\n            rewards[_slot.assignedTo][_stats.rewardCount] = Rewards(\n                _activityId,\n                _slotId,\n                _activity.rewardAmount,\n                block.timestamp\n            );\n            _stats.rewardCount++;\n            rewardCount++;\n            _stats.amountRewarded = SafeMath.add(\n                _stats.amountRewarded,\n                _activity.rewardAmount\n            );\n            rewardedAmount = SafeMath.add(\n                rewardedAmount,\n                _activity.rewardAmount\n            );\n            activityBalance = SafeMath.sub(\n                activityBalance,\n                _activity.rewardAmount\n            );\n            require(\n                jurToken.transfer(_slot.assignedTo, _activity.rewardAmount),\n                \"Not able to transfer funds.\"\n            );\n            emit SlotRewarded(_activityId, _slotId, _activity.rewardAmount);\n        } else if (msg.sender == _slot.assignedTo) {\n            require(_slot.state == SlotState.Assigned, \"Slot is not assigned\");\n            require(\n                block.timestamp > _slot.dueDate,\n                \"Due date has not been realized.\"\n            );\n            _slot.state = SlotState.Completed;\n            emit SlotUpdated(_activityId, _slotId, SlotState.Completed);\n        }\n    }\n\n    function cancelSlot(uint256 _activityId, uint256 _slotId)\n        public\n        onlyManager\n    {\n        Activity storage _activity = activities[_activityId];\n        Slot storage _slot = slots[_activityId][_slotId];\n        require(\n            _slot.state != SlotState.Completed &&\n                _slot.state != SlotState.Rewarded,\n            \"Slot is not in the required state\"\n        );\n        _slot.state = SlotState.Cancelled;\n        _slot.assignedTo = address(0);\n        _slot.dueDate = 0;\n        activityBalance = SafeMath.sub(activityBalance, _activity.rewardAmount);\n        require(\n            jurToken.transfer(_activity.funder, _activity.rewardAmount),\n            \"Not able to transfer funds.\"\n        );\n        emit SlotUpdated(_activityId, _slotId, SlotState.Cancelled);\n    }\n\n    function unassignSlot(uint256 _activityId, uint256 _slotId)\n        public\n        onlyManager\n    {\n        Activity storage _activity = activities[_activityId];\n        Slot storage _slot = slots[_activityId][_slotId];\n        require(\n            _slot.state != SlotState.Completed &&\n                _slot.state != SlotState.Rewarded,\n            \"Slot is not in the required state\"\n        );\n        _slot.state = SlotState.Unassigned;\n        _slot.assignedTo = address(0);\n        _slot.dueDate = 0;\n        _activity.slotAssigned;\n        emit SlotUpdated(_activityId, _slotId, SlotState.Unassigned);\n    }\n\n    function withdrawReward(uint256 _activityId, uint256 _slotId) public {\n        Activity storage _activity = activities[_activityId];\n        Slot storage _slot = slots[_activityId][_slotId];\n        RewardeeStats storage _stats = rewardeeStats[_slot.assignedTo];\n        require(msg.sender == _slot.assignedTo, \"User not authorized\");\n        require(_slot.state == SlotState.Completed, \"Slot is not completed\");\n        require(block.timestamp >= SafeMath.add(_slot.dueDate, REWARD_DELAY));\n        _slot.state = SlotState.Rewarded;\n        _slot.rewardId = _stats.rewardCount;\n        rewards[_slot.assignedTo][_stats.rewardCount] = Rewards(\n            _activityId,\n            _slotId,\n            _activity.rewardAmount,\n            block.timestamp\n        );\n        _stats.rewardCount++;\n        rewardCount++;\n        //todo: check overall balance updates\n        SafeMath.add(_stats.amountRewarded, _activity.rewardAmount);\n        require(\n            jurToken.transfer(_slot.assignedTo, _activity.rewardAmount),\n            \"Not able to transfer funds.\"\n        );\n        emit SlotRewarded(_activityId, _slotId, _activity.rewardAmount);\n    }\n\n    function reassignSlot(\n        uint256 _activityId,\n        uint256 _slotId,\n        address _assignedTo,\n        uint256 _dueDate\n    ) public onlyManager {\n        Activity storage _activity = activities[_activityId];\n        Slot storage _slot = slots[_activityId][_slotId];\n        require(_activity.isActive, \"Activity is not active anymore\");\n        require(\n            _slot.state == SlotState.Unassigned,\n            \"Slot is not in the required state\"\n        );\n        require(_dueDate > block.timestamp, \"Cannot set a past date\");\n        //todo add require for allowing new or unassigned slots only\n        if (_activity.whiteListedContracts.length > 0) {\n            for (\n                uint256 i = 0;\n                i < _activity.whiteListedContracts.length;\n                i++\n            ) {\n                role = IRole(_activity.whiteListedContracts[i]);\n                require(\n                    role.isUser(_assignedTo),\n                    \"User does not have a whitelisted role\"\n                );\n            }\n        }\n\n        slots[_activityId][_slotId] = Slot(\n            _slotId,\n            _activityId,\n            SlotState.Assigned,\n            _assignedTo,\n            block.timestamp,\n            _dueDate,\n            0\n        );\n        emit SlotAssigned(\n            _activityId,\n            _slotId,\n            _assignedTo,\n            block.timestamp,\n            _dueDate\n        );\n    }\n\n    function canWithdraw(uint256 _activityId, uint256 _slotId)\n        public\n        view\n        returns (bool)\n    {\n        Slot storage _slot = slots[_activityId][_slotId];\n        if (\n            (_slot.state == SlotState.Assigned ||\n                _slot.state == SlotState.Completed) &&\n            (block.timestamp >= SafeMath.add(_slot.dueDate, REWARD_DELAY))\n        ) {\n            return true;\n        } else return false;\n    }\n\n    function getWhitelistedContracts(uint256 _activityId) public view returns(address[] memory) {\n        Activity storage _activity = activities[_activityId];\n        return _activity.whiteListedContracts;\n    }\n}\n",
  "sourcePath": "/Users/shuchityagi/Jur/rewards-sc/contracts/JurRewards.sol",
  "compiler": {
    "name": "solc",
    "version": "0.5.17+commit.d19bba13.Emscripten.clang"
  },
  "schemaVersion": "3.2.0",
  "updatedAt": "2020-07-03T15:32:59.155Z",
  "networkType": "ethereum",
  "devdoc": {
    "methods": {
      "isManager(address)": {
        "details": "Returns true if the caller is a manager."
      },
      "isOwner()": {
        "details": "Returns true if the caller is the current owner."
      },
      "owner()": {
        "details": "Returns the address of the current owner."
      },
      "renounceManagership()": {
        "details": "Leaves the contract without manager in case there is only one manager alloted. It will not be possible to call `onlyManager` functions anymore."
      },
      "renounceOwnership()": {
        "details": "Leaves the contract without owner. It will not be possible to call `onlyOwner` functions anymore. Can only be called by the current owner.     * NOTE: Renouncing ownership will leave the contract without an owner, thereby removing any functionality that is only available to the owner."
      },
      "transferOwnership(address)": {
        "details": "Transfers ownership of the contract to a new account (`newOwner`). Can only be called by the current owner."
      },
      "updateManager(address,bool)": {
        "details": "Adds a new manager."
      }
    }
  },
  "userdoc": {
    "methods": {}
  }
}