{
  "contractName": "JurRewards",
  "abi": [
    {
      "inputs": [
        {
          "internalType": "address",
          "name": "_token",
          "type": "address"
        }
      ],
      "payable": false,
      "stateMutability": "nonpayable",
      "type": "constructor"
    },
    {
      "anonymous": false,
      "inputs": [
        {
          "indexed": false,
          "internalType": "uint256",
          "name": "activityId",
          "type": "uint256"
        },
        {
          "indexed": false,
          "internalType": "uint256",
          "name": "slotCount",
          "type": "uint256"
        },
        {
          "indexed": false,
          "internalType": "uint256",
          "name": "rewardAmount",
          "type": "uint256"
        },
        {
          "indexed": false,
          "internalType": "string",
          "name": "name",
          "type": "string"
        },
        {
          "indexed": false,
          "internalType": "address[]",
          "name": "whitelistContractAddresses",
          "type": "address[]"
        }
      ],
      "name": "ActivityCreated",
      "type": "event"
    },
    {
      "anonymous": false,
      "inputs": [
        {
          "indexed": false,
          "internalType": "uint256",
          "name": "activityId",
          "type": "uint256"
        },
        {
          "indexed": false,
          "internalType": "uint256",
          "name": "slotCount",
          "type": "uint256"
        },
        {
          "indexed": false,
          "internalType": "bool",
          "name": "newState",
          "type": "bool"
        }
      ],
      "name": "ActivityUpdated",
      "type": "event"
    },
    {
      "anonymous": false,
      "inputs": [
        {
          "indexed": true,
          "internalType": "address",
          "name": "manager",
          "type": "address"
        },
        {
          "indexed": true,
          "internalType": "bool",
          "name": "state",
          "type": "bool"
        }
      ],
      "name": "ManagerUpdated",
      "type": "event"
    },
    {
      "anonymous": false,
      "inputs": [
        {
          "indexed": true,
          "internalType": "address",
          "name": "previousOwner",
          "type": "address"
        },
        {
          "indexed": true,
          "internalType": "address",
          "name": "newOwner",
          "type": "address"
        }
      ],
      "name": "OwnershipTransferred",
      "type": "event"
    },
    {
      "anonymous": false,
      "inputs": [
        {
          "indexed": false,
          "internalType": "address",
          "name": "contractAddress",
          "type": "address"
        },
        {
          "indexed": false,
          "internalType": "string",
          "name": "role",
          "type": "string"
        },
        {
          "indexed": false,
          "internalType": "bool",
          "name": "status",
          "type": "bool"
        }
      ],
      "name": "RoleContractUpdated",
      "type": "event"
    },
    {
      "anonymous": false,
      "inputs": [
        {
          "indexed": false,
          "internalType": "uint256",
          "name": "activityId",
          "type": "uint256"
        },
        {
          "indexed": false,
          "internalType": "uint256",
          "name": "slotId",
          "type": "uint256"
        },
        {
          "indexed": false,
          "internalType": "address",
          "name": "assignedTo",
          "type": "address"
        },
        {
          "indexed": false,
          "internalType": "uint256",
          "name": "createdAt",
          "type": "uint256"
        },
        {
          "indexed": false,
          "internalType": "uint256",
          "name": "dueDate",
          "type": "uint256"
        }
      ],
      "name": "SlotAssigned",
      "type": "event"
    },
    {
      "anonymous": false,
      "inputs": [
        {
          "indexed": false,
          "internalType": "uint256",
          "name": "activityId",
          "type": "uint256"
        },
        {
          "indexed": false,
          "internalType": "uint256",
          "name": "slotId",
          "type": "uint256"
        },
        {
          "indexed": false,
          "internalType": "uint256",
          "name": "rewardAmount",
          "type": "uint256"
        }
      ],
      "name": "SlotRewarded",
      "type": "event"
    },
    {
      "anonymous": false,
      "inputs": [
        {
          "indexed": false,
          "internalType": "uint256",
          "name": "activityId",
          "type": "uint256"
        },
        {
          "indexed": false,
          "internalType": "uint256",
          "name": "slotId",
          "type": "uint256"
        },
        {
          "indexed": false,
          "internalType": "string",
          "name": "newState",
          "type": "string"
        }
      ],
      "name": "SlotUpdated",
      "type": "event"
    },
    {
      "constant": true,
      "inputs": [],
      "name": "REWARD_DELAY",
      "outputs": [
        {
          "internalType": "uint256",
          "name": "",
          "type": "uint256"
        }
      ],
      "payable": false,
      "stateMutability": "view",
      "type": "function"
    },
    {
      "constant": true,
      "inputs": [
        {
          "internalType": "uint256",
          "name": "",
          "type": "uint256"
        }
      ],
      "name": "activities",
      "outputs": [
        {
          "internalType": "uint256",
          "name": "id",
          "type": "uint256"
        },
        {
          "internalType": "string",
          "name": "name",
          "type": "string"
        },
        {
          "internalType": "uint256",
          "name": "slotCount",
          "type": "uint256"
        },
        {
          "internalType": "uint256",
          "name": "slotAssigned",
          "type": "uint256"
        },
        {
          "internalType": "uint256",
          "name": "rewardAmount",
          "type": "uint256"
        },
        {
          "internalType": "bool",
          "name": "isActive",
          "type": "bool"
        },
        {
          "internalType": "address",
          "name": "funder",
          "type": "address"
        }
      ],
      "payable": false,
      "stateMutability": "view",
      "type": "function"
    },
    {
      "constant": true,
      "inputs": [],
      "name": "activityBalance",
      "outputs": [
        {
          "internalType": "uint256",
          "name": "",
          "type": "uint256"
        }
      ],
      "payable": false,
      "stateMutability": "view",
      "type": "function"
    },
    {
      "constant": true,
      "inputs": [],
      "name": "activityCount",
      "outputs": [
        {
          "internalType": "uint256",
          "name": "",
          "type": "uint256"
        }
      ],
      "payable": false,
      "stateMutability": "view",
      "type": "function"
    },
    {
      "constant": true,
      "inputs": [
        {
          "internalType": "address",
          "name": "_sender",
          "type": "address"
        }
      ],
      "name": "isManager",
      "outputs": [
        {
          "internalType": "bool",
          "name": "",
          "type": "bool"
        }
      ],
      "payable": false,
      "stateMutability": "view",
      "type": "function"
    },
    {
      "constant": true,
      "inputs": [],
      "name": "isOwner",
      "outputs": [
        {
          "internalType": "bool",
          "name": "",
          "type": "bool"
        }
      ],
      "payable": false,
      "stateMutability": "view",
      "type": "function"
    },
    {
      "constant": true,
      "inputs": [],
      "name": "jurToken",
      "outputs": [
        {
          "internalType": "contract IERC20",
          "name": "",
          "type": "address"
        }
      ],
      "payable": false,
      "stateMutability": "view",
      "type": "function"
    },
    {
      "constant": true,
      "inputs": [
        {
          "internalType": "address",
          "name": "",
          "type": "address"
        }
      ],
      "name": "manager",
      "outputs": [
        {
          "internalType": "bool",
          "name": "",
          "type": "bool"
        }
      ],
      "payable": false,
      "stateMutability": "view",
      "type": "function"
    },
    {
      "constant": true,
      "inputs": [],
      "name": "owner",
      "outputs": [
        {
          "internalType": "address",
          "name": "",
          "type": "address"
        }
      ],
      "payable": false,
      "stateMutability": "view",
      "type": "function"
    },
    {
      "constant": false,
      "inputs": [],
      "name": "renounceManagership",
      "outputs": [],
      "payable": false,
      "stateMutability": "nonpayable",
      "type": "function"
    },
    {
      "constant": false,
      "inputs": [],
      "name": "renounceOwnership",
      "outputs": [],
      "payable": false,
      "stateMutability": "nonpayable",
      "type": "function"
    },
    {
      "constant": true,
      "inputs": [],
      "name": "rewardCount",
      "outputs": [
        {
          "internalType": "uint256",
          "name": "",
          "type": "uint256"
        }
      ],
      "payable": false,
      "stateMutability": "view",
      "type": "function"
    },
    {
      "constant": true,
      "inputs": [],
      "name": "rewardedAmount",
      "outputs": [
        {
          "internalType": "uint256",
          "name": "",
          "type": "uint256"
        }
      ],
      "payable": false,
      "stateMutability": "view",
      "type": "function"
    },
    {
      "constant": true,
      "inputs": [
        {
          "internalType": "address",
          "name": "",
          "type": "address"
        }
      ],
      "name": "rewardeeStats",
      "outputs": [
        {
          "internalType": "uint256",
          "name": "rewardCount",
          "type": "uint256"
        },
        {
          "internalType": "uint256",
          "name": "amountRewarded",
          "type": "uint256"
        }
      ],
      "payable": false,
      "stateMutability": "view",
      "type": "function"
    },
    {
      "constant": true,
      "inputs": [
        {
          "internalType": "address",
          "name": "",
          "type": "address"
        },
        {
          "internalType": "uint256",
          "name": "",
          "type": "uint256"
        }
      ],
      "name": "rewards",
      "outputs": [
        {
          "internalType": "uint256",
          "name": "activityId",
          "type": "uint256"
        },
        {
          "internalType": "uint256",
          "name": "slotId",
          "type": "uint256"
        },
        {
          "internalType": "uint256",
          "name": "rewardAmount",
          "type": "uint256"
        },
        {
          "internalType": "uint256",
          "name": "rewardedOn",
          "type": "uint256"
        }
      ],
      "payable": false,
      "stateMutability": "view",
      "type": "function"
    },
    {
      "constant": true,
      "inputs": [
        {
          "internalType": "uint256",
          "name": "",
          "type": "uint256"
        },
        {
          "internalType": "uint256",
          "name": "",
          "type": "uint256"
        }
      ],
      "name": "slots",
      "outputs": [
        {
          "internalType": "uint256",
          "name": "id",
          "type": "uint256"
        },
        {
          "internalType": "uint256",
          "name": "activityId",
          "type": "uint256"
        },
        {
          "internalType": "enum JurRewards.SlotState",
          "name": "state",
          "type": "uint8"
        },
        {
          "internalType": "address",
          "name": "assignedTo",
          "type": "address"
        },
        {
          "internalType": "uint256",
          "name": "createdAt",
          "type": "uint256"
        },
        {
          "internalType": "uint256",
          "name": "dueDate",
          "type": "uint256"
        },
        {
          "internalType": "uint256",
          "name": "rewardId",
          "type": "uint256"
        }
      ],
      "payable": false,
      "stateMutability": "view",
      "type": "function"
    },
    {
      "constant": false,
      "inputs": [
        {
          "internalType": "address",
          "name": "newOwner",
          "type": "address"
        }
      ],
      "name": "transferOwnership",
      "outputs": [],
      "payable": false,
      "stateMutability": "nonpayable",
      "type": "function"
    },
    {
      "constant": false,
      "inputs": [
        {
          "internalType": "address",
          "name": "_manager",
          "type": "address"
        },
        {
          "internalType": "bool",
          "name": "_status",
          "type": "bool"
        }
      ],
      "name": "updateManager",
      "outputs": [],
      "payable": false,
      "stateMutability": "nonpayable",
      "type": "function"
    },
    {
      "constant": true,
      "inputs": [
        {
          "internalType": "address",
          "name": "",
          "type": "address"
        }
      ],
      "name": "whitelistedContracts",
      "outputs": [
        {
          "internalType": "string",
          "name": "name",
          "type": "string"
        },
        {
          "internalType": "bool",
          "name": "isActive",
          "type": "bool"
        }
      ],
      "payable": false,
      "stateMutability": "view",
      "type": "function"
    },
    {
      "constant": false,
      "inputs": [
        {
          "internalType": "address",
          "name": "_contract",
          "type": "address"
        },
        {
          "internalType": "bool",
          "name": "_status",
          "type": "bool"
        }
      ],
      "name": "whitelistRoleContract",
      "outputs": [],
      "payable": false,
      "stateMutability": "nonpayable",
      "type": "function"
    },
    {
      "constant": false,
      "inputs": [
        {
          "internalType": "string",
          "name": "_name",
          "type": "string"
        },
        {
          "internalType": "uint256",
          "name": "_slotCount",
          "type": "uint256"
        },
        {
          "internalType": "uint256",
          "name": "_rewardAmount",
          "type": "uint256"
        },
        {
          "internalType": "address[]",
          "name": "_roleContracts",
          "type": "address[]"
        }
      ],
      "name": "addActivity",
      "outputs": [],
      "payable": false,
      "stateMutability": "nonpayable",
      "type": "function"
    },
    {
      "constant": false,
      "inputs": [
        {
          "internalType": "string",
          "name": "_name",
          "type": "string"
        },
        {
          "internalType": "uint256",
          "name": "_slotCount",
          "type": "uint256"
        },
        {
          "internalType": "uint256",
          "name": "_rewardAmount",
          "type": "uint256"
        },
        {
          "internalType": "address[]",
          "name": "_roleContracts",
          "type": "address[]"
        },
        {
          "internalType": "address",
          "name": "_funder",
          "type": "address"
        }
      ],
      "name": "addActivityJUR",
      "outputs": [],
      "payable": false,
      "stateMutability": "nonpayable",
      "type": "function"
    },
    {
      "constant": false,
      "inputs": [
        {
          "internalType": "uint256",
          "name": "_activityId",
          "type": "uint256"
        },
        {
          "internalType": "address",
          "name": "_assignedTo",
          "type": "address"
        },
        {
          "internalType": "uint256",
          "name": "_dueDate",
          "type": "uint256"
        }
      ],
      "name": "assignSlot",
      "outputs": [],
      "payable": false,
      "stateMutability": "nonpayable",
      "type": "function"
    },
    {
      "constant": false,
      "inputs": [
        {
          "internalType": "uint256",
          "name": "_activityId",
          "type": "uint256"
        },
        {
          "internalType": "uint256",
          "name": "_slotCount",
          "type": "uint256"
        }
      ],
      "name": "addSlots",
      "outputs": [],
      "payable": false,
      "stateMutability": "nonpayable",
      "type": "function"
    },
    {
      "constant": false,
      "inputs": [
        {
          "internalType": "uint256",
          "name": "_activityId",
          "type": "uint256"
        },
        {
          "internalType": "bool",
          "name": "_status",
          "type": "bool"
        }
      ],
      "name": "changeActivityState",
      "outputs": [],
      "payable": false,
      "stateMutability": "nonpayable",
      "type": "function"
    },
    {
      "constant": false,
      "inputs": [
        {
          "internalType": "uint256",
          "name": "_activityId",
          "type": "uint256"
        },
        {
          "internalType": "uint256",
          "name": "_slotId",
          "type": "uint256"
        }
      ],
      "name": "markSlotComplete",
      "outputs": [],
      "payable": false,
      "stateMutability": "nonpayable",
      "type": "function"
    },
    {
      "constant": false,
      "inputs": [
        {
          "internalType": "uint256",
          "name": "_activityId",
          "type": "uint256"
        },
        {
          "internalType": "uint256",
          "name": "_slotId",
          "type": "uint256"
        }
      ],
      "name": "cancelSlot",
      "outputs": [],
      "payable": false,
      "stateMutability": "nonpayable",
      "type": "function"
    },
    {
      "constant": false,
      "inputs": [
        {
          "internalType": "uint256",
          "name": "_activityId",
          "type": "uint256"
        },
        {
          "internalType": "uint256",
          "name": "_slotId",
          "type": "uint256"
        }
      ],
      "name": "unassignSlot",
      "outputs": [],
      "payable": false,
      "stateMutability": "nonpayable",
      "type": "function"
    },
    {
      "constant": false,
      "inputs": [
        {
          "internalType": "uint256",
          "name": "_activityId",
          "type": "uint256"
        },
        {
          "internalType": "uint256",
          "name": "_slotId",
          "type": "uint256"
        }
      ],
      "name": "withdrawReward",
      "outputs": [],
      "payable": false,
      "stateMutability": "nonpayable",
      "type": "function"
    },
    {
      "constant": false,
      "inputs": [
        {
          "internalType": "uint256",
          "name": "_activityId",
          "type": "uint256"
        },
        {
          "internalType": "uint256",
          "name": "_slotId",
          "type": "uint256"
        },
        {
          "internalType": "address",
          "name": "_assignedTo",
          "type": "address"
        },
        {
          "internalType": "uint256",
          "name": "_dueDate",
          "type": "uint256"
        }
      ],
      "name": "reassignSlot",
      "outputs": [],
      "payable": false,
      "stateMutability": "nonpayable",
      "type": "function"
    },
    {
      "constant": true,
      "inputs": [
        {
          "internalType": "uint256",
          "name": "_activityId",
          "type": "uint256"
        },
        {
          "internalType": "uint256",
          "name": "_slotId",
          "type": "uint256"
        }
      ],
      "name": "canWithdraw",
      "outputs": [
        {
          "internalType": "bool",
          "name": "",
          "type": "bool"
        },
        {
          "internalType": "uint256",
          "name": "",
          "type": "uint256"
        }
      ],
      "payable": false,
      "stateMutability": "view",
      "type": "function"
    },
    {
      "constant": true,
      "inputs": [
        {
          "internalType": "uint256",
          "name": "_activityId",
          "type": "uint256"
        }
      ],
      "name": "getWhitelistedContracts",
      "outputs": [
        {
          "internalType": "address[]",
          "name": "",
          "type": "address[]"
        }
      ],
      "payable": false,
      "stateMutability": "view",
      "type": "function"
    }
  ],
  "bytecode": "0x60806040526101a4600d553480156200001757600080fd5b506040516200387438038062003874833981810160405260208110156200003d57600080fd5b50516000620000546001600160e01b03620000c416565b600080546001600160a01b0319166001600160a01b0383169081178255604051929350917f8be0079c531659141344cd1fd0a4f28419497f9722a3daafe3b4186f6b6457e0908290a350600380546001600160a01b0319166001600160a01b0392909216919091179055620000c8565b3390565b61379c80620000d86000396000f3fe608060405234801561001057600080fd5b50600436106101f05760003560e01c80638da5cb5b1161010f578063c23d4f19116100a2578063e6240deb11610071578063e6240deb14610969578063ec823b6d14610971578063f2fde38b146109eb578063f3ae241514610a11576101f0565b8063c23d4f1914610761578063d4d2e7f2146107a0578063d96a4a72146107c6578063e02b80ad14610833576101f0565b8063b2010302116100de578063b201030214610699578063b933ceac146106be578063b9ccd90714610710578063bf1db9b41461073e576101f0565b80638da5cb5b146106655780638f32d59b1461066d578063976ab20f14610689578063afd2c26014610691576101f0565b8063421f9a6e1161018757806370f2f9661161015657806370f2f96614610603578063715018a61461063b578063790854251461064357806383b6062e1461065d576101f0565b8063421f9a6e146105765780634c96346c146105b45780635f068b43146105d75780636c146d9b146105fb576101f0565b80632541888c116101c35780632541888c1461032c578063391feebb1461035e5780633a35ae2d146104075780634197e77814610435576101f0565b80630d1657e8146101f55780630d97e782146102c15780631267f728146102e65780631c68c85514610309575b600080fd5b6102126004803603602081101561020b57600080fd5b5035610a37565b60408051888152908101869052606081018590526080810184905282151560a08201526001600160a01b03821660c082015260e0602080830182815289519284019290925288516101008401918a019080838360005b83811015610280578181015183820152602001610268565b50505050905090810190601f1680156102ad5780820380516001836020036101000a031916815260200191505b509850505050505050505060405180910390f35b6102e4600480360360408110156102d757600080fd5b5080359060200135610b0a565b005b6102e4600480360360408110156102fc57600080fd5b5080359060200135610ff8565b6102e46004803603604081101561031f57600080fd5b50803590602001356112e5565b6102e46004803603606081101561034257600080fd5b508035906001600160a01b036020820135169060400135611599565b6103846004803603602081101561037457600080fd5b50356001600160a01b0316611957565b604051808060200183151515158152602001828103825284818151815260200191508051906020019080838360005b838110156103cb5781810151838201526020016103b3565b50505050905090810190601f1680156103f85780820380516001836020036101000a031916815260200191505b50935050505060405180910390f35b6102e46004803603604081101561041d57600080fd5b506001600160a01b0381351690602001351515611a01565b6102e4600480360360a081101561044b57600080fd5b81019060208101813564010000000081111561046657600080fd5b82018360208201111561047857600080fd5b8035906020019184600183028401116401000000008311171561049a57600080fd5b91908080601f01602080910402602001604051908101604052809392919081815260200183838082843760009201919091525092958435956020860135959194509250606081019150604001356401000000008111156104f957600080fd5b82018360208201111561050b57600080fd5b8035906020019184602083028401116401000000008311171561052d57600080fd5b919080806020026020016040519081016040528093929190818152602001838360200280828437600092019190915250929550505090356001600160a01b03169150611aae9050565b6105996004803603604081101561058c57600080fd5b5080359060200135611abb565b60408051921515835260208301919091528051918290030190f35b6102e4600480360360408110156105ca57600080fd5b5080359060200135611b52565b6105df611c85565b604080516001600160a01b039092168252519081900360200190f35b6102e4611c94565b6102e46004803603608081101561061957600080fd5b508035906020810135906001600160a01b036040820135169060600135611d25565b6102e46120c1565b61064b612164565b60408051918252519081900360200190f35b61064b61216a565b6105df612170565b610675612180565b604080519115158252519081900360200190f35b61064b6121a4565b61064b6121aa565b6102e4600480360360408110156106af57600080fd5b508035906020013515156121b0565b6106ea600480360360408110156106d457600080fd5b506001600160a01b038135169060200135612266565b604080519485526020850193909352838301919091526060830152519081900360800190f35b6102e46004803603604081101561072657600080fd5b506001600160a01b0381351690602001351515612298565b6102e46004803603604081101561075457600080fd5b508035906020013561287a565b6107876004803603602081101561077757600080fd5b50356001600160a01b0316612b77565b6040805192835260208301919091528051918290030190f35b610675600480360360208110156107b657600080fd5b50356001600160a01b0316612b90565b6107e3600480360360208110156107dc57600080fd5b5035612ba5565b60408051602080825283518183015283519192839290830191858101910280838360005b8381101561081f578181015183820152602001610807565b505050509050019250505060405180910390f35b6102e46004803603608081101561084957600080fd5b81019060208101813564010000000081111561086457600080fd5b82018360208201111561087657600080fd5b8035906020019184600183028401116401000000008311171561089857600080fd5b91908080601f01602080910402602001604051908101604052809392919081815260200183838082843760009201919091525092958435956020860135959194509250606081019150604001356401000000008111156108f757600080fd5b82018360208201111561090957600080fd5b8035906020019184602083028401116401000000008311171561092b57600080fd5b919080806020026020016040519081016040528093929190818152602001838360200280828437600092019190915250929550612c16945050505050565b61064b612c29565b6109946004803603604081101561098757600080fd5b5080359060200135612c2f565b604051808881526020018781526020018660048111156109b057fe5b60ff1681526001600160a01b0390951660208601525060408085019390935260608401919091526080830152519081900360a0019350915050f35b6102e460048036036020811015610a0157600080fd5b50356001600160a01b0316612c81565b61067560048036036020811015610a2757600080fd5b50356001600160a01b0316612ce6565b6006602090815260009182526040918290208054600180830180548651600293821615610100026000190190911692909204601f810186900486028301860190965285825291949293909290830182828015610ad45780601f10610aa957610100808354040283529160200191610ad4565b820191906000526020600020905b815481529060010190602001808311610ab757829003601f168201915b505050506002830154600384015460048501546005909501549394919390925060ff81169061010090046001600160a01b031687565b6000828152600660209081526040808320600783528184208585528352818420600281015461010090046001600160a01b0316855260099093529220610b4f33612ce6565b80610b6b5750600282015461010090046001600160a01b031633145b610bb2576040805162461bcd60e51b8152602060048201526013602482015272155cd95c881b9bdd08185d5d1a1bdc9a5e9959606a1b604482015290519081900360640190fd5b610bbb33612ce6565b15610e50576000600283015460ff166004811115610bd557fe5b1480610bf357506001600283015460ff166004811115610bf157fe5b145b610c44576040805162461bcd60e51b815260206004820152601d60248201527f536c6f74206973206e6f7420696e207265717569726564207374617465000000604482015290519081900360640190fd5b6002828101805460ff1916600183021790555080546005830181905560408051608081018252878152602080820188815260048801805484860190815242606086019081526002808b015461010090046001600160a01b031660009081526008875288812099815298909552959096209351845590516001808501919091559451918301919091559151600390910155825482018355600c805483019055908201549054610cf29190612d04565b6001820155600a546004840154610d099190612d04565b600a55600b546004840154610d1e9190612d67565b600b5560035460028301546004808601546040805163a9059cbb60e01b81526101009094046001600160a01b039081169385019390935260248401919091525192169163a9059cbb916044808201926020929091908290030181600087803b158015610d8957600080fd5b505af1158015610d9d573d6000803e3d6000fd5b505050506040513d6020811015610db357600080fd5b5051610e06576040805162461bcd60e51b815260206004820152601b60248201527f4e6f742061626c6520746f207472616e736665722066756e64732e0000000000604482015290519081900360640190fd5b6004830154604080518781526020810187905280820192909252517ffecf5bb385a45216108f7b8187af0cb0c86d5062ff4c5c8e3acda9c6a30e33259181900360600190a1610ff1565b600282015461010090046001600160a01b0316331415610ff1576000600283015460ff166004811115610e7f57fe5b14610ed1576040805162461bcd60e51b815260206004820152601460248201527f536c6f74206973206e6f742061737369676e6564000000000000000000000000604482015290519081900360640190fd5b81600401544211610f29576040805162461bcd60e51b815260206004820152601f60248201527f447565206461746520686173206e6f74206265656e207265616c697a65642e00604482015290519081900360640190fd5b6002820180546001919060ff1916828002179055507fac87767d91e4bba22b41af3fc54c39722d5a447aa77bd59feb23853b921e63498585610f6b6001612da9565b6040518084815260200183815260200180602001828103825283818151815260200191508051906020019080838360005b83811015610fb4578181015183820152602001610f9c565b50505050905090810190601f168015610fe15780820380516001836020036101000a031916815260200191505b5094505050505060405180910390a15b5050505050565b6000828152600660209081526040808320600783528184208585528352818420600281015461010090046001600160a01b031680865260099094529190932090913314611082576040805162461bcd60e51b8152602060048201526013602482015272155cd95c881b9bdd08185d5d1a1bdc9a5e9959606a1b604482015290519081900360640190fd5b6001600283015460ff16600481111561109757fe5b146110e9576040805162461bcd60e51b815260206004820152601560248201527f536c6f74206973206e6f7420636f6d706c657465640000000000000000000000604482015290519081900360640190fd5b6110f98260040154600d54612d04565b42101561110557600080fd5b6002828101805460ff1916600183021790555080546005830181905560408051608081018252878152602080820188815260048801805484860190815242606086019081526002808b015461010090046001600160a01b031660009081526008875288812099815298909552959096209351845590516001808501919091559451918301919091559151600390910155825482018355600c8054830190559082015490546111b39190612d04565b5060035460028301546004808601546040805163a9059cbb60e01b81526101009094046001600160a01b039081169385019390935260248401919091525192169163a9059cbb916044808201926020929091908290030181600087803b15801561121c57600080fd5b505af1158015611230573d6000803e3d6000fd5b505050506040513d602081101561124657600080fd5b5051611299576040805162461bcd60e51b815260206004820152601b60248201527f4e6f742061626c6520746f207472616e736665722066756e64732e0000000000604482015290519081900360640190fd5b6004830154604080518781526020810187905280820192909252517ffecf5bb385a45216108f7b8187af0cb0c86d5062ff4c5c8e3acda9c6a30e33259181900360600190a15050505050565b3360009081526001602052604090205460ff166113335760405162461bcd60e51b81526004018080602001828103825260238152602001806137206023913960400191505060405180910390fd5b6000828152600660209081526040808320600783528184208585529092529091206001600282015460ff16600481111561136957fe5b14158015611389575060028082015460ff16600481111561138657fe5b14155b6113c45760405162461bcd60e51b81526004018080602001828103825260218152602001806136de6021913960400191505060405180910390fd5b600281018054600460ff199091168117610100600160a81b031916909155600081830155600b54908301546113f99190612d67565b600b5560035460058301546004808501546040805163a9059cbb60e01b81526101009094046001600160a01b039081169385019390935260248401919091525192169163a9059cbb916044808201926020929091908290030181600087803b15801561146457600080fd5b505af1158015611478573d6000803e3d6000fd5b505050506040513d602081101561148e57600080fd5b50516114e1576040805162461bcd60e51b815260206004820152601b60248201527f4e6f742061626c6520746f207472616e736665722066756e64732e0000000000604482015290519081900360640190fd5b7fac87767d91e4bba22b41af3fc54c39722d5a447aa77bd59feb23853b921e6349848461150e6004612da9565b6040518084815260200183815260200180602001828103825283818151815260200191508051906020019080838360005b8381101561155757818101518382015260200161153f565b50505050905090810190601f1680156115845780820380516001836020036101000a031916815260200191505b5094505050505060405180910390a150505050565b3360009081526001602052604090205460ff166115e75760405162461bcd60e51b81526004018080602001828103825260238152602001806137206023913960400191505060405180910390fd5b6000838152600660205260409020600581015460ff1661164e576040805162461bcd60e51b815260206004820152601e60248201527f4163746976697479206973206e6f742061637469766520616e796d6f72650000604482015290519081900360640190fd5b80600201548160030154106116aa576040805162461bcd60e51b815260206004820152601260248201527f416c6c20736c6f7473206172652066756c6c0000000000000000000000000000604482015290519081900360640190fd5b4282116116fe576040805162461bcd60e51b815260206004820152601660248201527f43616e6e6f742073657420612070617374206461746500000000000000000000604482015290519081900360640190fd5b6006810154156118005760005b60068201548110156117fe5781600601818154811061172657fe5b60009182526020918290200154600280546001600160a01b0319166001600160a01b03928316179081905560408051634209fff160e01b8152888416600482015290519190921692634209fff19260248082019391829003018186803b15801561178f57600080fd5b505afa1580156117a3573d6000803e3d6000fd5b505050506040513d60208110156117b957600080fd5b50516117f65760405162461bcd60e51b81526004018080602001828103825260258152602001806137436025913960400191505060405180910390fd5b60010161170b565b505b6040805160e0810182526003830154808252602080830188815260008486018181526001600160a01b038a16606087015242608087015260a0860189905260c086018290528a8252600784528682209482529390925293902082518155925160018085019190915590516002840180549394939192909160ff19169083600481111561188857fe5b021790555060608201518160020160016101000a8154816001600160a01b0302191690836001600160a01b031602179055506080820151816003015560a0820151816004015560c082015181600501559050507f59cdb669f66c2025694a95b12dd1253f70eadb96f310304dd879bf5b9abc209b84826003015485428660405180868152602001858152602001846001600160a01b03166001600160a01b031681526020018381526020018281526020019550505050505060405180910390a160030180546001019055505050565b60056020908152600091825260409182902080548351601f600260001961010060018616150201909316929092049182018490048402810184019094528084529092918391908301828280156119ee5780601f106119c3576101008083540402835291602001916119ee565b820191906000526020600020905b8154815290600101906020018083116119d157829003601f168201915b5050506001909301549192505060ff1682565b611a09612180565b611a5a576040805162461bcd60e51b815260206004820181905260248201527f4f776e61626c653a2063616c6c6572206973206e6f7420746865206f776e6572604482015290519081900360640190fd5b6001600160a01b038216600081815260016020526040808220805460ff191685151590811790915590519092917fdbb9ed174593e4f785d50b5333b66e44e8ccfb28737fa34896411100a93d100e91a35050565b610ff18585858585612ecc565b600082815260076020908152604080832084845290915281206004810154600d548392918391611aeb9190612d04565b90506000600283015460ff166004811115611b0257fe5b1480611b2057506001600283015460ff166004811115611b1e57fe5b145b8015611b2c5750804210155b15611b3e57600193509150611b4b9050565b600093509150611b4b9050565b9250929050565b3360009081526001602052604090205460ff16611ba05760405162461bcd60e51b81526004018080602001828103825260238152602001806137206023913960400191505060405180910390fd5b6000828152600660209081526040808320600783528184208585529092529091206001600282015460ff166004811115611bd657fe5b14158015611bf6575060028082015460ff166004811115611bf357fe5b14155b611c315760405162461bcd60e51b81526004018080602001828103825260218152602001806136de6021913960400191505060405180910390fd5b600281018054600360ff199091168117610100600160a81b031916909155600060048301557fac87767d91e4bba22b41af3fc54c39722d5a447aa77bd59feb23853b921e6349908590859061150e90612da9565b6003546001600160a01b031681565b3360009081526001602052604090205460ff16611ce25760405162461bcd60e51b81526004018080602001828103825260238152602001806137206023913960400191505060405180910390fd5b33600081815260016020526040808220805460ff19169055519091907fdbb9ed174593e4f785d50b5333b66e44e8ccfb28737fa34896411100a93d100e908390a3565b3360009081526001602052604090205460ff16611d735760405162461bcd60e51b81526004018080602001828103825260238152602001806137206023913960400191505060405180910390fd5b600084815260066020908152604080832060078352818420878552909252909120600582015460ff16611ded576040805162461bcd60e51b815260206004820152601e60248201527f4163746976697479206973206e6f742061637469766520616e796d6f72650000604482015290519081900360640190fd5b6003600282015460ff166004811115611e0257fe5b14611e3e5760405162461bcd60e51b81526004018080602001828103825260218152602001806136de6021913960400191505060405180910390fd5b428311611e92576040805162461bcd60e51b815260206004820152601660248201527f43616e6e6f742073657420612070617374206461746500000000000000000000604482015290519081900360640190fd5b600682015415611f945760005b6006830154811015611f9257826006018181548110611eba57fe5b60009182526020918290200154600280546001600160a01b0319166001600160a01b03928316179081905560408051634209fff160e01b8152898416600482015290519190921692634209fff19260248082019391829003018186803b158015611f2357600080fd5b505afa158015611f37573d6000803e3d6000fd5b505050506040513d6020811015611f4d57600080fd5b5051611f8a5760405162461bcd60e51b81526004018080602001828103825260258152602001806137436025913960400191505060405180910390fd5b600101611e9f565b505b6040805160e081018252868152602080820189815260008385018181526001600160a01b038a16606086015242608086015260a0850189905260c085018290528b8252600784528582208b83529093529390932082518155925160018085019190915590516002840180549394939192909160ff19169083600481111561201757fe5b0217905550606082810151600283018054610100600160a81b0319166101006001600160a01b0393841602179055608080850151600385015560a080860151600486015560c090950151600590940193909355604080518b8152602081018b9052918916828201524292820192909252918201869052517f59cdb669f66c2025694a95b12dd1253f70eadb96f310304dd879bf5b9abc209b929181900390910190a1505050505050565b6120c9612180565b61211a576040805162461bcd60e51b815260206004820181905260248201527f4f776e61626c653a2063616c6c6572206973206e6f7420746865206f776e6572604482015290519081900360640190fd5b600080546040516001600160a01b03909116907f8be0079c531659141344cd1fd0a4f28419497f9722a3daafe3b4186f6b6457e0908390a3600080546001600160a01b0319169055565b600c5481565b600b5481565b6000546001600160a01b03165b90565b600080546001600160a01b03166121956133e5565b6001600160a01b031614905090565b600d5481565b600a5481565b3360009081526001602052604090205460ff166121fe5760405162461bcd60e51b81526004018080602001828103825260238152602001806137206023913960400191505060405180910390fd5b600082815260066020908152604080832060058101805486151560ff19909116811790915582518781529384019490945282820193909352517f6da910bbc438229a463d4f2dd0eb3d0d2f93dcdfa4448d10b5ba5eb5779abde89181900360600190a1505050565b600860209081526000928352604080842090915290825290208054600182015460028301546003909301549192909184565b6122a0612180565b6122f1576040805162461bcd60e51b815260206004820181905260248201527f4f776e61626c653a2063616c6c6572206973206e6f7420746865206f776e6572604482015290519081900360640190fd5b600280546001600160a01b0319166001600160a01b03848116919091179182905560408051633f78205d60e21b81529051929091169163fde0817491600480820192600092909190829003018186803b15801561234d57600080fd5b505afa158015612361573d6000803e3d6000fd5b505050506040513d6000823e601f3d908101601f19168201604052602081101561238a57600080fd5b81019080805160405193929190846401000000008211156123aa57600080fd5b9083019060208201858111156123bf57600080fd5b82516401000000008111828201881017156123d957600080fd5b82525081516020918201929091019080838360005b838110156124065781810151838201526020016123ee565b50505050905090810190601f1680156124335780820380516001836020036101000a031916815260200191505b506040525050505160001415612490576040805162461bcd60e51b815260206004820152601460248201527f4e6f7420612076616c6964204a757220526f6c65000000000000000000000000604482015290519081900360640190fd5b6001600160a01b0382166124eb576040805162461bcd60e51b815260206004820152601360248201527f4e6f7420612076616c696420636f6e7472617400000000000000000000000000604482015290519081900360640190fd5b6040518060400160405280600260009054906101000a90046001600160a01b03166001600160a01b031663fde081746040518163ffffffff1660e01b815260040160006040518083038186803b15801561254457600080fd5b505afa158015612558573d6000803e3d6000fd5b505050506040513d6000823e601f3d908101601f19168201604052602081101561258157600080fd5b81019080805160405193929190846401000000008211156125a157600080fd5b9083019060208201858111156125b657600080fd5b82516401000000008111828201881017156125d057600080fd5b82525081516020918201929091019080838360005b838110156125fd5781810151838201526020016125e5565b50505050905090810190601f16801561262a5780820380516001836020036101000a031916815260200191505b5060409081529385525050508315156020928301526001600160a01b0385166000908152600583522082518051919261266892849290910190613579565b50602091909101516001909101805460ff191691151591909117905560025460408051633f78205d60e21b815290517f036feb3ad4abc023e72130cb37915890354330fb2bdc904e07d2b3064ed678b29285926001600160a01b039091169163fde0817491600480820192600092909190829003018186803b1580156126ed57600080fd5b505afa158015612701573d6000803e3d6000fd5b505050506040513d6000823e601f3d908101601f19168201604052602081101561272a57600080fd5b810190808051604051939291908464010000000082111561274a57600080fd5b90830190602082018581111561275f57600080fd5b825164010000000081118282018810171561277957600080fd5b82525081516020918201929091019080838360005b838110156127a657818101518382015260200161278e565b50505050905090810190601f1680156127d35780820380516001836020036101000a031916815260200191505b506040525050508360405180846001600160a01b03166001600160a01b031681526020018060200183151515158152602001828103825284818151815260200191508051906020019080838360005b8381101561283a578181015183820152602001612822565b50505050905090810190601f1680156128675780820380516001836020036101000a031916815260200191505b5094505050505060405180910390a15050565b3360009081526001602052604090205460ff166128c85760405162461bcd60e51b81526004018080602001828103825260238152602001806137206023913960400191505060405180910390fd5b6000828152600660205260409020600581015460ff1661292f576040805162461bcd60e51b815260206004820152601e60248201527f4163746976697479206973206e6f742061637469766520616e796d6f72650000604482015290519081900360640190fd5b61293d8160040154836133e9565b60035460408051636eb1769f60e11b815233600482015230602482015290516001600160a01b039092169163dd62ed3e91604480820192602092909190829003018186803b15801561298e57600080fd5b505afa1580156129a2573d6000803e3d6000fd5b505050506040513d60208110156129b857600080fd5b50511015612a0d576040805162461bcd60e51b815260206004820152601560248201527f417070726f76652062616c616e63652066697273740000000000000000000000604482015290519081900360640190fd5b612a1b816002015483612d04565b600282015560035460048201546001600160a01b03909116906323b872dd9033903090612a4890876133e9565b6040518463ffffffff1660e01b815260040180846001600160a01b03166001600160a01b03168152602001836001600160a01b03166001600160a01b031681526020018281526020019350505050602060405180830381600087803b158015612ab057600080fd5b505af1158015612ac4573d6000803e3d6000fd5b505050506040513d6020811015612ada57600080fd5b5051612b2d576040805162461bcd60e51b815260206004820152601b60248201527f4e6f742061626c6520746f207472616e736665722066756e64732e0000000000604482015290519081900360640190fd5b6002810154604080518581526020810192909252600082820152517f6da910bbc438229a463d4f2dd0eb3d0d2f93dcdfa4448d10b5ba5eb5779abde89181900360600190a1505050565b6009602052600090815260409020805460019091015482565b60016020526000908152604090205460ff1681565b600081815260066020818152604092839020918201805484518184028101840190955280855260609492830182828015612c0857602002820191906000526020600020905b81546001600160a01b03168152600190910190602001808311612bea575b50505050509150505b919050565b612c238484848433612ecc565b50505050565b60045481565b60076020908152600092835260408084209091529082529020805460018201546002830154600384015460048501546005909501549394929360ff8316936101009093046001600160a01b0316929087565b612c89612180565b612cda576040805162461bcd60e51b815260206004820181905260248201527f4f776e61626c653a2063616c6c6572206973206e6f7420746865206f776e6572604482015290519081900360640190fd5b612ce381613442565b50565b6001600160a01b031660009081526001602052604090205460ff1690565b600082820183811015612d5e576040805162461bcd60e51b815260206004820152601b60248201527f536166654d6174683a206164646974696f6e206f766572666c6f770000000000604482015290519081900360640190fd5b90505b92915050565b6000612d5e83836040518060400160405280601e81526020017f536166654d6174683a207375627472616374696f6e206f766572666c6f7700008152506134e2565b60606000826004811115612db957fe5b1415612de45750604080518082019091526008815267105cdcda59db995960c21b6020820152612c11565b6001826004811115612df257fe5b1415612e1e575060408051808201909152600981526810dbdb5c1b195d195960ba1b6020820152612c11565b6002826004811115612e2c57fe5b1415612e57575060408051808201909152600881526714995dd85c99195960c21b6020820152612c11565b6003826004811115612e6557fe5b1415612e92575060408051808201909152600a815269155b985cdcda59db995960b21b6020820152612c11565b6004826004811115612ea057fe5b1415612c11575060408051808201909152600981526810d85b98d95b1b195960ba1b6020820152612c11565b3360009081526001602052604090205460ff16612f1a5760405162461bcd60e51b81526004018080602001828103825260238152602001806137206023913960400191505060405180910390fd5b60005b8251811015612fa35760056000848381518110612f3657fe5b6020908102919091018101516001600160a01b031682528101919091526040016000206001015460ff16612f9b5760405162461bcd60e51b81526004018080602001828103825260218152602001806136bd6021913960400191505060405180910390fd5b600101612f1d565b5060328410612ff9576040805162461bcd60e51b815260206004820181905260248201527f43616e6e6f7420637265617465206d6f7265207468616e20353020736c6f7473604482015290519081900360640190fd5b61300383856133e9565b60035460408051636eb1769f60e11b81526001600160a01b0385811660048301523060248301529151919092169163dd62ed3e916044808301926020929190829003018186803b15801561305657600080fd5b505afa15801561306a573d6000803e3d6000fd5b505050506040513d602081101561308057600080fd5b505110156130d5576040805162461bcd60e51b815260206004820152601560248201527f417070726f76652062616c616e63652066697273740000000000000000000000604482015290519081900360640190fd5b6040805161010081018252600454808252602080830189815283850189905260006060850181905260808501899052600160a086018190526001600160a01b03881660c087015260e086018990529381526006835294909420835181559351805193949361314a938501929190910190613579565b5060408201516002820155606082015160038201556080820151600482015560a082015160058201805460c08501516001600160a01b031661010002610100600160a81b031993151560ff19909216919091179290921691909117905560e082015180516131c29160068401916020909101906135f7565b509050506131db600b546131d685876133e9565b612d04565b600b556003546001600160a01b03166323b872dd82306131fb87896133e9565b6040518463ffffffff1660e01b815260040180846001600160a01b03166001600160a01b03168152602001836001600160a01b03166001600160a01b031681526020018281526020019350505050602060405180830381600087803b15801561326357600080fd5b505af1158015613277573d6000803e3d6000fd5b505050506040513d602081101561328d57600080fd5b50516132e0576040805162461bcd60e51b815260206004820152601b60248201527f4e6f742061626c6520746f207472616e736665722066756e64732e0000000000604482015290519081900360640190fd5b7f0856f43cfdbe8322d98dc9ac8285232132feb08161cd117555d4249f268fc6ca60045485858886604051808681526020018581526020018481526020018060200180602001838103835285818151815260200191508051906020019080838360005b8381101561335b578181015183820152602001613343565b50505050905090810190601f1680156133885780820380516001836020036101000a031916815260200191505b508381038252845181528451602091820191808701910280838360005b838110156133bd5781810151838201526020016133a5565b5050505090500197505050505050505060405180910390a15050600480546001019055505050565b3390565b6000826133f857506000612d61565b8282028284828161340557fe5b0414612d5e5760405162461bcd60e51b81526004018080602001828103825260218152602001806136ff6021913960400191505060405180910390fd5b6001600160a01b0381166134875760405162461bcd60e51b81526004018080602001828103825260268152602001806136976026913960400191505060405180910390fd5b600080546040516001600160a01b03808516939216917f8be0079c531659141344cd1fd0a4f28419497f9722a3daafe3b4186f6b6457e091a3600080546001600160a01b0319166001600160a01b0392909216919091179055565b600081848411156135715760405162461bcd60e51b81526004018080602001828103825283818151815260200191508051906020019080838360005b8381101561353657818101518382015260200161351e565b50505050905090810190601f1680156135635780820380516001836020036101000a031916815260200191505b509250505060405180910390fd5b505050900390565b828054600181600116156101000203166002900490600052602060002090601f016020900481019282601f106135ba57805160ff19168380011785556135e7565b828001600101855582156135e7579182015b828111156135e75782518255916020019190600101906135cc565b506135f3929150613658565b5090565b82805482825590600052602060002090810192821561364c579160200282015b8281111561364c57825182546001600160a01b0319166001600160a01b03909116178255602090920191600190910190613617565b506135f3929150613672565b61217d91905b808211156135f3576000815560010161365e565b61217d91905b808211156135f35780546001600160a01b031916815560010161367856fe4f776e61626c653a206e6577206f776e657220697320746865207a65726f2061646472657373526f6c6520636f6e7472616374206973206e6f742077686974656c69737465642e536c6f74206973206e6f7420696e20746865207265717569726564207374617465536166654d6174683a206d756c7469706c69636174696f6e206f766572666c6f774d616e61676561626c653a2063616c6c6572206973206e6f742061204d616e616765725573657220646f6573206e6f74206861766520612077686974656c697374656420726f6c65a265627a7a72315820fce958a5d2579c027eed92aaddf348c9636d6721ed4022a15d81a9245a3ab10c64736f6c63430005110032",
  "source": "pragma solidity >=0.5.0 <0.7.0;\n\nimport \"@openzeppelin/contracts/token/ERC20/IERC20.sol\";\nimport \"@openzeppelin/contracts/math/SafeMath.sol\";\nimport \"./Manageable.sol\";\nimport \"./IRole.sol\";\n\ncontract JurRewards is Manageable {\n    event RoleContractUpdated(address contractAddress, string role, bool status);\n    event ActivityCreated(\n        uint256 activityId,\n        uint256 slotCount,\n        uint256 rewardAmount,\n        string name,\n        address[] whitelistContractAddresses\n    );\n    event ActivityUpdated(uint256 activityId, uint256 slotCount, bool newState);\n    event SlotAssigned(\n        uint256 activityId,\n        uint256 slotId,\n        address assignedTo,\n        uint256 createdAt,\n        uint256 dueDate\n    );\n    event SlotUpdated(uint256 activityId, uint256 slotId, string newState);\n    event SlotRewarded(\n        uint256 activityId,\n        uint256 slotId,\n        uint256 rewardAmount\n    );\n\n    enum SlotState {Assigned, Completed, Rewarded, Unassigned, Cancelled}\n\n    struct Activity {\n        uint256 id;\n        string name;\n        uint256 slotCount;\n        uint256 slotAssigned;\n        uint256 rewardAmount;\n        bool isActive;\n        address funder;\n        address[] whiteListedContracts;\n    }\n    struct Slot {\n        uint256 id;\n        uint256 activityId;\n        SlotState state;\n        address assignedTo;\n        uint256 createdAt;\n        uint256 dueDate;\n        uint256 rewardId;\n    }\n    struct Rewards {\n        uint256 activityId;\n        uint256 slotId;\n        uint256 rewardAmount;\n        uint256 rewardedOn;\n    }\n    struct RewardeeStats {\n        uint256 rewardCount;\n        uint256 amountRewarded;\n    }\n    struct RoleContract {\n        string name;\n        bool isActive;\n    }\n\n    IRole private role;\n    /** JUR Token for distribution */\n    IERC20 public jurToken;\n    uint256 public activityCount;\n\n    mapping(address => RoleContract) public whitelistedContracts;\n    mapping(uint256 => Activity) public activities;\n    mapping(uint256 => mapping(uint256 => Slot)) public slots;\n    mapping(address => mapping(uint256 => Rewards)) public rewards;\n    mapping(address => RewardeeStats) public rewardeeStats;\n\n    uint256 public rewardedAmount;\n    uint256 public activityBalance;\n    uint256 public rewardCount;\n    uint256 public REWARD_DELAY = 7 minutes;\n\n    constructor(address _token) public {\n        jurToken = IERC20(_token);\n    }\n\n    /**\n    @notice Whitelist a role contract. Only contracts implementing the IRole interface will be allowed.\n    */\n    function whitelistRoleContract(address _contract, bool _status)\n        public\n        onlyOwner\n    {\n        role = IRole(_contract);\n        require(bytes(role.getRole()).length != 0, \"Not a valid Jur Role\");\n        require(_contract != address(0), \"Not a valid contrat\");\n        whitelistedContracts[_contract] = RoleContract(role.getRole(), _status);\n        emit RoleContractUpdated(_contract, role.getRole(), _status);\n    }\n\n    function addActivity(string memory _name,\n        uint256 _slotCount,\n        uint256 _rewardAmount,\n        address[] memory _roleContracts) public {\n        _addActivity(_name, _slotCount, _rewardAmount, _roleContracts, msg.sender);\n    }\n\n    function addActivityJUR(string memory _name,\n        uint256 _slotCount,\n        uint256 _rewardAmount,\n        address[] memory _roleContracts,\n        address _funder) public {\n        _addActivity(_name, _slotCount, _rewardAmount, _roleContracts, _funder);\n    }\n\n    /**\n    @notice Add a new activity.\n    @param _name Name/Description of the activity.\n    @param _slotCount Maximum number of slots in an activity.\n    @param _rewardAmount Reward amount for one activity.\n    @param _roleContracts Array holding the contract addresses of the Roles contract allowed by the contract.\n    */\n    function _addActivity(\n        string memory _name,\n        uint256 _slotCount,\n        uint256 _rewardAmount,\n        address[] memory _roleContracts,\n        address _funder\n    ) internal onlyManager {\n        for (uint256 i = 0; i < _roleContracts.length; i++) {\n            require(\n                whitelistedContracts[_roleContracts[i]].isActive,\n                \"Role contract is not whitelisted.\"\n            );\n        }\n        require(_slotCount < 50, \"Cannot create more than 50 slots\");\n        require(\n            jurToken.allowance(_funder, address(this)) >=\n                SafeMath.mul(_rewardAmount, _slotCount),\n            \"Approve balance first\"\n        );\n        activities[activityCount] = Activity(\n            activityCount,\n            _name,\n            _slotCount,\n            0,\n            _rewardAmount,\n            true,\n            _funder,\n            _roleContracts\n        );\n        activityBalance = SafeMath.add(\n            activityBalance,\n            SafeMath.mul(_rewardAmount, _slotCount)\n        );\n        require(\n            jurToken.transferFrom(\n                _funder,\n                address(this),\n                SafeMath.mul(_rewardAmount, _slotCount)\n            ),\n            \"Not able to transfer funds.\"\n        );\n        emit ActivityCreated(\n            activityCount,\n            _slotCount,\n            _rewardAmount,\n            _name,\n            _roleContracts\n        );\n        activityCount++;\n    }\n\n    /**\n    @notice Assign a slot.\n    @param _activityId The id of the activity.\n    @param _assignedTo Address of the rewardee.\n    @param _dueDate The due date of the due date.\n    */\n    function assignSlot(\n        uint256 _activityId,\n        address _assignedTo,\n        uint256 _dueDate\n    ) public onlyManager {\n        Activity storage _activity = activities[_activityId];\n        require(_activity.isActive, \"Activity is not active anymore\");\n        require(\n            _activity.slotAssigned < _activity.slotCount,\n            \"All slots are full\"\n        );\n        require(_dueDate > block.timestamp, \"Cannot set a past date\");\n        if (_activity.whiteListedContracts.length > 0) {\n            for (\n                uint256 i = 0;\n                i < _activity.whiteListedContracts.length;\n                i++\n            ) {\n                role = IRole(_activity.whiteListedContracts[i]);\n                require(\n                    role.isUser(_assignedTo),\n                    \"User does not have a whitelisted role\"\n                );\n            }\n        }\n\n        slots[_activityId][_activity.slotAssigned] = Slot(\n            _activity.slotAssigned,\n            _activityId,\n            SlotState.Assigned,\n            _assignedTo,\n            block.timestamp,\n            _dueDate,\n            0\n        );\n        emit SlotAssigned(\n            _activityId,\n            _activity.slotAssigned,\n            _assignedTo,\n            block.timestamp,\n            _dueDate\n        );\n        _activity.slotAssigned++;\n    }\n\n    /**\n    @notice Add new slots.\n    @param _activityId The id of the activity.\n    @param _slotCount The numbe rof new slots to add.\n    */\n    function addSlots(uint256 _activityId, uint256 _slotCount)\n        public\n        onlyManager\n    {\n        Activity storage _activity = activities[_activityId];\n        require(_activity.isActive, \"Activity is not active anymore\");\n        require(\n            jurToken.allowance(msg.sender, address(this)) >=\n                SafeMath.mul(_activity.rewardAmount, _slotCount),\n            \"Approve balance first\"\n        );\n        _activity.slotCount = SafeMath.add(_activity.slotCount, _slotCount);\n        require(\n            jurToken.transferFrom(\n                msg.sender,\n                address(this),\n                SafeMath.mul(_activity.rewardAmount, _slotCount)\n            ),\n            \"Not able to transfer funds.\"\n        );\n        emit ActivityUpdated(_activityId, _activity.slotCount, false);\n    }\n\n    /**\n    @notice Change the state of the activity..\n    @param _activityId The id of the activity.\n    @param _status Address of the rewardee.\n    */\n    function changeActivityState(uint256 _activityId, bool _status)\n        public\n        onlyManager\n    {\n        Activity storage _activity = activities[_activityId];\n        _activity.isActive = _status;\n        emit ActivityUpdated(_activityId, 0, _status);\n    }\n\n    /**\n    @notice Mark a slot complete.\n    @param _activityId The id of the activity.\n    @param _slotId The id of the slot in the activity.\n    */\n    function markSlotComplete(uint256 _activityId, uint256 _slotId) public {\n        Activity storage _activity = activities[_activityId];\n        Slot storage _slot = slots[_activityId][_slotId];\n        RewardeeStats storage _stats = rewardeeStats[_slot.assignedTo];\n        require(\n            isManager(msg.sender) || msg.sender == _slot.assignedTo,\n            \"User not authorized\"\n        );\n        if (isManager(msg.sender)) {\n            require(\n                _slot.state == SlotState.Assigned ||\n                    _slot.state == SlotState.Completed,\n                \"Slot is not in required state\"\n            );\n            _slot.state = SlotState.Rewarded;\n            _slot.rewardId = _stats.rewardCount;\n            rewards[_slot.assignedTo][_stats.rewardCount] = Rewards(\n                _activityId,\n                _slotId,\n                _activity.rewardAmount,\n                block.timestamp\n            );\n            _stats.rewardCount++;\n            rewardCount++;\n            _stats.amountRewarded = SafeMath.add(\n                _stats.amountRewarded,\n                _activity.rewardAmount\n            );\n            rewardedAmount = SafeMath.add(\n                rewardedAmount,\n                _activity.rewardAmount\n            );\n            activityBalance = SafeMath.sub(\n                activityBalance,\n                _activity.rewardAmount\n            );\n            require(\n                jurToken.transfer(_slot.assignedTo, _activity.rewardAmount),\n                \"Not able to transfer funds.\"\n            );\n            emit SlotRewarded(_activityId, _slotId, _activity.rewardAmount);\n        } else if (msg.sender == _slot.assignedTo) {\n            require(_slot.state == SlotState.Assigned, \"Slot is not assigned\");\n            require(\n                block.timestamp > _slot.dueDate,\n                \"Due date has not been realized.\"\n            );\n            _slot.state = SlotState.Completed;\n            emit SlotUpdated(_activityId, _slotId, getSlotState(SlotState.Completed));\n        }\n    }\n\n    /**\n    @notice Cancel a slot.\n    @param _activityId The id of the activity.\n    @param _slotId The id of the slot in the activity.\n    */\n    function cancelSlot(uint256 _activityId, uint256 _slotId)\n        public\n        onlyManager\n    {\n        Activity storage _activity = activities[_activityId];\n        Slot storage _slot = slots[_activityId][_slotId];\n        require(\n            _slot.state != SlotState.Completed &&\n                _slot.state != SlotState.Rewarded,\n            \"Slot is not in the required state\"\n        );\n        _slot.state = SlotState.Cancelled;\n        _slot.assignedTo = address(0);\n        _slot.dueDate = 0;\n        activityBalance = SafeMath.sub(activityBalance, _activity.rewardAmount);\n        require(\n            jurToken.transfer(_activity.funder, _activity.rewardAmount),\n            \"Not able to transfer funds.\"\n        );\n        emit SlotUpdated(_activityId, _slotId, getSlotState(SlotState.Cancelled));\n    }\n\n    /**\n    @notice Unassign a slot.\n    @param _activityId The id of the activity.\n    @param _slotId The id of the slot in the activity.\n    */\n    function unassignSlot(uint256 _activityId, uint256 _slotId)\n        public\n        onlyManager\n    {\n        Activity storage _activity = activities[_activityId];\n        Slot storage _slot = slots[_activityId][_slotId];\n        require(\n            _slot.state != SlotState.Completed &&\n                _slot.state != SlotState.Rewarded,\n            \"Slot is not in the required state\"\n        );\n        _slot.state = SlotState.Unassigned;\n        _slot.assignedTo = address(0);\n        _slot.dueDate = 0;\n        _activity.slotAssigned;\n        emit SlotUpdated(_activityId, _slotId, getSlotState(SlotState.Unassigned));\n    }\n\n    /**\n    @notice Withdraw a slot's reward amount.\n    @param _activityId The id of the activity.\n    @param _slotId The id of the slot in the activity.\n    */\n    function withdrawReward(uint256 _activityId, uint256 _slotId) public {\n        Activity storage _activity = activities[_activityId];\n        Slot storage _slot = slots[_activityId][_slotId];\n        RewardeeStats storage _stats = rewardeeStats[_slot.assignedTo];\n        require(msg.sender == _slot.assignedTo, \"User not authorized\");\n        require(_slot.state == SlotState.Completed, \"Slot is not completed\");\n        require(block.timestamp >= SafeMath.add(_slot.dueDate, REWARD_DELAY));\n        _slot.state = SlotState.Rewarded;\n        _slot.rewardId = _stats.rewardCount;\n        rewards[_slot.assignedTo][_stats.rewardCount] = Rewards(\n            _activityId,\n            _slotId,\n            _activity.rewardAmount,\n            block.timestamp\n        );\n        _stats.rewardCount++;\n        rewardCount++;\n        SafeMath.add(_stats.amountRewarded, _activity.rewardAmount);\n        require(\n            jurToken.transfer(_slot.assignedTo, _activity.rewardAmount),\n            \"Not able to transfer funds.\"\n        );\n        emit SlotRewarded(_activityId, _slotId, _activity.rewardAmount);\n    }\n\n    /**\n    @notice Reassign an unassignedslot.\n    @param _activityId The id of the activity.\n    @param _slotId The id of the slot in the activity.\n    @param _assignedTo The address of the rewardee to assign the slot to.\n    @param _dueDate The due date for the slot.\n    */\n    function reassignSlot(\n        uint256 _activityId,\n        uint256 _slotId,\n        address _assignedTo,\n        uint256 _dueDate\n    ) public onlyManager {\n        Activity storage _activity = activities[_activityId];\n        Slot storage _slot = slots[_activityId][_slotId];\n        require(_activity.isActive, \"Activity is not active anymore\");\n        require(\n            _slot.state == SlotState.Unassigned,\n            \"Slot is not in the required state\"\n        );\n        require(_dueDate > block.timestamp, \"Cannot set a past date\");\n        if (_activity.whiteListedContracts.length > 0) {\n            for (\n                uint256 i = 0;\n                i < _activity.whiteListedContracts.length;\n                i++\n            ) {\n                role = IRole(_activity.whiteListedContracts[i]);\n                require(\n                    role.isUser(_assignedTo),\n                    \"User does not have a whitelisted role\"\n                );\n            }\n        }\n\n        slots[_activityId][_slotId] = Slot(\n            _slotId,\n            _activityId,\n            SlotState.Assigned,\n            _assignedTo,\n            block.timestamp,\n            _dueDate,\n            0\n        );\n        emit SlotAssigned(\n            _activityId,\n            _slotId,\n            _assignedTo,\n            block.timestamp,\n            _dueDate\n        );\n    }\n\n    function canWithdraw(uint256 _activityId, uint256 _slotId)\n        public\n        view\n        returns (bool, uint256)\n    {\n        Slot storage _slot = slots[_activityId][_slotId];\n        uint256 _withdrawAt = SafeMath.add(_slot.dueDate, REWARD_DELAY);\n        if (\n            (_slot.state == SlotState.Assigned ||\n                _slot.state == SlotState.Completed) &&\n            (block.timestamp >= _withdrawAt)\n        ) {\n            return (true, _withdrawAt);\n        } else return (false, _withdrawAt);\n    }\n\n    function getWhitelistedContracts(uint256 _activityId) public view returns(address[] memory) {\n        Activity storage _activity = activities[_activityId];\n        return _activity.whiteListedContracts;\n    }\n\n    function getSlotState(SlotState _state) internal view returns(string memory) {\n        if(_state == SlotState.Assigned) return \"Assigned\";\n        if(_state == SlotState.Completed) return \"Completed\";\n        if(_state == SlotState.Rewarded) return \"Rewarded\";\n        if(_state == SlotState.Unassigned) return \"Unassigned\";\n        if(_state == SlotState.Cancelled) return \"Cancelled\";\n    }\n}\n",
  "sourcePath": "/Users/shuchityagi/Jur/rewards-sc/contracts/JurRewards.sol",
  "compiler": {
    "name": "solc",
    "version": "0.5.17+commit.d19bba13.Emscripten.clang"
  },
  "schemaVersion": "3.2.0",
  "updatedAt": "2020-07-10T09:14:38.466Z",
  "networkType": "ethereum",
  "devdoc": {
    "methods": {
      "addSlots(uint256,uint256)": {
        "params": {
          "_activityId": "The id of the activity.",
          "_slotCount": "The numbe rof new slots to add."
        }
      },
      "assignSlot(uint256,address,uint256)": {
        "params": {
          "_activityId": "The id of the activity.",
          "_assignedTo": "Address of the rewardee.",
          "_dueDate": "The due date of the due date."
        }
      },
      "cancelSlot(uint256,uint256)": {
        "params": {
          "_activityId": "The id of the activity.",
          "_slotId": "The id of the slot in the activity."
        }
      },
      "changeActivityState(uint256,bool)": {
        "params": {
          "_activityId": "The id of the activity.",
          "_status": "Address of the rewardee."
        }
      },
      "isManager(address)": {
        "details": "Returns true if the caller is a manager."
      },
      "isOwner()": {
        "details": "Returns true if the caller is the current owner."
      },
      "markSlotComplete(uint256,uint256)": {
        "params": {
          "_activityId": "The id of the activity.",
          "_slotId": "The id of the slot in the activity."
        }
      },
      "owner()": {
        "details": "Returns the address of the current owner."
      },
      "reassignSlot(uint256,uint256,address,uint256)": {
        "params": {
          "_activityId": "The id of the activity.",
          "_assignedTo": "The address of the rewardee to assign the slot to.",
          "_dueDate": "The due date for the slot.",
          "_slotId": "The id of the slot in the activity."
        }
      },
      "renounceManagership()": {
        "details": "Leaves the contract without manager in case there is only one manager alloted. It will not be possible to call `onlyManager` functions anymore."
      },
      "renounceOwnership()": {
        "details": "Leaves the contract without owner. It will not be possible to call `onlyOwner` functions anymore. Can only be called by the current owner.     * NOTE: Renouncing ownership will leave the contract without an owner, thereby removing any functionality that is only available to the owner."
      },
      "transferOwnership(address)": {
        "details": "Transfers ownership of the contract to a new account (`newOwner`). Can only be called by the current owner."
      },
      "unassignSlot(uint256,uint256)": {
        "params": {
          "_activityId": "The id of the activity.",
          "_slotId": "The id of the slot in the activity."
        }
      },
      "updateManager(address,bool)": {
        "details": "Adds a new manager."
      },
      "withdrawReward(uint256,uint256)": {
        "params": {
          "_activityId": "The id of the activity.",
          "_slotId": "The id of the slot in the activity."
        }
      }
    }
  },
  "userdoc": {
    "methods": {
      "addSlots(uint256,uint256)": {
        "notice": "Add new slots."
      },
      "assignSlot(uint256,address,uint256)": {
        "notice": "Assign a slot."
      },
      "cancelSlot(uint256,uint256)": {
        "notice": "Cancel a slot."
      },
      "changeActivityState(uint256,bool)": {
        "notice": "Change the state of the activity.."
      },
      "markSlotComplete(uint256,uint256)": {
        "notice": "Mark a slot complete."
      },
      "reassignSlot(uint256,uint256,address,uint256)": {
        "notice": "Reassign an unassignedslot."
      },
      "unassignSlot(uint256,uint256)": {
        "notice": "Unassign a slot."
      },
      "whitelistRoleContract(address,bool)": {
        "notice": "Whitelist a role contract. Only contracts implementing the IRole interface will be allowed."
      },
      "withdrawReward(uint256,uint256)": {
        "notice": "Withdraw a slot's reward amount."
      }
    }
  }
}