{
  "contractName": "JURToken",
  "abi": [
    {
      "constant": true,
      "inputs": [],
      "name": "mintingFinished",
      "outputs": [
        {
          "name": "",
          "type": "bool"
        }
      ],
      "payable": false,
      "stateMutability": "view",
      "type": "function"
    },
    {
      "constant": false,
      "inputs": [
        {
          "name": "_spender",
          "type": "address"
        },
        {
          "name": "_value",
          "type": "uint256"
        }
      ],
      "name": "approve",
      "outputs": [
        {
          "name": "",
          "type": "bool"
        }
      ],
      "payable": false,
      "stateMutability": "nonpayable",
      "type": "function"
    },
    {
      "constant": true,
      "inputs": [],
      "name": "totalSupply",
      "outputs": [
        {
          "name": "",
          "type": "uint256"
        }
      ],
      "payable": false,
      "stateMutability": "view",
      "type": "function"
    },
    {
      "constant": false,
      "inputs": [
        {
          "name": "_from",
          "type": "address"
        },
        {
          "name": "_to",
          "type": "address"
        },
        {
          "name": "_value",
          "type": "uint256"
        }
      ],
      "name": "transferFrom",
      "outputs": [
        {
          "name": "",
          "type": "bool"
        }
      ],
      "payable": false,
      "stateMutability": "nonpayable",
      "type": "function"
    },
    {
      "constant": false,
      "inputs": [
        {
          "name": "_to",
          "type": "address"
        },
        {
          "name": "_amount",
          "type": "uint256"
        }
      ],
      "name": "mint",
      "outputs": [
        {
          "name": "",
          "type": "bool"
        }
      ],
      "payable": false,
      "stateMutability": "nonpayable",
      "type": "function"
    },
    {
      "constant": false,
      "inputs": [
        {
          "name": "_spender",
          "type": "address"
        },
        {
          "name": "_subtractedValue",
          "type": "uint256"
        }
      ],
      "name": "decreaseApproval",
      "outputs": [
        {
          "name": "",
          "type": "bool"
        }
      ],
      "payable": false,
      "stateMutability": "nonpayable",
      "type": "function"
    },
    {
      "constant": true,
      "inputs": [
        {
          "name": "_owner",
          "type": "address"
        }
      ],
      "name": "balanceOf",
      "outputs": [
        {
          "name": "",
          "type": "uint256"
        }
      ],
      "payable": false,
      "stateMutability": "view",
      "type": "function"
    },
    {
      "constant": false,
      "inputs": [],
      "name": "renounceOwnership",
      "outputs": [],
      "payable": false,
      "stateMutability": "nonpayable",
      "type": "function"
    },
    {
      "constant": false,
      "inputs": [],
      "name": "finishMinting",
      "outputs": [
        {
          "name": "",
          "type": "bool"
        }
      ],
      "payable": false,
      "stateMutability": "nonpayable",
      "type": "function"
    },
    {
      "constant": true,
      "inputs": [],
      "name": "owner",
      "outputs": [
        {
          "name": "",
          "type": "address"
        }
      ],
      "payable": false,
      "stateMutability": "view",
      "type": "function"
    },
    {
      "constant": false,
      "inputs": [
        {
          "name": "_to",
          "type": "address"
        },
        {
          "name": "_value",
          "type": "uint256"
        }
      ],
      "name": "transfer",
      "outputs": [
        {
          "name": "",
          "type": "bool"
        }
      ],
      "payable": false,
      "stateMutability": "nonpayable",
      "type": "function"
    },
    {
      "constant": false,
      "inputs": [
        {
          "name": "_spender",
          "type": "address"
        },
        {
          "name": "_addedValue",
          "type": "uint256"
        }
      ],
      "name": "increaseApproval",
      "outputs": [
        {
          "name": "",
          "type": "bool"
        }
      ],
      "payable": false,
      "stateMutability": "nonpayable",
      "type": "function"
    },
    {
      "constant": true,
      "inputs": [
        {
          "name": "_owner",
          "type": "address"
        },
        {
          "name": "_spender",
          "type": "address"
        }
      ],
      "name": "allowance",
      "outputs": [
        {
          "name": "",
          "type": "uint256"
        }
      ],
      "payable": false,
      "stateMutability": "view",
      "type": "function"
    },
    {
      "constant": false,
      "inputs": [
        {
          "name": "_newOwner",
          "type": "address"
        }
      ],
      "name": "transferOwnership",
      "outputs": [],
      "payable": false,
      "stateMutability": "nonpayable",
      "type": "function"
    },
    {
      "inputs": [
        {
          "name": "_allowedFunctions",
          "type": "bytes4[]"
        }
      ],
      "payable": false,
      "stateMutability": "nonpayable",
      "type": "constructor"
    },
    {
      "anonymous": false,
      "inputs": [
        {
          "indexed": true,
          "name": "to",
          "type": "address"
        },
        {
          "indexed": false,
          "name": "amount",
          "type": "uint256"
        }
      ],
      "name": "Mint",
      "type": "event"
    },
    {
      "anonymous": false,
      "inputs": [],
      "name": "MintFinished",
      "type": "event"
    },
    {
      "anonymous": false,
      "inputs": [
        {
          "indexed": true,
          "name": "previousOwner",
          "type": "address"
        }
      ],
      "name": "OwnershipRenounced",
      "type": "event"
    },
    {
      "anonymous": false,
      "inputs": [
        {
          "indexed": true,
          "name": "previousOwner",
          "type": "address"
        },
        {
          "indexed": true,
          "name": "newOwner",
          "type": "address"
        }
      ],
      "name": "OwnershipTransferred",
      "type": "event"
    },
    {
      "anonymous": false,
      "inputs": [
        {
          "indexed": true,
          "name": "owner",
          "type": "address"
        },
        {
          "indexed": true,
          "name": "spender",
          "type": "address"
        },
        {
          "indexed": false,
          "name": "value",
          "type": "uint256"
        }
      ],
      "name": "Approval",
      "type": "event"
    },
    {
      "anonymous": false,
      "inputs": [
        {
          "indexed": true,
          "name": "from",
          "type": "address"
        },
        {
          "indexed": true,
          "name": "to",
          "type": "address"
        },
        {
          "indexed": false,
          "name": "value",
          "type": "uint256"
        }
      ],
      "name": "Transfer",
      "type": "event"
    },
    {
      "constant": false,
      "inputs": [
        {
          "name": "_sig",
          "type": "bytes4"
        },
        {
          "name": "_valid",
          "type": "bool"
        }
      ],
      "name": "setAllowedFunction",
      "outputs": [],
      "payable": false,
      "stateMutability": "nonpayable",
      "type": "function"
    },
    {
      "constant": false,
      "inputs": [
        {
          "name": "_spender",
          "type": "address"
        },
        {
          "name": "_value",
          "type": "uint256"
        },
        {
          "name": "_data",
          "type": "bytes"
        }
      ],
      "name": "approveAndCall",
      "outputs": [
        {
          "name": "",
          "type": "bool"
        }
      ],
      "payable": true,
      "stateMutability": "payable",
      "type": "function"
    }
  ],
  "bytecode": "0x60806040526003805460a060020a60ff021916905534801561002057600080fd5b50604051610e4d380380610e4d83398101604052805160038054600160a060020a031916331790550160005b81518160ff1610156100c257600160046000848460ff1681518110151561006f57fe5b6020908102919091018101517fffffffff00000000000000000000000000000000000000000000000000000000168252810191909152604001600020805460ff191691151591909117905560010161004c565b5050610d7a806100d36000396000f3006080604052600436106100cc5763ffffffff60e060020a60003504166305d2035b81146100d1578063095ea7b3146100fa57806318160ddd1461011e57806323b872dd1461014557806340c10f191461016f578063661884631461019357806370a08231146101b7578063715018a6146101d85780637d64bcb4146101ef5780638da5cb5b14610204578063a9059cbb14610235578063c7fdb40b14610259578063cae9ca5114610295578063d73dd623146102f1578063dd62ed3e14610315578063f2fde38b1461033c575b600080fd5b3480156100dd57600080fd5b506100e661035d565b604080519115158252519081900360200190f35b34801561010657600080fd5b506100e6600160a060020a036004351660243561037e565b34801561012a57600080fd5b506101336103e4565b60408051918252519081900360200190f35b34801561015157600080fd5b506100e6600160a060020a03600435811690602435166044356103ea565b34801561017b57600080fd5b506100e6600160a060020a036004351660243561055f565b34801561019f57600080fd5b506100e6600160a060020a036004351660243561067a565b3480156101c357600080fd5b50610133600160a060020a0360043516610769565b3480156101e457600080fd5b506101ed610784565b005b3480156101fb57600080fd5b506100e66107f2565b34801561021057600080fd5b50610219610898565b60408051600160a060020a039092168252519081900360200190f35b34801561024157600080fd5b506100e6600160a060020a03600435166024356108a7565b34801561026557600080fd5b506101ed7bffffffffffffffffffffffffffffffffffffffffffffffffffffffff19600435166024351515610986565b604080516020600460443581810135601f81018490048402850184019095528484526100e6948235600160a060020a03169460248035953695946064949201919081908401838280828437509497506109de9650505050505050565b3480156102fd57600080fd5b506100e6600160a060020a0360043516602435610af6565b34801561032157600080fd5b50610133600160a060020a0360043581169060243516610b8f565b34801561034857600080fd5b506101ed600160a060020a0360043516610bba565b60035474010000000000000000000000000000000000000000900460ff1681565b336000818152600260209081526040808320600160a060020a038716808552908352818420869055815186815291519394909390927f8c5be1e5ebec7d5bd14f71427d1e84f3dd0314c0f7b2291e5b200ac8c7c3b925928290030190a350600192915050565b60015490565b600160a060020a03831660009081526020819052604081205482111561040f57600080fd5b600160a060020a038416600090815260026020908152604080832033845290915290205482111561043f57600080fd5b600160a060020a038316151561045457600080fd5b600160a060020a03841660009081526020819052604090205461047d908363ffffffff610bdd16565b600160a060020a0380861660009081526020819052604080822093909355908516815220546104b2908363ffffffff610bef16565b600160a060020a038085166000908152602081815260408083209490945591871681526002825282812033825290915220546104f4908363ffffffff610bdd16565b600160a060020a03808616600081815260026020908152604080832033845282529182902094909455805186815290519287169391927fddf252ad1be2c89b69c2b068fc378daa952ba7f163c4a11628f55a4df523b3ef929181900390910190a35060019392505050565b600354600090600160a060020a0316331461057957600080fd5b60035474010000000000000000000000000000000000000000900460ff16156105a157600080fd5b6001546105b4908363ffffffff610bef16565b600155600160a060020a0383166000908152602081905260409020546105e0908363ffffffff610bef16565b600160a060020a03841660008181526020818152604091829020939093558051858152905191927f0f6798a560793a54c3bcfe86a93cde1e73087d944c0ea20544137d412139688592918290030190a2604080518381529051600160a060020a038516916000917fddf252ad1be2c89b69c2b068fc378daa952ba7f163c4a11628f55a4df523b3ef9181900360200190a350600192915050565b336000908152600260209081526040808320600160a060020a03861684529091528120548083106106ce57336000908152600260209081526040808320600160a060020a0388168452909152812055610703565b6106de818463ffffffff610bdd16565b336000908152600260209081526040808320600160a060020a03891684529091529020555b336000818152600260209081526040808320600160a060020a0389168085529083529281902054815190815290519293927f8c5be1e5ebec7d5bd14f71427d1e84f3dd0314c0f7b2291e5b200ac8c7c3b925929181900390910190a35060019392505050565b600160a060020a031660009081526020819052604090205490565b600354600160a060020a0316331461079b57600080fd5b600354604051600160a060020a03909116907ff8df31144d9c2f0f6b59d69b8b98abd5459d07f2742c4df920b25aae33c6482090600090a26003805473ffffffffffffffffffffffffffffffffffffffff19169055565b600354600090600160a060020a0316331461080c57600080fd5b60035474010000000000000000000000000000000000000000900460ff161561083457600080fd5b6003805474ff00000000000000000000000000000000000000001916740100000000000000000000000000000000000000001790556040517fae5184fba832cb2b1f702aca6117b8d265eaf03ad33eb133f19dde0f5920fa0890600090a150600190565b600354600160a060020a031681565b336000908152602081905260408120548211156108c357600080fd5b600160a060020a03831615156108d857600080fd5b336000908152602081905260409020546108f8908363ffffffff610bdd16565b3360009081526020819052604080822092909255600160a060020a0385168152205461092a908363ffffffff610bef16565b600160a060020a038416600081815260208181526040918290209390935580518581529051919233927fddf252ad1be2c89b69c2b068fc378daa952ba7f163c4a11628f55a4df523b3ef9281900390910190a350600192915050565b600354600160a060020a0316331461099d57600080fd5b7bffffffffffffffffffffffffffffffffffffffffffffffffffffffff19919091166000908152600460205260409020805460ff1916911515919091179055565b6000600160a060020a0384163014156109f657600080fd5b60046000610a0384610c02565b7bffffffffffffffffffffffffffffffffffffffffffffffffffffffff1916815260208101919091526040016000205460ff161515610a4157600080fd5b33610a4b83610c83565b600160a060020a031614610a5e57600080fd5b610a68848461037e565b5083600160a060020a0316348360405180828051906020019080838360005b83811015610a9f578181015183820152602001610a87565b50505050905090810190601f168015610acc5780820380516001836020036101000a031916815260200191505b5091505060006040518083038185875af1925050501515610aec57600080fd5b5060019392505050565b336000908152600260209081526040808320600160a060020a0386168452909152812054610b2a908363ffffffff610bef16565b336000818152600260209081526040808320600160a060020a0389168085529083529281902085905580519485525191937f8c5be1e5ebec7d5bd14f71427d1e84f3dd0314c0f7b2291e5b200ac8c7c3b925929081900390910190a350600192915050565b600160a060020a03918216600090815260026020908152604080832093909416825291909152205490565b600354600160a060020a03163314610bd157600080fd5b610bda81610cd0565b50565b600082821115610be957fe5b50900390565b81810182811015610bfc57fe5b92915050565b60008060006004845110610c17576004610c1a565b83515b9150600090505b81811015610c7c5780600183030360080260020a8482815181101515610c4357fe5b90602001015160f860020a900460f860020a0260f860020a9004028360e060020a90040160e060020a0292508080600101915050610c21565b5050919050565b60008060235b600f8114610cc9578060230360020260100a8482815181101515610ca957fe5b016020015160f860020a9081900481020402919091019060001901610c89565b5092915050565b600160a060020a0381161515610ce557600080fd5b600354604051600160a060020a038084169216907f8be0079c531659141344cd1fd0a4f28419497f9722a3daafe3b4186f6b6457e090600090a36003805473ffffffffffffffffffffffffffffffffffffffff1916600160a060020a03929092169190911790555600a165627a7a72305820eb62f397fd5fbd8f584d531c2e75fd3dbcf8837d19bb200c7a639ebf1e7f59560029",
  "source": "pragma solidity ^0.4.23;\n\n\nimport \"openzeppelin-solidity/contracts/token/ERC20/MintableToken.sol\";\n\ncontract JURToken is MintableToken {\n\n  mapping (bytes4 => bool) allowedFunctions;\n\n\n  /**\n   * @dev Constructor\n   * @param _allowedFunctions List of functions which are allowed with approve and call\n   */\n  constructor(bytes4[] _allowedFunctions) public {\n    for (uint8 i = 0; i < _allowedFunctions.length; i++) {\n      allowedFunctions[_allowedFunctions[i]] = true;\n    }\n  }\n\n  /**\n   * @dev Adds / removes functions from list of functions which are allowed with approve and call\n   * @param _sig Signature of function to add / remove\n   * @param _valid Whether the function should be added or removed\n   */\n  function setAllowedFunction(bytes4 _sig, bool _valid) onlyOwner public {\n    allowedFunctions[_sig] = _valid;\n  }\n\n  // The first 4 bytes of msg.data are the method name. The next 32 bytes are\n  // the 20 bytes of address padded to bytes32. From this 36 bytes of data, we\n  // start from the end (the LSB) and work back towwards the 16th byte (ie we\n  // ignore the first 4 bytes AND the zero padding) creating a uint that can be\n  // converted to an address.\n\n  /**\n   * @notice Adds / removes functions from list of functions which are allowed with approve and call\n   * @param _data List of functions which are allowed with approve and call\n   */\n  function getAddr(bytes _data) internal pure returns(address) {\n    uint result = 0;\n    for (uint i = 35; i != 15; --i) {\n      result += uint(_data[i]) * (16 ** ((35 - i) * 2));\n    }\n    return address(result);\n  }\n\n  /**\n   * @notice Returns function signature from msg.data\n   * @param _data msg.data from which to calculate function signature\n   */\n  function getSig(bytes _data) internal pure returns(bytes4 sig) {\n      uint len = _data.length < 4 ? _data.length : 4;\n      for (uint i = 0; i < len; i++) {\n          sig = bytes4(uint(sig) + uint(_data[i]) * (2 ** (8 * (len - 1 - i))));\n      }\n  }\n\n  /**\n   * @dev Addition to ERC20 token methods. It allows to\n   * @dev approve the transfer of value and execute a call with the sent data.   *\n   *\n   * @param _spender The address that will spend the funds.\n   * @param _value The amount of tokens to be spent.\n   * @param _data ABI-encoded contract call to call `_to` address.\n   *\n   * @return true if the call function was executed successfully\n   */\n  function approveAndCall(address _spender, uint256 _value, bytes _data) public payable returns (bool) {\n    require(_spender != address(this));\n    // Only allow explicitely approved functions to be called\n    require(allowedFunctions[getSig(_data)]);\n    // First argument must be senders address\n    require(getAddr(_data) == msg.sender);\n\n    super.approve(_spender, _value);\n\n    // solium-disable-next-line security/no-call-value\n    require(_spender.call.value(msg.value)(_data));\n\n    return true;\n  }\n\n}\n",
  "sourcePath": "/Users/marcomarasco/Sites/dev/jur-drizzle-box/contracts/JURToken.sol",
  "compiler": {
    "name": "solc",
    "version": "0.4.25+commit.59dbf8f1.Emscripten.clang"
  },
  "schemaVersion": "2.0.2",
  "updatedAt": "2019-02-15T09:07:32.260Z"
}