{
  "contractName": "JURToken",
  "abi": [
    {
      "constant": true,
      "inputs": [],
      "name": "mintingFinished",
      "outputs": [
        {
          "name": "",
          "type": "bool"
        }
      ],
      "payable": false,
      "stateMutability": "view",
      "type": "function"
    },
    {
      "constant": false,
      "inputs": [
        {
          "name": "_spender",
          "type": "address"
        },
        {
          "name": "_value",
          "type": "uint256"
        }
      ],
      "name": "approve",
      "outputs": [
        {
          "name": "",
          "type": "bool"
        }
      ],
      "payable": false,
      "stateMutability": "nonpayable",
      "type": "function"
    },
    {
      "constant": true,
      "inputs": [],
      "name": "totalSupply",
      "outputs": [
        {
          "name": "",
          "type": "uint256"
        }
      ],
      "payable": false,
      "stateMutability": "view",
      "type": "function"
    },
    {
      "constant": false,
      "inputs": [
        {
          "name": "_from",
          "type": "address"
        },
        {
          "name": "_to",
          "type": "address"
        },
        {
          "name": "_value",
          "type": "uint256"
        }
      ],
      "name": "transferFrom",
      "outputs": [
        {
          "name": "",
          "type": "bool"
        }
      ],
      "payable": false,
      "stateMutability": "nonpayable",
      "type": "function"
    },
    {
      "constant": true,
      "inputs": [],
      "name": "decimals",
      "outputs": [
        {
          "name": "",
          "type": "uint8"
        }
      ],
      "payable": false,
      "stateMutability": "view",
      "type": "function"
    },
    {
      "constant": false,
      "inputs": [
        {
          "name": "_to",
          "type": "address"
        },
        {
          "name": "_amount",
          "type": "uint256"
        }
      ],
      "name": "mint",
      "outputs": [
        {
          "name": "",
          "type": "bool"
        }
      ],
      "payable": false,
      "stateMutability": "nonpayable",
      "type": "function"
    },
    {
      "constant": false,
      "inputs": [
        {
          "name": "_spender",
          "type": "address"
        },
        {
          "name": "_subtractedValue",
          "type": "uint256"
        }
      ],
      "name": "decreaseApproval",
      "outputs": [
        {
          "name": "",
          "type": "bool"
        }
      ],
      "payable": false,
      "stateMutability": "nonpayable",
      "type": "function"
    },
    {
      "constant": true,
      "inputs": [
        {
          "name": "_owner",
          "type": "address"
        }
      ],
      "name": "balanceOf",
      "outputs": [
        {
          "name": "",
          "type": "uint256"
        }
      ],
      "payable": false,
      "stateMutability": "view",
      "type": "function"
    },
    {
      "constant": false,
      "inputs": [],
      "name": "renounceOwnership",
      "outputs": [],
      "payable": false,
      "stateMutability": "nonpayable",
      "type": "function"
    },
    {
      "constant": false,
      "inputs": [],
      "name": "finishMinting",
      "outputs": [
        {
          "name": "",
          "type": "bool"
        }
      ],
      "payable": false,
      "stateMutability": "nonpayable",
      "type": "function"
    },
    {
      "constant": true,
      "inputs": [],
      "name": "owner",
      "outputs": [
        {
          "name": "",
          "type": "address"
        }
      ],
      "payable": false,
      "stateMutability": "view",
      "type": "function"
    },
    {
      "constant": true,
      "inputs": [],
      "name": "symbol",
      "outputs": [
        {
          "name": "",
          "type": "string"
        }
      ],
      "payable": false,
      "stateMutability": "view",
      "type": "function"
    },
    {
      "constant": false,
      "inputs": [
        {
          "name": "_to",
          "type": "address"
        },
        {
          "name": "_value",
          "type": "uint256"
        }
      ],
      "name": "transfer",
      "outputs": [
        {
          "name": "",
          "type": "bool"
        }
      ],
      "payable": false,
      "stateMutability": "nonpayable",
      "type": "function"
    },
    {
      "constant": false,
      "inputs": [
        {
          "name": "_spender",
          "type": "address"
        },
        {
          "name": "_addedValue",
          "type": "uint256"
        }
      ],
      "name": "increaseApproval",
      "outputs": [
        {
          "name": "",
          "type": "bool"
        }
      ],
      "payable": false,
      "stateMutability": "nonpayable",
      "type": "function"
    },
    {
      "constant": true,
      "inputs": [
        {
          "name": "_owner",
          "type": "address"
        },
        {
          "name": "_spender",
          "type": "address"
        }
      ],
      "name": "allowance",
      "outputs": [
        {
          "name": "",
          "type": "uint256"
        }
      ],
      "payable": false,
      "stateMutability": "view",
      "type": "function"
    },
    {
      "constant": false,
      "inputs": [
        {
          "name": "_newOwner",
          "type": "address"
        }
      ],
      "name": "transferOwnership",
      "outputs": [],
      "payable": false,
      "stateMutability": "nonpayable",
      "type": "function"
    },
    {
      "inputs": [
        {
          "name": "_allowedFunctions",
          "type": "bytes4[]"
        }
      ],
      "payable": false,
      "stateMutability": "nonpayable",
      "type": "constructor"
    },
    {
      "anonymous": false,
      "inputs": [
        {
          "indexed": true,
          "name": "to",
          "type": "address"
        },
        {
          "indexed": false,
          "name": "amount",
          "type": "uint256"
        }
      ],
      "name": "Mint",
      "type": "event"
    },
    {
      "anonymous": false,
      "inputs": [],
      "name": "MintFinished",
      "type": "event"
    },
    {
      "anonymous": false,
      "inputs": [
        {
          "indexed": true,
          "name": "previousOwner",
          "type": "address"
        }
      ],
      "name": "OwnershipRenounced",
      "type": "event"
    },
    {
      "anonymous": false,
      "inputs": [
        {
          "indexed": true,
          "name": "previousOwner",
          "type": "address"
        },
        {
          "indexed": true,
          "name": "newOwner",
          "type": "address"
        }
      ],
      "name": "OwnershipTransferred",
      "type": "event"
    },
    {
      "anonymous": false,
      "inputs": [
        {
          "indexed": true,
          "name": "owner",
          "type": "address"
        },
        {
          "indexed": true,
          "name": "spender",
          "type": "address"
        },
        {
          "indexed": false,
          "name": "value",
          "type": "uint256"
        }
      ],
      "name": "Approval",
      "type": "event"
    },
    {
      "anonymous": false,
      "inputs": [
        {
          "indexed": true,
          "name": "from",
          "type": "address"
        },
        {
          "indexed": true,
          "name": "to",
          "type": "address"
        },
        {
          "indexed": false,
          "name": "value",
          "type": "uint256"
        }
      ],
      "name": "Transfer",
      "type": "event"
    },
    {
      "constant": false,
      "inputs": [
        {
          "name": "_sig",
          "type": "bytes4"
        },
        {
          "name": "_valid",
          "type": "bool"
        }
      ],
      "name": "setAllowedFunction",
      "outputs": [],
      "payable": false,
      "stateMutability": "nonpayable",
      "type": "function"
    },
    {
      "constant": false,
      "inputs": [
        {
          "name": "_spender",
          "type": "address"
        },
        {
          "name": "_value",
          "type": "uint256"
        },
        {
          "name": "_data",
          "type": "bytes"
        }
      ],
      "name": "approveAndCall",
      "outputs": [
        {
          "name": "",
          "type": "bool"
        }
      ],
      "payable": true,
      "stateMutability": "payable",
      "type": "function"
    }
  ],
  "bytecode": "0x60806040526003805460a060020a60ff021916905534801561002057600080fd5b50604051610f59380380610f5983398101604052805160038054600160a060020a031916331790550160005b81518160ff1610156100c257600160046000848460ff1681518110151561006f57fe5b6020908102919091018101517fffffffff00000000000000000000000000000000000000000000000000000000168252810191909152604001600020805460ff191691151591909117905560010161004c565b5050610e86806100d36000396000f3006080604052600436106100e25763ffffffff60e060020a60003504166305d2035b81146100e7578063095ea7b31461011057806318160ddd1461013457806323b872dd1461015b578063313ce5671461018557806340c10f19146101b057806366188463146101d457806370a08231146101f8578063715018a6146102195780637d64bcb4146102305780638da5cb5b1461024557806395d89b4114610276578063a9059cbb14610300578063c7fdb40b14610324578063cae9ca5114610360578063d73dd623146103bc578063dd62ed3e146103e0578063f2fde38b14610407575b600080fd5b3480156100f357600080fd5b506100fc610428565b604080519115158252519081900360200190f35b34801561011c57600080fd5b506100fc600160a060020a0360043516602435610449565b34801561014057600080fd5b506101496104af565b60408051918252519081900360200190f35b34801561016757600080fd5b506100fc600160a060020a03600435811690602435166044356104b5565b34801561019157600080fd5b5061019a61062c565b6040805160ff9092168252519081900360200190f35b3480156101bc57600080fd5b506100fc600160a060020a0360043516602435610631565b3480156101e057600080fd5b506100fc600160a060020a036004351660243561074c565b34801561020457600080fd5b50610149600160a060020a036004351661083c565b34801561022557600080fd5b5061022e610857565b005b34801561023c57600080fd5b506100fc6108c5565b34801561025157600080fd5b5061025a61096b565b60408051600160a060020a039092168252519081900360200190f35b34801561028257600080fd5b5061028b61097a565b6040805160208082528351818301528351919283929083019185019080838360005b838110156102c55781810151838201526020016102ad565b50505050905090810190601f1680156102f25780820380516001836020036101000a031916815260200191505b509250505060405180910390f35b34801561030c57600080fd5b506100fc600160a060020a03600435166024356109b1565b34801561033057600080fd5b5061022e7bffffffffffffffffffffffffffffffffffffffffffffffffffffffff19600435166024351515610a92565b604080516020600460443581810135601f81018490048402850184019095528484526100fc948235600160a060020a0316946024803595369594606494920191908190840183828082843750949750610aea9650505050505050565b3480156103c857600080fd5b506100fc600160a060020a0360043516602435610c02565b3480156103ec57600080fd5b50610149600160a060020a0360043581169060243516610c9b565b34801561041357600080fd5b5061022e600160a060020a0360043516610cc6565b60035474010000000000000000000000000000000000000000900460ff1681565b336000818152600260209081526040808320600160a060020a038716808552908352818420869055815186815291519394909390927f8c5be1e5ebec7d5bd14f71427d1e84f3dd0314c0f7b2291e5b200ac8c7c3b925928290030190a350600192915050565b60015490565b6000600160a060020a03831615156104cc57600080fd5b600160a060020a0384166000908152602081905260409020548211156104f157600080fd5b600160a060020a038416600090815260026020908152604080832033845290915290205482111561052157600080fd5b600160a060020a03841660009081526020819052604090205461054a908363ffffffff610ce916565b600160a060020a03808616600090815260208190526040808220939093559085168152205461057f908363ffffffff610cfb16565b600160a060020a038085166000908152602081815260408083209490945591871681526002825282812033825290915220546105c1908363ffffffff610ce916565b600160a060020a03808616600081815260026020908152604080832033845282529182902094909455805186815290519287169391927fddf252ad1be2c89b69c2b068fc378daa952ba7f163c4a11628f55a4df523b3ef929181900390910190a35060019392505050565b601281565b600354600090600160a060020a0316331461064b57600080fd5b60035474010000000000000000000000000000000000000000900460ff161561067357600080fd5b600154610686908363ffffffff610cfb16565b600155600160a060020a0383166000908152602081905260409020546106b2908363ffffffff610cfb16565b600160a060020a03841660008181526020818152604091829020939093558051858152905191927f0f6798a560793a54c3bcfe86a93cde1e73087d944c0ea20544137d412139688592918290030190a2604080518381529051600160a060020a038516916000917fddf252ad1be2c89b69c2b068fc378daa952ba7f163c4a11628f55a4df523b3ef9181900360200190a350600192915050565b336000908152600260209081526040808320600160a060020a0386168452909152812054808311156107a157336000908152600260209081526040808320600160a060020a03881684529091528120556107d6565b6107b1818463ffffffff610ce916565b336000908152600260209081526040808320600160a060020a03891684529091529020555b336000818152600260209081526040808320600160a060020a0389168085529083529281902054815190815290519293927f8c5be1e5ebec7d5bd14f71427d1e84f3dd0314c0f7b2291e5b200ac8c7c3b925929181900390910190a35060019392505050565b600160a060020a031660009081526020819052604090205490565b600354600160a060020a0316331461086e57600080fd5b600354604051600160a060020a03909116907ff8df31144d9c2f0f6b59d69b8b98abd5459d07f2742c4df920b25aae33c6482090600090a26003805473ffffffffffffffffffffffffffffffffffffffff19169055565b600354600090600160a060020a031633146108df57600080fd5b60035474010000000000000000000000000000000000000000900460ff161561090757600080fd5b6003805474ff00000000000000000000000000000000000000001916740100000000000000000000000000000000000000001790556040517fae5184fba832cb2b1f702aca6117b8d265eaf03ad33eb133f19dde0f5920fa0890600090a150600190565b600354600160a060020a031681565b60408051808201909152600381527f4a55520000000000000000000000000000000000000000000000000000000000602082015281565b6000600160a060020a03831615156109c857600080fd5b336000908152602081905260409020548211156109e457600080fd5b33600090815260208190526040902054610a04908363ffffffff610ce916565b3360009081526020819052604080822092909255600160a060020a03851681522054610a36908363ffffffff610cfb16565b600160a060020a038416600081815260208181526040918290209390935580518581529051919233927fddf252ad1be2c89b69c2b068fc378daa952ba7f163c4a11628f55a4df523b3ef9281900390910190a350600192915050565b600354600160a060020a03163314610aa957600080fd5b7bffffffffffffffffffffffffffffffffffffffffffffffffffffffff19919091166000908152600460205260409020805460ff1916911515919091179055565b6000600160a060020a038416301415610b0257600080fd5b60046000610b0f84610d0e565b7bffffffffffffffffffffffffffffffffffffffffffffffffffffffff1916815260208101919091526040016000205460ff161515610b4d57600080fd5b33610b5783610d8f565b600160a060020a031614610b6a57600080fd5b610b748484610449565b5083600160a060020a0316348360405180828051906020019080838360005b83811015610bab578181015183820152602001610b93565b50505050905090810190601f168015610bd85780820380516001836020036101000a031916815260200191505b5091505060006040518083038185875af1925050501515610bf857600080fd5b5060019392505050565b336000908152600260209081526040808320600160a060020a0386168452909152812054610c36908363ffffffff610cfb16565b336000818152600260209081526040808320600160a060020a0389168085529083529281902085905580519485525191937f8c5be1e5ebec7d5bd14f71427d1e84f3dd0314c0f7b2291e5b200ac8c7c3b925929081900390910190a350600192915050565b600160a060020a03918216600090815260026020908152604080832093909416825291909152205490565b600354600160a060020a03163314610cdd57600080fd5b610ce681610ddc565b50565b600082821115610cf557fe5b50900390565b81810182811015610d0857fe5b92915050565b60008060006004845110610d23576004610d26565b83515b9150600090505b81811015610d885780600183030360080260020a8482815181101515610d4f57fe5b90602001015160f860020a900460f860020a0260f860020a9004028360e060020a90040160e060020a0292508080600101915050610d2d565b5050919050565b60008060235b600f8114610dd5578060230360020260100a8482815181101515610db557fe5b016020015160f860020a9081900481020402919091019060001901610d95565b5092915050565b600160a060020a0381161515610df157600080fd5b600354604051600160a060020a038084169216907f8be0079c531659141344cd1fd0a4f28419497f9722a3daafe3b4186f6b6457e090600090a36003805473ffffffffffffffffffffffffffffffffffffffff1916600160a060020a03929092169190911790555600a165627a7a7230582055792f6e18c42b5ae388648707070de6f5cf56547887ac969c41fca1c43b06e10029",
  "source": "pragma solidity ^0.4.23;\n\n\nimport \"openzeppelin-solidity/contracts/token/ERC20/MintableToken.sol\";\n\ncontract JURToken is MintableToken {\n\n  mapping (bytes4 => bool) allowedFunctions;\n\n  string public constant symbol = \"JUR\";\n  uint8 public constant decimals = 18;\n\n  /**\n   * @dev Constructor\n   * @param _allowedFunctions List of functions which are allowed with approve and call\n   */\n  constructor(bytes4[] _allowedFunctions) public {\n    for (uint8 i = 0; i < _allowedFunctions.length; i++) {\n      allowedFunctions[_allowedFunctions[i]] = true;\n    }\n  }\n\n  /**\n   * @dev Adds / removes functions from list of functions which are allowed with approve and call\n   * @param _sig Signature of function to add / remove\n   * @param _valid Whether the function should be added or removed\n   */\n  function setAllowedFunction(bytes4 _sig, bool _valid) onlyOwner public {\n    allowedFunctions[_sig] = _valid;\n  }\n\n  // The first 4 bytes of msg.data are the method name. The next 32 bytes are\n  // the 20 bytes of address padded to bytes32. From this 36 bytes of data, we\n  // start from the end (the LSB) and work back towwards the 16th byte (ie we\n  // ignore the first 4 bytes AND the zero padding) creating a uint that can be\n  // converted to an address.\n\n  /**\n   * @notice Adds / removes functions from list of functions which are allowed with approve and call\n   * @param _data List of functions which are allowed with approve and call\n   */\n  function getAddr(bytes _data) internal pure returns(address) {\n    uint result = 0;\n    for (uint i = 35; i != 15; --i) {\n      result += uint(_data[i]) * (16 ** ((35 - i) * 2));\n    }\n    return address(result);\n  }\n\n  /**\n   * @notice Returns function signature from msg.data\n   * @param _data msg.data from which to calculate function signature\n   */\n  function getSig(bytes _data) internal pure returns(bytes4 sig) {\n      uint len = _data.length < 4 ? _data.length : 4;\n      for (uint i = 0; i < len; i++) {\n          sig = bytes4(uint(sig) + uint(_data[i]) * (2 ** (8 * (len - 1 - i))));\n      }\n  }\n\n  /**\n   * @dev Addition to ERC20 token methods. It allows to\n   * @dev approve the transfer of value and execute a call with the sent data.   *\n   *\n   * @param _spender The address that will spend the funds.\n   * @param _value The amount of tokens to be spent.\n   * @param _data ABI-encoded contract call to call `_to` address.\n   *\n   * @return true if the call function was executed successfully\n   */\n  function approveAndCall(address _spender, uint256 _value, bytes _data) public payable returns (bool) {\n    require(_spender != address(this));\n    // Only allow explicitely approved functions to be called\n    require(allowedFunctions[getSig(_data)]);\n    // First argument must be senders address\n    require(getAddr(_data) == msg.sender);\n\n    super.approve(_spender, _value);\n\n    // solium-disable-next-line security/no-call-value\n    require(_spender.call.value(msg.value)(_data));\n\n    return true;\n  }\n\n}\n",
  "sourcePath": "/Users/marcomarasco/Sites/dev/jur-mvp/protocol/contracts/JURToken.sol",
  "compiler": {
    "name": "solc",
    "version": "0.4.25+commit.59dbf8f1.Emscripten.clang"
  },
  "schemaVersion": "2.0.2",
  "updatedAt": "2019-04-14T10:03:04.991Z"
}