{
    "contractName": "OathKeeper",
    "abi": [
        {
            "inputs": [
                {
                    "internalType": "address",
                    "name": "_jurToken",
                    "type": "address"
                }
            ],
            "payable": false,
            "stateMutability": "nonpayable",
            "type": "constructor"
        },
        {
            "anonymous": false,
            "inputs": [
                {
                    "indexed": true,
                    "internalType": "address",
                    "name": "_beneficiary",
                    "type": "address"
                },
                {
                    "indexed": true,
                    "internalType": "uint256",
                    "name": "_amount",
                    "type": "uint256"
                },
                {
                    "indexed": true,
                    "internalType": "uint256",
                    "name": "_oathIndex",
                    "type": "uint256"
                }
            ],
            "name": "IHoldYourOathFulfilled",
            "type": "event"
        },
        {
            "anonymous": false,
            "inputs": [
                {
                    "indexed": true,
                    "internalType": "address",
                    "name": "_beneficiary",
                    "type": "address"
                },
                {
                    "indexed": true,
                    "internalType": "uint256",
                    "name": "_amount",
                    "type": "uint256"
                },
                {
                    "indexed": true,
                    "internalType": "uint256",
                    "name": "_lockInPeriod",
                    "type": "uint256"
                },
                {
                    "indexed": false,
                    "internalType": "uint256",
                    "name": "_startAt",
                    "type": "uint256"
                },
                {
                    "indexed": false,
                    "internalType": "uint256",
                    "name": "_releaseAt",
                    "type": "uint256"
                },
                {
                    "indexed": false,
                    "internalType": "uint256",
                    "name": "_oathIndex",
                    "type": "uint256"
                }
            ],
            "name": "OathTaken",
            "type": "event"
        },
        {
            "anonymous": false,
            "inputs": [
                {
                    "indexed": true,
                    "internalType": "address",
                    "name": "previousOwner",
                    "type": "address"
                },
                {
                    "indexed": true,
                    "internalType": "address",
                    "name": "newOwner",
                    "type": "address"
                }
            ],
            "name": "OwnershipTransferred",
            "type": "event"
        },
        {
            "constant": true,
            "inputs": [],
            "name": "isOwner",
            "outputs": [
                {
                    "internalType": "bool",
                    "name": "",
                    "type": "bool"
                }
            ],
            "payable": false,
            "stateMutability": "view",
            "type": "function"
        },
        {
            "constant": true,
            "inputs": [],
            "name": "jurToken",
            "outputs": [
                {
                    "internalType": "contract IERC20",
                    "name": "",
                    "type": "address"
                }
            ],
            "payable": false,
            "stateMutability": "view",
            "type": "function"
        },
        {
            "constant": true,
            "inputs": [
                {
                    "internalType": "address",
                    "name": "",
                    "type": "address"
                },
                {
                    "internalType": "uint256",
                    "name": "",
                    "type": "uint256"
                }
            ],
            "name": "lockMap",
            "outputs": [
                {
                    "internalType": "uint256",
                    "name": "amount",
                    "type": "uint256"
                },
                {
                    "internalType": "uint256",
                    "name": "startAt",
                    "type": "uint256"
                },
                {
                    "internalType": "uint256",
                    "name": "releaseAt",
                    "type": "uint256"
                },
                {
                    "internalType": "uint256",
                    "name": "lockInPeriod",
                    "type": "uint256"
                },
                {
                    "internalType": "bool",
                    "name": "isOathFulfilled",
                    "type": "bool"
                }
            ],
            "payable": false,
            "stateMutability": "view",
            "type": "function"
        },
        {
            "constant": true,
            "inputs": [],
            "name": "maximumLockPeriod",
            "outputs": [
                {
                    "internalType": "uint256",
                    "name": "",
                    "type": "uint256"
                }
            ],
            "payable": false,
            "stateMutability": "view",
            "type": "function"
        },
        {
            "constant": true,
            "inputs": [],
            "name": "minimumLockAmount",
            "outputs": [
                {
                    "internalType": "uint256",
                    "name": "",
                    "type": "uint256"
                }
            ],
            "payable": false,
            "stateMutability": "view",
            "type": "function"
        },
        {
            "constant": true,
            "inputs": [],
            "name": "minimumLockPeriod",
            "outputs": [
                {
                    "internalType": "uint256",
                    "name": "",
                    "type": "uint256"
                }
            ],
            "payable": false,
            "stateMutability": "view",
            "type": "function"
        },
        {
            "constant": true,
            "inputs": [
                {
                    "internalType": "address",
                    "name": "",
                    "type": "address"
                }
            ],
            "name": "oathStats",
            "outputs": [
                {
                    "internalType": "uint256",
                    "name": "count",
                    "type": "uint256"
                },
                {
                    "internalType": "uint256",
                    "name": "totalAmountLocked",
                    "type": "uint256"
                }
            ],
            "payable": false,
            "stateMutability": "view",
            "type": "function"
        },
        {
            "constant": true,
            "inputs": [],
            "name": "owner",
            "outputs": [
                {
                    "internalType": "address",
                    "name": "",
                    "type": "address"
                }
            ],
            "payable": false,
            "stateMutability": "view",
            "type": "function"
        },
        {
            "constant": false,
            "inputs": [],
            "name": "renounceOwnership",
            "outputs": [],
            "payable": false,
            "stateMutability": "nonpayable",
            "type": "function"
        },
        {
            "constant": true,
            "inputs": [],
            "name": "totalLockedTokens",
            "outputs": [
                {
                    "internalType": "uint256",
                    "name": "",
                    "type": "uint256"
                }
            ],
            "payable": false,
            "stateMutability": "view",
            "type": "function"
        },
        {
            "constant": true,
            "inputs": [],
            "name": "totalOathCount",
            "outputs": [
                {
                    "internalType": "uint256",
                    "name": "",
                    "type": "uint256"
                }
            ],
            "payable": false,
            "stateMutability": "view",
            "type": "function"
        },
        {
            "constant": false,
            "inputs": [
                {
                    "internalType": "address",
                    "name": "newOwner",
                    "type": "address"
                }
            ],
            "name": "transferOwnership",
            "outputs": [],
            "payable": false,
            "stateMutability": "nonpayable",
            "type": "function"
        },
        {
            "constant": false,
            "inputs": [
                {
                    "internalType": "uint256",
                    "name": "_lockInPeriod",
                    "type": "uint256"
                }
            ],
            "name": "takeAnOath",
            "outputs": [],
            "payable": false,
            "stateMutability": "nonpayable",
            "type": "function"
        },
        {
            "constant": false,
            "inputs": [
                {
                    "internalType": "uint256",
                    "name": "_lockInPeriod",
                    "type": "uint256"
                },
                {
                    "internalType": "address",
                    "name": "_oathTaker",
                    "type": "address"
                }
            ],
            "name": "takeAnOathJUR",
            "outputs": [],
            "payable": false,
            "stateMutability": "nonpayable",
            "type": "function"
        },
        {
            "constant": false,
            "inputs": [
                {
                    "internalType": "uint256",
                    "name": "_oathIndex",
                    "type": "uint256"
                }
            ],
            "name": "releaseOath",
            "outputs": [],
            "payable": false,
            "stateMutability": "nonpayable",
            "type": "function"
        },
        {
            "constant": false,
            "inputs": [
                {
                    "internalType": "uint256",
                    "name": "_minimumLockPeriod",
                    "type": "uint256"
                },
                {
                    "internalType": "uint256",
                    "name": "_maximumLockPeriod",
                    "type": "uint256"
                }
            ],
            "name": "updateLockPeriod",
            "outputs": [],
            "payable": false,
            "stateMutability": "nonpayable",
            "type": "function"
        }
    ],
    "bytecode": "0x608060405260016006556024600755662386f26fc1000060085534801561002557600080fd5b50604051610d74380380610d748339818101604052602081101561004857600080fd5b505161005b6001600160e01b036100c816565b600080546001600160a01b0319166001600160a01b03928316178082556040519216917f8be0079c531659141344cd1fd0a4f28419497f9722a3daafe3b4186f6b6457e0908290a3600380546001600160a01b0319166001600160a01b03929092169190911790556100cc565b3390565b610c99806100db6000396000f3fe608060405234801561001057600080fd5b50600436106101005760003560e01c80638f32d59b11610097578063e876d4ea11610066578063e876d4ea14610249578063f2fde38b14610251578063f44ab83d14610277578063f5c476f9146102d057610100565b80638f32d59b146101d6578063a1d19251146101f2578063bce558e21461021e578063d73a84e91461022657610100565b8063715018a6116100d3578063715018a61461017f5780637a64e695146101875780638ccf3cd4146101c65780638da5cb5b146101ce57610100565b8063067558cc1461010557806309d8d7851461012457806344f53c01146101415780635f068b431461015b575b600080fd5b6101226004803603602081101561011b57600080fd5b50356102d8565b005b6101226004803603602081101561013a57600080fd5b50356104bd565b6101496104ca565b60408051918252519081900360200190f35b6101636104d0565b604080516001600160a01b039092168252519081900360200190f35b6101226104df565b6101ad6004803603602081101561019d57600080fd5b50356001600160a01b031661058f565b6040805192835260208301919091528051918290030190f35b6101496105a8565b6101636105ae565b6101de6105bd565b604080519115158252519081900360200190f35b6101226004803603604081101561020857600080fd5b50803590602001356001600160a01b03166105e1565b6101496105ef565b6101226004803603604081101561023c57600080fd5b50803590602001356105f5565b6101496106be565b6101226004803603602081101561026757600080fd5b50356001600160a01b03166106c4565b6102a36004803603604081101561028d57600080fd5b506001600160a01b038135169060200135610726565b60408051958652602086019490945284840192909252606084015215156080830152519081900360a00190f35b61014961075f565b3360009081526001602090815260408083208484529091529020600281015442101561034b576040805162461bcd60e51b815260206004820152601c60248201527f596f7520617265207374696c6c20756e64657220616e206f6174682e00000000604482015290519081900360640190fd5b600481015460ff16156103a5576040805162461bcd60e51b815260206004820152601860248201527f4f61746820686173206265656e2066756c66696c6c65642e0000000000000000604482015290519081900360640190fd5b6004808201805460ff1916600117905560035482546040805163a9059cbb60e01b815233948101949094526024840191909152516001600160a01b039091169163a9059cbb9160448083019260209291908290030181600087803b15801561040c57600080fd5b505af1158015610420573d6000803e3d6000fd5b505050506040513d602081101561043657600080fd5b5051610489576040805162461bcd60e51b815260206004820152601b60248201527f46756e64732063616e6e6f74206265207472616e736665727265640000000000604482015290519081900360640190fd5b805460405183919033907f44ed93092749fd3db80b4b201ac16d43e486a15f44a35054235a0ac47662f6c890600090a45050565b6104c78133610765565b50565b60085481565b6003546001600160a01b031681565b6104e76105bd565b610538576040805162461bcd60e51b815260206004820181905260248201527f4f776e61626c653a2063616c6c6572206973206e6f7420746865206f776e6572604482015290519081900360640190fd5b600080546040516001600160a01b03909116907f8be0079c531659141344cd1fd0a4f28419497f9722a3daafe3b4186f6b6457e0908390a36000805473ffffffffffffffffffffffffffffffffffffffff19169055565b6002602052600090815260409020805460019091015482565b60075481565b6000546001600160a01b031690565b600080546001600160a01b03166105d2610ac2565b6001600160a01b031614905090565b6105eb8282610765565b5050565b60055481565b6105fd6105bd565b61064e576040805162461bcd60e51b815260206004820181905260248201527f4f776e61626c653a2063616c6c6572206973206e6f7420746865206f776e6572604482015290519081900360640190fd5b811561065a5760068290555b80156106665760078190555b600754600654106105eb576040805162461bcd60e51b815260206004820152601760248201527f536f6d657468696e67206973206e6f742072696768742e000000000000000000604482015290519081900360640190fd5b60065481565b6106cc6105bd565b61071d576040805162461bcd60e51b815260206004820181905260248201527f4f776e61626c653a2063616c6c6572206973206e6f7420746865206f776e6572604482015290519081900360640190fd5b6104c781610ac6565b60016020818152600093845260408085209091529183529120805491810154600282015460038301546004909301549192909160ff1685565b60045481565b60035460408051636eb1769f60e11b81526001600160a01b03848116600483015230602483015291516000938493169163dd62ed3e916044808301926020929190829003018186803b1580156107ba57600080fd5b505afa1580156107ce573d6000803e3d6000fd5b505050506040513d60208110156107e457600080fd5b505160085490915081101561082a5760405162461bcd60e51b815260040180806020018281038252602e815260200180610c37602e913960400191505060405180910390fd5b600654841015801561083e57506007548411155b6108795760405162461bcd60e51b8152600401808060200182810382526025815260200180610c126025913960400191505060405180910390fd5b6001600160a01b03831660009081526002602052604090205461089d906001610b73565b6001600160a01b0384166000908152600260205260409020908155600101546108c69082610b73565b6001600160a01b0384166000908152600260205260409020600101556004546108ef9082610b73565b600455600554610900906001610b73565b60055561090d4285610bd6565b6040805160a081018252838152426020808301918252828401858152606084018a81526000608086018181526001600160a01b038c811680845260018088528a85206002808a528c87205487529089528b86209a518b559851908a0155945196880196909655915160038088019190915591516004968701805460ff1916911515919091179055905486516323b872dd60e01b815295860192909252306024860152604485018890529451959750909116936323b872dd936064808501948390030190829087803b1580156109e157600080fd5b505af11580156109f5573d6000803e3d6000fd5b505050506040513d6020811015610a0b57600080fd5b5051610a5e576040805162461bcd60e51b815260206004820152601b60248201527f4e6f742061626c6520746f207472616e736665722066756e64732e0000000000604482015290519081900360640190fd5b6001600160a01b0383166000818152600260209081526040918290205482514281529182018690528183015290518692849290917fc9576bbf4faff0f7d33d723792c1aa1535f287a578bcc84e2c15343b901c7e8e9181900360600190a450505050565b3390565b6001600160a01b038116610b0b5760405162461bcd60e51b8152600401808060200182810382526026815260200180610bec6026913960400191505060405180910390fd5b600080546040516001600160a01b03808516939216917f8be0079c531659141344cd1fd0a4f28419497f9722a3daafe3b4186f6b6457e091a36000805473ffffffffffffffffffffffffffffffffffffffff19166001600160a01b0392909216919091179055565b600082820183811015610bcd576040805162461bcd60e51b815260206004820152601b60248201527f536166654d6174683a206164646974696f6e206f766572666c6f770000000000604482015290519081900360640190fd5b90505b92915050565b620151808102820182811015610bd057600080fdfe4f776e61626c653a206e6577206f776e657220697320746865207a65726f2061646472657373506c656173652063686f6f736520612076616c6964206c6f636b20696e20706572696f642e506c6561736520617070726f766520746f6b656e207472616e7366657220746f2074686520636f6e74726163742ea265627a7a72315820287cb401e9a553cbfc3efba5dff56be9f5c9a8a7f2ee0becc9cdc2d8586e317c64736f6c63430005110032",
    "source": "pragma solidity >=0.5.0 <0.7.0;\n\nimport \"@openzeppelin/contracts/token/ERC20/IERC20.sol\";\nimport \"@openzeppelin/contracts/math/SafeMath.sol\";\nimport \"@openzeppelin/contracts/ownership/Ownable.sol\";\nimport \"./utils/DateTimeLib.sol\";\n\ncontract OathKeeper is Ownable {\n    using SafeMath for uint;\n    using DateTimeLib for uint;\n\n    struct LockSchedule {\n        uint256 amount;\n        uint256 startAt;\n        uint256 releaseAt;\n        uint256 lockInPeriod;\n        bool isOathFulfilled;\n    }\n\n    struct Oaths {\n        uint256 count;\n        // uint256 activeAmountLocked;\n        uint256 totalAmountLocked;\n    }\n    /** Each address can have multiple funds locked under different schedules */\n    mapping(address => mapping(uint => LockSchedule)) public lockMap;\n    /** The overall oath stats related to each address */\n    mapping(address => Oaths) public oathStats;\n    /** JUR Token for distribution */\n    IERC20 public jurToken;\n    /** Stats on oaths in the contract overall */\n    uint256 public totalLockedTokens;\n    // uint256 public totalActiveLockedTokens;\n    uint256 public totalOathCount;\n    // uint256 public totalActiveOathCount;\n\n    uint256 public minimumLockPeriod = 1;\n    uint256 public maximumLockPeriod = 36;\n    uint256 public minimumLockAmount = 10000000000000000;\n\n    event OathTaken(address indexed _beneficiary, uint indexed _amount, uint indexed _lockInPeriod, uint _startAt, uint _releaseAt, uint _oathIndex);\n    event IHoldYourOathFulfilled(address indexed _beneficiary, uint indexed _amount, uint indexed _oathIndex);\n\n    /**\n    @param _jurToken - Address of the JUR token contract which will be used for transferring the\n    tokens.\n    */\n    constructor(address _jurToken) public {\n        jurToken = IERC20(_jurToken);\n    }\n\n    /**\n    @dev takeAnOath - Any JUR token holder can use this function to lock their tokens for a certain\n    time period.\n    @param _lockInPeriod - Number of months to lock the token for.\n    */\n    function takeAnOath(uint _lockInPeriod) public {\n        _takeAnOath(_lockInPeriod, msg.sender);\n    }\n\n    /**\n    @dev takeAnOath - Used for taking an oath as an `allowed` function in JUR Token.\n    @param _lockInPeriod - Number of months to lock the token for.\n    @param _oathTaker - Address of th oath taker.\n    */\n    function takeAnOathJUR(uint _lockInPeriod, address _oathTaker) public {\n        _takeAnOath(_lockInPeriod, _oathTaker);\n    }\n\n    function _takeAnOath(uint _lockInPeriod, address _oathTaker) internal {\n        uint _releaseAt;\n        uint256 _amount = jurToken.allowance(_oathTaker, address(this));\n        require(_amount >= minimumLockAmount, \"Please approve token transfer to the contract.\");\n        require(_lockInPeriod >= minimumLockPeriod && _lockInPeriod <= maximumLockPeriod, \"Please choose a valid lock in period.\");\n        oathStats[_oathTaker].count = SafeMath.add(oathStats[_oathTaker].count, 1);\n        // oathStats[_oathTaker].activeAmountLocked = SafeMath.add(oathStats[_oathTaker].activeAmountLocked, _amount);\n        oathStats[_oathTaker].totalAmountLocked = SafeMath.add(oathStats[_oathTaker].totalAmountLocked, _amount);\n        totalLockedTokens = SafeMath.add(totalLockedTokens, _amount);\n        // totalActiveLockedTokens = SafeMath.add(totalActiveLockedTokens, _amount);\n        totalOathCount = SafeMath.add(totalOathCount, 1);\n        // totalActiveOathCount = SafeMath.add(totalActiveOathCount, 1);\n\n        _releaseAt = DateTimeLib.addDays(now, _lockInPeriod);\n        lockMap[_oathTaker][oathStats[_oathTaker].count] = LockSchedule(_amount, now, _releaseAt, _lockInPeriod, false);\n        // check if tokens can be transferred to this contract.\n        require(jurToken.transferFrom(_oathTaker, address(this), _amount), \"Not able to transfer funds.\");\n\n        emit OathTaken(_oathTaker, _amount, _lockInPeriod, now, _releaseAt, oathStats[_oathTaker].count);\n    }\n\n    /**\n    @dev releaseOath() - Release tokens as per vesting schedule, called by the owner.\n    */\n    function releaseOath(uint _oathIndex) public {\n        LockSchedule storage _lockSchedule = lockMap[msg.sender][_oathIndex];\n\n        require(now >= _lockSchedule.releaseAt, \"You are still under an oath.\");\n        require(!_lockSchedule.isOathFulfilled, \"Oath has been fulfilled.\");\n\n        _lockSchedule.isOathFulfilled = true;\n        // update overall stats\n        // oathStats[msg.sender].activeAmountLocked = SafeMath.sub(oathStats[msg.sender].activeAmountLocked, _lockSchedule.amount);\n        // totalActiveLockedTokens = SafeMath.sub(totalActiveLockedTokens, _lockSchedule.amount);\n        // totalActiveOathCount = SafeMath.sub(totalActiveOathCount, 1);\n\n        require(jurToken.transfer(msg.sender, _lockSchedule.amount), \"Funds cannot be transferred\");\n        emit IHoldYourOathFulfilled(msg.sender, _lockSchedule.amount, _oathIndex);\n    }\n\n    /**\n    @dev updateLockPeriod() - Function for owner to update the lockin period requirements.\n    */\n    function updateLockPeriod(uint _minimumLockPeriod, uint _maximumLockPeriod) public onlyOwner {\n        if(_minimumLockPeriod != 0) {\n            minimumLockPeriod = _minimumLockPeriod;\n        } if(_maximumLockPeriod != 0) {\n            maximumLockPeriod = _maximumLockPeriod;\n        }\n        require(minimumLockPeriod < maximumLockPeriod, \"Something is not right.\");\n    }\n\n    /**\n    @dev renege() - A public function which can be called by the owner to provide flexibility\n    with the release date.\n    @param _promisee - Address of the oath holder.\n    @param _newRelease - uint timestamp of the new release date and time.\n    */\n    // function renege(address _promisee, uint _newRelease) public onlyOwner {\n    //     LockSchedule storage _lockSchedule = lockMap[msg.sender];\n\n    //     require(now < _lockSchedule.releaseAt, \"Oath is over\");\n    //     _lockSchedule.releaseAt = _newRelease;\n\n    //     emit ABrokenOath(_promisee, _newRelease);\n    // }\n\n}",
    "sourcePath": "/Users/shuchityagi/Jur/oath-keeper-smart-contract/contracts/OathKeeper.sol",
    "compiler": {
        "name": "solc",
        "version": "0.5.17+commit.d19bba13.Emscripten.clang"
    },
    "schemaVersion": "3.0.23",
    "updatedAt": "2020-06-03T07:32:46.243Z",
    "networkType": "ethereum",
    "devdoc": {
        "methods": {
            "constructor": {
                "params": {
                    "_jurToken": "- Address of the JUR token contract which will be used for transferring the tokens."
                }
            },
            "isOwner()": {
                "details": "Returns true if the caller is the current owner."
            },
            "owner()": {
                "details": "Returns the address of the current owner."
            },
            "releaseOath(uint256)": {
                "details": "releaseOath() - Release tokens as per vesting schedule, called by the owner."
            },
            "renounceOwnership()": {
                "details": "Leaves the contract without owner. It will not be possible to call `onlyOwner` functions anymore. Can only be called by the current owner.     * NOTE: Renouncing ownership will leave the contract without an owner, thereby removing any functionality that is only available to the owner."
            },
            "takeAnOath(uint256)": {
                "details": "takeAnOath - Any JUR token holder can use this function to lock their tokens for a certain time period.",
                "params": {
                    "_lockInPeriod": "- Number of months to lock the token for."
                }
            },
            "takeAnOathJUR(uint256,address)": {
                "details": "takeAnOath - Used for taking an oath as an `allowed` function in JUR Token.",
                "params": {
                    "_lockInPeriod": "- Number of months to lock the token for.",
                    "_oathTaker": "- Address of th oath taker."
                }
            },
            "transferOwnership(address)": {
                "details": "Transfers ownership of the contract to a new account (`newOwner`). Can only be called by the current owner."
            },
            "updateLockPeriod(uint256,uint256)": {
                "details": "updateLockPeriod() - Function for owner to update the lockin period requirements."
            }
        }
    },
    "userdoc": {
        "methods": {}
    }
}